{
  "_format": "hh-sol-artifact-1",
  "contractName": "SovranWealthFundMinimal",
  "sourceName": "contracts/SovranWealthFundMinimal.sol",
  "abi": [
    {
      "inputs": [],
      "stateMutability": "nonpayable",
      "type": "constructor"
    },
    {
      "inputs": [
        {
          "internalType": "address",
          "name": "spender",
          "type": "address"
        },
        {
          "internalType": "uint256",
          "name": "allowance",
          "type": "uint256"
        },
        {
          "internalType": "uint256",
          "name": "needed",
          "type": "uint256"
        }
      ],
      "name": "ERC20InsufficientAllowance",
      "type": "error"
    },
    {
      "inputs": [
        {
          "internalType": "address",
          "name": "sender",
          "type": "address"
        },
        {
          "internalType": "uint256",
          "name": "balance",
          "type": "uint256"
        },
        {
          "internalType": "uint256",
          "name": "needed",
          "type": "uint256"
        }
      ],
      "name": "ERC20InsufficientBalance",
      "type": "error"
    },
    {
      "inputs": [
        {
          "internalType": "address",
          "name": "approver",
          "type": "address"
        }
      ],
      "name": "ERC20InvalidApprover",
      "type": "error"
    },
    {
      "inputs": [
        {
          "internalType": "address",
          "name": "receiver",
          "type": "address"
        }
      ],
      "name": "ERC20InvalidReceiver",
      "type": "error"
    },
    {
      "inputs": [
        {
          "internalType": "address",
          "name": "sender",
          "type": "address"
        }
      ],
      "name": "ERC20InvalidSender",
      "type": "error"
    },
    {
      "inputs": [
        {
          "internalType": "address",
          "name": "spender",
          "type": "address"
        }
      ],
      "name": "ERC20InvalidSpender",
      "type": "error"
    },
    {
      "inputs": [
        {
          "internalType": "address",
          "name": "owner",
          "type": "address"
        }
      ],
      "name": "OwnableInvalidOwner",
      "type": "error"
    },
    {
      "inputs": [
        {
          "internalType": "address",
          "name": "account",
          "type": "address"
        }
      ],
      "name": "OwnableUnauthorizedAccount",
      "type": "error"
    },
    {
      "anonymous": false,
      "inputs": [
        {
          "indexed": true,
          "internalType": "address",
          "name": "owner",
          "type": "address"
        },
        {
          "indexed": true,
          "internalType": "address",
          "name": "spender",
          "type": "address"
        },
        {
          "indexed": false,
          "internalType": "uint256",
          "name": "value",
          "type": "uint256"
        }
      ],
      "name": "Approval",
      "type": "event"
    },
    {
      "anonymous": false,
      "inputs": [
        {
          "indexed": true,
          "internalType": "address",
          "name": "previousOwner",
          "type": "address"
        },
        {
          "indexed": true,
          "internalType": "address",
          "name": "newOwner",
          "type": "address"
        }
      ],
      "name": "OwnershipTransferred",
      "type": "event"
    },
    {
      "anonymous": false,
      "inputs": [
        {
          "indexed": true,
          "internalType": "address",
          "name": "from",
          "type": "address"
        },
        {
          "indexed": true,
          "internalType": "address",
          "name": "to",
          "type": "address"
        },
        {
          "indexed": false,
          "internalType": "uint256",
          "name": "value",
          "type": "uint256"
        }
      ],
      "name": "Transfer",
      "type": "event"
    },
    {
      "inputs": [
        {
          "internalType": "address",
          "name": "owner",
          "type": "address"
        },
        {
          "internalType": "address",
          "name": "spender",
          "type": "address"
        }
      ],
      "name": "allowance",
      "outputs": [
        {
          "internalType": "uint256",
          "name": "",
          "type": "uint256"
        }
      ],
      "stateMutability": "view",
      "type": "function"
    },
    {
      "inputs": [
        {
          "internalType": "address",
          "name": "spender",
          "type": "address"
        },
        {
          "internalType": "uint256",
          "name": "value",
          "type": "uint256"
        }
      ],
      "name": "approve",
      "outputs": [
        {
          "internalType": "bool",
          "name": "",
          "type": "bool"
        }
      ],
      "stateMutability": "nonpayable",
      "type": "function"
    },
    {
      "inputs": [
        {
          "internalType": "address",
          "name": "account",
          "type": "address"
        }
      ],
      "name": "balanceOf",
      "outputs": [
        {
          "internalType": "uint256",
          "name": "",
          "type": "uint256"
        }
      ],
      "stateMutability": "view",
      "type": "function"
    },
    {
      "inputs": [
        {
          "internalType": "uint256",
          "name": "amount",
          "type": "uint256"
        }
      ],
      "name": "burn",
      "outputs": [],
      "stateMutability": "nonpayable",
      "type": "function"
    },
    {
      "inputs": [],
      "name": "decimals",
      "outputs": [
        {
          "internalType": "uint8",
          "name": "",
          "type": "uint8"
        }
      ],
      "stateMutability": "view",
      "type": "function"
    },
    {
      "inputs": [
        {
          "internalType": "address",
          "name": "to",
          "type": "address"
        },
        {
          "internalType": "uint256",
          "name": "amount",
          "type": "uint256"
        }
      ],
      "name": "mint",
      "outputs": [],
      "stateMutability": "nonpayable",
      "type": "function"
    },
    {
      "inputs": [],
      "name": "name",
      "outputs": [
        {
          "internalType": "string",
          "name": "",
          "type": "string"
        }
      ],
      "stateMutability": "view",
      "type": "function"
    },
    {
      "inputs": [],
      "name": "owner",
      "outputs": [
        {
          "internalType": "address",
          "name": "",
          "type": "address"
        }
      ],
      "stateMutability": "view",
      "type": "function"
    },
    {
      "inputs": [],
      "name": "renounceOwnership",
      "outputs": [],
      "stateMutability": "nonpayable",
      "type": "function"
    },
    {
      "inputs": [],
      "name": "symbol",
      "outputs": [
        {
          "internalType": "string",
          "name": "",
          "type": "string"
        }
      ],
      "stateMutability": "view",
      "type": "function"
    },
    {
      "inputs": [],
      "name": "totalSupply",
      "outputs": [
        {
          "internalType": "uint256",
          "name": "",
          "type": "uint256"
        }
      ],
      "stateMutability": "view",
      "type": "function"
    },
    {
      "inputs": [
        {
          "internalType": "address",
          "name": "to",
          "type": "address"
        },
        {
          "internalType": "uint256",
          "name": "value",
          "type": "uint256"
        }
      ],
      "name": "transfer",
      "outputs": [
        {
          "internalType": "bool",
          "name": "",
          "type": "bool"
        }
      ],
      "stateMutability": "nonpayable",
      "type": "function"
    },
    {
      "inputs": [
        {
          "internalType": "address",
          "name": "from",
          "type": "address"
        },
        {
          "internalType": "address",
          "name": "to",
          "type": "address"
        },
        {
          "internalType": "uint256",
          "name": "value",
          "type": "uint256"
        }
      ],
      "name": "transferFrom",
      "outputs": [
        {
          "internalType": "bool",
          "name": "",
          "type": "bool"
        }
      ],
      "stateMutability": "nonpayable",
      "type": "function"
    },
    {
      "inputs": [
        {
          "internalType": "address",
          "name": "newOwner",
          "type": "address"
        }
      ],
      "name": "transferOwnership",
      "outputs": [],
      "stateMutability": "nonpayable",
      "type": "function"
    },
    {
      "inputs": [],
      "name": "treasury",
      "outputs": [
        {
          "internalType": "address",
          "name": "",
          "type": "address"
        }
      ],
      "stateMutability": "view",
      "type": "function"
    }
  ],
  "bytecode": "0x60806040523480156200001157600080fd5b50336040518060400160405280601281526020017f536f7672616e205765616c74682046756e6400000000000000000000000000008152506040518060400160405280600381526020017f53574600000000000000000000000000000000000000000000000000000000008152508160039081620000909190620004c7565b508060049081620000a29190620004c7565b505050600073ffffffffffffffffffffffffffffffffffffffff168173ffffffffffffffffffffffffffffffffffffffff16036200011a5760006040517f1e4fbdf7000000000000000000000000000000000000000000000000000000008152600401620001119190620005f3565b60405180910390fd5b6200012b816200018760201b60201c565b507326a8401287ce33cc4aeb5a106cd6d282a92cf51d600660006101000a81548173ffffffffffffffffffffffffffffffffffffffff021916908373ffffffffffffffffffffffffffffffffffffffff16021790555062000610565b6000600560009054906101000a900473ffffffffffffffffffffffffffffffffffffffff16905081600560006101000a81548173ffffffffffffffffffffffffffffffffffffffff021916908373ffffffffffffffffffffffffffffffffffffffff1602179055508173ffffffffffffffffffffffffffffffffffffffff168173ffffffffffffffffffffffffffffffffffffffff167f8be0079c531659141344cd1fd0a4f28419497f9722a3daafe3b4186f6b6457e060405160405180910390a35050565b600081519050919050565b7f4e487b7100000000000000000000000000000000000000000000000000000000600052604160045260246000fd5b7f4e487b7100000000000000000000000000000000000000000000000000000000600052602260045260246000fd5b60006002820490506001821680620002cf57607f821691505b602082108103620002e557620002e462000287565b5b50919050565b60008190508160005260206000209050919050565b60006020601f8301049050919050565b600082821b905092915050565b6000600883026200034f7fffffffffffffffffffffffffffffffffffffffffffffffffffffffffffffffff8262000310565b6200035b868362000310565b95508019841693508086168417925050509392505050565b6000819050919050565b6000819050919050565b6000620003a8620003a26200039c8462000373565b6200037d565b62000373565b9050919050565b6000819050919050565b620003c48362000387565b620003dc620003d382620003af565b8484546200031d565b825550505050565b600090565b620003f3620003e4565b62000400818484620003b9565b505050565b5b8181101562000428576200041c600082620003e9565b60018101905062000406565b5050565b601f82111562000477576200044181620002eb565b6200044c8462000300565b810160208510156200045c578190505b620004746200046b8562000300565b83018262000405565b50505b505050565b600082821c905092915050565b60006200049c600019846008026200047c565b1980831691505092915050565b6000620004b7838362000489565b9150826002028217905092915050565b620004d2826200024d565b67ffffffffffffffff811115620004ee57620004ed62000258565b5b620004fa8254620002b6565b620005078282856200042c565b600060209050601f8311600181146200053f57600084156200052a578287015190505b620005368582620004a9565b865550620005a6565b601f1984166200054f86620002eb565b60005b82811015620005795784890151825560018201915060208501945060208101905062000552565b8683101562000599578489015162000595601f89168262000489565b8355505b6001600288020188555050505b505050505050565b600073ffffffffffffffffffffffffffffffffffffffff82169050919050565b6000620005db82620005ae565b9050919050565b620005ed81620005ce565b82525050565b60006020820190506200060a6000830184620005e2565b92915050565b61140e80620006206000396000f3fe608060405234801561001057600080fd5b50600436106100f55760003560e01c806361d027b31161009757806395d89b411161006657806395d89b4114610262578063a9059cbb14610280578063dd62ed3e146102b0578063f2fde38b146102e0576100f5565b806361d027b3146101ec57806370a082311461020a578063715018a61461023a5780638da5cb5b14610244576100f5565b806323b872dd116100d357806323b872dd14610166578063313ce5671461019657806340c10f19146101b457806342966c68146101d0576100f5565b806306fdde03146100fa578063095ea7b31461011857806318160ddd14610148575b600080fd5b6101026102fc565b60405161010f9190610fc9565b60405180910390f35b610132600480360381019061012d9190611084565b61038e565b60405161013f91906110df565b60405180910390f35b6101506103b1565b60405161015d9190611109565b60405180910390f35b610180600480360381019061017b9190611124565b6103bb565b60405161018d91906110df565b60405180910390f35b61019e6103ea565b6040516101ab9190611193565b60405180910390f35b6101ce60048036038101906101c99190611084565b6103f3565b005b6101ea60048036038101906101e591906111ae565b6104ce565b005b6101f46104db565b60405161020191906111ea565b60405180910390f35b610224600480360381019061021f9190611205565b610501565b6040516102319190611109565b60405180910390f35b610242610549565b005b61024c61055d565b60405161025991906111ea565b60405180910390f35b61026a610587565b6040516102779190610fc9565b60405180910390f35b61029a60048036038101906102959190611084565b610619565b6040516102a791906110df565b60405180910390f35b6102ca60048036038101906102c59190611232565b61063c565b6040516102d79190611109565b60405180910390f35b6102fa60048036038101906102f59190611205565b6106c3565b005b60606003805461030b906112a1565b80601f0160208091040260200160405190810160405280929190818152602001828054610337906112a1565b80156103845780601f1061035957610100808354040283529160200191610384565b820191906000526020600020905b81548152906001019060200180831161036757829003601f168201915b5050505050905090565b600080610399610749565b90506103a6818585610751565b600191505092915050565b6000600254905090565b6000806103c6610749565b90506103d3858285610763565b6103de8585856107f8565b60019150509392505050565b60006012905090565b6103fb61055d565b73ffffffffffffffffffffffffffffffffffffffff163373ffffffffffffffffffffffffffffffffffffffff1614806104815750600660009054906101000a900473ffffffffffffffffffffffffffffffffffffffff1673ffffffffffffffffffffffffffffffffffffffff163373ffffffffffffffffffffffffffffffffffffffff16145b6104c0576040517f08c379a00000000000000000000000000000000000000000000000000000000081526004016104b79061131e565b60405180910390fd5b6104ca82826108ec565b5050565b6104d8338261096e565b50565b600660009054906101000a900473ffffffffffffffffffffffffffffffffffffffff1681565b60008060008373ffffffffffffffffffffffffffffffffffffffff1673ffffffffffffffffffffffffffffffffffffffff168152602001908152602001600020549050919050565b6105516109f0565b61055b6000610a77565b565b6000600560009054906101000a900473ffffffffffffffffffffffffffffffffffffffff16905090565b606060048054610596906112a1565b80601f01602080910402602001604051908101604052809291908181526020018280546105c2906112a1565b801561060f5780601f106105e45761010080835404028352916020019161060f565b820191906000526020600020905b8154815290600101906020018083116105f257829003601f168201915b5050505050905090565b600080610624610749565b90506106318185856107f8565b600191505092915050565b6000600160008473ffffffffffffffffffffffffffffffffffffffff1673ffffffffffffffffffffffffffffffffffffffff16815260200190815260200160002060008373ffffffffffffffffffffffffffffffffffffffff1673ffffffffffffffffffffffffffffffffffffffff16815260200190815260200160002054905092915050565b6106cb6109f0565b600073ffffffffffffffffffffffffffffffffffffffff168173ffffffffffffffffffffffffffffffffffffffff160361073d5760006040517f1e4fbdf700000000000000000000000000000000000000000000000000000000815260040161073491906111ea565b60405180910390fd5b61074681610a77565b50565b600033905090565b61075e8383836001610b3d565b505050565b600061076f848461063c565b90507fffffffffffffffffffffffffffffffffffffffffffffffffffffffffffffffff8110156107f257818110156107e2578281836040517ffb8f41b20000000000000000000000000000000000000000000000000000000081526004016107d99392919061133e565b60405180910390fd5b6107f184848484036000610b3d565b5b50505050565b600073ffffffffffffffffffffffffffffffffffffffff168373ffffffffffffffffffffffffffffffffffffffff160361086a5760006040517f96c6fd1e00000000000000000000000000000000000000000000000000000000815260040161086191906111ea565b60405180910390fd5b600073ffffffffffffffffffffffffffffffffffffffff168273ffffffffffffffffffffffffffffffffffffffff16036108dc5760006040517fec442f050000000000000000000000000000000000000000000000000000000081526004016108d391906111ea565b60405180910390fd5b6108e7838383610d14565b505050565b600073ffffffffffffffffffffffffffffffffffffffff168273ffffffffffffffffffffffffffffffffffffffff160361095e5760006040517fec442f0500000000000000000000000000000000000000000000000000000000815260040161095591906111ea565b60405180910390fd5b61096a60008383610d14565b5050565b600073ffffffffffffffffffffffffffffffffffffffff168273ffffffffffffffffffffffffffffffffffffffff16036109e05760006040517f96c6fd1e0000000000000000000000000000000000000000000000000000000081526004016109d791906111ea565b60405180910390fd5b6109ec82600083610d14565b5050565b6109f8610749565b73ffffffffffffffffffffffffffffffffffffffff16610a1661055d565b73ffffffffffffffffffffffffffffffffffffffff1614610a7557610a39610749565b6040517f118cdaa7000000000000000000000000000000000000000000000000000000008152600401610a6c91906111ea565b60405180910390fd5b565b6000600560009054906101000a900473ffffffffffffffffffffffffffffffffffffffff16905081600560006101000a81548173ffffffffffffffffffffffffffffffffffffffff021916908373ffffffffffffffffffffffffffffffffffffffff1602179055508173ffffffffffffffffffffffffffffffffffffffff168173ffffffffffffffffffffffffffffffffffffffff167f8be0079c531659141344cd1fd0a4f28419497f9722a3daafe3b4186f6b6457e060405160405180910390a35050565b600073ffffffffffffffffffffffffffffffffffffffff168473ffffffffffffffffffffffffffffffffffffffff1603610baf5760006040517fe602df05000000000000000000000000000000000000000000000000000000008152600401610ba691906111ea565b60405180910390fd5b600073ffffffffffffffffffffffffffffffffffffffff168373ffffffffffffffffffffffffffffffffffffffff1603610c215760006040517f94280d62000000000000000000000000000000000000000000000000000000008152600401610c1891906111ea565b60405180910390fd5b81600160008673ffffffffffffffffffffffffffffffffffffffff1673ffffffffffffffffffffffffffffffffffffffff16815260200190815260200160002060008573ffffffffffffffffffffffffffffffffffffffff1673ffffffffffffffffffffffffffffffffffffffff168152602001908152602001600020819055508015610d0e578273ffffffffffffffffffffffffffffffffffffffff168473ffffffffffffffffffffffffffffffffffffffff167f8c5be1e5ebec7d5bd14f71427d1e84f3dd0314c0f7b2291e5b200ac8c7c3b92584604051610d059190611109565b60405180910390a35b50505050565b600073ffffffffffffffffffffffffffffffffffffffff168373ffffffffffffffffffffffffffffffffffffffff1603610d66578060026000828254610d5a91906113a4565b92505081905550610e39565b60008060008573ffffffffffffffffffffffffffffffffffffffff1673ffffffffffffffffffffffffffffffffffffffff16815260200190815260200160002054905081811015610df2578381836040517fe450d38c000000000000000000000000000000000000000000000000000000008152600401610de99392919061133e565b60405180910390fd5b8181036000808673ffffffffffffffffffffffffffffffffffffffff1673ffffffffffffffffffffffffffffffffffffffff16815260200190815260200160002081905550505b600073ffffffffffffffffffffffffffffffffffffffff168273ffffffffffffffffffffffffffffffffffffffff1603610e825780600260008282540392505081905550610ecf565b806000808473ffffffffffffffffffffffffffffffffffffffff1673ffffffffffffffffffffffffffffffffffffffff168152602001908152602001600020600082825401925050819055505b8173ffffffffffffffffffffffffffffffffffffffff168373ffffffffffffffffffffffffffffffffffffffff167fddf252ad1be2c89b69c2b068fc378daa952ba7f163c4a11628f55a4df523b3ef83604051610f2c9190611109565b60405180910390a3505050565b600081519050919050565b600082825260208201905092915050565b60005b83811015610f73578082015181840152602081019050610f58565b60008484015250505050565b6000601f19601f8301169050919050565b6000610f9b82610f39565b610fa58185610f44565b9350610fb5818560208601610f55565b610fbe81610f7f565b840191505092915050565b60006020820190508181036000830152610fe38184610f90565b905092915050565b600080fd5b600073ffffffffffffffffffffffffffffffffffffffff82169050919050565b600061101b82610ff0565b9050919050565b61102b81611010565b811461103657600080fd5b50565b60008135905061104881611022565b92915050565b6000819050919050565b6110618161104e565b811461106c57600080fd5b50565b60008135905061107e81611058565b92915050565b6000806040838503121561109b5761109a610feb565b5b60006110a985828601611039565b92505060206110ba8582860161106f565b9150509250929050565b60008115159050919050565b6110d9816110c4565b82525050565b60006020820190506110f460008301846110d0565b92915050565b6111038161104e565b82525050565b600060208201905061111e60008301846110fa565b92915050565b60008060006060848603121561113d5761113c610feb565b5b600061114b86828701611039565b935050602061115c86828701611039565b925050604061116d8682870161106f565b9150509250925092565b600060ff82169050919050565b61118d81611177565b82525050565b60006020820190506111a86000830184611184565b92915050565b6000602082840312156111c4576111c3610feb565b5b60006111d28482850161106f565b91505092915050565b6111e481611010565b82525050565b60006020820190506111ff60008301846111db565b92915050565b60006020828403121561121b5761121a610feb565b5b600061122984828501611039565b91505092915050565b6000806040838503121561124957611248610feb565b5b600061125785828601611039565b925050602061126885828601611039565b9150509250929050565b7f4e487b7100000000000000000000000000000000000000000000000000000000600052602260045260246000fd5b600060028204905060018216806112b957607f821691505b6020821081036112cc576112cb611272565b5b50919050565b7f4e6f7420617574686f72697a6564000000000000000000000000000000000000600082015250565b6000611308600e83610f44565b9150611313826112d2565b602082019050919050565b60006020820190508181036000830152611337816112fb565b9050919050565b600060608201905061135360008301866111db565b61136060208301856110fa565b61136d60408301846110fa565b949350505050565b7f4e487b7100000000000000000000000000000000000000000000000000000000600052601160045260246000fd5b60006113af8261104e565b91506113ba8361104e565b92508282019050808211156113d2576113d1611375565b5b9291505056fea26469706673582212207b0cee1b0bd7da8ec7db3e7ddda9f8cfe09d8f067680f9ede9ad60a5099b0ce664736f6c63430008140033",
  "linkReferences": {},
  "deployedLinkReferences": {}
}