{
  "_format": "hh-sol-artifact-1",
  "contractName": "ERC20Base",
  "sourceName": "@thirdweb-dev/contracts/base/ERC20Base.sol",
  "abi": [
    {
      "inputs": [
        {
          "internalType": "address",
          "name": "_defaultAdmin",
          "type": "address"
        },
        {
          "internalType": "string",
          "name": "_name",
          "type": "string"
        },
        {
          "internalType": "string",
          "name": "_symbol",
          "type": "string"
        }
      ],
      "stateMutability": "nonpayable",
      "type": "constructor"
    },
    {
      "inputs": [],
      "name": "ContractMetadataUnauthorized",
      "type": "error"
    },
    {
      "inputs": [],
      "name": "OwnableUnauthorized",
      "type": "error"
    },
    {
      "anonymous": false,
      "inputs": [
        {
          "indexed": true,
          "internalType": "address",
          "name": "owner",
          "type": "address"
        },
        {
          "indexed": true,
          "internalType": "address",
          "name": "spender",
          "type": "address"
        },
        {
          "indexed": false,
          "internalType": "uint256",
          "name": "value",
          "type": "uint256"
        }
      ],
      "name": "Approval",
      "type": "event"
    },
    {
      "anonymous": false,
      "inputs": [
        {
          "indexed": false,
          "internalType": "string",
          "name": "prevURI",
          "type": "string"
        },
        {
          "indexed": false,
          "internalType": "string",
          "name": "newURI",
          "type": "string"
        }
      ],
      "name": "ContractURIUpdated",
      "type": "event"
    },
    {
      "anonymous": false,
      "inputs": [
        {
          "indexed": true,
          "internalType": "address",
          "name": "prevOwner",
          "type": "address"
        },
        {
          "indexed": true,
          "internalType": "address",
          "name": "newOwner",
          "type": "address"
        }
      ],
      "name": "OwnerUpdated",
      "type": "event"
    },
    {
      "anonymous": false,
      "inputs": [
        {
          "indexed": true,
          "internalType": "address",
          "name": "mintedTo",
          "type": "address"
        },
        {
          "indexed": false,
          "internalType": "uint256",
          "name": "quantityMinted",
          "type": "uint256"
        }
      ],
      "name": "TokensMinted",
      "type": "event"
    },
    {
      "anonymous": false,
      "inputs": [
        {
          "indexed": true,
          "internalType": "address",
          "name": "from",
          "type": "address"
        },
        {
          "indexed": true,
          "internalType": "address",
          "name": "to",
          "type": "address"
        },
        {
          "indexed": false,
          "internalType": "uint256",
          "name": "value",
          "type": "uint256"
        }
      ],
      "name": "Transfer",
      "type": "event"
    },
    {
      "inputs": [],
      "name": "DOMAIN_SEPARATOR",
      "outputs": [
        {
          "internalType": "bytes32",
          "name": "",
          "type": "bytes32"
        }
      ],
      "stateMutability": "view",
      "type": "function"
    },
    {
      "inputs": [
        {
          "internalType": "address",
          "name": "owner",
          "type": "address"
        },
        {
          "internalType": "address",
          "name": "spender",
          "type": "address"
        }
      ],
      "name": "allowance",
      "outputs": [
        {
          "internalType": "uint256",
          "name": "",
          "type": "uint256"
        }
      ],
      "stateMutability": "view",
      "type": "function"
    },
    {
      "inputs": [
        {
          "internalType": "address",
          "name": "spender",
          "type": "address"
        },
        {
          "internalType": "uint256",
          "name": "amount",
          "type": "uint256"
        }
      ],
      "name": "approve",
      "outputs": [
        {
          "internalType": "bool",
          "name": "",
          "type": "bool"
        }
      ],
      "stateMutability": "nonpayable",
      "type": "function"
    },
    {
      "inputs": [
        {
          "internalType": "address",
          "name": "account",
          "type": "address"
        }
      ],
      "name": "balanceOf",
      "outputs": [
        {
          "internalType": "uint256",
          "name": "",
          "type": "uint256"
        }
      ],
      "stateMutability": "view",
      "type": "function"
    },
    {
      "inputs": [
        {
          "internalType": "uint256",
          "name": "_amount",
          "type": "uint256"
        }
      ],
      "name": "burn",
      "outputs": [],
      "stateMutability": "nonpayable",
      "type": "function"
    },
    {
      "inputs": [
        {
          "internalType": "address",
          "name": "_account",
          "type": "address"
        },
        {
          "internalType": "uint256",
          "name": "_amount",
          "type": "uint256"
        }
      ],
      "name": "burnFrom",
      "outputs": [],
      "stateMutability": "nonpayable",
      "type": "function"
    },
    {
      "inputs": [],
      "name": "contractURI",
      "outputs": [
        {
          "internalType": "string",
          "name": "",
          "type": "string"
        }
      ],
      "stateMutability": "view",
      "type": "function"
    },
    {
      "inputs": [],
      "name": "decimals",
      "outputs": [
        {
          "internalType": "uint8",
          "name": "",
          "type": "uint8"
        }
      ],
      "stateMutability": "view",
      "type": "function"
    },
    {
      "inputs": [
        {
          "internalType": "address",
          "name": "spender",
          "type": "address"
        },
        {
          "internalType": "uint256",
          "name": "subtractedValue",
          "type": "uint256"
        }
      ],
      "name": "decreaseAllowance",
      "outputs": [
        {
          "internalType": "bool",
          "name": "",
          "type": "bool"
        }
      ],
      "stateMutability": "nonpayable",
      "type": "function"
    },
    {
      "inputs": [
        {
          "internalType": "address",
          "name": "spender",
          "type": "address"
        },
        {
          "internalType": "uint256",
          "name": "addedValue",
          "type": "uint256"
        }
      ],
      "name": "increaseAllowance",
      "outputs": [
        {
          "internalType": "bool",
          "name": "",
          "type": "bool"
        }
      ],
      "stateMutability": "nonpayable",
      "type": "function"
    },
    {
      "inputs": [
        {
          "internalType": "address",
          "name": "_to",
          "type": "address"
        },
        {
          "internalType": "uint256",
          "name": "_amount",
          "type": "uint256"
        }
      ],
      "name": "mintTo",
      "outputs": [],
      "stateMutability": "nonpayable",
      "type": "function"
    },
    {
      "inputs": [
        {
          "internalType": "bytes[]",
          "name": "data",
          "type": "bytes[]"
        }
      ],
      "name": "multicall",
      "outputs": [
        {
          "internalType": "bytes[]",
          "name": "results",
          "type": "bytes[]"
        }
      ],
      "stateMutability": "nonpayable",
      "type": "function"
    },
    {
      "inputs": [],
      "name": "name",
      "outputs": [
        {
          "internalType": "string",
          "name": "",
          "type": "string"
        }
      ],
      "stateMutability": "view",
      "type": "function"
    },
    {
      "inputs": [
        {
          "internalType": "address",
          "name": "owner",
          "type": "address"
        }
      ],
      "name": "nonces",
      "outputs": [
        {
          "internalType": "uint256",
          "name": "",
          "type": "uint256"
        }
      ],
      "stateMutability": "view",
      "type": "function"
    },
    {
      "inputs": [],
      "name": "owner",
      "outputs": [
        {
          "internalType": "address",
          "name": "",
          "type": "address"
        }
      ],
      "stateMutability": "view",
      "type": "function"
    },
    {
      "inputs": [
        {
          "internalType": "address",
          "name": "owner",
          "type": "address"
        },
        {
          "internalType": "address",
          "name": "spender",
          "type": "address"
        },
        {
          "internalType": "uint256",
          "name": "value",
          "type": "uint256"
        },
        {
          "internalType": "uint256",
          "name": "deadline",
          "type": "uint256"
        },
        {
          "internalType": "uint8",
          "name": "v",
          "type": "uint8"
        },
        {
          "internalType": "bytes32",
          "name": "r",
          "type": "bytes32"
        },
        {
          "internalType": "bytes32",
          "name": "s",
          "type": "bytes32"
        }
      ],
      "name": "permit",
      "outputs": [],
      "stateMutability": "nonpayable",
      "type": "function"
    },
    {
      "inputs": [
        {
          "internalType": "string",
          "name": "_uri",
          "type": "string"
        }
      ],
      "name": "setContractURI",
      "outputs": [],
      "stateMutability": "nonpayable",
      "type": "function"
    },
    {
      "inputs": [
        {
          "internalType": "address",
          "name": "_newOwner",
          "type": "address"
        }
      ],
      "name": "setOwner",
      "outputs": [],
      "stateMutability": "nonpayable",
      "type": "function"
    },
    {
      "inputs": [],
      "name": "symbol",
      "outputs": [
        {
          "internalType": "string",
          "name": "",
          "type": "string"
        }
      ],
      "stateMutability": "view",
      "type": "function"
    },
    {
      "inputs": [],
      "name": "totalSupply",
      "outputs": [
        {
          "internalType": "uint256",
          "name": "",
          "type": "uint256"
        }
      ],
      "stateMutability": "view",
      "type": "function"
    },
    {
      "inputs": [
        {
          "internalType": "address",
          "name": "to",
          "type": "address"
        },
        {
          "internalType": "uint256",
          "name": "amount",
          "type": "uint256"
        }
      ],
      "name": "transfer",
      "outputs": [
        {
          "internalType": "bool",
          "name": "",
          "type": "bool"
        }
      ],
      "stateMutability": "nonpayable",
      "type": "function"
    },
    {
      "inputs": [
        {
          "internalType": "address",
          "name": "from",
          "type": "address"
        },
        {
          "internalType": "address",
          "name": "to",
          "type": "address"
        },
        {
          "internalType": "uint256",
          "name": "amount",
          "type": "uint256"
        }
      ],
      "name": "transferFrom",
      "outputs": [
        {
          "internalType": "bool",
          "name": "",
          "type": "bool"
        }
      ],
      "stateMutability": "nonpayable",
      "type": "function"
    }
  ],
  "bytecode": "0x6101006040527f6e71edae12b1b97f4d1f60370fef10105fa2faae0126114a169c64845d6126c960e0908152503480156200003957600080fd5b50604051620041d4380380620041d483398181016040528101906200005f9190620004de565b818181818160059081620000749190620007c3565b508060069081620000869190620007c3565b5050504660a081815250503073ffffffffffffffffffffffffffffffffffffffff1660c08173ffffffffffffffffffffffffffffffffffffffff1681525050620000d5620000f860201b60201c565b608081815250505050620000ef836200018660201b60201c565b50505062000944565b60007f8b73c3c69bb8fe3d512ecc4cf759cc79239f7b179b0ffacaa9a75d522b39400f6200012b6200024c60201b60201c565b805190602001207fc89efdaa54c0f20c7adf612882df0950f5a951637e0307cdcb4c672f298b8bc646306040516020016200016b959493929190620008e7565b60405160208183030381529060405280519060200120905090565b6000600160009054906101000a900473ffffffffffffffffffffffffffffffffffffffff16905081600160006101000a81548173ffffffffffffffffffffffffffffffffffffffff021916908373ffffffffffffffffffffffffffffffffffffffff1602179055508173ffffffffffffffffffffffffffffffffffffffff168173ffffffffffffffffffffffffffffffffffffffff167f8292fce18fa69edf4db7b94ea2e58241df0ae57f97e0a6c9b29067028bf92d7660405160405180910390a35050565b6060600580546200025d90620005b2565b80601f01602080910402602001604051908101604052809291908181526020018280546200028b90620005b2565b8015620002dc5780601f10620002b057610100808354040283529160200191620002dc565b820191906000526020600020905b815481529060010190602001808311620002be57829003601f168201915b5050505050905090565b6000604051905090565b600080fd5b600080fd5b600073ffffffffffffffffffffffffffffffffffffffff82169050919050565b60006200032782620002fa565b9050919050565b62000339816200031a565b81146200034557600080fd5b50565b60008151905062000359816200032e565b92915050565b600080fd5b600080fd5b6000601f19601f8301169050919050565b7f4e487b7100000000000000000000000000000000000000000000000000000000600052604160045260246000fd5b620003b48262000369565b810181811067ffffffffffffffff82111715620003d657620003d56200037a565b5b80604052505050565b6000620003eb620002e6565b9050620003f98282620003a9565b919050565b600067ffffffffffffffff8211156200041c576200041b6200037a565b5b620004278262000369565b9050602081019050919050565b60005b838110156200045457808201518184015260208101905062000437565b60008484015250505050565b6000620004776200047184620003fe565b620003df565b90508281526020810184848401111562000496576200049562000364565b5b620004a384828562000434565b509392505050565b600082601f830112620004c357620004c26200035f565b5b8151620004d584826020860162000460565b91505092915050565b600080600060608486031215620004fa57620004f9620002f0565b5b60006200050a8682870162000348565b935050602084015167ffffffffffffffff8111156200052e576200052d620002f5565b5b6200053c86828701620004ab565b925050604084015167ffffffffffffffff81111562000560576200055f620002f5565b5b6200056e86828701620004ab565b9150509250925092565b600081519050919050565b7f4e487b7100000000000000000000000000000000000000000000000000000000600052602260045260246000fd5b60006002820490506001821680620005cb57607f821691505b602082108103620005e157620005e062000583565b5b50919050565b60008190508160005260206000209050919050565b60006020601f8301049050919050565b600082821b905092915050565b6000600883026200064b7fffffffffffffffffffffffffffffffffffffffffffffffffffffffffffffffff826200060c565b6200065786836200060c565b95508019841693508086168417925050509392505050565b6000819050919050565b6000819050919050565b6000620006a46200069e62000698846200066f565b62000679565b6200066f565b9050919050565b6000819050919050565b620006c08362000683565b620006d8620006cf82620006ab565b84845462000619565b825550505050565b600090565b620006ef620006e0565b620006fc818484620006b5565b505050565b5b81811015620007245762000718600082620006e5565b60018101905062000702565b5050565b601f82111562000773576200073d81620005e7565b6200074884620005fc565b8101602085101562000758578190505b620007706200076785620005fc565b83018262000701565b50505b505050565b600082821c905092915050565b6000620007986000198460080262000778565b1980831691505092915050565b6000620007b3838362000785565b9150826002028217905092915050565b620007ce8262000578565b67ffffffffffffffff811115620007ea57620007e96200037a565b5b620007f68254620005b2565b6200080382828562000728565b600060209050601f8311600181146200083b576000841562000826578287015190505b620008328582620007a5565b865550620008a2565b601f1984166200084b86620005e7565b60005b8281101562000875578489015182556001820191506020850194506020810190506200084e565b8683101562000895578489015162000891601f89168262000785565b8355505b6001600288020188555050505b505050505050565b6000819050919050565b620008bf81620008aa565b82525050565b620008d0816200066f565b82525050565b620008e1816200031a565b82525050565b600060a082019050620008fe6000830188620008b4565b6200090d6020830187620008b4565b6200091c6040830186620008b4565b6200092b6060830185620008c5565b6200093a6080830184620008d6565b9695505050505050565b60805160a05160c05160e0516138566200097e6000396000610d8f015260006105b60152600061060c0152600061063501526138566000f3fe608060405234801561001057600080fd5b50600436106101425760003560e01c806379cc6790116100b8578063a457c2d71161007c578063a457c2d714610377578063a9059cbb146103a7578063ac9650d8146103d7578063d505accf14610407578063dd62ed3e14610423578063e8a3d4851461045357610142565b806379cc6790146102d35780637ecebe00146102ef5780638da5cb5b1461031f578063938e3d7b1461033d57806395d89b411461035957610142565b8063313ce5671161010a578063313ce567146101ff5780633644e5151461021d578063395093511461023b57806342966c681461026b578063449a52f81461028757806370a08231146102a357610142565b806306fdde0314610147578063095ea7b31461016557806313af40351461019557806318160ddd146101b157806323b872dd146101cf575b600080fd5b61014f610471565b60405161015c9190612042565b60405180910390f35b61017f600480360381019061017a919061210c565b610503565b60405161018c9190612167565b60405180910390f35b6101af60048036038101906101aa9190612182565b610526565b005b6101b9610570565b6040516101c691906121be565b60405180910390f35b6101e960048036038101906101e491906121d9565b61057a565b6040516101f69190612167565b60405180910390f35b6102076105a9565b6040516102149190612248565b60405180910390f35b6102256105b2565b604051610232919061227c565b60405180910390f35b6102556004803603810190610250919061210c565b610669565b6040516102629190612167565b60405180910390f35b61028560048036038101906102809190612297565b610713565b005b6102a1600480360381019061029c919061210c565b61076b565b005b6102bd60048036038101906102b89190612182565b610803565b6040516102ca91906121be565b60405180910390f35b6102ed60048036038101906102e8919061210c565b61084c565b005b61030960048036038101906103049190612182565b61091d565b60405161031691906121be565b60405180910390f35b61032761096d565b60405161033491906122d3565b60405180910390f35b61035760048036038101906103529190612423565b610997565b005b6103616109e1565b60405161036e9190612042565b60405180910390f35b610391600480360381019061038c919061210c565b610a73565b60405161039e9190612167565b60405180910390f35b6103c160048036038101906103bc919061210c565b610b5d565b6040516103ce9190612167565b60405180910390f35b6103f160048036038101906103ec91906124cc565b610b80565b6040516103fe9190612630565b60405180910390f35b610421600480360381019061041c91906126aa565b610d48565b005b61043d6004803603810190610438919061274c565b610e92565b60405161044a91906121be565b60405180910390f35b61045b610f19565b6040516104689190612042565b60405180910390f35b606060058054610480906127bb565b80601f01602080910402602001604051908101604052809291908181526020018280546104ac906127bb565b80156104f95780601f106104ce576101008083540402835291602001916104f9565b820191906000526020600020905b8154815290600101906020018083116104dc57829003601f168201915b5050505050905090565b60008061050e610fa7565b905061051b818585610faf565b600191505092915050565b61052e611178565b610564576040517f2d99739600000000000000000000000000000000000000000000000000000000815260040160405180910390fd5b61056d816111b5565b50565b6000600454905090565b600080610585610fa7565b905061059285828561127b565b61059d858585611307565b60019150509392505050565b60006012905090565b60007f000000000000000000000000000000000000000000000000000000000000000073ffffffffffffffffffffffffffffffffffffffff163073ffffffffffffffffffffffffffffffffffffffff1614801561062e57507f000000000000000000000000000000000000000000000000000000000000000046145b1561065b577f00000000000000000000000000000000000000000000000000000000000000009050610666565b610663611589565b90505b90565b600080610674610fa7565b9050610708818585600360008673ffffffffffffffffffffffffffffffffffffffff1673ffffffffffffffffffffffffffffffffffffffff16815260200190815260200160002060008973ffffffffffffffffffffffffffffffffffffffff1673ffffffffffffffffffffffffffffffffffffffff16815260200190815260200160002054610703919061281b565b610faf565b600191505092915050565b8061071d33610803565b101561075e576040517f08c379a00000000000000000000000000000000000000000000000000000000081526004016107559061289b565b60405180910390fd5b610768338261160d565b50565b6107736117e5565b6107b2576040517f08c379a00000000000000000000000000000000000000000000000000000000081526004016107a990612907565b60405180910390fd5b600081036107f5576040517f08c379a00000000000000000000000000000000000000000000000000000000081526004016107ec90612973565b60405180910390fd5b6107ff8282611822565b5050565b6000600260008373ffffffffffffffffffffffffffffffffffffffff1673ffffffffffffffffffffffffffffffffffffffff168152602001908152602001600020549050919050565b610854611982565b610893576040517f08c379a000000000000000000000000000000000000000000000000000000000815260040161088a906129df565b60405180910390fd5b8061089d83610803565b10156108de576040517f08c379a00000000000000000000000000000000000000000000000000000000081526004016108d59061289b565b60405180910390fd5b6000816108eb8433610e92565b6108f591906129ff565b905061090383336000610faf565b61090e833383610faf565b610918838361160d565b505050565b6000610966600760008473ffffffffffffffffffffffffffffffffffffffff1673ffffffffffffffffffffffffffffffffffffffff1681526020019081526020016000206119bf565b9050919050565b6000600160009054906101000a900473ffffffffffffffffffffffffffffffffffffffff16905090565b61099f6119cd565b6109d5576040517f9f7f092500000000000000000000000000000000000000000000000000000000815260040160405180910390fd5b6109de81611a0a565b50565b6060600680546109f0906127bb565b80601f0160208091040260200160405190810160405280929190818152602001828054610a1c906127bb565b8015610a695780601f10610a3e57610100808354040283529160200191610a69565b820191906000526020600020905b815481529060010190602001808311610a4c57829003601f168201915b5050505050905090565b600080610a7e610fa7565b90506000600360008373ffffffffffffffffffffffffffffffffffffffff1673ffffffffffffffffffffffffffffffffffffffff16815260200190815260200160002060008673ffffffffffffffffffffffffffffffffffffffff1673ffffffffffffffffffffffffffffffffffffffff16815260200190815260200160002054905083811015610b44576040517f08c379a0000000000000000000000000000000000000000000000000000000008152600401610b3b90612aa5565b60405180910390fd5b610b518286868403610faf565b60019250505092915050565b600080610b68610fa7565b9050610b75818585611307565b600191505092915050565b60608282905067ffffffffffffffff811115610b9f57610b9e6122f8565b5b604051908082528060200260200182016040528015610bd257816020015b6060815260200190600190039081610bbd5790505b5090506000610bdf610fa7565b905060008173ffffffffffffffffffffffffffffffffffffffff163373ffffffffffffffffffffffffffffffffffffffff161415905060005b85859050811015610d3f578115610c9c57610c7930878784818110610c4057610c3f612ac5565b5b9050602002810190610c529190612b03565b86604051602001610c6593929190612bde565b604051602081830303815290604052611ae5565b848281518110610c8c57610c8b612ac5565b5b6020026020010181905250610d2c565b610d0d30878784818110610cb357610cb2612ac5565b5b9050602002810190610cc59190612b03565b8080601f016020809104026020016040519081016040528093929190818152602001838380828437600081840152601f19601f82011690508083019250505050505050611ae5565b848281518110610d2057610d1f612ac5565b5b60200260200101819052505b8080610d3790612c08565b915050610c18565b50505092915050565b83421115610d8b576040517f08c379a0000000000000000000000000000000000000000000000000000000008152600401610d8290612c9c565b60405180910390fd5b60007f0000000000000000000000000000000000000000000000000000000000000000888888610dba8c611b12565b89604051602001610dd096959493929190612cbc565b6040516020818303038152906040528051906020012090506000610dfb610df56105b2565b83611b70565b90506000610e0b82878787611bb1565b90508973ffffffffffffffffffffffffffffffffffffffff168173ffffffffffffffffffffffffffffffffffffffff1614610e7b576040517f08c379a0000000000000000000000000000000000000000000000000000000008152600401610e7290612d69565b60405180910390fd5b610e868a8a8a610faf565b50505050505050505050565b6000600360008473ffffffffffffffffffffffffffffffffffffffff1673ffffffffffffffffffffffffffffffffffffffff16815260200190815260200160002060008373ffffffffffffffffffffffffffffffffffffffff1673ffffffffffffffffffffffffffffffffffffffff16815260200190815260200160002054905092915050565b60008054610f26906127bb565b80601f0160208091040260200160405190810160405280929190818152602001828054610f52906127bb565b8015610f9f5780601f10610f7457610100808354040283529160200191610f9f565b820191906000526020600020905b815481529060010190602001808311610f8257829003601f168201915b505050505081565b600033905090565b600073ffffffffffffffffffffffffffffffffffffffff168373ffffffffffffffffffffffffffffffffffffffff160361101e576040517f08c379a000000000000000000000000000000000000000000000000000000000815260040161101590612dfb565b60405180910390fd5b600073ffffffffffffffffffffffffffffffffffffffff168273ffffffffffffffffffffffffffffffffffffffff160361108d576040517f08c379a000000000000000000000000000000000000000000000000000000000815260040161108490612e8d565b60405180910390fd5b80600360008573ffffffffffffffffffffffffffffffffffffffff1673ffffffffffffffffffffffffffffffffffffffff16815260200190815260200160002060008473ffffffffffffffffffffffffffffffffffffffff1673ffffffffffffffffffffffffffffffffffffffff168152602001908152602001600020819055508173ffffffffffffffffffffffffffffffffffffffff168373ffffffffffffffffffffffffffffffffffffffff167f8c5be1e5ebec7d5bd14f71427d1e84f3dd0314c0f7b2291e5b200ac8c7c3b9258360405161116b91906121be565b60405180910390a3505050565b600061118261096d565b73ffffffffffffffffffffffffffffffffffffffff163373ffffffffffffffffffffffffffffffffffffffff1614905090565b6000600160009054906101000a900473ffffffffffffffffffffffffffffffffffffffff16905081600160006101000a81548173ffffffffffffffffffffffffffffffffffffffff021916908373ffffffffffffffffffffffffffffffffffffffff1602179055508173ffffffffffffffffffffffffffffffffffffffff168173ffffffffffffffffffffffffffffffffffffffff167f8292fce18fa69edf4db7b94ea2e58241df0ae57f97e0a6c9b29067028bf92d7660405160405180910390a35050565b60006112878484610e92565b90507fffffffffffffffffffffffffffffffffffffffffffffffffffffffffffffffff811461130157818110156112f3576040517f08c379a00000000000000000000000000000000000000000000000000000000081526004016112ea90612ef9565b60405180910390fd5b6113008484848403610faf565b5b50505050565b600073ffffffffffffffffffffffffffffffffffffffff168373ffffffffffffffffffffffffffffffffffffffff1603611376576040517f08c379a000000000000000000000000000000000000000000000000000000000815260040161136d90612f8b565b60405180910390fd5b600073ffffffffffffffffffffffffffffffffffffffff168273ffffffffffffffffffffffffffffffffffffffff16036113e5576040517f08c379a00000000000000000000000000000000000000000000000000000000081526004016113dc9061301d565b60405180910390fd5b6113f0838383611bdc565b6000600260008573ffffffffffffffffffffffffffffffffffffffff1673ffffffffffffffffffffffffffffffffffffffff16815260200190815260200160002054905081811015611477576040517f08c379a000000000000000000000000000000000000000000000000000000000815260040161146e906130af565b60405180910390fd5b818103600260008673ffffffffffffffffffffffffffffffffffffffff1673ffffffffffffffffffffffffffffffffffffffff1681526020019081526020016000208190555081600260008573ffffffffffffffffffffffffffffffffffffffff1673ffffffffffffffffffffffffffffffffffffffff168152602001908152602001600020600082825461150c919061281b565b925050819055508273ffffffffffffffffffffffffffffffffffffffff168473ffffffffffffffffffffffffffffffffffffffff167fddf252ad1be2c89b69c2b068fc378daa952ba7f163c4a11628f55a4df523b3ef8460405161157091906121be565b60405180910390a3611583848484611be1565b50505050565b60007f8b73c3c69bb8fe3d512ecc4cf759cc79239f7b179b0ffacaa9a75d522b39400f6115b4610471565b805190602001207fc89efdaa54c0f20c7adf612882df0950f5a951637e0307cdcb4c672f298b8bc646306040516020016115f29594939291906130cf565b60405160208183030381529060405280519060200120905090565b600073ffffffffffffffffffffffffffffffffffffffff168273ffffffffffffffffffffffffffffffffffffffff160361167c576040517f08c379a000000000000000000000000000000000000000000000000000000000815260040161167390613194565b60405180910390fd5b61168882600083611bdc565b6000600260008473ffffffffffffffffffffffffffffffffffffffff1673ffffffffffffffffffffffffffffffffffffffff1681526020019081526020016000205490508181101561170f576040517f08c379a000000000000000000000000000000000000000000000000000000000815260040161170690613226565b60405180910390fd5b818103600260008573ffffffffffffffffffffffffffffffffffffffff1673ffffffffffffffffffffffffffffffffffffffff16815260200190815260200160002081905550816004600082825461176791906129ff565b92505081905550600073ffffffffffffffffffffffffffffffffffffffff168373ffffffffffffffffffffffffffffffffffffffff167fddf252ad1be2c89b69c2b068fc378daa952ba7f163c4a11628f55a4df523b3ef846040516117cc91906121be565b60405180910390a36117e083600084611be1565b505050565b60006117ef61096d565b73ffffffffffffffffffffffffffffffffffffffff163373ffffffffffffffffffffffffffffffffffffffff1614905090565b600073ffffffffffffffffffffffffffffffffffffffff168273ffffffffffffffffffffffffffffffffffffffff1603611891576040517f08c379a000000000000000000000000000000000000000000000000000000000815260040161188890613292565b60405180910390fd5b61189d60008383611bdc565b80600460008282546118af919061281b565b9250508190555080600260008473ffffffffffffffffffffffffffffffffffffffff1673ffffffffffffffffffffffffffffffffffffffff1681526020019081526020016000206000828254611905919061281b565b925050819055508173ffffffffffffffffffffffffffffffffffffffff16600073ffffffffffffffffffffffffffffffffffffffff167fddf252ad1be2c89b69c2b068fc378daa952ba7f163c4a11628f55a4df523b3ef8360405161196a91906121be565b60405180910390a361197e60008383611be1565b5050565b600061198c61096d565b73ffffffffffffffffffffffffffffffffffffffff163373ffffffffffffffffffffffffffffffffffffffff1614905090565b600081600001549050919050565b60006119d761096d565b73ffffffffffffffffffffffffffffffffffffffff163373ffffffffffffffffffffffffffffffffffffffff1614905090565b6000808054611a18906127bb565b80601f0160208091040260200160405190810160405280929190818152602001828054611a44906127bb565b8015611a915780601f10611a6657610100808354040283529160200191611a91565b820191906000526020600020905b815481529060010190602001808311611a7457829003601f168201915b505050505090508160009081611aa7919061345e565b507fc9c7c3fe08b88b4df9d4d47ef47d2c43d55c025a0ba88ca442580ed9e7348a168183604051611ad9929190613530565b60405180910390a15050565b6060611b0a83836040518060600160405280602781526020016137fa60279139611be6565b905092915050565b600080600760008473ffffffffffffffffffffffffffffffffffffffff1673ffffffffffffffffffffffffffffffffffffffff1681526020019081526020016000209050611b5f816119bf565b9150611b6a81611c6c565b50919050565b60006040517f190100000000000000000000000000000000000000000000000000000000000081528360028201528260228201526042812091505092915050565b6000806000611bc287878787611c82565b91509150611bcf81611d64565b8192505050949350505050565b505050565b505050565b60606000808573ffffffffffffffffffffffffffffffffffffffff1685604051611c109190613598565b600060405180830381855af49150503d8060008114611c4b576040519150601f19603f3d011682016040523d82523d6000602084013e611c50565b606091505b5091509150611c6186838387611eca565b925050509392505050565b6001816000016000828254019250508190555050565b6000807f7fffffffffffffffffffffffffffffff5d576e7357a4501ddfe92f46681b20a08360001c1115611cbd576000600391509150611d5b565b600060018787878760405160008152602001604052604051611ce294939291906135af565b6020604051602081039080840390855afa158015611d04573d6000803e3d6000fd5b505050602060405103519050600073ffffffffffffffffffffffffffffffffffffffff168173ffffffffffffffffffffffffffffffffffffffff1603611d5257600060019250925050611d5b565b80600092509250505b94509492505050565b60006004811115611d7857611d776135f4565b5b816004811115611d8b57611d8a6135f4565b5b0315611ec75760016004811115611da557611da46135f4565b5b816004811115611db857611db76135f4565b5b03611df8576040517f08c379a0000000000000000000000000000000000000000000000000000000008152600401611def9061366f565b60405180910390fd5b60026004811115611e0c57611e0b6135f4565b5b816004811115611e1f57611e1e6135f4565b5b03611e5f576040517f08c379a0000000000000000000000000000000000000000000000000000000008152600401611e56906136db565b60405180910390fd5b60036004811115611e7357611e726135f4565b5b816004811115611e8657611e856135f4565b5b03611ec6576040517f08c379a0000000000000000000000000000000000000000000000000000000008152600401611ebd9061376d565b60405180910390fd5b5b50565b60608315611f2c576000835103611f2457611ee485611f3f565b611f23576040517f08c379a0000000000000000000000000000000000000000000000000000000008152600401611f1a906137d9565b60405180910390fd5b5b829050611f37565b611f368383611f62565b5b949350505050565b6000808273ffffffffffffffffffffffffffffffffffffffff163b119050919050565b600082511115611f755781518083602001fd5b806040517f08c379a0000000000000000000000000000000000000000000000000000000008152600401611fa99190612042565b60405180910390fd5b600081519050919050565b600082825260208201905092915050565b60005b83811015611fec578082015181840152602081019050611fd1565b60008484015250505050565b6000601f19601f8301169050919050565b600061201482611fb2565b61201e8185611fbd565b935061202e818560208601611fce565b61203781611ff8565b840191505092915050565b6000602082019050818103600083015261205c8184612009565b905092915050565b6000604051905090565b600080fd5b600080fd5b600073ffffffffffffffffffffffffffffffffffffffff82169050919050565b60006120a382612078565b9050919050565b6120b381612098565b81146120be57600080fd5b50565b6000813590506120d0816120aa565b92915050565b6000819050919050565b6120e9816120d6565b81146120f457600080fd5b50565b600081359050612106816120e0565b92915050565b600080604083850312156121235761212261206e565b5b6000612131858286016120c1565b9250506020612142858286016120f7565b9150509250929050565b60008115159050919050565b6121618161214c565b82525050565b600060208201905061217c6000830184612158565b92915050565b6000602082840312156121985761219761206e565b5b60006121a6848285016120c1565b91505092915050565b6121b8816120d6565b82525050565b60006020820190506121d360008301846121af565b92915050565b6000806000606084860312156121f2576121f161206e565b5b6000612200868287016120c1565b9350506020612211868287016120c1565b9250506040612222868287016120f7565b9150509250925092565b600060ff82169050919050565b6122428161222c565b82525050565b600060208201905061225d6000830184612239565b92915050565b6000819050919050565b61227681612263565b82525050565b6000602082019050612291600083018461226d565b92915050565b6000602082840312156122ad576122ac61206e565b5b60006122bb848285016120f7565b91505092915050565b6122cd81612098565b82525050565b60006020820190506122e860008301846122c4565b92915050565b600080fd5b600080fd5b7f4e487b7100000000000000000000000000000000000000000000000000000000600052604160045260246000fd5b61233082611ff8565b810181811067ffffffffffffffff8211171561234f5761234e6122f8565b5b80604052505050565b6000612362612064565b905061236e8282612327565b919050565b600067ffffffffffffffff82111561238e5761238d6122f8565b5b61239782611ff8565b9050602081019050919050565b82818337600083830152505050565b60006123c66123c184612373565b612358565b9050828152602081018484840111156123e2576123e16122f3565b5b6123ed8482856123a4565b509392505050565b600082601f83011261240a576124096122ee565b5b813561241a8482602086016123b3565b91505092915050565b6000602082840312156124395761243861206e565b5b600082013567ffffffffffffffff81111561245757612456612073565b5b612463848285016123f5565b91505092915050565b600080fd5b600080fd5b60008083601f84011261248c5761248b6122ee565b5b8235905067ffffffffffffffff8111156124a9576124a861246c565b5b6020830191508360208202830111156124c5576124c4612471565b5b9250929050565b600080602083850312156124e3576124e261206e565b5b600083013567ffffffffffffffff81111561250157612500612073565b5b61250d85828601612476565b92509250509250929050565b600081519050919050565b600082825260208201905092915050565b6000819050602082019050919050565b600081519050919050565b600082825260208201905092915050565b600061256c82612545565b6125768185612550565b9350612586818560208601611fce565b61258f81611ff8565b840191505092915050565b60006125a68383612561565b905092915050565b6000602082019050919050565b60006125c682612519565b6125d08185612524565b9350836020820285016125e285612535565b8060005b8581101561261e57848403895281516125ff858261259a565b945061260a836125ae565b925060208a019950506001810190506125e6565b50829750879550505050505092915050565b6000602082019050818103600083015261264a81846125bb565b905092915050565b61265b8161222c565b811461266657600080fd5b50565b60008135905061267881612652565b92915050565b61268781612263565b811461269257600080fd5b50565b6000813590506126a48161267e565b92915050565b600080600080600080600060e0888a0312156126c9576126c861206e565b5b60006126d78a828b016120c1565b97505060206126e88a828b016120c1565b96505060406126f98a828b016120f7565b955050606061270a8a828b016120f7565b945050608061271b8a828b01612669565b93505060a061272c8a828b01612695565b92505060c061273d8a828b01612695565b91505092959891949750929550565b600080604083850312156127635761276261206e565b5b6000612771858286016120c1565b9250506020612782858286016120c1565b9150509250929050565b7f4e487b7100000000000000000000000000000000000000000000000000000000600052602260045260246000fd5b600060028204905060018216806127d357607f821691505b6020821081036127e6576127e561278c565b5b50919050565b7f4e487b7100000000000000000000000000000000000000000000000000000000600052601160045260246000fd5b6000612826826120d6565b9150612831836120d6565b9250828201905080821115612849576128486127ec565b5b92915050565b7f6e6f7420656e6f7567682062616c616e63650000000000000000000000000000600082015250565b6000612885601283611fbd565b91506128908261284f565b602082019050919050565b600060208201905081810360008301526128b481612878565b9050919050565b7f4e6f7420617574686f72697a656420746f206d696e742e000000000000000000600082015250565b60006128f1601783611fbd565b91506128fc826128bb565b602082019050919050565b60006020820190508181036000830152612920816128e4565b9050919050565b7f4d696e74696e67207a65726f20746f6b656e732e000000000000000000000000600082015250565b600061295d601483611fbd565b915061296882612927565b602082019050919050565b6000602082019050818103600083015261298c81612950565b9050919050565b7f4e6f7420617574686f72697a656420746f206275726e2e000000000000000000600082015250565b60006129c9601783611fbd565b91506129d482612993565b602082019050919050565b600060208201905081810360008301526129f8816129bc565b9050919050565b6000612a0a826120d6565b9150612a15836120d6565b9250828203905081811115612a2d57612a2c6127ec565b5b92915050565b7f45524332303a2064656372656173656420616c6c6f77616e63652062656c6f7760008201527f207a65726f000000000000000000000000000000000000000000000000000000602082015250565b6000612a8f602583611fbd565b9150612a9a82612a33565b604082019050919050565b60006020820190508181036000830152612abe81612a82565b9050919050565b7f4e487b7100000000000000000000000000000000000000000000000000000000600052603260045260246000fd5b600080fd5b600080fd5b600080fd5b60008083356001602003843603038112612b2057612b1f612af4565b5b80840192508235915067ffffffffffffffff821115612b4257612b41612af9565b5b602083019250600182023603831315612b5e57612b5d612afe565b5b509250929050565b600081905092915050565b6000612b7d8385612b66565b9350612b8a8385846123a4565b82840190509392505050565b60008160601b9050919050565b6000612bae82612b96565b9050919050565b6000612bc082612ba3565b9050919050565b612bd8612bd382612098565b612bb5565b82525050565b6000612beb828587612b71565b9150612bf78284612bc7565b601482019150819050949350505050565b6000612c13826120d6565b91507fffffffffffffffffffffffffffffffffffffffffffffffffffffffffffffffff8203612c4557612c446127ec565b5b600182019050919050565b7f45524332305065726d69743a206578706972656420646561646c696e65000000600082015250565b6000612c86601d83611fbd565b9150612c9182612c50565b602082019050919050565b60006020820190508181036000830152612cb581612c79565b9050919050565b600060c082019050612cd1600083018961226d565b612cde60208301886122c4565b612ceb60408301876122c4565b612cf860608301866121af565b612d0560808301856121af565b612d1260a08301846121af565b979650505050505050565b7f45524332305065726d69743a20696e76616c6964207369676e61747572650000600082015250565b6000612d53601e83611fbd565b9150612d5e82612d1d565b602082019050919050565b60006020820190508181036000830152612d8281612d46565b9050919050565b7f45524332303a20617070726f76652066726f6d20746865207a65726f2061646460008201527f7265737300000000000000000000000000000000000000000000000000000000602082015250565b6000612de5602483611fbd565b9150612df082612d89565b604082019050919050565b60006020820190508181036000830152612e1481612dd8565b9050919050565b7f45524332303a20617070726f766520746f20746865207a65726f20616464726560008201527f7373000000000000000000000000000000000000000000000000000000000000602082015250565b6000612e77602283611fbd565b9150612e8282612e1b565b604082019050919050565b60006020820190508181036000830152612ea681612e6a565b9050919050565b7f45524332303a20696e73756666696369656e7420616c6c6f77616e6365000000600082015250565b6000612ee3601d83611fbd565b9150612eee82612ead565b602082019050919050565b60006020820190508181036000830152612f1281612ed6565b9050919050565b7f45524332303a207472616e736665722066726f6d20746865207a65726f20616460008201527f6472657373000000000000000000000000000000000000000000000000000000602082015250565b6000612f75602583611fbd565b9150612f8082612f19565b604082019050919050565b60006020820190508181036000830152612fa481612f68565b9050919050565b7f45524332303a207472616e7366657220746f20746865207a65726f206164647260008201527f6573730000000000000000000000000000000000000000000000000000000000602082015250565b6000613007602383611fbd565b915061301282612fab565b604082019050919050565b6000602082019050818103600083015261303681612ffa565b9050919050565b7f45524332303a207472616e7366657220616d6f756e742065786365656473206260008201527f616c616e63650000000000000000000000000000000000000000000000000000602082015250565b6000613099602683611fbd565b91506130a48261303d565b604082019050919050565b600060208201905081810360008301526130c88161308c565b9050919050565b600060a0820190506130e4600083018861226d565b6130f1602083018761226d565b6130fe604083018661226d565b61310b60608301856121af565b61311860808301846122c4565b9695505050505050565b7f45524332303a206275726e2066726f6d20746865207a65726f2061646472657360008201527f7300000000000000000000000000000000000000000000000000000000000000602082015250565b600061317e602183611fbd565b915061318982613122565b604082019050919050565b600060208201905081810360008301526131ad81613171565b9050919050565b7f45524332303a206275726e20616d6f756e7420657863656564732062616c616e60008201527f6365000000000000000000000000000000000000000000000000000000000000602082015250565b6000613210602283611fbd565b915061321b826131b4565b604082019050919050565b6000602082019050818103600083015261323f81613203565b9050919050565b7f45524332303a206d696e7420746f20746865207a65726f206164647265737300600082015250565b600061327c601f83611fbd565b915061328782613246565b602082019050919050565b600060208201905081810360008301526132ab8161326f565b9050919050565b60008190508160005260206000209050919050565b60006020601f8301049050919050565b600082821b905092915050565b6000600883026133147fffffffffffffffffffffffffffffffffffffffffffffffffffffffffffffffff826132d7565b61331e86836132d7565b95508019841693508086168417925050509392505050565b6000819050919050565b600061335b613356613351846120d6565b613336565b6120d6565b9050919050565b6000819050919050565b61337583613340565b61338961338182613362565b8484546132e4565b825550505050565b600090565b61339e613391565b6133a981848461336c565b505050565b5b818110156133cd576133c2600082613396565b6001810190506133af565b5050565b601f821115613412576133e3816132b2565b6133ec846132c7565b810160208510156133fb578190505b61340f613407856132c7565b8301826133ae565b50505b505050565b600082821c905092915050565b600061343560001984600802613417565b1980831691505092915050565b600061344e8383613424565b9150826002028217905092915050565b61346782611fb2565b67ffffffffffffffff8111156134805761347f6122f8565b5b61348a82546127bb565b6134958282856133d1565b600060209050601f8311600181146134c857600084156134b6578287015190505b6134c08582613442565b865550613528565b601f1984166134d6866132b2565b60005b828110156134fe578489015182556001820191506020850194506020810190506134d9565b8683101561351b5784890151613517601f891682613424565b8355505b6001600288020188555050505b505050505050565b6000604082019050818103600083015261354a8185612009565b9050818103602083015261355e8184612009565b90509392505050565b600061357282612545565b61357c8185612b66565b935061358c818560208601611fce565b80840191505092915050565b60006135a48284613567565b915081905092915050565b60006080820190506135c4600083018761226d565b6135d16020830186612239565b6135de604083018561226d565b6135eb606083018461226d565b95945050505050565b7f4e487b7100000000000000000000000000000000000000000000000000000000600052602160045260246000fd5b7f45434453413a20696e76616c6964207369676e61747572650000000000000000600082015250565b6000613659601883611fbd565b915061366482613623565b602082019050919050565b600060208201905081810360008301526136888161364c565b9050919050565b7f45434453413a20696e76616c6964207369676e6174757265206c656e67746800600082015250565b60006136c5601f83611fbd565b91506136d08261368f565b602082019050919050565b600060208201905081810360008301526136f4816136b8565b9050919050565b7f45434453413a20696e76616c6964207369676e6174757265202773272076616c60008201527f7565000000000000000000000000000000000000000000000000000000000000602082015250565b6000613757602283611fbd565b9150613762826136fb565b604082019050919050565b600060208201905081810360008301526137868161374a565b9050919050565b7f416464726573733a2063616c6c20746f206e6f6e2d636f6e7472616374000000600082015250565b60006137c3601d83611fbd565b91506137ce8261378d565b602082019050919050565b600060208201905081810360008301526137f2816137b6565b905091905056fe416464726573733a206c6f772d6c6576656c2064656c65676174652063616c6c206661696c6564a2646970667358221220e32303a8ace87cc5db7f4af33f27ebebdc0b180048776158e0b05da0bfd6c9f764736f6c63430008140033",
  "linkReferences": {},
  "deployedLinkReferences": {}
}