{
  "_format": "hh-sol-artifact-1",
  "contractName": "SWFModularEngine",
  "sourceName": "contracts/SWFModularEngine.sol",
  "abi": [
    {
      "inputs": [
        {
          "internalType": "address",
          "name": "_swfToken",
          "type": "address"
        }
      ],
      "stateMutability": "nonpayable",
      "type": "constructor"
    },
    {
      "inputs": [
        {
          "internalType": "address",
          "name": "owner",
          "type": "address"
        }
      ],
      "name": "OwnableInvalidOwner",
      "type": "error"
    },
    {
      "inputs": [
        {
          "internalType": "address",
          "name": "account",
          "type": "address"
        }
      ],
      "name": "OwnableUnauthorizedAccount",
      "type": "error"
    },
    {
      "anonymous": false,
      "inputs": [
        {
          "indexed": false,
          "internalType": "uint256",
          "name": "oldAPR",
          "type": "uint256"
        },
        {
          "indexed": false,
          "internalType": "uint256",
          "name": "newAPR",
          "type": "uint256"
        }
      ],
      "name": "APRUpdated",
      "type": "event"
    },
    {
      "anonymous": false,
      "inputs": [
        {
          "indexed": false,
          "internalType": "address[]",
          "name": "assets",
          "type": "address[]"
        },
        {
          "indexed": false,
          "internalType": "uint256[]",
          "name": "weights",
          "type": "uint256[]"
        }
      ],
      "name": "BasketAssetsUpdated",
      "type": "event"
    },
    {
      "anonymous": false,
      "inputs": [
        {
          "indexed": false,
          "internalType": "string",
          "name": "name",
          "type": "string"
        },
        {
          "indexed": false,
          "internalType": "address",
          "name": "component",
          "type": "address"
        }
      ],
      "name": "ComponentInitialized",
      "type": "event"
    },
    {
      "anonymous": false,
      "inputs": [
        {
          "indexed": true,
          "internalType": "address",
          "name": "previousOwner",
          "type": "address"
        },
        {
          "indexed": true,
          "internalType": "address",
          "name": "newOwner",
          "type": "address"
        }
      ],
      "name": "OwnershipTransferred",
      "type": "event"
    },
    {
      "anonymous": false,
      "inputs": [
        {
          "indexed": false,
          "internalType": "address[]",
          "name": "wallets",
          "type": "address[]"
        },
        {
          "indexed": false,
          "internalType": "string[]",
          "name": "roles",
          "type": "string[]"
        },
        {
          "indexed": false,
          "internalType": "uint256[]",
          "name": "shares",
          "type": "uint256[]"
        }
      ],
      "name": "RolesUpdated",
      "type": "event"
    },
    {
      "inputs": [],
      "name": "basketIndex",
      "outputs": [
        {
          "internalType": "contract BasketIndex",
          "name": "",
          "type": "address"
        }
      ],
      "stateMutability": "view",
      "type": "function"
    },
    {
      "inputs": [],
      "name": "basketIndexInitialized",
      "outputs": [
        {
          "internalType": "bool",
          "name": "",
          "type": "bool"
        }
      ],
      "stateMutability": "view",
      "type": "function"
    },
    {
      "inputs": [
        {
          "internalType": "uint256",
          "name": "amount",
          "type": "uint256"
        }
      ],
      "name": "burnBasketTokens",
      "outputs": [],
      "stateMutability": "nonpayable",
      "type": "function"
    },
    {
      "inputs": [],
      "name": "claimStakingRewards",
      "outputs": [],
      "stateMutability": "nonpayable",
      "type": "function"
    },
    {
      "inputs": [],
      "name": "distributeRoleRewards",
      "outputs": [],
      "stateMutability": "nonpayable",
      "type": "function"
    },
    {
      "inputs": [],
      "name": "getBasketAssets",
      "outputs": [
        {
          "internalType": "address[]",
          "name": "",
          "type": "address[]"
        }
      ],
      "stateMutability": "view",
      "type": "function"
    },
    {
      "inputs": [],
      "name": "getBasketWeights",
      "outputs": [
        {
          "internalType": "uint256[]",
          "name": "",
          "type": "uint256[]"
        }
      ],
      "stateMutability": "view",
      "type": "function"
    },
    {
      "inputs": [],
      "name": "getCurrentAPR",
      "outputs": [
        {
          "internalType": "uint256",
          "name": "",
          "type": "uint256"
        }
      ],
      "stateMutability": "view",
      "type": "function"
    },
    {
      "inputs": [
        {
          "internalType": "address",
          "name": "user",
          "type": "address"
        }
      ],
      "name": "getPendingRewards",
      "outputs": [
        {
          "internalType": "uint256",
          "name": "",
          "type": "uint256"
        }
      ],
      "stateMutability": "view",
      "type": "function"
    },
    {
      "inputs": [
        {
          "internalType": "address",
          "name": "user",
          "type": "address"
        }
      ],
      "name": "getTotalStaked",
      "outputs": [
        {
          "internalType": "uint256",
          "name": "",
          "type": "uint256"
        }
      ],
      "stateMutability": "view",
      "type": "function"
    },
    {
      "inputs": [
        {
          "internalType": "address",
          "name": "wallet",
          "type": "address"
        }
      ],
      "name": "getWalletRole",
      "outputs": [
        {
          "internalType": "string",
          "name": "",
          "type": "string"
        }
      ],
      "stateMutability": "view",
      "type": "function"
    },
    {
      "inputs": [],
      "name": "getWalletRoles",
      "outputs": [
        {
          "internalType": "address[]",
          "name": "",
          "type": "address[]"
        }
      ],
      "stateMutability": "view",
      "type": "function"
    },
    {
      "inputs": [
        {
          "internalType": "address",
          "name": "wallet",
          "type": "address"
        }
      ],
      "name": "getWalletShare",
      "outputs": [
        {
          "internalType": "uint256",
          "name": "",
          "type": "uint256"
        }
      ],
      "stateMutability": "view",
      "type": "function"
    },
    {
      "inputs": [
        {
          "internalType": "address",
          "name": "_basketIndex",
          "type": "address"
        }
      ],
      "name": "initializeBasketIndex",
      "outputs": [],
      "stateMutability": "nonpayable",
      "type": "function"
    },
    {
      "inputs": [
        {
          "internalType": "address",
          "name": "_roleRouter",
          "type": "address"
        }
      ],
      "name": "initializeRoleRouter",
      "outputs": [],
      "stateMutability": "nonpayable",
      "type": "function"
    },
    {
      "inputs": [
        {
          "internalType": "address",
          "name": "_stakingEngine",
          "type": "address"
        }
      ],
      "name": "initializeStakingEngine",
      "outputs": [],
      "stateMutability": "nonpayable",
      "type": "function"
    },
    {
      "inputs": [
        {
          "internalType": "uint256",
          "name": "amount",
          "type": "uint256"
        }
      ],
      "name": "mintBasketTokens",
      "outputs": [],
      "stateMutability": "nonpayable",
      "type": "function"
    },
    {
      "inputs": [],
      "name": "owner",
      "outputs": [
        {
          "internalType": "address",
          "name": "",
          "type": "address"
        }
      ],
      "stateMutability": "view",
      "type": "function"
    },
    {
      "inputs": [],
      "name": "rebalanceBasket",
      "outputs": [],
      "stateMutability": "nonpayable",
      "type": "function"
    },
    {
      "inputs": [],
      "name": "renounceOwnership",
      "outputs": [],
      "stateMutability": "nonpayable",
      "type": "function"
    },
    {
      "inputs": [],
      "name": "roleRouter",
      "outputs": [
        {
          "internalType": "contract RoleRouter",
          "name": "",
          "type": "address"
        }
      ],
      "stateMutability": "view",
      "type": "function"
    },
    {
      "inputs": [],
      "name": "roleRouterInitialized",
      "outputs": [
        {
          "internalType": "bool",
          "name": "",
          "type": "bool"
        }
      ],
      "stateMutability": "view",
      "type": "function"
    },
    {
      "inputs": [
        {
          "internalType": "address[]",
          "name": "assets",
          "type": "address[]"
        },
        {
          "internalType": "uint256[]",
          "name": "weights",
          "type": "uint256[]"
        }
      ],
      "name": "setBasketAssets",
      "outputs": [],
      "stateMutability": "nonpayable",
      "type": "function"
    },
    {
      "inputs": [
        {
          "internalType": "address",
          "name": "newDistributor",
          "type": "address"
        }
      ],
      "name": "setMainDistributor",
      "outputs": [],
      "stateMutability": "nonpayable",
      "type": "function"
    },
    {
      "inputs": [
        {
          "internalType": "address[]",
          "name": "wallets",
          "type": "address[]"
        },
        {
          "internalType": "string[]",
          "name": "roles",
          "type": "string[]"
        },
        {
          "internalType": "uint256[]",
          "name": "shares",
          "type": "uint256[]"
        }
      ],
      "name": "setRoles",
      "outputs": [],
      "stateMutability": "nonpayable",
      "type": "function"
    },
    {
      "inputs": [
        {
          "internalType": "uint256",
          "name": "newAprBps",
          "type": "uint256"
        }
      ],
      "name": "setStakingAPR",
      "outputs": [],
      "stateMutability": "nonpayable",
      "type": "function"
    },
    {
      "inputs": [
        {
          "internalType": "address",
          "name": "newTreasury",
          "type": "address"
        }
      ],
      "name": "setTreasury",
      "outputs": [],
      "stateMutability": "nonpayable",
      "type": "function"
    },
    {
      "inputs": [
        {
          "internalType": "uint256",
          "name": "amount",
          "type": "uint256"
        }
      ],
      "name": "stakeTokens",
      "outputs": [],
      "stateMutability": "nonpayable",
      "type": "function"
    },
    {
      "inputs": [],
      "name": "stakingEngine",
      "outputs": [
        {
          "internalType": "contract SoloMethodEngineV2",
          "name": "",
          "type": "address"
        }
      ],
      "stateMutability": "view",
      "type": "function"
    },
    {
      "inputs": [],
      "name": "stakingEngineInitialized",
      "outputs": [
        {
          "internalType": "bool",
          "name": "",
          "type": "bool"
        }
      ],
      "stateMutability": "view",
      "type": "function"
    },
    {
      "inputs": [],
      "name": "swfToken",
      "outputs": [
        {
          "internalType": "contract IERC20",
          "name": "",
          "type": "address"
        }
      ],
      "stateMutability": "view",
      "type": "function"
    },
    {
      "inputs": [
        {
          "internalType": "address",
          "name": "newOwner",
          "type": "address"
        }
      ],
      "name": "transferOwnership",
      "outputs": [],
      "stateMutability": "nonpayable",
      "type": "function"
    },
    {
      "inputs": [
        {
          "internalType": "uint256",
          "name": "amount",
          "type": "uint256"
        }
      ],
      "name": "withdrawStakedTokens",
      "outputs": [],
      "stateMutability": "nonpayable",
      "type": "function"
    }
  ],
  "bytecode": "0x60806040523480156200001157600080fd5b5060405162003b9938038062003b998339818101604052810190620000379190620002a7565b33600073ffffffffffffffffffffffffffffffffffffffff168173ffffffffffffffffffffffffffffffffffffffff1603620000ad5760006040517f1e4fbdf7000000000000000000000000000000000000000000000000000000008152600401620000a49190620002ea565b60405180910390fd5b620000be816200017960201b60201c565b50600073ffffffffffffffffffffffffffffffffffffffff168173ffffffffffffffffffffffffffffffffffffffff160362000131576040517f08c379a0000000000000000000000000000000000000000000000000000000008152600401620001289062000368565b60405180910390fd5b80600160006101000a81548173ffffffffffffffffffffffffffffffffffffffff021916908373ffffffffffffffffffffffffffffffffffffffff160217905550506200038a565b60008060009054906101000a900473ffffffffffffffffffffffffffffffffffffffff169050816000806101000a81548173ffffffffffffffffffffffffffffffffffffffff021916908373ffffffffffffffffffffffffffffffffffffffff1602179055508173ffffffffffffffffffffffffffffffffffffffff168173ffffffffffffffffffffffffffffffffffffffff167f8be0079c531659141344cd1fd0a4f28419497f9722a3daafe3b4186f6b6457e060405160405180910390a35050565b600080fd5b600073ffffffffffffffffffffffffffffffffffffffff82169050919050565b60006200026f8262000242565b9050919050565b620002818162000262565b81146200028d57600080fd5b50565b600081519050620002a18162000276565b92915050565b600060208284031215620002c057620002bf6200023d565b5b6000620002d08482850162000290565b91505092915050565b620002e48162000262565b82525050565b6000602082019050620003016000830184620002d9565b92915050565b600082825260208201905092915050565b7f496e76616c696420746f6b656e20616464726573730000000000000000000000600082015250565b60006200035060158362000307565b91506200035d8262000318565b602082019050919050565b60006020820190508181036000830152620003838162000341565b9050919050565b6137ff806200039a6000396000f3fe608060405234801561001057600080fd5b50600436106101fb5760003560e01c80638da5cb5b1161011a578063d453eee3116100ad578063f26c889d1161007c578063f26c889d14610516578063f2fde38b14610534578063f4eaeafc14610550578063f6ed20171461056e578063fa3cc7ca1461059e576101fb565b8063d453eee314610492578063d50ce69f146104ae578063dd2a8b11146104ca578063f0f44260146104fa576101fb565b8063a0e38f4e116100e9578063a0e38f4e1461041c578063b03888511461043a578063ce243a0b14610456578063d078b27614610474576101fb565b80638da5cb5b146103a8578063939652d7146103c65780639a03a257146103e25780639d34487b146103fe576101fb565b806360efacc811610192578063715018a611610161578063715018a61461034857806373e50210146103525780637547c7a31461036e57806389c688581461038a576101fb565b806360efacc8146102e85780636b69e05b146103185780636bfc615e146103225780636d9ba67f1461033e576101fb565b806321ae05c8116101ce57806321ae05c814610260578063289175b21461027e5780632da609cc1461029a57806350c6b6d6146102ca576101fb565b8063035c951b1461020057806307e7e3661461020a5780630a57336a146102265780631a28f9d814610242575b600080fd5b6102086105bc565b005b610224600480360381019061021f91906124c2565b610697565b005b610240600480360381019061023b91906124c2565b610776565b005b61024a610855565b60405161025791906125df565b60405180910390f35b610268610941565b6040516102759190612610565b60405180910390f35b6102986004803603810190610293919061273c565b610a28565b005b6102b460048036038101906102af919061281c565b610b5f565b6040516102c191906128d9565b60405180910390f35b6102d2610c58565b6040516102df919061295a565b60405180910390f35b61030260048036038101906102fd919061281c565b610c7e565b60405161030f9190612610565b60405180910390f35b610320610d72565b005b61033c6004803603810190610337919061281c565b610e45565b005b610346610f52565b005b610350611256565b005b61036c600480360381019061036791906124c2565b61126a565b005b610388600480360381019061038391906124c2565b611420565b005b6103926115c2565b60405161039f9190612a33565b60405180910390f35b6103b06116ae565b6040516103bd9190612a64565b60405180910390f35b6103e060048036038101906103db919061281c565b6116d7565b005b6103fc60048036038101906103f791906124c2565b6117e4565b005b610406611b18565b60405161041391906125df565b60405180910390f35b610424611c04565b6040516104319190612aa0565b60405180910390f35b610454600480360381019061044f919061281c565b611c2a565b005b61045e611d37565b60405161046b9190612adc565b60405180910390f35b61047c611d5d565b6040516104899190612b12565b60405180910390f35b6104ac60048036038101906104a79190612b2d565b611d70565b005b6104c860048036038101906104c3919061281c565b611e9d565b005b6104e460048036038101906104df919061281c565b611f84565b6040516104f19190612610565b60405180910390f35b610514600480360381019061050f919061281c565b612078565b005b61051e61215f565b60405161052b9190612b12565b60405180910390f35b61054e6004803603810190610549919061281c565b612172565b005b6105586121f8565b6040516105659190612b12565b60405180910390f35b6105886004803603810190610583919061281c565b61220b565b6040516105959190612610565b60405180910390f35b6105a66122ff565b6040516105b39190612bcf565b60405180910390f35b6105c4612325565b600460149054906101000a900460ff16610613576040517f08c379a000000000000000000000000000000000000000000000000000000000815260040161060a90612c36565b60405180910390fd5b600260009054906101000a900473ffffffffffffffffffffffffffffffffffffffff1673ffffffffffffffffffffffffffffffffffffffff16637d7c2a1c6040518163ffffffff1660e01b8152600401600060405180830381600087803b15801561067d57600080fd5b505af1158015610691573d6000803e3d6000fd5b50505050565b600460149054906101000a900460ff166106e6576040517f08c379a00000000000000000000000000000000000000000000000000000000081526004016106dd90612c36565b60405180910390fd5b600260009054906101000a900473ffffffffffffffffffffffffffffffffffffffff1673ffffffffffffffffffffffffffffffffffffffff166342966c68826040518263ffffffff1660e01b81526004016107419190612610565b600060405180830381600087803b15801561075b57600080fd5b505af115801561076f573d6000803e3d6000fd5b5050505050565b600460169054906101000a900460ff166107c5576040517f08c379a00000000000000000000000000000000000000000000000000000000081526004016107bc90612ca2565b60405180910390fd5b600460009054906101000a900473ffffffffffffffffffffffffffffffffffffffff1673ffffffffffffffffffffffffffffffffffffffff16632e1a7d4d826040518263ffffffff1660e01b81526004016108209190612610565b600060405180830381600087803b15801561083a57600080fd5b505af115801561084e573d6000803e3d6000fd5b5050505050565b6060600460159054906101000a900460ff166108a6576040517f08c379a000000000000000000000000000000000000000000000000000000000815260040161089d90612d0e565b60405180910390fd5b600360009054906101000a900473ffffffffffffffffffffffffffffffffffffffff1673ffffffffffffffffffffffffffffffffffffffff16631a28f9d86040518163ffffffff1660e01b8152600401600060405180830381865afa158015610913573d6000803e3d6000fd5b505050506040513d6000823e3d601f19601f8201168201806040525081019061093c9190612e81565b905090565b6000600460169054906101000a900460ff16610992576040517f08c379a000000000000000000000000000000000000000000000000000000000815260040161098990612ca2565b60405180910390fd5b600460009054906101000a900473ffffffffffffffffffffffffffffffffffffffff1673ffffffffffffffffffffffffffffffffffffffff166321ae05c86040518163ffffffff1660e01b8152600401602060405180830381865afa1580156109ff573d6000803e3d6000fd5b505050506040513d601f19601f82011682018060405250810190610a239190612edf565b905090565b610a30612325565b600460159054906101000a900460ff16610a7f576040517f08c379a0000000000000000000000000000000000000000000000000000000008152600401610a7690612d0e565b60405180910390fd5b600360009054906101000a900473ffffffffffffffffffffffffffffffffffffffff1673ffffffffffffffffffffffffffffffffffffffff1663289175b28787878787876040518763ffffffff1660e01b8152600401610ae496959493929190613174565b600060405180830381600087803b158015610afe57600080fd5b505af1158015610b12573d6000803e3d6000fd5b505050507f274c3addc56d019591ff13cda1e32573e4cea059d77a07df240ba5a5a6e9e1bc868686868686604051610b4f96959493929190613174565b60405180910390a1505050505050565b6060600460159054906101000a900460ff16610bb0576040517f08c379a0000000000000000000000000000000000000000000000000000000008152600401610ba790612d0e565b60405180910390fd5b600360009054906101000a900473ffffffffffffffffffffffffffffffffffffffff1673ffffffffffffffffffffffffffffffffffffffff16632da609cc836040518263ffffffff1660e01b8152600401610c0b9190612a64565b600060405180830381865afa158015610c28573d6000803e3d6000fd5b505050506040513d6000823e3d601f19601f82011682018060405250810190610c51919061326c565b9050919050565b600260009054906101000a900473ffffffffffffffffffffffffffffffffffffffff1681565b6000600460159054906101000a900460ff16610ccf576040517f08c379a0000000000000000000000000000000000000000000000000000000008152600401610cc690612d0e565b60405180910390fd5b600360009054906101000a900473ffffffffffffffffffffffffffffffffffffffff1673ffffffffffffffffffffffffffffffffffffffff166360efacc8836040518263ffffffff1660e01b8152600401610d2a9190612a64565b602060405180830381865afa158015610d47573d6000803e3d6000fd5b505050506040513d601f19601f82011682018060405250810190610d6b9190612edf565b9050919050565b600460169054906101000a900460ff16610dc1576040517f08c379a0000000000000000000000000000000000000000000000000000000008152600401610db890612ca2565b60405180910390fd5b600460009054906101000a900473ffffffffffffffffffffffffffffffffffffffff1673ffffffffffffffffffffffffffffffffffffffff1663372500ab6040518163ffffffff1660e01b8152600401600060405180830381600087803b158015610e2b57600080fd5b505af1158015610e3f573d6000803e3d6000fd5b50505050565b610e4d612325565b600073ffffffffffffffffffffffffffffffffffffffff168173ffffffffffffffffffffffffffffffffffffffff1603610ebc576040517f08c379a0000000000000000000000000000000000000000000000000000000008152600401610eb390613301565b60405180910390fd5b80600260006101000a81548173ffffffffffffffffffffffffffffffffffffffff021916908373ffffffffffffffffffffffffffffffffffffffff1602179055506001600460146101000a81548160ff0219169083151502179055507fe3f946b6264ca9caee33ac904d33499303c63bcf3a191d26580686ea49aed1a581604051610f47919061336d565b60405180910390a150565b600460159054906101000a900460ff16610fa1576040517f08c379a0000000000000000000000000000000000000000000000000000000008152600401610f9890612d0e565b60405180910390fd5b6000600160009054906101000a900473ffffffffffffffffffffffffffffffffffffffff1673ffffffffffffffffffffffffffffffffffffffff166370a08231306040518263ffffffff1660e01b8152600401610ffe9190612a64565b602060405180830381865afa15801561101b573d6000803e3d6000fd5b505050506040513d601f19601f8201168201806040525081019061103f9190612edf565b905060008111156111d157600160009054906101000a900473ffffffffffffffffffffffffffffffffffffffff1673ffffffffffffffffffffffffffffffffffffffff1663095ea7b3600360009054906101000a900473ffffffffffffffffffffffffffffffffffffffff16836040518363ffffffff1660e01b81526004016110c992919061339b565b6020604051808303816000875af11580156110e8573d6000803e3d6000fd5b505050506040513d601f19601f8201168201806040525081019061110c91906133f0565b50600160009054906101000a900473ffffffffffffffffffffffffffffffffffffffff1673ffffffffffffffffffffffffffffffffffffffff1663a9059cbb600360009054906101000a900473ffffffffffffffffffffffffffffffffffffffff16836040518363ffffffff1660e01b815260040161118c92919061339b565b6020604051808303816000875af11580156111ab573d6000803e3d6000fd5b505050506040513d601f19601f820116820180604052508101906111cf91906133f0565b505b600360009054906101000a900473ffffffffffffffffffffffffffffffffffffffff1673ffffffffffffffffffffffffffffffffffffffff16636f4a2cd06040518163ffffffff1660e01b8152600401600060405180830381600087803b15801561123b57600080fd5b505af115801561124f573d6000803e3d6000fd5b5050505050565b61125e612325565b61126860006123ac565b565b611272612325565b600460169054906101000a900460ff166112c1576040517f08c379a00000000000000000000000000000000000000000000000000000000081526004016112b890612ca2565b60405180910390fd5b6000600460009054906101000a900473ffffffffffffffffffffffffffffffffffffffff1673ffffffffffffffffffffffffffffffffffffffff166321ae05c86040518163ffffffff1660e01b8152600401602060405180830381865afa158015611330573d6000803e3d6000fd5b505050506040513d601f19601f820116820180604052508101906113549190612edf565b9050600460009054906101000a900473ffffffffffffffffffffffffffffffffffffffff1673ffffffffffffffffffffffffffffffffffffffff1663854303cf836040518263ffffffff1660e01b81526004016113b19190612610565b600060405180830381600087803b1580156113cb57600080fd5b505af11580156113df573d6000803e3d6000fd5b505050507fd2d659d197cf77652feb866d2a49b71684b0e7b0d92bde0b26163f77e2e25a2d818360405161141492919061341d565b60405180910390a15050565b600460169054906101000a900460ff1661146f576040517f08c379a000000000000000000000000000000000000000000000000000000000815260040161146690612ca2565b60405180910390fd5b600160009054906101000a900473ffffffffffffffffffffffffffffffffffffffff1673ffffffffffffffffffffffffffffffffffffffff1663095ea7b3600460009054906101000a900473ffffffffffffffffffffffffffffffffffffffff16836040518363ffffffff1660e01b81526004016114ee92919061339b565b6020604051808303816000875af115801561150d573d6000803e3d6000fd5b505050506040513d601f19601f8201168201806040525081019061153191906133f0565b50600460009054906101000a900473ffffffffffffffffffffffffffffffffffffffff1673ffffffffffffffffffffffffffffffffffffffff1663b6b55f25826040518263ffffffff1660e01b815260040161158d9190612610565b600060405180830381600087803b1580156115a757600080fd5b505af11580156115bb573d6000803e3d6000fd5b5050505050565b6060600460149054906101000a900460ff16611613576040517f08c379a000000000000000000000000000000000000000000000000000000000815260040161160a90612c36565b60405180910390fd5b600260009054906101000a900473ffffffffffffffffffffffffffffffffffffffff1673ffffffffffffffffffffffffffffffffffffffff16630f7449cc6040518163ffffffff1660e01b8152600401600060405180830381865afa158015611680573d6000803e3d6000fd5b505050506040513d6000823e3d601f19601f820116820180604052508101906116a99190613509565b905090565b60008060009054906101000a900473ffffffffffffffffffffffffffffffffffffffff16905090565b6116df612325565b600073ffffffffffffffffffffffffffffffffffffffff168173ffffffffffffffffffffffffffffffffffffffff160361174e576040517f08c379a000000000000000000000000000000000000000000000000000000000815260040161174590613301565b60405180910390fd5b80600460006101000a81548173ffffffffffffffffffffffffffffffffffffffff021916908373ffffffffffffffffffffffffffffffffffffffff1602179055506001600460166101000a81548160ff0219169083151502179055507fe3f946b6264ca9caee33ac904d33499303c63bcf3a191d26580686ea49aed1a5816040516117d9919061359e565b60405180910390a150565b600460149054906101000a900460ff16611833576040517f08c379a000000000000000000000000000000000000000000000000000000000815260040161182a90612c36565b60405180910390fd5b6000600260009054906101000a900473ffffffffffffffffffffffffffffffffffffffff1673ffffffffffffffffffffffffffffffffffffffff16633582d7896040518163ffffffff1660e01b8152600401600060405180830381865afa1580156118a2573d6000803e3d6000fd5b505050506040513d6000823e3d601f19601f820116820180604052508101906118cb9190612e81565b905060005b8151811015611a865760008282815181106118ee576118ed6135cc565b5b602002602001015190506000600260009054906101000a900473ffffffffffffffffffffffffffffffffffffffff1673ffffffffffffffffffffffffffffffffffffffff166364d59fc685858151811061194b5761194a6135cc565b5b60200260200101516040518263ffffffff1660e01b815260040161196f9190612a64565b602060405180830381865afa15801561198c573d6000803e3d6000fd5b505050506040513d601f19601f820116820180604052508101906119b09190612edf565b9050600061271082876119c3919061362a565b6119cd919061369b565b90508273ffffffffffffffffffffffffffffffffffffffff1663095ea7b3600260009054906101000a900473ffffffffffffffffffffffffffffffffffffffff16836040518363ffffffff1660e01b8152600401611a2c92919061339b565b6020604051808303816000875af1158015611a4b573d6000803e3d6000fd5b505050506040513d601f19601f82011682018060405250810190611a6f91906133f0565b505050508080611a7e906136cc565b9150506118d0565b50600260009054906101000a900473ffffffffffffffffffffffffffffffffffffffff1673ffffffffffffffffffffffffffffffffffffffff1663a0712d68836040518263ffffffff1660e01b8152600401611ae29190612610565b600060405180830381600087803b158015611afc57600080fd5b505af1158015611b10573d6000803e3d6000fd5b505050505050565b6060600460149054906101000a900460ff16611b69576040517f08c379a0000000000000000000000000000000000000000000000000000000008152600401611b6090612c36565b60405180910390fd5b600260009054906101000a900473ffffffffffffffffffffffffffffffffffffffff1673ffffffffffffffffffffffffffffffffffffffff16633582d7896040518163ffffffff1660e01b8152600401600060405180830381865afa158015611bd6573d6000803e3d6000fd5b505050506040513d6000823e3d601f19601f82011682018060405250810190611bff9190612e81565b905090565b600460009054906101000a900473ffffffffffffffffffffffffffffffffffffffff1681565b611c32612325565b600073ffffffffffffffffffffffffffffffffffffffff168173ffffffffffffffffffffffffffffffffffffffff1603611ca1576040517f08c379a0000000000000000000000000000000000000000000000000000000008152600401611c9890613301565b60405180910390fd5b80600360006101000a81548173ffffffffffffffffffffffffffffffffffffffff021916908373ffffffffffffffffffffffffffffffffffffffff1602179055506001600460156101000a81548160ff0219169083151502179055507fe3f946b6264ca9caee33ac904d33499303c63bcf3a191d26580686ea49aed1a581604051611d2c9190613760565b60405180910390a150565b600360009054906101000a900473ffffffffffffffffffffffffffffffffffffffff1681565b600460159054906101000a900460ff1681565b611d78612325565b600460149054906101000a900460ff16611dc7576040517f08c379a0000000000000000000000000000000000000000000000000000000008152600401611dbe90612c36565b60405180910390fd5b600260009054906101000a900473ffffffffffffffffffffffffffffffffffffffff1673ffffffffffffffffffffffffffffffffffffffff1663f6d23641858585856040518563ffffffff1660e01b8152600401611e28949392919061378e565b600060405180830381600087803b158015611e4257600080fd5b505af1158015611e56573d6000803e3d6000fd5b505050507f6aaea8f64b34fb1a635fcbe412134078d09d8e7b1d83f4f2af9e07fa9c75d61584848484604051611e8f949392919061378e565b60405180910390a150505050565b611ea5612325565b600460159054906101000a900460ff16611ef4576040517f08c379a0000000000000000000000000000000000000000000000000000000008152600401611eeb90612d0e565b60405180910390fd5b600360009054906101000a900473ffffffffffffffffffffffffffffffffffffffff1673ffffffffffffffffffffffffffffffffffffffff1663d50ce69f826040518263ffffffff1660e01b8152600401611f4f9190612a64565b600060405180830381600087803b158015611f6957600080fd5b505af1158015611f7d573d6000803e3d6000fd5b5050505050565b6000600460169054906101000a900460ff16611fd5576040517f08c379a0000000000000000000000000000000000000000000000000000000008152600401611fcc90612ca2565b60405180910390fd5b600460009054906101000a900473ffffffffffffffffffffffffffffffffffffffff1673ffffffffffffffffffffffffffffffffffffffff1663dd2a8b11836040518263ffffffff1660e01b81526004016120309190612a64565b602060405180830381865afa15801561204d573d6000803e3d6000fd5b505050506040513d601f19601f820116820180604052508101906120719190612edf565b9050919050565b612080612325565b600460159054906101000a900460ff166120cf576040517f08c379a00000000000000000000000000000000000000000000000000000000081526004016120c690612d0e565b60405180910390fd5b600360009054906101000a900473ffffffffffffffffffffffffffffffffffffffff1673ffffffffffffffffffffffffffffffffffffffff1663f0f44260826040518263ffffffff1660e01b815260040161212a9190612a64565b600060405180830381600087803b15801561214457600080fd5b505af1158015612158573d6000803e3d6000fd5b5050505050565b600460149054906101000a900460ff1681565b61217a612325565b600073ffffffffffffffffffffffffffffffffffffffff168173ffffffffffffffffffffffffffffffffffffffff16036121ec5760006040517f1e4fbdf70000000000000000000000000000000000000000000000000000000081526004016121e39190612a64565b60405180910390fd5b6121f5816123ac565b50565b600460169054906101000a900460ff1681565b6000600460169054906101000a900460ff1661225c576040517f08c379a000000000000000000000000000000000000000000000000000000000815260040161225390612ca2565b60405180910390fd5b600460009054906101000a900473ffffffffffffffffffffffffffffffffffffffff1673ffffffffffffffffffffffffffffffffffffffff1663f6ed2017836040518263ffffffff1660e01b81526004016122b79190612a64565b602060405180830381865afa1580156122d4573d6000803e3d6000fd5b505050506040513d601f19601f820116820180604052508101906122f89190612edf565b9050919050565b600160009054906101000a900473ffffffffffffffffffffffffffffffffffffffff1681565b61232d612470565b73ffffffffffffffffffffffffffffffffffffffff1661234b6116ae565b73ffffffffffffffffffffffffffffffffffffffff16146123aa5761236e612470565b6040517f118cdaa70000000000000000000000000000000000000000000000000000000081526004016123a19190612a64565b60405180910390fd5b565b60008060009054906101000a900473ffffffffffffffffffffffffffffffffffffffff169050816000806101000a81548173ffffffffffffffffffffffffffffffffffffffff021916908373ffffffffffffffffffffffffffffffffffffffff1602179055508173ffffffffffffffffffffffffffffffffffffffff168173ffffffffffffffffffffffffffffffffffffffff167f8be0079c531659141344cd1fd0a4f28419497f9722a3daafe3b4186f6b6457e060405160405180910390a35050565b600033905090565b6000604051905090565b600080fd5b600080fd5b6000819050919050565b61249f8161248c565b81146124aa57600080fd5b50565b6000813590506124bc81612496565b92915050565b6000602082840312156124d8576124d7612482565b5b60006124e6848285016124ad565b91505092915050565b600081519050919050565b600082825260208201905092915050565b6000819050602082019050919050565b600073ffffffffffffffffffffffffffffffffffffffff82169050919050565b60006125468261251b565b9050919050565b6125568161253b565b82525050565b6000612568838361254d565b60208301905092915050565b6000602082019050919050565b600061258c826124ef565b61259681856124fa565b93506125a18361250b565b8060005b838110156125d25781516125b9888261255c565b97506125c483612574565b9250506001810190506125a5565b5085935050505092915050565b600060208201905081810360008301526125f98184612581565b905092915050565b61260a8161248c565b82525050565b60006020820190506126256000830184612601565b92915050565b600080fd5b600080fd5b600080fd5b60008083601f8401126126505761264f61262b565b5b8235905067ffffffffffffffff81111561266d5761266c612630565b5b60208301915083602082028301111561268957612688612635565b5b9250929050565b60008083601f8401126126a6576126a561262b565b5b8235905067ffffffffffffffff8111156126c3576126c2612630565b5b6020830191508360208202830111156126df576126de612635565b5b9250929050565b60008083601f8401126126fc576126fb61262b565b5b8235905067ffffffffffffffff81111561271957612718612630565b5b60208301915083602082028301111561273557612734612635565b5b9250929050565b6000806000806000806060878903121561275957612758612482565b5b600087013567ffffffffffffffff81111561277757612776612487565b5b61278389828a0161263a565b9650965050602087013567ffffffffffffffff8111156127a6576127a5612487565b5b6127b289828a01612690565b9450945050604087013567ffffffffffffffff8111156127d5576127d4612487565b5b6127e189828a016126e6565b92509250509295509295509295565b6127f98161253b565b811461280457600080fd5b50565b600081359050612816816127f0565b92915050565b60006020828403121561283257612831612482565b5b600061284084828501612807565b91505092915050565b600081519050919050565b600082825260208201905092915050565b60005b83811015612883578082015181840152602081019050612868565b60008484015250505050565b6000601f19601f8301169050919050565b60006128ab82612849565b6128b58185612854565b93506128c5818560208601612865565b6128ce8161288f565b840191505092915050565b600060208201905081810360008301526128f381846128a0565b905092915050565b6000819050919050565b600061292061291b6129168461251b565b6128fb565b61251b565b9050919050565b600061293282612905565b9050919050565b600061294482612927565b9050919050565b61295481612939565b82525050565b600060208201905061296f600083018461294b565b92915050565b600081519050919050565b600082825260208201905092915050565b6000819050602082019050919050565b6129aa8161248c565b82525050565b60006129bc83836129a1565b60208301905092915050565b6000602082019050919050565b60006129e082612975565b6129ea8185612980565b93506129f583612991565b8060005b83811015612a26578151612a0d88826129b0565b9750612a18836129c8565b9250506001810190506129f9565b5085935050505092915050565b60006020820190508181036000830152612a4d81846129d5565b905092915050565b612a5e8161253b565b82525050565b6000602082019050612a796000830184612a55565b92915050565b6000612a8a82612927565b9050919050565b612a9a81612a7f565b82525050565b6000602082019050612ab56000830184612a91565b92915050565b6000612ac682612927565b9050919050565b612ad681612abb565b82525050565b6000602082019050612af16000830184612acd565b92915050565b60008115159050919050565b612b0c81612af7565b82525050565b6000602082019050612b276000830184612b03565b92915050565b60008060008060408587031215612b4757612b46612482565b5b600085013567ffffffffffffffff811115612b6557612b64612487565b5b612b718782880161263a565b9450945050602085013567ffffffffffffffff811115612b9457612b93612487565b5b612ba0878288016126e6565b925092505092959194509250565b6000612bb982612927565b9050919050565b612bc981612bae565b82525050565b6000602082019050612be46000830184612bc0565b92915050565b7f4261736b6574496e646578206e6f7420696e697469616c697a65640000000000600082015250565b6000612c20601b83612854565b9150612c2b82612bea565b602082019050919050565b60006020820190508181036000830152612c4f81612c13565b9050919050565b7f5374616b696e67456e67696e65206e6f7420696e697469616c697a6564000000600082015250565b6000612c8c601d83612854565b9150612c9782612c56565b602082019050919050565b60006020820190508181036000830152612cbb81612c7f565b9050919050565b7f526f6c65526f75746572206e6f7420696e697469616c697a6564000000000000600082015250565b6000612cf8601a83612854565b9150612d0382612cc2565b602082019050919050565b60006020820190508181036000830152612d2781612ceb565b9050919050565b7f4e487b7100000000000000000000000000000000000000000000000000000000600052604160045260246000fd5b612d668261288f565b810181811067ffffffffffffffff82111715612d8557612d84612d2e565b5b80604052505050565b6000612d98612478565b9050612da48282612d5d565b919050565b600067ffffffffffffffff821115612dc457612dc3612d2e565b5b602082029050602081019050919050565b600081519050612de4816127f0565b92915050565b6000612dfd612df884612da9565b612d8e565b90508083825260208201905060208402830185811115612e2057612e1f612635565b5b835b81811015612e495780612e358882612dd5565b845260208401935050602081019050612e22565b5050509392505050565b600082601f830112612e6857612e6761262b565b5b8151612e78848260208601612dea565b91505092915050565b600060208284031215612e9757612e96612482565b5b600082015167ffffffffffffffff811115612eb557612eb4612487565b5b612ec184828501612e53565b91505092915050565b600081519050612ed981612496565b92915050565b600060208284031215612ef557612ef4612482565b5b6000612f0384828501612eca565b91505092915050565b6000819050919050565b6000612f256020840184612807565b905092915050565b6000602082019050919050565b6000612f4683856124fa565b9350612f5182612f0c565b8060005b85811015612f8a57612f678284612f16565b612f71888261255c565b9750612f7c83612f2d565b925050600181019050612f55565b5085925050509392505050565b600082825260208201905092915050565b6000819050919050565b600082825260208201905092915050565b82818337600083830152505050565b6000612fde8385612fb2565b9350612feb838584612fc3565b612ff48361288f565b840190509392505050565b600061300c848484612fd2565b90509392505050565b600080fd5b600080fd5b600080fd5b600080833560016020038436030381126130415761304061301f565b5b83810192508235915060208301925067ffffffffffffffff82111561306957613068613015565b5b60018202360383131561307f5761307e61301a565b5b509250929050565b6000602082019050919050565b60006130a08385612f97565b9350836020840285016130b284612fa8565b8060005b878110156130f85784840389526130cd8284613024565b6130d8868284612fff565b95506130e384613087565b935060208b019a5050506001810190506130b6565b50829750879450505050509392505050565b600080fd5b82818337505050565b60006131248385612980565b93507f07ffffffffffffffffffffffffffffffffffffffffffffffffffffffffffffff8311156131575761315661310a565b5b60208302925061316883858461310f565b82840190509392505050565b6000606082019050818103600083015261318f81888a612f3a565b905081810360208301526131a4818688613094565b905081810360408301526131b9818486613118565b9050979650505050505050565b600080fd5b600067ffffffffffffffff8211156131e6576131e5612d2e565b5b6131ef8261288f565b9050602081019050919050565b600061320f61320a846131cb565b612d8e565b90508281526020810184848401111561322b5761322a6131c6565b5b613236848285612865565b509392505050565b600082601f8301126132535761325261262b565b5b81516132638482602086016131fc565b91505092915050565b60006020828403121561328257613281612482565b5b600082015167ffffffffffffffff8111156132a05761329f612487565b5b6132ac8482850161323e565b91505092915050565b7f496e76616c696420616464726573730000000000000000000000000000000000600082015250565b60006132eb600f83612854565b91506132f6826132b5565b602082019050919050565b6000602082019050818103600083015261331a816132de565b9050919050565b7f4261736b6574496e646578000000000000000000000000000000000000000000600082015250565b6000613357600b83612854565b915061336282613321565b602082019050919050565b600060408201905081810360008301526133868161334a565b90506133956020830184612a55565b92915050565b60006040820190506133b06000830185612a55565b6133bd6020830184612601565b9392505050565b6133cd81612af7565b81146133d857600080fd5b50565b6000815190506133ea816133c4565b92915050565b60006020828403121561340657613405612482565b5b6000613414848285016133db565b91505092915050565b60006040820190506134326000830185612601565b61343f6020830184612601565b9392505050565b600067ffffffffffffffff82111561346157613460612d2e565b5b602082029050602081019050919050565b600061348561348084613446565b612d8e565b905080838252602082019050602084028301858111156134a8576134a7612635565b5b835b818110156134d157806134bd8882612eca565b8452602084019350506020810190506134aa565b5050509392505050565b600082601f8301126134f0576134ef61262b565b5b8151613500848260208601613472565b91505092915050565b60006020828403121561351f5761351e612482565b5b600082015167ffffffffffffffff81111561353d5761353c612487565b5b613549848285016134db565b91505092915050565b7f5374616b696e67456e67696e6500000000000000000000000000000000000000600082015250565b6000613588600d83612854565b915061359382613552565b602082019050919050565b600060408201905081810360008301526135b78161357b565b90506135c66020830184612a55565b92915050565b7f4e487b7100000000000000000000000000000000000000000000000000000000600052603260045260246000fd5b7f4e487b7100000000000000000000000000000000000000000000000000000000600052601160045260246000fd5b60006136358261248c565b91506136408361248c565b925082820261364e8161248c565b91508282048414831517613665576136646135fb565b5b5092915050565b7f4e487b7100000000000000000000000000000000000000000000000000000000600052601260045260246000fd5b60006136a68261248c565b91506136b18361248c565b9250826136c1576136c061366c565b5b828204905092915050565b60006136d78261248c565b91507fffffffffffffffffffffffffffffffffffffffffffffffffffffffffffffffff8203613709576137086135fb565b5b600182019050919050565b7f526f6c65526f7574657200000000000000000000000000000000000000000000600082015250565b600061374a600a83612854565b915061375582613714565b602082019050919050565b600060408201905081810360008301526137798161373d565b90506137886020830184612a55565b92915050565b600060408201905081810360008301526137a9818688612f3a565b905081810360208301526137be818486613118565b90509594505050505056fea26469706673582212203b7affd78a994de49b64751f134e65494b87d0d7a5ad21a4036d48c547040ba564736f6c63430008140033",
  "linkReferences": {},
  "deployedLinkReferences": {}
}