{
  "_format": "hh-sol-artifact-1",
  "contractName": "SWFIntegratedEngine",
  "sourceName": "contracts/SWFIntegratedEngine.sol",
  "abi": [
    {
      "inputs": [
        {
          "internalType": "address",
          "name": "_swfTokenAddress",
          "type": "address"
        }
      ],
      "stateMutability": "nonpayable",
      "type": "constructor"
    },
    {
      "anonymous": false,
      "inputs": [
        {
          "indexed": false,
          "internalType": "uint256",
          "name": "oldAPR",
          "type": "uint256"
        },
        {
          "indexed": false,
          "internalType": "uint256",
          "name": "newAPR",
          "type": "uint256"
        }
      ],
      "name": "APRUpdated",
      "type": "event"
    },
    {
      "anonymous": false,
      "inputs": [
        {
          "indexed": true,
          "internalType": "address",
          "name": "user",
          "type": "address"
        },
        {
          "indexed": false,
          "internalType": "uint256",
          "name": "amount",
          "type": "uint256"
        }
      ],
      "name": "Deposited",
      "type": "event"
    },
    {
      "anonymous": false,
      "inputs": [
        {
          "indexed": true,
          "internalType": "address",
          "name": "user",
          "type": "address"
        },
        {
          "indexed": false,
          "internalType": "uint256",
          "name": "reward",
          "type": "uint256"
        }
      ],
      "name": "Minted",
      "type": "event"
    },
    {
      "anonymous": false,
      "inputs": [
        {
          "indexed": true,
          "internalType": "address",
          "name": "wallet",
          "type": "address"
        },
        {
          "indexed": false,
          "internalType": "string",
          "name": "role",
          "type": "string"
        },
        {
          "indexed": false,
          "internalType": "uint256",
          "name": "percentage",
          "type": "uint256"
        }
      ],
      "name": "RoleRegistered",
      "type": "event"
    },
    {
      "anonymous": false,
      "inputs": [
        {
          "indexed": true,
          "internalType": "address",
          "name": "user",
          "type": "address"
        },
        {
          "indexed": false,
          "internalType": "uint256",
          "name": "amount",
          "type": "uint256"
        }
      ],
      "name": "Withdrawn",
      "type": "event"
    },
    {
      "inputs": [],
      "name": "BPS_DIVISOR",
      "outputs": [
        {
          "internalType": "uint256",
          "name": "",
          "type": "uint256"
        }
      ],
      "stateMutability": "view",
      "type": "function"
    },
    {
      "inputs": [],
      "name": "MIN_STAKE_AMOUNT",
      "outputs": [
        {
          "internalType": "uint256",
          "name": "",
          "type": "uint256"
        }
      ],
      "stateMutability": "view",
      "type": "function"
    },
    {
      "inputs": [],
      "name": "SECONDS_IN_YEAR",
      "outputs": [
        {
          "internalType": "uint256",
          "name": "",
          "type": "uint256"
        }
      ],
      "stateMutability": "view",
      "type": "function"
    },
    {
      "inputs": [],
      "name": "admin",
      "outputs": [
        {
          "internalType": "address",
          "name": "",
          "type": "address"
        }
      ],
      "stateMutability": "view",
      "type": "function"
    },
    {
      "inputs": [],
      "name": "aprBasisPoints",
      "outputs": [
        {
          "internalType": "uint256",
          "name": "",
          "type": "uint256"
        }
      ],
      "stateMutability": "view",
      "type": "function"
    },
    {
      "inputs": [
        {
          "internalType": "address",
          "name": "user",
          "type": "address"
        }
      ],
      "name": "calculateRewards",
      "outputs": [
        {
          "internalType": "uint256",
          "name": "",
          "type": "uint256"
        }
      ],
      "stateMutability": "view",
      "type": "function"
    },
    {
      "inputs": [],
      "name": "claimRewards",
      "outputs": [],
      "stateMutability": "nonpayable",
      "type": "function"
    },
    {
      "inputs": [
        {
          "internalType": "uint256",
          "name": "amount",
          "type": "uint256"
        }
      ],
      "name": "deposit",
      "outputs": [],
      "stateMutability": "nonpayable",
      "type": "function"
    },
    {
      "inputs": [
        {
          "internalType": "uint256",
          "name": "amount",
          "type": "uint256"
        }
      ],
      "name": "distributeTokens",
      "outputs": [],
      "stateMutability": "nonpayable",
      "type": "function"
    },
    {
      "inputs": [
        {
          "internalType": "string",
          "name": "role",
          "type": "string"
        }
      ],
      "name": "getAddressByRole",
      "outputs": [
        {
          "internalType": "address",
          "name": "",
          "type": "address"
        }
      ],
      "stateMutability": "view",
      "type": "function"
    },
    {
      "inputs": [
        {
          "internalType": "string",
          "name": "role",
          "type": "string"
        }
      ],
      "name": "getAllocationByRole",
      "outputs": [
        {
          "internalType": "uint256",
          "name": "",
          "type": "uint256"
        }
      ],
      "stateMutability": "view",
      "type": "function"
    },
    {
      "inputs": [],
      "name": "getCurrentAPR",
      "outputs": [
        {
          "internalType": "uint256",
          "name": "",
          "type": "uint256"
        }
      ],
      "stateMutability": "view",
      "type": "function"
    },
    {
      "inputs": [
        {
          "internalType": "address",
          "name": "user",
          "type": "address"
        }
      ],
      "name": "getPendingRewards",
      "outputs": [
        {
          "internalType": "uint256",
          "name": "",
          "type": "uint256"
        }
      ],
      "stateMutability": "view",
      "type": "function"
    },
    {
      "inputs": [],
      "name": "getRecipientList",
      "outputs": [
        {
          "internalType": "address[]",
          "name": "",
          "type": "address[]"
        }
      ],
      "stateMutability": "view",
      "type": "function"
    },
    {
      "inputs": [
        {
          "internalType": "address",
          "name": "wallet",
          "type": "address"
        }
      ],
      "name": "getRole",
      "outputs": [
        {
          "internalType": "string",
          "name": "",
          "type": "string"
        }
      ],
      "stateMutability": "view",
      "type": "function"
    },
    {
      "inputs": [
        {
          "internalType": "address",
          "name": "user",
          "type": "address"
        }
      ],
      "name": "getTotalStaked",
      "outputs": [
        {
          "internalType": "uint256",
          "name": "",
          "type": "uint256"
        }
      ],
      "stateMutability": "view",
      "type": "function"
    },
    {
      "inputs": [
        {
          "internalType": "address",
          "name": "user",
          "type": "address"
        }
      ],
      "name": "getWalletBreakdown",
      "outputs": [
        {
          "components": [
            {
              "internalType": "enum SWFIntegratedEngine.WalletRole",
              "name": "role",
              "type": "uint8"
            },
            {
              "internalType": "uint256",
              "name": "balance",
              "type": "uint256"
            }
          ],
          "internalType": "struct SWFIntegratedEngine.WalletInfo[16]",
          "name": "",
          "type": "tuple[16]"
        }
      ],
      "stateMutability": "view",
      "type": "function"
    },
    {
      "inputs": [
        {
          "internalType": "address",
          "name": "",
          "type": "address"
        }
      ],
      "name": "lastRewardTime",
      "outputs": [
        {
          "internalType": "uint256",
          "name": "",
          "type": "uint256"
        }
      ],
      "stateMutability": "view",
      "type": "function"
    },
    {
      "inputs": [
        {
          "internalType": "uint256",
          "name": "",
          "type": "uint256"
        }
      ],
      "name": "recipients",
      "outputs": [
        {
          "internalType": "address",
          "name": "",
          "type": "address"
        }
      ],
      "stateMutability": "view",
      "type": "function"
    },
    {
      "inputs": [
        {
          "internalType": "address",
          "name": "",
          "type": "address"
        }
      ],
      "name": "rewardDebt",
      "outputs": [
        {
          "internalType": "uint256",
          "name": "",
          "type": "uint256"
        }
      ],
      "stateMutability": "view",
      "type": "function"
    },
    {
      "inputs": [
        {
          "internalType": "string",
          "name": "",
          "type": "string"
        }
      ],
      "name": "roleAllocations",
      "outputs": [
        {
          "internalType": "uint256",
          "name": "",
          "type": "uint256"
        }
      ],
      "stateMutability": "view",
      "type": "function"
    },
    {
      "inputs": [
        {
          "internalType": "address",
          "name": "",
          "type": "address"
        }
      ],
      "name": "roleRegistry",
      "outputs": [
        {
          "internalType": "string",
          "name": "",
          "type": "string"
        }
      ],
      "stateMutability": "view",
      "type": "function"
    },
    {
      "inputs": [
        {
          "internalType": "uint256",
          "name": "_newAprBps",
          "type": "uint256"
        }
      ],
      "name": "setAPR",
      "outputs": [],
      "stateMutability": "nonpayable",
      "type": "function"
    },
    {
      "inputs": [
        {
          "internalType": "address",
          "name": "",
          "type": "address"
        }
      ],
      "name": "stakedAmount",
      "outputs": [
        {
          "internalType": "uint256",
          "name": "",
          "type": "uint256"
        }
      ],
      "stateMutability": "view",
      "type": "function"
    },
    {
      "inputs": [],
      "name": "swfToken",
      "outputs": [
        {
          "internalType": "contract IERC20",
          "name": "",
          "type": "address"
        }
      ],
      "stateMutability": "view",
      "type": "function"
    },
    {
      "inputs": [
        {
          "internalType": "address",
          "name": "",
          "type": "address"
        },
        {
          "internalType": "uint256",
          "name": "",
          "type": "uint256"
        }
      ],
      "name": "userWallets",
      "outputs": [
        {
          "internalType": "enum SWFIntegratedEngine.WalletRole",
          "name": "role",
          "type": "uint8"
        },
        {
          "internalType": "uint256",
          "name": "balance",
          "type": "uint256"
        }
      ],
      "stateMutability": "view",
      "type": "function"
    },
    {
      "inputs": [
        {
          "internalType": "uint256",
          "name": "amount",
          "type": "uint256"
        }
      ],
      "name": "withdraw",
      "outputs": [],
      "stateMutability": "nonpayable",
      "type": "function"
    }
  ],
  "bytecode": "0x60806040526109c46002553480156200001757600080fd5b50604051620034193803806200341983398181016040528101906200003d9190620002a6565b336000806101000a81548173ffffffffffffffffffffffffffffffffffffffff021916908373ffffffffffffffffffffffffffffffffffffffff16021790555080600160006101000a81548173ffffffffffffffffffffffffffffffffffffffff021916908373ffffffffffffffffffffffffffffffffffffffff16021790555062000107336040518060400160405280601081526020017f4d61696e204469737472696275746f720000000000000000000000000000000081525060646200010e60201b60201c565b5062000768565b81600760008573ffffffffffffffffffffffffffffffffffffffff1673ffffffffffffffffffffffffffffffffffffffff16815260200190815260200160002090816200015c919062000552565b5080600883604051620001709190620006a7565b9081526020016040518091039020819055506009839080600181540180825580915050600190039060005260206000200160009091909190916101000a81548173ffffffffffffffffffffffffffffffffffffffff021916908373ffffffffffffffffffffffffffffffffffffffff1602179055508273ffffffffffffffffffffffffffffffffffffffff167f96496b57a58af8cf4d1bb6a4a69b54b68d9b47233b834f1cd1d674fc4a0d567f83836040516200022f92919062000734565b60405180910390a2505050565b600080fd5b600073ffffffffffffffffffffffffffffffffffffffff82169050919050565b60006200026e8262000241565b9050919050565b620002808162000261565b81146200028c57600080fd5b50565b600081519050620002a08162000275565b92915050565b600060208284031215620002bf57620002be6200023c565b5b6000620002cf848285016200028f565b91505092915050565b600081519050919050565b7f4e487b7100000000000000000000000000000000000000000000000000000000600052604160045260246000fd5b7f4e487b7100000000000000000000000000000000000000000000000000000000600052602260045260246000fd5b600060028204905060018216806200035a57607f821691505b60208210810362000370576200036f62000312565b5b50919050565b60008190508160005260206000209050919050565b60006020601f8301049050919050565b600082821b905092915050565b600060088302620003da7fffffffffffffffffffffffffffffffffffffffffffffffffffffffffffffffff826200039b565b620003e686836200039b565b95508019841693508086168417925050509392505050565b6000819050919050565b6000819050919050565b6000620004336200042d6200042784620003fe565b62000408565b620003fe565b9050919050565b6000819050919050565b6200044f8362000412565b620004676200045e826200043a565b848454620003a8565b825550505050565b600090565b6200047e6200046f565b6200048b81848462000444565b505050565b5b81811015620004b357620004a760008262000474565b60018101905062000491565b5050565b601f8211156200050257620004cc8162000376565b620004d7846200038b565b81016020851015620004e7578190505b620004ff620004f6856200038b565b83018262000490565b50505b505050565b600082821c905092915050565b6000620005276000198460080262000507565b1980831691505092915050565b600062000542838362000514565b9150826002028217905092915050565b6200055d82620002d8565b67ffffffffffffffff811115620005795762000578620002e3565b5b62000585825462000341565b62000592828285620004b7565b600060209050601f831160018114620005ca5760008415620005b5578287015190505b620005c1858262000534565b86555062000631565b601f198416620005da8662000376565b60005b828110156200060457848901518255600182019150602085019450602081019050620005dd565b8683101562000624578489015162000620601f89168262000514565b8355505b6001600288020188555050505b505050505050565b600081905092915050565b60005b838110156200066457808201518184015260208101905062000647565b60008484015250505050565b60006200067d82620002d8565b62000689818562000639565b93506200069b81856020860162000644565b80840191505092915050565b6000620006b5828462000670565b915081905092915050565b600082825260208201905092915050565b6000601f19601f8301169050919050565b6000620006ef82620002d8565b620006fb8185620006c0565b93506200070d81856020860162000644565b6200071881620006d1565b840191505092915050565b6200072e81620003fe565b82525050565b60006040820190508181036000830152620007508185620006e2565b905062000761602083018462000723565b9392505050565b612ca180620007786000396000f3fe608060405234801561001057600080fd5b50600436106101a95760003560e01c806364ab8675116100f9578063d1bc76a111610097578063f6ed201711610071578063f6ed20171461051d578063f851a4401461054d578063f99318551461056b578063fa3cc7ca1461059b576101a9565b8063d1bc76a11461049f578063dd2a8b11146104cf578063f4fd379e146104ff576101a9565b80638d696b02116100d35780638d696b02146103f35780639f1f8fe714610423578063b3f5a81c14610453578063b6b55f2514610483576101a9565b806364ab86751461038b5780637366794e146103bb578063854303cf146103d7576101a9565b80632e1a7d4d116101665780633b5d441e116101405780633b5d441e146102dd578063442767331461030d5780635873eb9b1461033d5780635dcc93911461036d576101a9565b80632e1a7d4d14610287578063333fc6da146102a3578063372500ab146102d3576101a9565b80630155e098146101ae57806318549ab1146101df578063191fe1ed1461020f57806321ae05c81461022d57806327ed71881461024b5780632bdd2ad914610269575b600080fd5b6101c860048036038101906101c39190611e10565b6105b9565b6040516101d6929190611ed6565b60405180910390f35b6101f960048036038101906101f49190612045565b6105fd565b604051610206919061208e565b60405180910390f35b610217610625565b604051610224919061208e565b60405180910390f35b61023561062b565b604051610242919061208e565b60405180910390f35b610253610635565b604051610260919061208e565b60405180910390f35b610271610642565b60405161027e919061208e565b60405180910390f35b6102a1600480360381019061029c91906120a9565b610648565b005b6102bd60048036038101906102b891906120d6565b610a42565b6040516102ca91906121ec565b60405180910390f35b6102db610b18565b005b6102f760048036038101906102f291906120d6565b610c9a565b604051610304919061208e565b60405180910390f35b610327600480360381019061032291906120d6565b610cb2565b6040516103349190612287565b60405180910390f35b610357600480360381019061035291906120d6565b610d83565b604051610364919061208e565b60405180910390f35b610375610d9b565b604051610382919061208e565b60405180910390f35b6103a560048036038101906103a091906120d6565b610da3565b6040516103b2919061208e565b60405180910390f35b6103d560048036038101906103d091906120a9565b610f99565b005b6103f160048036038101906103ec91906120a9565b6114b9565b005b61040d60048036038101906104089190612045565b6115d7565b60405161041a91906122b8565b60405180910390f35b61043d60048036038101906104389190612045565b6116f0565b60405161044a919061208e565b60405180910390f35b61046d600480360381019061046891906120d6565b61171e565b60405161047a9190612287565b60405180910390f35b61049d600480360381019061049891906120a9565b6117be565b005b6104b960048036038101906104b491906120a9565b611aeb565b6040516104c691906122b8565b60405180910390f35b6104e960048036038101906104e491906120d6565b611b2a565b6040516104f6919061208e565b60405180910390f35b610507611b73565b6040516105149190612391565b60405180910390f35b610537600480360381019061053291906120d6565b611c01565b604051610544919061208e565b60405180910390f35b610555611c13565b60405161056291906122b8565b60405180910390f35b610585600480360381019061058091906120d6565b611c37565b604051610592919061208e565b60405180910390f35b6105a3611c4f565b6040516105b09190612412565b60405180910390f35b600360205281600052604060002081601081106105d557600080fd5b60020201600091509150508060000160009054906101000a900460ff16908060010154905082565b600060088260405161060f9190612469565b9081526020016040518091039020549050919050565b61271081565b6000600254905090565b6802b5e3af16b188000081565b60025481565b6000811161068b576040517f08c379a0000000000000000000000000000000000000000000000000000000008152600401610682906124cc565b60405180910390fd5b80600460003373ffffffffffffffffffffffffffffffffffffffff1673ffffffffffffffffffffffffffffffffffffffff16815260200190815260200160002054101561070d576040517f08c379a000000000000000000000000000000000000000000000000000000000815260040161070490612538565b60405180910390fd5b61071633611c75565b80600460003373ffffffffffffffffffffffffffffffffffffffff1673ffffffffffffffffffffffffffffffffffffffff16815260200190815260200160002060008282546107659190612587565b925050819055506000600460003373ffffffffffffffffffffffffffffffffffffffff1673ffffffffffffffffffffffffffffffffffffffff16815260200190815260200160002054111561088d5760006010600460003373ffffffffffffffffffffffffffffffffffffffff1673ffffffffffffffffffffffffffffffffffffffff1681526020019081526020016000205461080291906125ea565b905060005b60108160ff1610156108865781600360003373ffffffffffffffffffffffffffffffffffffffff1673ffffffffffffffffffffffffffffffffffffffff1681526020019081526020016000208260ff16601081106108685761086761261b565b5b6002020160010181905550808061087e90612657565b915050610807565b5050610912565b60005b60108160ff161015610910576000600360003373ffffffffffffffffffffffffffffffffffffffff1673ffffffffffffffffffffffffffffffffffffffff1681526020019081526020016000208260ff16601081106108f2576108f161261b565b5b6002020160010181905550808061090890612657565b915050610890565b505b600160009054906101000a900473ffffffffffffffffffffffffffffffffffffffff1673ffffffffffffffffffffffffffffffffffffffff1663a9059cbb33836040518363ffffffff1660e01b815260040161096f929190612680565b6020604051808303816000875af115801561098e573d6000803e3d6000fd5b505050506040513d601f19601f820116820180604052508101906109b291906126e1565b6109f1576040517f08c379a00000000000000000000000000000000000000000000000000000000081526004016109e89061275a565b60405180910390fd5b3373ffffffffffffffffffffffffffffffffffffffff167f7084f5476618d8e60b11ef0d7d3f06914655adb8793e28ff7f018d4c76d505d582604051610a37919061208e565b60405180910390a250565b610a4a611d0e565b600360008373ffffffffffffffffffffffffffffffffffffffff1673ffffffffffffffffffffffffffffffffffffffff168152602001908152602001600020601080602002604051908101604052809291906000905b82821015610b0d578382600202016040518060400160405290816000820160009054906101000a900460ff166004811115610ade57610add611e50565b5b6004811115610af057610aef611e50565b5b815260200160018201548152505081526020019060010190610aa0565b505050509050919050565b610b2133611c75565b6000600660003373ffffffffffffffffffffffffffffffffffffffff1673ffffffffffffffffffffffffffffffffffffffff1681526020019081526020016000205490506000811115610c97576000600660003373ffffffffffffffffffffffffffffffffffffffff1673ffffffffffffffffffffffffffffffffffffffff168152602001908152602001600020819055506000600160009054906101000a900473ffffffffffffffffffffffffffffffffffffffff1690508073ffffffffffffffffffffffffffffffffffffffff166340c10f1933846040518363ffffffff1660e01b8152600401610c15929190612680565b600060405180830381600087803b158015610c2f57600080fd5b505af1158015610c43573d6000803e3d6000fd5b505050503373ffffffffffffffffffffffffffffffffffffffff167f30385c845b448a36257a6a1716e6ad2e1bc2cbe333cde1e69fe849ad6511adfe83604051610c8d919061208e565b60405180910390a2505b50565b60056020528060005260406000206000915090505481565b6060600760008373ffffffffffffffffffffffffffffffffffffffff1673ffffffffffffffffffffffffffffffffffffffff1681526020019081526020016000208054610cfe906127a9565b80601f0160208091040260200160405190810160405280929190818152602001828054610d2a906127a9565b8015610d775780601f10610d4c57610100808354040283529160200191610d77565b820191906000526020600020905b815481529060010190602001808311610d5a57829003601f168201915b50505050509050919050565b60066020528060005260406000206000915090505481565b6301e1338081565b600080600460008473ffffffffffffffffffffffffffffffffffffffff1673ffffffffffffffffffffffffffffffffffffffff168152602001908152602001600020541480610e3157506000600560008473ffffffffffffffffffffffffffffffffffffffff1673ffffffffffffffffffffffffffffffffffffffff16815260200190815260200160002054145b15610e7d57600660008373ffffffffffffffffffffffffffffffffffffffff1673ffffffffffffffffffffffffffffffffffffffff168152602001908152602001600020549050610f94565b6000600560008473ffffffffffffffffffffffffffffffffffffffff1673ffffffffffffffffffffffffffffffffffffffff1681526020019081526020016000205442610eca9190612587565b905060006301e1338061271083600254600460008973ffffffffffffffffffffffffffffffffffffffff1673ffffffffffffffffffffffffffffffffffffffff16815260200190815260200160002054610f2491906127da565b610f2e91906127da565b610f3891906125ea565b610f4291906125ea565b9050600660008573ffffffffffffffffffffffffffffffffffffffff1673ffffffffffffffffffffffffffffffffffffffff1681526020019081526020016000205481610f8f919061281c565b925050505b919050565b60008054906101000a900473ffffffffffffffffffffffffffffffffffffffff1673ffffffffffffffffffffffffffffffffffffffff163373ffffffffffffffffffffffffffffffffffffffff1614611027576040517f08c379a000000000000000000000000000000000000000000000000000000000815260040161101e9061289c565b60405180910390fd5b6000811161106a576040517f08c379a0000000000000000000000000000000000000000000000000000000008152600401611061906124cc565b60405180910390fd5b6000805b60098054905081101561130757600060076000600984815481106110955761109461261b565b5b9060005260206000200160009054906101000a900473ffffffffffffffffffffffffffffffffffffffff1673ffffffffffffffffffffffffffffffffffffffff1673ffffffffffffffffffffffffffffffffffffffff1681526020019081526020016000208054611105906127a9565b80601f0160208091040260200160405190810160405280929190818152602001828054611131906127a9565b801561117e5780601f106111535761010080835404028352916020019161117e565b820191906000526020600020905b81548152906001019060200180831161116157829003601f168201915b5050505050905060006008826040516111979190612469565b90815260200160405180910390205490506000606482876111b891906127da565b6111c291906125ea565b905080856111d0919061281c565b9450600160009054906101000a900473ffffffffffffffffffffffffffffffffffffffff1673ffffffffffffffffffffffffffffffffffffffff166323b872dd33600987815481106112255761122461261b565b5b9060005260206000200160009054906101000a900473ffffffffffffffffffffffffffffffffffffffff16846040518463ffffffff1660e01b815260040161126f939291906128bc565b6020604051808303816000875af115801561128e573d6000803e3d6000fd5b505050506040513d601f19601f820116820180604052508101906112b291906126e1565b6112f1576040517f08c379a00000000000000000000000000000000000000000000000000000000081526004016112e89061293f565b60405180910390fd5b50505080806112ff9061295f565b91505061106e565b50818110156114b5576000818361131e9190612587565b905060006113606040518060400160405280600881526020017f54726561737572790000000000000000000000000000000000000000000000008152506115d7565b9050600073ffffffffffffffffffffffffffffffffffffffff168173ffffffffffffffffffffffffffffffffffffffff16036113d1576040517f08c379a00000000000000000000000000000000000000000000000000000000081526004016113c8906129f3565b60405180910390fd5b600160009054906101000a900473ffffffffffffffffffffffffffffffffffffffff1673ffffffffffffffffffffffffffffffffffffffff166323b872dd3383856040518463ffffffff1660e01b8152600401611430939291906128bc565b6020604051808303816000875af115801561144f573d6000803e3d6000fd5b505050506040513d601f19601f8201168201806040525081019061147391906126e1565b6114b2576040517f08c379a00000000000000000000000000000000000000000000000000000000081526004016114a990612a5f565b60405180910390fd5b50505b5050565b60008054906101000a900473ffffffffffffffffffffffffffffffffffffffff1673ffffffffffffffffffffffffffffffffffffffff163373ffffffffffffffffffffffffffffffffffffffff1614611547576040517f08c379a000000000000000000000000000000000000000000000000000000000815260040161153e9061289c565b60405180910390fd5b61138881111561158c576040517f08c379a000000000000000000000000000000000000000000000000000000000815260040161158390612acb565b60405180910390fd5b60006002549050816002819055507fd2d659d197cf77652feb866d2a49b71684b0e7b0d92bde0b26163f77e2e25a2d81836040516115cb929190612aeb565b60405180910390a15050565b600080600090505b6009805490508110156116e5578280519060200120600760006009848154811061160c5761160b61261b565b5b9060005260206000200160009054906101000a900473ffffffffffffffffffffffffffffffffffffffff1673ffffffffffffffffffffffffffffffffffffffff1673ffffffffffffffffffffffffffffffffffffffff16815260200190815260200160002060405161167e9190612bb7565b6040518091039020036116d2576009818154811061169f5761169e61261b565b5b9060005260206000200160009054906101000a900473ffffffffffffffffffffffffffffffffffffffff169150506116eb565b80806116dd9061295f565b9150506115df565b50600090505b919050565b6008818051602081018201805184825260208301602085012081835280955050505050506000915090505481565b6007602052806000526040600020600091509050805461173d906127a9565b80601f0160208091040260200160405190810160405280929190818152602001828054611769906127a9565b80156117b65780601f1061178b576101008083540402835291602001916117b6565b820191906000526020600020905b81548152906001019060200180831161179957829003601f168201915b505050505081565b6802b5e3af16b188000081101561180a576040517f08c379a000000000000000000000000000000000000000000000000000000000815260040161180190612c1a565b60405180910390fd5b600160009054906101000a900473ffffffffffffffffffffffffffffffffffffffff1673ffffffffffffffffffffffffffffffffffffffff166323b872dd3330846040518463ffffffff1660e01b8152600401611869939291906128bc565b6020604051808303816000875af1158015611888573d6000803e3d6000fd5b505050506040513d601f19601f820116820180604052508101906118ac91906126e1565b6118eb576040517f08c379a00000000000000000000000000000000000000000000000000000000081526004016118e29061275a565b60405180910390fd5b6118f433611c75565b60005b60108160ff1610156119ff57604051806040016040528060058361191b9190612c3a565b60ff1660048111156119305761192f611e50565b5b600481111561194257611941611e50565b5b815260200160108461195491906125ea565b815250600360003373ffffffffffffffffffffffffffffffffffffffff1673ffffffffffffffffffffffffffffffffffffffff1681526020019081526020016000208260ff16601081106119ab576119aa61261b565b5b6002020160008201518160000160006101000a81548160ff021916908360048111156119da576119d9611e50565b5b02179055506020820151816001015590505080806119f790612657565b9150506118f7565b5080600460003373ffffffffffffffffffffffffffffffffffffffff1673ffffffffffffffffffffffffffffffffffffffff1681526020019081526020016000206000828254611a4f919061281c565b9250508190555042600560003373ffffffffffffffffffffffffffffffffffffffff1673ffffffffffffffffffffffffffffffffffffffff168152602001908152602001600020819055503373ffffffffffffffffffffffffffffffffffffffff167f2da466a7b24304f47e87fa2e1e5a81b9831ce54fec19055ce277ca2f39ba42c482604051611ae0919061208e565b60405180910390a250565b60098181548110611afb57600080fd5b906000526020600020016000915054906101000a900473ffffffffffffffffffffffffffffffffffffffff1681565b6000600460008373ffffffffffffffffffffffffffffffffffffffff1673ffffffffffffffffffffffffffffffffffffffff168152602001908152602001600020549050919050565b60606009805480602002602001604051908101604052809291908181526020018280548015611bf757602002820191906000526020600020905b8160009054906101000a900473ffffffffffffffffffffffffffffffffffffffff1673ffffffffffffffffffffffffffffffffffffffff1681526020019060010190808311611bad575b5050505050905090565b6000611c0c82610da3565b9050919050565b60008054906101000a900473ffffffffffffffffffffffffffffffffffffffff1681565b60046020528060005260406000206000915090505481565b600160009054906101000a900473ffffffffffffffffffffffffffffffffffffffff1681565b6000611c8082610da3565b905080600660008473ffffffffffffffffffffffffffffffffffffffff1673ffffffffffffffffffffffffffffffffffffffff1681526020019081526020016000208190555042600560008473ffffffffffffffffffffffffffffffffffffffff1673ffffffffffffffffffffffffffffffffffffffff168152602001908152602001600020819055505050565b6040518061020001604052806010905b611d26611d3c565b815260200190600190039081611d1e5790505090565b604051806040016040528060006004811115611d5b57611d5a611e50565b5b8152602001600081525090565b6000604051905090565b600080fd5b600080fd5b600073ffffffffffffffffffffffffffffffffffffffff82169050919050565b6000611da782611d7c565b9050919050565b611db781611d9c565b8114611dc257600080fd5b50565b600081359050611dd481611dae565b92915050565b6000819050919050565b611ded81611dda565b8114611df857600080fd5b50565b600081359050611e0a81611de4565b92915050565b60008060408385031215611e2757611e26611d72565b5b6000611e3585828601611dc5565b9250506020611e4685828601611dfb565b9150509250929050565b7f4e487b7100000000000000000000000000000000000000000000000000000000600052602160045260246000fd5b60058110611e9057611e8f611e50565b5b50565b6000819050611ea182611e7f565b919050565b6000611eb182611e93565b9050919050565b611ec181611ea6565b82525050565b611ed081611dda565b82525050565b6000604082019050611eeb6000830185611eb8565b611ef86020830184611ec7565b9392505050565b600080fd5b600080fd5b6000601f19601f8301169050919050565b7f4e487b7100000000000000000000000000000000000000000000000000000000600052604160045260246000fd5b611f5282611f09565b810181811067ffffffffffffffff82111715611f7157611f70611f1a565b5b80604052505050565b6000611f84611d68565b9050611f908282611f49565b919050565b600067ffffffffffffffff821115611fb057611faf611f1a565b5b611fb982611f09565b9050602081019050919050565b82818337600083830152505050565b6000611fe8611fe384611f95565b611f7a565b90508281526020810184848401111561200457612003611f04565b5b61200f848285611fc6565b509392505050565b600082601f83011261202c5761202b611eff565b5b813561203c848260208601611fd5565b91505092915050565b60006020828403121561205b5761205a611d72565b5b600082013567ffffffffffffffff81111561207957612078611d77565b5b61208584828501612017565b91505092915050565b60006020820190506120a36000830184611ec7565b92915050565b6000602082840312156120bf576120be611d72565b5b60006120cd84828501611dfb565b91505092915050565b6000602082840312156120ec576120eb611d72565b5b60006120fa84828501611dc5565b91505092915050565b600060109050919050565b600081905092915050565b6000819050919050565b61212c81611ea6565b82525050565b61213b81611dda565b82525050565b6040820160008201516121576000850182612123565b50602082015161216a6020850182612132565b50505050565b600061217c8383612141565b60408301905092915050565b6000602082019050919050565b61219e81612103565b6121a8818461210e565b92506121b382612119565b8060005b838110156121e45781516121cb8782612170565b96506121d683612188565b9250506001810190506121b7565b505050505050565b6000610400820190506122026000830184612195565b92915050565b600081519050919050565b600082825260208201905092915050565b60005b83811015612242578082015181840152602081019050612227565b60008484015250505050565b600061225982612208565b6122638185612213565b9350612273818560208601612224565b61227c81611f09565b840191505092915050565b600060208201905081810360008301526122a1818461224e565b905092915050565b6122b281611d9c565b82525050565b60006020820190506122cd60008301846122a9565b92915050565b600081519050919050565b600082825260208201905092915050565b6000819050602082019050919050565b61230881611d9c565b82525050565b600061231a83836122ff565b60208301905092915050565b6000602082019050919050565b600061233e826122d3565b61234881856122de565b9350612353836122ef565b8060005b8381101561238457815161236b888261230e565b975061237683612326565b925050600181019050612357565b5085935050505092915050565b600060208201905081810360008301526123ab8184612333565b905092915050565b6000819050919050565b60006123d86123d36123ce84611d7c565b6123b3565b611d7c565b9050919050565b60006123ea826123bd565b9050919050565b60006123fc826123df565b9050919050565b61240c816123f1565b82525050565b60006020820190506124276000830184612403565b92915050565b600081905092915050565b600061244382612208565b61244d818561242d565b935061245d818560208601612224565b80840191505092915050565b60006124758284612438565b915081905092915050565b7f416d6f756e74206d7573742062652067726561746572207468616e2030000000600082015250565b60006124b6601d83612213565b91506124c182612480565b602082019050919050565b600060208201905081810360008301526124e5816124a9565b9050919050565b7f496e73756666696369656e74207374616b65642062616c616e63650000000000600082015250565b6000612522601b83612213565b915061252d826124ec565b602082019050919050565b6000602082019050818103600083015261255181612515565b9050919050565b7f4e487b7100000000000000000000000000000000000000000000000000000000600052601160045260246000fd5b600061259282611dda565b915061259d83611dda565b92508282039050818111156125b5576125b4612558565b5b92915050565b7f4e487b7100000000000000000000000000000000000000000000000000000000600052601260045260246000fd5b60006125f582611dda565b915061260083611dda565b9250826126105761260f6125bb565b5b828204905092915050565b7f4e487b7100000000000000000000000000000000000000000000000000000000600052603260045260246000fd5b600060ff82169050919050565b60006126628261264a565b915060ff820361267557612674612558565b5b600182019050919050565b600060408201905061269560008301856122a9565b6126a26020830184611ec7565b9392505050565b60008115159050919050565b6126be816126a9565b81146126c957600080fd5b50565b6000815190506126db816126b5565b92915050565b6000602082840312156126f7576126f6611d72565b5b6000612705848285016126cc565b91505092915050565b7f5472616e73666572206661696c65640000000000000000000000000000000000600082015250565b6000612744600f83612213565b915061274f8261270e565b602082019050919050565b6000602082019050818103600083015261277381612737565b9050919050565b7f4e487b7100000000000000000000000000000000000000000000000000000000600052602260045260246000fd5b600060028204905060018216806127c157607f821691505b6020821081036127d4576127d361277a565b5b50919050565b60006127e582611dda565b91506127f083611dda565b92508282026127fe81611dda565b9150828204841483151761281557612814612558565b5b5092915050565b600061282782611dda565b915061283283611dda565b925082820190508082111561284a57612849612558565b5b92915050565b7f4f6e6c792061646d696e2063616e2063616c6c00000000000000000000000000600082015250565b6000612886601383612213565b915061289182612850565b602082019050919050565b600060208201905081810360008301526128b581612879565b9050919050565b60006060820190506128d160008301866122a9565b6128de60208301856122a9565b6128eb6040830184611ec7565b949350505050565b7f546f6b656e20646973747269627574696f6e206661696c656400000000000000600082015250565b6000612929601983612213565b9150612934826128f3565b602082019050919050565b600060208201905081810360008301526129588161291c565b9050919050565b600061296a82611dda565b91507fffffffffffffffffffffffffffffffffffffffffffffffffffffffffffffffff820361299c5761299b612558565b5b600182019050919050565b7f5472656173757279206e6f7420666f756e640000000000000000000000000000600082015250565b60006129dd601283612213565b91506129e8826129a7565b602082019050919050565b60006020820190508181036000830152612a0c816129d0565b9050919050565b7f52656d61696e646572207472616e73666572206661696c656400000000000000600082015250565b6000612a49601983612213565b9150612a5482612a13565b602082019050919050565b60006020820190508181036000830152612a7881612a3c565b9050919050565b7f41505220746f6f206869676820286d6178203530252900000000000000000000600082015250565b6000612ab5601683612213565b9150612ac082612a7f565b602082019050919050565b60006020820190508181036000830152612ae481612aa8565b9050919050565b6000604082019050612b006000830185611ec7565b612b0d6020830184611ec7565b9392505050565b600081905092915050565b60008190508160005260206000209050919050565b60008154612b41816127a9565b612b4b8186612b14565b94506001821660008114612b665760018114612b7b57612bae565b60ff1983168652811515820286019350612bae565b612b8485612b1f565b60005b83811015612ba657815481890152600182019150602081019050612b87565b838801955050505b50505092915050565b6000612bc38284612b34565b915081905092915050565b7f4d696e696d756d20353020535746207265717569726564000000000000000000600082015250565b6000612c04601783612213565b9150612c0f82612bce565b602082019050919050565b60006020820190508181036000830152612c3381612bf7565b9050919050565b6000612c458261264a565b9150612c508361264a565b925082612c6057612c5f6125bb565b5b82820690509291505056fea26469706673582212208c42bc9aeafa10ccfeff6928e51a163a5945f091dc9c8a5f67a6b82a94c6e6a964736f6c63430008140033",
  "linkReferences": {},
  "deployedLinkReferences": {}
}