{
  "_format": "hh-sol-artifact-1",
  "contractName": "SWFSovereignEngine",
  "sourceName": "contracts/SWFSovereignEngine.sol",
  "abi": [
    {
      "inputs": [
        {
          "internalType": "address",
          "name": "_swfTokenAddress",
          "type": "address"
        }
      ],
      "stateMutability": "nonpayable",
      "type": "constructor"
    },
    {
      "anonymous": false,
      "inputs": [
        {
          "indexed": false,
          "internalType": "uint256",
          "name": "oldAPR",
          "type": "uint256"
        },
        {
          "indexed": false,
          "internalType": "uint256",
          "name": "newAPR",
          "type": "uint256"
        }
      ],
      "name": "APRUpdated",
      "type": "event"
    },
    {
      "anonymous": false,
      "inputs": [
        {
          "indexed": true,
          "internalType": "address",
          "name": "user",
          "type": "address"
        },
        {
          "indexed": false,
          "internalType": "uint256",
          "name": "amount",
          "type": "uint256"
        }
      ],
      "name": "RewardsClaimed",
      "type": "event"
    },
    {
      "anonymous": false,
      "inputs": [
        {
          "indexed": true,
          "internalType": "address",
          "name": "user",
          "type": "address"
        },
        {
          "indexed": false,
          "internalType": "uint256",
          "name": "amount",
          "type": "uint256"
        }
      ],
      "name": "Staked",
      "type": "event"
    },
    {
      "anonymous": false,
      "inputs": [
        {
          "indexed": true,
          "internalType": "address",
          "name": "user",
          "type": "address"
        },
        {
          "indexed": false,
          "internalType": "uint256",
          "name": "amount",
          "type": "uint256"
        }
      ],
      "name": "Withdrawn",
      "type": "event"
    },
    {
      "inputs": [],
      "name": "BPS_DIVISOR",
      "outputs": [
        {
          "internalType": "uint256",
          "name": "",
          "type": "uint256"
        }
      ],
      "stateMutability": "view",
      "type": "function"
    },
    {
      "inputs": [],
      "name": "SECONDS_IN_YEAR",
      "outputs": [
        {
          "internalType": "uint256",
          "name": "",
          "type": "uint256"
        }
      ],
      "stateMutability": "view",
      "type": "function"
    },
    {
      "inputs": [],
      "name": "admin",
      "outputs": [
        {
          "internalType": "address",
          "name": "",
          "type": "address"
        }
      ],
      "stateMutability": "view",
      "type": "function"
    },
    {
      "inputs": [],
      "name": "aprBasisPoints",
      "outputs": [
        {
          "internalType": "uint256",
          "name": "",
          "type": "uint256"
        }
      ],
      "stateMutability": "view",
      "type": "function"
    },
    {
      "inputs": [
        {
          "internalType": "address",
          "name": "user",
          "type": "address"
        }
      ],
      "name": "calculateRewards",
      "outputs": [
        {
          "internalType": "uint256",
          "name": "",
          "type": "uint256"
        }
      ],
      "stateMutability": "view",
      "type": "function"
    },
    {
      "inputs": [],
      "name": "claimRewards",
      "outputs": [],
      "stateMutability": "nonpayable",
      "type": "function"
    },
    {
      "inputs": [
        {
          "internalType": "string",
          "name": "role",
          "type": "string"
        }
      ],
      "name": "getAddressByRole",
      "outputs": [
        {
          "internalType": "address",
          "name": "",
          "type": "address"
        }
      ],
      "stateMutability": "view",
      "type": "function"
    },
    {
      "inputs": [
        {
          "internalType": "string",
          "name": "role",
          "type": "string"
        }
      ],
      "name": "getAllocationByRole",
      "outputs": [
        {
          "internalType": "uint256",
          "name": "",
          "type": "uint256"
        }
      ],
      "stateMutability": "view",
      "type": "function"
    },
    {
      "inputs": [],
      "name": "getCurrentAPR",
      "outputs": [
        {
          "internalType": "uint256",
          "name": "",
          "type": "uint256"
        }
      ],
      "stateMutability": "view",
      "type": "function"
    },
    {
      "inputs": [
        {
          "internalType": "address",
          "name": "user",
          "type": "address"
        }
      ],
      "name": "getPendingRewards",
      "outputs": [
        {
          "internalType": "uint256",
          "name": "",
          "type": "uint256"
        }
      ],
      "stateMutability": "view",
      "type": "function"
    },
    {
      "inputs": [],
      "name": "getRecipientList",
      "outputs": [
        {
          "internalType": "address[]",
          "name": "",
          "type": "address[]"
        }
      ],
      "stateMutability": "view",
      "type": "function"
    },
    {
      "inputs": [
        {
          "internalType": "address",
          "name": "wallet",
          "type": "address"
        }
      ],
      "name": "getRole",
      "outputs": [
        {
          "internalType": "string",
          "name": "",
          "type": "string"
        }
      ],
      "stateMutability": "view",
      "type": "function"
    },
    {
      "inputs": [
        {
          "internalType": "address",
          "name": "user",
          "type": "address"
        }
      ],
      "name": "getTotalStaked",
      "outputs": [
        {
          "internalType": "uint256",
          "name": "",
          "type": "uint256"
        }
      ],
      "stateMutability": "view",
      "type": "function"
    },
    {
      "inputs": [
        {
          "internalType": "address",
          "name": "",
          "type": "address"
        }
      ],
      "name": "lastRewardTime",
      "outputs": [
        {
          "internalType": "uint256",
          "name": "",
          "type": "uint256"
        }
      ],
      "stateMutability": "view",
      "type": "function"
    },
    {
      "inputs": [
        {
          "internalType": "uint256",
          "name": "",
          "type": "uint256"
        }
      ],
      "name": "recipients",
      "outputs": [
        {
          "internalType": "address",
          "name": "",
          "type": "address"
        }
      ],
      "stateMutability": "view",
      "type": "function"
    },
    {
      "inputs": [
        {
          "internalType": "address",
          "name": "",
          "type": "address"
        }
      ],
      "name": "rewardDebt",
      "outputs": [
        {
          "internalType": "uint256",
          "name": "",
          "type": "uint256"
        }
      ],
      "stateMutability": "view",
      "type": "function"
    },
    {
      "inputs": [
        {
          "internalType": "string",
          "name": "",
          "type": "string"
        }
      ],
      "name": "roleAllocations",
      "outputs": [
        {
          "internalType": "uint256",
          "name": "",
          "type": "uint256"
        }
      ],
      "stateMutability": "view",
      "type": "function"
    },
    {
      "inputs": [
        {
          "internalType": "address",
          "name": "",
          "type": "address"
        }
      ],
      "name": "roleRegistry",
      "outputs": [
        {
          "internalType": "string",
          "name": "",
          "type": "string"
        }
      ],
      "stateMutability": "view",
      "type": "function"
    },
    {
      "inputs": [
        {
          "internalType": "uint256",
          "name": "_newAprBps",
          "type": "uint256"
        }
      ],
      "name": "setAPR",
      "outputs": [],
      "stateMutability": "nonpayable",
      "type": "function"
    },
    {
      "inputs": [
        {
          "internalType": "uint256",
          "name": "amount",
          "type": "uint256"
        }
      ],
      "name": "stake",
      "outputs": [],
      "stateMutability": "nonpayable",
      "type": "function"
    },
    {
      "inputs": [
        {
          "internalType": "address",
          "name": "",
          "type": "address"
        }
      ],
      "name": "staked",
      "outputs": [
        {
          "internalType": "uint256",
          "name": "",
          "type": "uint256"
        }
      ],
      "stateMutability": "view",
      "type": "function"
    },
    {
      "inputs": [],
      "name": "swfToken",
      "outputs": [
        {
          "internalType": "contract IERC20",
          "name": "",
          "type": "address"
        }
      ],
      "stateMutability": "view",
      "type": "function"
    },
    {
      "inputs": [
        {
          "internalType": "uint256",
          "name": "amount",
          "type": "uint256"
        }
      ],
      "name": "withdraw",
      "outputs": [],
      "stateMutability": "nonpayable",
      "type": "function"
    }
  ],
  "bytecode": "0x60806040526109c46005553480156200001757600080fd5b50604051620026a6380380620026a683398181016040528101906200003d919062000254565b336000806101000a81548173ffffffffffffffffffffffffffffffffffffffff021916908373ffffffffffffffffffffffffffffffffffffffff16021790555080600460006101000a81548173ffffffffffffffffffffffffffffffffffffffff021916908373ffffffffffffffffffffffffffffffffffffffff16021790555062000107336040518060400160405280601081526020017f4d61696e204469737472696275746f720000000000000000000000000000000081525060646200010e60201b60201c565b506200066e565b81600160008573ffffffffffffffffffffffffffffffffffffffff1673ffffffffffffffffffffffffffffffffffffffff16815260200190815260200160002090816200015c919062000500565b508060028360405162000170919062000655565b9081526020016040518091039020819055506003839080600181540180825580915050600190039060005260206000200160009091909190916101000a81548173ffffffffffffffffffffffffffffffffffffffff021916908373ffffffffffffffffffffffffffffffffffffffff160217905550505050565b600080fd5b600073ffffffffffffffffffffffffffffffffffffffff82169050919050565b60006200021c82620001ef565b9050919050565b6200022e816200020f565b81146200023a57600080fd5b50565b6000815190506200024e8162000223565b92915050565b6000602082840312156200026d576200026c620001ea565b5b60006200027d848285016200023d565b91505092915050565b600081519050919050565b7f4e487b7100000000000000000000000000000000000000000000000000000000600052604160045260246000fd5b7f4e487b7100000000000000000000000000000000000000000000000000000000600052602260045260246000fd5b600060028204905060018216806200030857607f821691505b6020821081036200031e576200031d620002c0565b5b50919050565b60008190508160005260206000209050919050565b60006020601f8301049050919050565b600082821b905092915050565b600060088302620003887fffffffffffffffffffffffffffffffffffffffffffffffffffffffffffffffff8262000349565b62000394868362000349565b95508019841693508086168417925050509392505050565b6000819050919050565b6000819050919050565b6000620003e1620003db620003d584620003ac565b620003b6565b620003ac565b9050919050565b6000819050919050565b620003fd83620003c0565b620004156200040c82620003e8565b84845462000356565b825550505050565b600090565b6200042c6200041d565b62000439818484620003f2565b505050565b5b8181101562000461576200045560008262000422565b6001810190506200043f565b5050565b601f821115620004b0576200047a8162000324565b620004858462000339565b8101602085101562000495578190505b620004ad620004a48562000339565b8301826200043e565b50505b505050565b600082821c905092915050565b6000620004d560001984600802620004b5565b1980831691505092915050565b6000620004f08383620004c2565b9150826002028217905092915050565b6200050b8262000286565b67ffffffffffffffff81111562000527576200052662000291565b5b620005338254620002ef565b6200054082828562000465565b600060209050601f83116001811462000578576000841562000563578287015190505b6200056f8582620004e2565b865550620005df565b601f198416620005888662000324565b60005b82811015620005b2578489015182556001820191506020850194506020810190506200058b565b86831015620005d25784890151620005ce601f891682620004c2565b8355505b6001600288020188555050505b505050505050565b600081905092915050565b60005b8381101562000612578082015181840152602081019050620005f5565b60008484015250505050565b60006200062b8262000286565b620006378185620005e7565b935062000649818560208601620005f2565b80840191505092915050565b60006200066382846200061e565b915081905092915050565b612028806200067e6000396000f3fe608060405234801561001057600080fd5b506004361061014d5760003560e01c8063854303cf116100c3578063d1bc76a11161007c578063d1bc76a1146103d8578063dd2a8b1114610408578063f4fd379e14610438578063f6ed201714610456578063f851a44014610486578063fa3cc7ca146104a45761014d565b8063854303cf146102e05780638d696b02146102fc57806398807d841461032c5780639f1f8fe71461035c578063a694fc3a1461038c578063b3f5a81c146103a85761014d565b8063372500ab11610115578063372500ab146101f85780633b5d441e1461020257806344276733146102325780635873eb9b146102625780635dcc93911461029257806364ab8675146102b05761014d565b806318549ab114610152578063191fe1ed1461018257806321ae05c8146101a05780632bdd2ad9146101be5780632e1a7d4d146101dc575b600080fd5b61016c6004803603810190610167919061156d565b6104c2565b60405161017991906115cf565b60405180910390f35b61018a6104ea565b60405161019791906115cf565b60405180910390f35b6101a86104f0565b6040516101b591906115cf565b60405180910390f35b6101c66104fa565b6040516101d391906115cf565b60405180910390f35b6101f660048036038101906101f19190611616565b610500565b005b610200610754565b005b61021c600480360381019061021791906116a1565b6109d4565b60405161022991906115cf565b60405180910390f35b61024c600480360381019061024791906116a1565b6109ec565b604051610259919061174d565b60405180910390f35b61027c600480360381019061027791906116a1565b610abd565b60405161028991906115cf565b60405180910390f35b61029a610ad5565b6040516102a791906115cf565b60405180910390f35b6102ca60048036038101906102c591906116a1565b610add565b6040516102d791906115cf565b60405180910390f35b6102fa60048036038101906102f59190611616565b610cd3565b005b6103166004803603810190610311919061156d565b610df1565b604051610323919061177e565b60405180910390f35b610346600480360381019061034191906116a1565b610f0a565b60405161035391906115cf565b60405180910390f35b6103766004803603810190610371919061156d565b610f22565b60405161038391906115cf565b60405180910390f35b6103a660048036038101906103a19190611616565b610f50565b005b6103c260048036038101906103bd91906116a1565b611168565b6040516103cf919061174d565b60405180910390f35b6103f260048036038101906103ed9190611616565b611208565b6040516103ff919061177e565b60405180910390f35b610422600480360381019061041d91906116a1565b611247565b60405161042f91906115cf565b60405180910390f35b610440611290565b60405161044d9190611857565b60405180910390f35b610470600480360381019061046b91906116a1565b61131e565b60405161047d91906115cf565b60405180910390f35b61048e611330565b60405161049b919061177e565b60405180910390f35b6104ac611354565b6040516104b991906118d8565b60405180910390f35b60006002826040516104d4919061192f565b9081526020016040518091039020549050919050565b61271081565b6000600554905090565b60055481565b60008111610543576040517f08c379a000000000000000000000000000000000000000000000000000000000815260040161053a90611992565b60405180910390fd5b80600660003373ffffffffffffffffffffffffffffffffffffffff1673ffffffffffffffffffffffffffffffffffffffff1681526020019081526020016000205410156105c5576040517f08c379a00000000000000000000000000000000000000000000000000000000081526004016105bc906119fe565b60405180910390fd5b6105ce3361137a565b80600660003373ffffffffffffffffffffffffffffffffffffffff1673ffffffffffffffffffffffffffffffffffffffff168152602001908152602001600020600082825461061d9190611a4d565b92505081905550600460009054906101000a900473ffffffffffffffffffffffffffffffffffffffff1673ffffffffffffffffffffffffffffffffffffffff1663a9059cbb33836040518363ffffffff1660e01b8152600401610681929190611a81565b6020604051808303816000875af11580156106a0573d6000803e3d6000fd5b505050506040513d601f19601f820116820180604052508101906106c49190611ae2565b610703576040517f08c379a00000000000000000000000000000000000000000000000000000000081526004016106fa90611b5b565b60405180910390fd5b3373ffffffffffffffffffffffffffffffffffffffff167f7084f5476618d8e60b11ef0d7d3f06914655adb8793e28ff7f018d4c76d505d58260405161074991906115cf565b60405180910390a250565b61075d3361137a565b6000600860003373ffffffffffffffffffffffffffffffffffffffff1673ffffffffffffffffffffffffffffffffffffffff16815260200190815260200160002054905060008111156109d1576000600860003373ffffffffffffffffffffffffffffffffffffffff1673ffffffffffffffffffffffffffffffffffffffff16815260200190815260200160002081905550600061082f6040518060400160405280600881526020017f5472656173757279000000000000000000000000000000000000000000000000815250610df1565b9050600073ffffffffffffffffffffffffffffffffffffffff168173ffffffffffffffffffffffffffffffffffffffff16036108a0576040517f08c379a000000000000000000000000000000000000000000000000000000000815260040161089790611bc7565b60405180910390fd5b600460009054906101000a900473ffffffffffffffffffffffffffffffffffffffff1673ffffffffffffffffffffffffffffffffffffffff166323b872dd8233856040518463ffffffff1660e01b81526004016108ff93929190611be7565b6020604051808303816000875af115801561091e573d6000803e3d6000fd5b505050506040513d601f19601f820116820180604052508101906109429190611ae2565b610981576040517f08c379a000000000000000000000000000000000000000000000000000000000815260040161097890611c6a565b60405180910390fd5b3373ffffffffffffffffffffffffffffffffffffffff167ffc30cddea38e2bf4d6ea7d3f9ed3b6ad7f176419f4963bd81318067a4aee73fe836040516109c791906115cf565b60405180910390a2505b50565b60076020528060005260406000206000915090505481565b6060600160008373ffffffffffffffffffffffffffffffffffffffff1673ffffffffffffffffffffffffffffffffffffffff1681526020019081526020016000208054610a3890611cb9565b80601f0160208091040260200160405190810160405280929190818152602001828054610a6490611cb9565b8015610ab15780601f10610a8657610100808354040283529160200191610ab1565b820191906000526020600020905b815481529060010190602001808311610a9457829003601f168201915b50505050509050919050565b60086020528060005260406000206000915090505481565b6301e1338081565b600080600660008473ffffffffffffffffffffffffffffffffffffffff1673ffffffffffffffffffffffffffffffffffffffff168152602001908152602001600020541480610b6b57506000600760008473ffffffffffffffffffffffffffffffffffffffff1673ffffffffffffffffffffffffffffffffffffffff16815260200190815260200160002054145b15610bb757600860008373ffffffffffffffffffffffffffffffffffffffff1673ffffffffffffffffffffffffffffffffffffffff168152602001908152602001600020549050610cce565b6000600760008473ffffffffffffffffffffffffffffffffffffffff1673ffffffffffffffffffffffffffffffffffffffff1681526020019081526020016000205442610c049190611a4d565b905060006301e1338061271083600554600660008973ffffffffffffffffffffffffffffffffffffffff1673ffffffffffffffffffffffffffffffffffffffff16815260200190815260200160002054610c5e9190611cea565b610c689190611cea565b610c729190611d5b565b610c7c9190611d5b565b9050600860008573ffffffffffffffffffffffffffffffffffffffff1673ffffffffffffffffffffffffffffffffffffffff1681526020019081526020016000205481610cc99190611d8c565b925050505b919050565b60008054906101000a900473ffffffffffffffffffffffffffffffffffffffff1673ffffffffffffffffffffffffffffffffffffffff163373ffffffffffffffffffffffffffffffffffffffff1614610d61576040517f08c379a0000000000000000000000000000000000000000000000000000000008152600401610d5890611e0c565b60405180910390fd5b611388811115610da6576040517f08c379a0000000000000000000000000000000000000000000000000000000008152600401610d9d90611e78565b60405180910390fd5b60006005549050816005819055507fd2d659d197cf77652feb866d2a49b71684b0e7b0d92bde0b26163f77e2e25a2d8183604051610de5929190611e98565b60405180910390a15050565b600080600090505b600380549050811015610eff5782805190602001206001600060038481548110610e2657610e25611ec1565b5b9060005260206000200160009054906101000a900473ffffffffffffffffffffffffffffffffffffffff1673ffffffffffffffffffffffffffffffffffffffff1673ffffffffffffffffffffffffffffffffffffffff168152602001908152602001600020604051610e989190611f93565b604051809103902003610eec5760038181548110610eb957610eb8611ec1565b5b9060005260206000200160009054906101000a900473ffffffffffffffffffffffffffffffffffffffff16915050610f05565b8080610ef790611faa565b915050610df9565b50600090505b919050565b60066020528060005260406000206000915090505481565b6002818051602081018201805184825260208301602085012081835280955050505050506000915090505481565b60008111610f93576040517f08c379a0000000000000000000000000000000000000000000000000000000008152600401610f8a90611992565b60405180910390fd5b610f9c3361137a565b600460009054906101000a900473ffffffffffffffffffffffffffffffffffffffff1673ffffffffffffffffffffffffffffffffffffffff166323b872dd3330846040518463ffffffff1660e01b8152600401610ffb93929190611be7565b6020604051808303816000875af115801561101a573d6000803e3d6000fd5b505050506040513d601f19601f8201168201806040525081019061103e9190611ae2565b61107d576040517f08c379a000000000000000000000000000000000000000000000000000000000815260040161107490611b5b565b60405180910390fd5b80600660003373ffffffffffffffffffffffffffffffffffffffff1673ffffffffffffffffffffffffffffffffffffffff16815260200190815260200160002060008282546110cc9190611d8c565b9250508190555042600760003373ffffffffffffffffffffffffffffffffffffffff1673ffffffffffffffffffffffffffffffffffffffff168152602001908152602001600020819055503373ffffffffffffffffffffffffffffffffffffffff167f9e71bc8eea02a63969f509818f2dafb9254532904319f9dbda79b67bd34a5f3d8260405161115d91906115cf565b60405180910390a250565b6001602052806000526040600020600091509050805461118790611cb9565b80601f01602080910402602001604051908101604052809291908181526020018280546111b390611cb9565b80156112005780601f106111d557610100808354040283529160200191611200565b820191906000526020600020905b8154815290600101906020018083116111e357829003601f168201915b505050505081565b6003818154811061121857600080fd5b906000526020600020016000915054906101000a900473ffffffffffffffffffffffffffffffffffffffff1681565b6000600660008373ffffffffffffffffffffffffffffffffffffffff1673ffffffffffffffffffffffffffffffffffffffff168152602001908152602001600020549050919050565b6060600380548060200260200160405190810160405280929190818152602001828054801561131457602002820191906000526020600020905b8160009054906101000a900473ffffffffffffffffffffffffffffffffffffffff1673ffffffffffffffffffffffffffffffffffffffff16815260200190600101908083116112ca575b5050505050905090565b600061132982610add565b9050919050565b60008054906101000a900473ffffffffffffffffffffffffffffffffffffffff1681565b600460009054906101000a900473ffffffffffffffffffffffffffffffffffffffff1681565b600061138582610add565b905080600860008473ffffffffffffffffffffffffffffffffffffffff1673ffffffffffffffffffffffffffffffffffffffff1681526020019081526020016000208190555042600760008473ffffffffffffffffffffffffffffffffffffffff1673ffffffffffffffffffffffffffffffffffffffff168152602001908152602001600020819055505050565b6000604051905090565b600080fd5b600080fd5b600080fd5b600080fd5b6000601f19601f8301169050919050565b7f4e487b7100000000000000000000000000000000000000000000000000000000600052604160045260246000fd5b61147a82611431565b810181811067ffffffffffffffff8211171561149957611498611442565b5b80604052505050565b60006114ac611413565b90506114b88282611471565b919050565b600067ffffffffffffffff8211156114d8576114d7611442565b5b6114e182611431565b9050602081019050919050565b82818337600083830152505050565b600061151061150b846114bd565b6114a2565b90508281526020810184848401111561152c5761152b61142c565b5b6115378482856114ee565b509392505050565b600082601f83011261155457611553611427565b5b81356115648482602086016114fd565b91505092915050565b6000602082840312156115835761158261141d565b5b600082013567ffffffffffffffff8111156115a1576115a0611422565b5b6115ad8482850161153f565b91505092915050565b6000819050919050565b6115c9816115b6565b82525050565b60006020820190506115e460008301846115c0565b92915050565b6115f3816115b6565b81146115fe57600080fd5b50565b600081359050611610816115ea565b92915050565b60006020828403121561162c5761162b61141d565b5b600061163a84828501611601565b91505092915050565b600073ffffffffffffffffffffffffffffffffffffffff82169050919050565b600061166e82611643565b9050919050565b61167e81611663565b811461168957600080fd5b50565b60008135905061169b81611675565b92915050565b6000602082840312156116b7576116b661141d565b5b60006116c58482850161168c565b91505092915050565b600081519050919050565b600082825260208201905092915050565b60005b838110156117085780820151818401526020810190506116ed565b60008484015250505050565b600061171f826116ce565b61172981856116d9565b93506117398185602086016116ea565b61174281611431565b840191505092915050565b600060208201905081810360008301526117678184611714565b905092915050565b61177881611663565b82525050565b6000602082019050611793600083018461176f565b92915050565b600081519050919050565b600082825260208201905092915050565b6000819050602082019050919050565b6117ce81611663565b82525050565b60006117e083836117c5565b60208301905092915050565b6000602082019050919050565b600061180482611799565b61180e81856117a4565b9350611819836117b5565b8060005b8381101561184a57815161183188826117d4565b975061183c836117ec565b92505060018101905061181d565b5085935050505092915050565b6000602082019050818103600083015261187181846117f9565b905092915050565b6000819050919050565b600061189e61189961189484611643565b611879565b611643565b9050919050565b60006118b082611883565b9050919050565b60006118c2826118a5565b9050919050565b6118d2816118b7565b82525050565b60006020820190506118ed60008301846118c9565b92915050565b600081905092915050565b6000611909826116ce565b61191381856118f3565b93506119238185602086016116ea565b80840191505092915050565b600061193b82846118fe565b915081905092915050565b7f416d6f756e74206d7573742062652067726561746572207468616e2030000000600082015250565b600061197c601d836116d9565b915061198782611946565b602082019050919050565b600060208201905081810360008301526119ab8161196f565b9050919050565b7f496e73756666696369656e74207374616b65642062616c616e63650000000000600082015250565b60006119e8601b836116d9565b91506119f3826119b2565b602082019050919050565b60006020820190508181036000830152611a17816119db565b9050919050565b7f4e487b7100000000000000000000000000000000000000000000000000000000600052601160045260246000fd5b6000611a58826115b6565b9150611a63836115b6565b9250828203905081811115611a7b57611a7a611a1e565b5b92915050565b6000604082019050611a96600083018561176f565b611aa360208301846115c0565b9392505050565b60008115159050919050565b611abf81611aaa565b8114611aca57600080fd5b50565b600081519050611adc81611ab6565b92915050565b600060208284031215611af857611af761141d565b5b6000611b0684828501611acd565b91505092915050565b7f5472616e73666572206661696c65640000000000000000000000000000000000600082015250565b6000611b45600f836116d9565b9150611b5082611b0f565b602082019050919050565b60006020820190508181036000830152611b7481611b38565b9050919050565b7f5472656173757279206e6f7420666f756e640000000000000000000000000000600082015250565b6000611bb16012836116d9565b9150611bbc82611b7b565b602082019050919050565b60006020820190508181036000830152611be081611ba4565b9050919050565b6000606082019050611bfc600083018661176f565b611c09602083018561176f565b611c1660408301846115c0565b949350505050565b7f526577617264207472616e73666572206661696c656400000000000000000000600082015250565b6000611c546016836116d9565b9150611c5f82611c1e565b602082019050919050565b60006020820190508181036000830152611c8381611c47565b9050919050565b7f4e487b7100000000000000000000000000000000000000000000000000000000600052602260045260246000fd5b60006002820490506001821680611cd157607f821691505b602082108103611ce457611ce3611c8a565b5b50919050565b6000611cf5826115b6565b9150611d00836115b6565b9250828202611d0e816115b6565b91508282048414831517611d2557611d24611a1e565b5b5092915050565b7f4e487b7100000000000000000000000000000000000000000000000000000000600052601260045260246000fd5b6000611d66826115b6565b9150611d71836115b6565b925082611d8157611d80611d2c565b5b828204905092915050565b6000611d97826115b6565b9150611da2836115b6565b9250828201905080821115611dba57611db9611a1e565b5b92915050565b7f4f6e6c792061646d696e2063616e2063616c6c00000000000000000000000000600082015250565b6000611df66013836116d9565b9150611e0182611dc0565b602082019050919050565b60006020820190508181036000830152611e2581611de9565b9050919050565b7f41505220746f6f206869676820286d6178203530252900000000000000000000600082015250565b6000611e626016836116d9565b9150611e6d82611e2c565b602082019050919050565b60006020820190508181036000830152611e9181611e55565b9050919050565b6000604082019050611ead60008301856115c0565b611eba60208301846115c0565b9392505050565b7f4e487b7100000000000000000000000000000000000000000000000000000000600052603260045260246000fd5b600081905092915050565b60008190508160005260206000209050919050565b60008154611f1d81611cb9565b611f278186611ef0565b94506001821660008114611f425760018114611f5757611f8a565b60ff1983168652811515820286019350611f8a565b611f6085611efb565b60005b83811015611f8257815481890152600182019150602081019050611f63565b838801955050505b50505092915050565b6000611f9f8284611f10565b915081905092915050565b6000611fb5826115b6565b91507fffffffffffffffffffffffffffffffffffffffffffffffffffffffffffffffff8203611fe757611fe6611a1e565b5b60018201905091905056fea26469706673582212201c1848a907e7acf7a0570d1f53021d175e5f0e46f865947b21961a4031ed401e64736f6c63430008140033",
  "linkReferences": {},
  "deployedLinkReferences": {}
}