{
  "_format": "hh-sol-artifact-1",
  "contractName": "SoloMethodEngine",
  "sourceName": "contracts/SovranWealthEngine.sol",
  "abi": [
    {
      "inputs": [
        {
          "internalType": "address",
          "name": "_swfTokenAddress",
          "type": "address"
        }
      ],
      "stateMutability": "nonpayable",
      "type": "constructor"
    },
    {
      "anonymous": false,
      "inputs": [
        {
          "indexed": true,
          "internalType": "address",
          "name": "user",
          "type": "address"
        },
        {
          "indexed": false,
          "internalType": "uint256",
          "name": "amount",
          "type": "uint256"
        }
      ],
      "name": "Deposited",
      "type": "event"
    },
    {
      "anonymous": false,
      "inputs": [
        {
          "indexed": true,
          "internalType": "address",
          "name": "user",
          "type": "address"
        },
        {
          "indexed": false,
          "internalType": "uint256",
          "name": "reward",
          "type": "uint256"
        }
      ],
      "name": "Minted",
      "type": "event"
    },
    {
      "anonymous": false,
      "inputs": [
        {
          "indexed": true,
          "internalType": "address",
          "name": "user",
          "type": "address"
        },
        {
          "indexed": false,
          "internalType": "uint256",
          "name": "amount",
          "type": "uint256"
        }
      ],
      "name": "Withdrawn",
      "type": "event"
    },
    {
      "inputs": [],
      "name": "REWARD_PERIOD",
      "outputs": [
        {
          "internalType": "uint256",
          "name": "",
          "type": "uint256"
        }
      ],
      "stateMutability": "view",
      "type": "function"
    },
    {
      "inputs": [],
      "name": "REWARD_RATE",
      "outputs": [
        {
          "internalType": "uint256",
          "name": "",
          "type": "uint256"
        }
      ],
      "stateMutability": "view",
      "type": "function"
    },
    {
      "inputs": [],
      "name": "admin",
      "outputs": [
        {
          "internalType": "address",
          "name": "",
          "type": "address"
        }
      ],
      "stateMutability": "view",
      "type": "function"
    },
    {
      "inputs": [
        {
          "internalType": "address",
          "name": "user",
          "type": "address"
        }
      ],
      "name": "calculateRewards",
      "outputs": [
        {
          "internalType": "uint256",
          "name": "",
          "type": "uint256"
        }
      ],
      "stateMutability": "view",
      "type": "function"
    },
    {
      "inputs": [],
      "name": "claimRewards",
      "outputs": [],
      "stateMutability": "nonpayable",
      "type": "function"
    },
    {
      "inputs": [
        {
          "internalType": "uint256",
          "name": "amount",
          "type": "uint256"
        }
      ],
      "name": "deposit",
      "outputs": [],
      "stateMutability": "nonpayable",
      "type": "function"
    },
    {
      "inputs": [
        {
          "internalType": "address",
          "name": "user",
          "type": "address"
        }
      ],
      "name": "getPendingRewards",
      "outputs": [
        {
          "internalType": "uint256",
          "name": "",
          "type": "uint256"
        }
      ],
      "stateMutability": "view",
      "type": "function"
    },
    {
      "inputs": [
        {
          "internalType": "address",
          "name": "user",
          "type": "address"
        }
      ],
      "name": "getTotalStaked",
      "outputs": [
        {
          "internalType": "uint256",
          "name": "",
          "type": "uint256"
        }
      ],
      "stateMutability": "view",
      "type": "function"
    },
    {
      "inputs": [
        {
          "internalType": "address",
          "name": "user",
          "type": "address"
        }
      ],
      "name": "getWalletBreakdown",
      "outputs": [
        {
          "components": [
            {
              "internalType": "enum SoloMethodEngine.WalletRole",
              "name": "role",
              "type": "uint8"
            },
            {
              "internalType": "uint256",
              "name": "balance",
              "type": "uint256"
            }
          ],
          "internalType": "struct SoloMethodEngine.WalletInfo[16]",
          "name": "",
          "type": "tuple[16]"
        }
      ],
      "stateMutability": "view",
      "type": "function"
    },
    {
      "inputs": [
        {
          "internalType": "address",
          "name": "",
          "type": "address"
        }
      ],
      "name": "lastRewardTime",
      "outputs": [
        {
          "internalType": "uint256",
          "name": "",
          "type": "uint256"
        }
      ],
      "stateMutability": "view",
      "type": "function"
    },
    {
      "inputs": [
        {
          "internalType": "address",
          "name": "",
          "type": "address"
        }
      ],
      "name": "stakedAmount",
      "outputs": [
        {
          "internalType": "uint256",
          "name": "",
          "type": "uint256"
        }
      ],
      "stateMutability": "view",
      "type": "function"
    },
    {
      "inputs": [],
      "name": "swf",
      "outputs": [
        {
          "internalType": "contract IERC20",
          "name": "",
          "type": "address"
        }
      ],
      "stateMutability": "view",
      "type": "function"
    },
    {
      "inputs": [
        {
          "internalType": "address",
          "name": "",
          "type": "address"
        },
        {
          "internalType": "uint256",
          "name": "",
          "type": "uint256"
        }
      ],
      "name": "userWallets",
      "outputs": [
        {
          "internalType": "enum SoloMethodEngine.WalletRole",
          "name": "role",
          "type": "uint8"
        },
        {
          "internalType": "uint256",
          "name": "balance",
          "type": "uint256"
        }
      ],
      "stateMutability": "view",
      "type": "function"
    },
    {
      "inputs": [
        {
          "internalType": "uint256",
          "name": "amount",
          "type": "uint256"
        }
      ],
      "name": "withdraw",
      "outputs": [],
      "stateMutability": "nonpayable",
      "type": "function"
    }
  ],
  "bytecode": "0x60806040523480156200001157600080fd5b50604051620018c8380380620018c8833981810160405281019062000037919062000129565b806000806101000a81548173ffffffffffffffffffffffffffffffffffffffff021916908373ffffffffffffffffffffffffffffffffffffffff16021790555033600160006101000a81548173ffffffffffffffffffffffffffffffffffffffff021916908373ffffffffffffffffffffffffffffffffffffffff160217905550506200015b565b600080fd5b600073ffffffffffffffffffffffffffffffffffffffff82169050919050565b6000620000f182620000c4565b9050919050565b6200010381620000e4565b81146200010f57600080fd5b50565b6000815190506200012381620000f8565b92915050565b600060208284031215620001425762000141620000bf565b5b6000620001528482850162000112565b91505092915050565b61175d806200016b6000396000f3fe608060405234801561001057600080fd5b50600436106100ea5760003560e01c806364ab86751161008c578063dd2a8b1111610066578063dd2a8b111461024c578063f6ed20171461027c578063f851a440146102ac578063f9931855146102ca576100ea565b806364ab8675146101e2578063b6b55f2514610212578063d41a814c1461022e576100ea565b8063333fc6da116100c8578063333fc6da1461015a578063372500ab1461018a5780633b5d441e146101945780635997bb37146101c4576100ea565b80630155e098146100ef5780630a171df8146101205780632e1a7d4d1461013e575b600080fd5b61010960048036038101906101049190610fc5565b6102fa565b60405161011792919061108b565b60405180910390f35b61012861033e565b60405161013591906110b4565b60405180910390f35b610158600480360381019061015391906110cf565b610345565b005b610174600480360381019061016f91906110fc565b61073c565b6040516101819190611212565b60405180910390f35b610192610812565b005b6101ae60048036038101906101a991906110fc565b610952565b6040516101bb91906110b4565b60405180910390f35b6101cc61096a565b6040516101d991906110b4565b60405180910390f35b6101fc60048036038101906101f791906110fc565b61096f565b60405161020991906110b4565b60405180910390f35b61022c600480360381019061022791906110cf565b610af3565b005b610236610e15565b604051610243919061128d565b60405180910390f35b610266600480360381019061026191906110fc565b610e39565b60405161027391906110b4565b60405180910390f35b610296600480360381019061029191906110fc565b610e82565b6040516102a391906110b4565b60405180910390f35b6102b4610e94565b6040516102c191906112b7565b60405180910390f35b6102e460048036038101906102df91906110fc565b610eba565b6040516102f191906110b4565b60405180910390f35b6002602052816000526040600020816010811061031657600080fd5b60020201600091509150508060000160009054906101000a900460ff16908060010154905082565b62278d0081565b60008111610388576040517f08c379a000000000000000000000000000000000000000000000000000000000815260040161037f9061132f565b60405180910390fd5b80600360003373ffffffffffffffffffffffffffffffffffffffff1673ffffffffffffffffffffffffffffffffffffffff16815260200190815260200160002054101561040a576040517f08c379a00000000000000000000000000000000000000000000000000000000081526004016104019061139b565b60405180910390fd5b610412610812565b80600360003373ffffffffffffffffffffffffffffffffffffffff1673ffffffffffffffffffffffffffffffffffffffff168152602001908152602001600020600082825461046191906113ea565b925050819055506000600360003373ffffffffffffffffffffffffffffffffffffffff1673ffffffffffffffffffffffffffffffffffffffff1681526020019081526020016000205411156105895760006010600360003373ffffffffffffffffffffffffffffffffffffffff1673ffffffffffffffffffffffffffffffffffffffff168152602001908152602001600020546104fe919061144d565b905060005b60108160ff1610156105825781600260003373ffffffffffffffffffffffffffffffffffffffff1673ffffffffffffffffffffffffffffffffffffffff1681526020019081526020016000208260ff16601081106105645761056361147e565b5b6002020160010181905550808061057a906114ba565b915050610503565b505061060e565b60005b60108160ff16101561060c576000600260003373ffffffffffffffffffffffffffffffffffffffff1673ffffffffffffffffffffffffffffffffffffffff1681526020019081526020016000208260ff16601081106105ee576105ed61147e565b5b60020201600101819055508080610604906114ba565b91505061058c565b505b60008054906101000a900473ffffffffffffffffffffffffffffffffffffffff1673ffffffffffffffffffffffffffffffffffffffff1663a9059cbb33836040518363ffffffff1660e01b81526004016106699291906114e3565b6020604051808303816000875af1158015610688573d6000803e3d6000fd5b505050506040513d601f19601f820116820180604052508101906106ac9190611544565b6106eb576040517f08c379a00000000000000000000000000000000000000000000000000000000081526004016106e2906115bd565b60405180910390fd5b3373ffffffffffffffffffffffffffffffffffffffff167f7084f5476618d8e60b11ef0d7d3f06914655adb8793e28ff7f018d4c76d505d58260405161073191906110b4565b60405180910390a250565b610744610ed2565b600260008373ffffffffffffffffffffffffffffffffffffffff1673ffffffffffffffffffffffffffffffffffffffff168152602001908152602001600020601080602002604051908101604052809291906000905b82821015610807578382600202016040518060400160405290816000820160009054906101000a900460ff1660048111156107d8576107d7611005565b5b60048111156107ea576107e9611005565b5b81526020016001820154815250508152602001906001019061079a565b505050509050919050565b600061081d3361096f565b9050600081111561094f5742600460003373ffffffffffffffffffffffffffffffffffffffff1673ffffffffffffffffffffffffffffffffffffffff1681526020019081526020016000208190555060008060009054906101000a900473ffffffffffffffffffffffffffffffffffffffff1690508073ffffffffffffffffffffffffffffffffffffffff166340c10f1933846040518363ffffffff1660e01b81526004016108cd9291906114e3565b600060405180830381600087803b1580156108e757600080fd5b505af11580156108fb573d6000803e3d6000fd5b505050503373ffffffffffffffffffffffffffffffffffffffff167f30385c845b448a36257a6a1716e6ad2e1bc2cbe333cde1e69fe849ad6511adfe8360405161094591906110b4565b60405180910390a2505b50565b60046020528060005260406000206000915090505481565b600581565b600080600360008473ffffffffffffffffffffffffffffffffffffffff1673ffffffffffffffffffffffffffffffffffffffff1681526020019081526020016000205414806109fd57506000600460008473ffffffffffffffffffffffffffffffffffffffff1673ffffffffffffffffffffffffffffffffffffffff16815260200190815260200160002054145b15610a0b5760009050610aee565b6000600460008473ffffffffffffffffffffffffffffffffffffffff1673ffffffffffffffffffffffffffffffffffffffff1681526020019081526020016000205442610a5891906113ea565b9050600062278d0082610a6b919061144d565b905060008103610a8057600092505050610aee565b60006064826005600360008973ffffffffffffffffffffffffffffffffffffffff1673ffffffffffffffffffffffffffffffffffffffff16815260200190815260200160002054610ad191906115dd565b610adb91906115dd565b610ae5919061144d565b90508093505050505b919050565b6802b5e3af16b1880000811015610b3f576040517f08c379a0000000000000000000000000000000000000000000000000000000008152600401610b369061166b565b60405180910390fd5b60008054906101000a900473ffffffffffffffffffffffffffffffffffffffff1673ffffffffffffffffffffffffffffffffffffffff166323b872dd3330846040518463ffffffff1660e01b8152600401610b9c9392919061168b565b6020604051808303816000875af1158015610bbb573d6000803e3d6000fd5b505050506040513d601f19601f82011682018060405250810190610bdf9190611544565b610c1e576040517f08c379a0000000000000000000000000000000000000000000000000000000008152600401610c15906115bd565b60405180910390fd5b60005b60108160ff161015610d29576040518060400160405280600583610c4591906116c2565b60ff166004811115610c5a57610c59611005565b5b6004811115610c6c57610c6b611005565b5b8152602001601084610c7e919061144d565b815250600260003373ffffffffffffffffffffffffffffffffffffffff1673ffffffffffffffffffffffffffffffffffffffff1681526020019081526020016000208260ff1660108110610cd557610cd461147e565b5b6002020160008201518160000160006101000a81548160ff02191690836004811115610d0457610d03611005565b5b0217905550602082015181600101559050508080610d21906114ba565b915050610c21565b5080600360003373ffffffffffffffffffffffffffffffffffffffff1673ffffffffffffffffffffffffffffffffffffffff1681526020019081526020016000206000828254610d7991906116f3565b9250508190555042600460003373ffffffffffffffffffffffffffffffffffffffff1673ffffffffffffffffffffffffffffffffffffffff168152602001908152602001600020819055503373ffffffffffffffffffffffffffffffffffffffff167f2da466a7b24304f47e87fa2e1e5a81b9831ce54fec19055ce277ca2f39ba42c482604051610e0a91906110b4565b60405180910390a250565b60008054906101000a900473ffffffffffffffffffffffffffffffffffffffff1681565b6000600360008373ffffffffffffffffffffffffffffffffffffffff1673ffffffffffffffffffffffffffffffffffffffff168152602001908152602001600020549050919050565b6000610e8d8261096f565b9050919050565b600160009054906101000a900473ffffffffffffffffffffffffffffffffffffffff1681565b60036020528060005260406000206000915090505481565b6040518061020001604052806010905b610eea610f00565b815260200190600190039081610ee25790505090565b604051806040016040528060006004811115610f1f57610f1e611005565b5b8152602001600081525090565b600080fd5b600073ffffffffffffffffffffffffffffffffffffffff82169050919050565b6000610f5c82610f31565b9050919050565b610f6c81610f51565b8114610f7757600080fd5b50565b600081359050610f8981610f63565b92915050565b6000819050919050565b610fa281610f8f565b8114610fad57600080fd5b50565b600081359050610fbf81610f99565b92915050565b60008060408385031215610fdc57610fdb610f2c565b5b6000610fea85828601610f7a565b9250506020610ffb85828601610fb0565b9150509250929050565b7f4e487b7100000000000000000000000000000000000000000000000000000000600052602160045260246000fd5b6005811061104557611044611005565b5b50565b600081905061105682611034565b919050565b600061106682611048565b9050919050565b6110768161105b565b82525050565b61108581610f8f565b82525050565b60006040820190506110a0600083018561106d565b6110ad602083018461107c565b9392505050565b60006020820190506110c9600083018461107c565b92915050565b6000602082840312156110e5576110e4610f2c565b5b60006110f384828501610fb0565b91505092915050565b60006020828403121561111257611111610f2c565b5b600061112084828501610f7a565b91505092915050565b600060109050919050565b600081905092915050565b6000819050919050565b6111528161105b565b82525050565b61116181610f8f565b82525050565b60408201600082015161117d6000850182611149565b5060208201516111906020850182611158565b50505050565b60006111a28383611167565b60408301905092915050565b6000602082019050919050565b6111c481611129565b6111ce8184611134565b92506111d98261113f565b8060005b8381101561120a5781516111f18782611196565b96506111fc836111ae565b9250506001810190506111dd565b505050505050565b60006104008201905061122860008301846111bb565b92915050565b6000819050919050565b600061125361124e61124984610f31565b61122e565b610f31565b9050919050565b600061126582611238565b9050919050565b60006112778261125a565b9050919050565b6112878161126c565b82525050565b60006020820190506112a2600083018461127e565b92915050565b6112b181610f51565b82525050565b60006020820190506112cc60008301846112a8565b92915050565b600082825260208201905092915050565b7f416d6f756e74206d7573742062652067726561746572207468616e2030000000600082015250565b6000611319601d836112d2565b9150611324826112e3565b602082019050919050565b600060208201905081810360008301526113488161130c565b9050919050565b7f496e73756666696369656e74207374616b65642062616c616e63650000000000600082015250565b6000611385601b836112d2565b91506113908261134f565b602082019050919050565b600060208201905081810360008301526113b481611378565b9050919050565b7f4e487b7100000000000000000000000000000000000000000000000000000000600052601160045260246000fd5b60006113f582610f8f565b915061140083610f8f565b9250828203905081811115611418576114176113bb565b5b92915050565b7f4e487b7100000000000000000000000000000000000000000000000000000000600052601260045260246000fd5b600061145882610f8f565b915061146383610f8f565b9250826114735761147261141e565b5b828204905092915050565b7f4e487b7100000000000000000000000000000000000000000000000000000000600052603260045260246000fd5b600060ff82169050919050565b60006114c5826114ad565b915060ff82036114d8576114d76113bb565b5b600182019050919050565b60006040820190506114f860008301856112a8565b611505602083018461107c565b9392505050565b60008115159050919050565b6115218161150c565b811461152c57600080fd5b50565b60008151905061153e81611518565b92915050565b60006020828403121561155a57611559610f2c565b5b60006115688482850161152f565b91505092915050565b7f5472616e73666572206661696c65640000000000000000000000000000000000600082015250565b60006115a7600f836112d2565b91506115b282611571565b602082019050919050565b600060208201905081810360008301526115d68161159a565b9050919050565b60006115e882610f8f565b91506115f383610f8f565b925082820261160181610f8f565b91508282048414831517611618576116176113bb565b5b5092915050565b7f4d696e696d756d20353020535746207265717569726564000000000000000000600082015250565b60006116556017836112d2565b91506116608261161f565b602082019050919050565b6000602082019050818103600083015261168481611648565b9050919050565b60006060820190506116a060008301866112a8565b6116ad60208301856112a8565b6116ba604083018461107c565b949350505050565b60006116cd826114ad565b91506116d8836114ad565b9250826116e8576116e761141e565b5b828206905092915050565b60006116fe82610f8f565b915061170983610f8f565b9250828201905080821115611721576117206113bb565b5b9291505056fea26469706673582212208de9cf5bc3a8b4c1eed24cccb69c656a2dab217e77b52a407cfed288d77cd24364736f6c63430008140033",
  "linkReferences": {},
  "deployedLinkReferences": {}
}