{
  "_format": "hh-sol-artifact-1",
  "contractName": "SoloMethodEngine",
  "sourceName": "contracts/SovranWealthEngine.sol",
  "abi": [
    {
      "inputs": [
        {
          "internalType": "address",
          "name": "_swfTokenAddress",
          "type": "address"
        }
      ],
      "stateMutability": "nonpayable",
      "type": "constructor"
    },
    {
      "anonymous": false,
      "inputs": [
        {
          "indexed": false,
          "internalType": "uint256",
          "name": "oldAPR",
          "type": "uint256"
        },
        {
          "indexed": false,
          "internalType": "uint256",
          "name": "newAPR",
          "type": "uint256"
        }
      ],
      "name": "APRUpdated",
      "type": "event"
    },
    {
      "anonymous": false,
      "inputs": [
        {
          "indexed": true,
          "internalType": "address",
          "name": "user",
          "type": "address"
        },
        {
          "indexed": false,
          "internalType": "uint256",
          "name": "amount",
          "type": "uint256"
        }
      ],
      "name": "Deposited",
      "type": "event"
    },
    {
      "anonymous": false,
      "inputs": [
        {
          "indexed": true,
          "internalType": "address",
          "name": "user",
          "type": "address"
        },
        {
          "indexed": false,
          "internalType": "uint256",
          "name": "reward",
          "type": "uint256"
        }
      ],
      "name": "Minted",
      "type": "event"
    },
    {
      "anonymous": false,
      "inputs": [
        {
          "indexed": true,
          "internalType": "address",
          "name": "user",
          "type": "address"
        },
        {
          "indexed": false,
          "internalType": "uint256",
          "name": "amount",
          "type": "uint256"
        }
      ],
      "name": "Withdrawn",
      "type": "event"
    },
    {
      "inputs": [],
      "name": "BPS_DIVISOR",
      "outputs": [
        {
          "internalType": "uint256",
          "name": "",
          "type": "uint256"
        }
      ],
      "stateMutability": "view",
      "type": "function"
    },
    {
      "inputs": [],
      "name": "MIN_STAKE_AMOUNT",
      "outputs": [
        {
          "internalType": "uint256",
          "name": "",
          "type": "uint256"
        }
      ],
      "stateMutability": "view",
      "type": "function"
    },
    {
      "inputs": [],
      "name": "SECONDS_IN_YEAR",
      "outputs": [
        {
          "internalType": "uint256",
          "name": "",
          "type": "uint256"
        }
      ],
      "stateMutability": "view",
      "type": "function"
    },
    {
      "inputs": [],
      "name": "admin",
      "outputs": [
        {
          "internalType": "address",
          "name": "",
          "type": "address"
        }
      ],
      "stateMutability": "view",
      "type": "function"
    },
    {
      "inputs": [],
      "name": "aprBasisPoints",
      "outputs": [
        {
          "internalType": "uint256",
          "name": "",
          "type": "uint256"
        }
      ],
      "stateMutability": "view",
      "type": "function"
    },
    {
      "inputs": [
        {
          "internalType": "address",
          "name": "user",
          "type": "address"
        }
      ],
      "name": "calculateRewards",
      "outputs": [
        {
          "internalType": "uint256",
          "name": "",
          "type": "uint256"
        }
      ],
      "stateMutability": "view",
      "type": "function"
    },
    {
      "inputs": [],
      "name": "claimRewards",
      "outputs": [],
      "stateMutability": "nonpayable",
      "type": "function"
    },
    {
      "inputs": [
        {
          "internalType": "uint256",
          "name": "amount",
          "type": "uint256"
        }
      ],
      "name": "deposit",
      "outputs": [],
      "stateMutability": "nonpayable",
      "type": "function"
    },
    {
      "inputs": [],
      "name": "getCurrentAPR",
      "outputs": [
        {
          "internalType": "uint256",
          "name": "",
          "type": "uint256"
        }
      ],
      "stateMutability": "view",
      "type": "function"
    },
    {
      "inputs": [
        {
          "internalType": "address",
          "name": "user",
          "type": "address"
        }
      ],
      "name": "getPendingRewards",
      "outputs": [
        {
          "internalType": "uint256",
          "name": "",
          "type": "uint256"
        }
      ],
      "stateMutability": "view",
      "type": "function"
    },
    {
      "inputs": [
        {
          "internalType": "address",
          "name": "user",
          "type": "address"
        }
      ],
      "name": "getTotalStaked",
      "outputs": [
        {
          "internalType": "uint256",
          "name": "",
          "type": "uint256"
        }
      ],
      "stateMutability": "view",
      "type": "function"
    },
    {
      "inputs": [
        {
          "internalType": "address",
          "name": "user",
          "type": "address"
        }
      ],
      "name": "getWalletBreakdown",
      "outputs": [
        {
          "components": [
            {
              "internalType": "enum SoloMethodEngine.WalletRole",
              "name": "role",
              "type": "uint8"
            },
            {
              "internalType": "uint256",
              "name": "balance",
              "type": "uint256"
            }
          ],
          "internalType": "struct SoloMethodEngine.WalletInfo[16]",
          "name": "",
          "type": "tuple[16]"
        }
      ],
      "stateMutability": "view",
      "type": "function"
    },
    {
      "inputs": [
        {
          "internalType": "address",
          "name": "",
          "type": "address"
        }
      ],
      "name": "lastRewardTime",
      "outputs": [
        {
          "internalType": "uint256",
          "name": "",
          "type": "uint256"
        }
      ],
      "stateMutability": "view",
      "type": "function"
    },
    {
      "inputs": [
        {
          "internalType": "address",
          "name": "",
          "type": "address"
        }
      ],
      "name": "rewardDebt",
      "outputs": [
        {
          "internalType": "uint256",
          "name": "",
          "type": "uint256"
        }
      ],
      "stateMutability": "view",
      "type": "function"
    },
    {
      "inputs": [
        {
          "internalType": "uint256",
          "name": "_newAprBps",
          "type": "uint256"
        }
      ],
      "name": "setAPR",
      "outputs": [],
      "stateMutability": "nonpayable",
      "type": "function"
    },
    {
      "inputs": [
        {
          "internalType": "address",
          "name": "",
          "type": "address"
        }
      ],
      "name": "stakedAmount",
      "outputs": [
        {
          "internalType": "uint256",
          "name": "",
          "type": "uint256"
        }
      ],
      "stateMutability": "view",
      "type": "function"
    },
    {
      "inputs": [],
      "name": "swf",
      "outputs": [
        {
          "internalType": "contract IERC20",
          "name": "",
          "type": "address"
        }
      ],
      "stateMutability": "view",
      "type": "function"
    },
    {
      "inputs": [
        {
          "internalType": "address",
          "name": "",
          "type": "address"
        },
        {
          "internalType": "uint256",
          "name": "",
          "type": "uint256"
        }
      ],
      "name": "userWallets",
      "outputs": [
        {
          "internalType": "enum SoloMethodEngine.WalletRole",
          "name": "role",
          "type": "uint8"
        },
        {
          "internalType": "uint256",
          "name": "balance",
          "type": "uint256"
        }
      ],
      "stateMutability": "view",
      "type": "function"
    },
    {
      "inputs": [
        {
          "internalType": "uint256",
          "name": "amount",
          "type": "uint256"
        }
      ],
      "name": "withdraw",
      "outputs": [],
      "stateMutability": "nonpayable",
      "type": "function"
    }
  ],
  "bytecode": "0x60806040526109c46006553480156200001757600080fd5b5060405162001d5938038062001d5983398181016040528101906200003d91906200012f565b806000806101000a81548173ffffffffffffffffffffffffffffffffffffffff021916908373ffffffffffffffffffffffffffffffffffffffff16021790555033600160006101000a81548173ffffffffffffffffffffffffffffffffffffffff021916908373ffffffffffffffffffffffffffffffffffffffff1602179055505062000161565b600080fd5b600073ffffffffffffffffffffffffffffffffffffffff82169050919050565b6000620000f782620000ca565b9050919050565b6200010981620000ea565b81146200011557600080fd5b50565b6000815190506200012981620000fe565b92915050565b600060208284031215620001485762000147620000c5565b5b6000620001588482850162000118565b91505092915050565b611be880620001716000396000f3fe608060405234801561001057600080fd5b50600436106101215760003560e01c80635873eb9b116100ad578063d41a814c11610071578063d41a814c1461030b578063dd2a8b1114610329578063f6ed201714610359578063f851a44014610389578063f9931855146103a757610121565b80635873eb9b146102555780635dcc93911461028557806364ab8675146102a3578063854303cf146102d3578063b6b55f25146102ef57610121565b80632bdd2ad9116100f45780632bdd2ad9146101b15780632e1a7d4d146101cf578063333fc6da146101eb578063372500ab1461021b5780633b5d441e1461022557610121565b80630155e09814610126578063191fe1ed1461015757806321ae05c81461017557806327ed718814610193575b600080fd5b610140600480360381019061013b919061134f565b6103d7565b60405161014e929190611415565b60405180910390f35b61015f61041b565b60405161016c919061143e565b60405180910390f35b61017d610421565b60405161018a919061143e565b60405180910390f35b61019b61042b565b6040516101a8919061143e565b60405180910390f35b6101b9610438565b6040516101c6919061143e565b60405180910390f35b6101e960048036038101906101e49190611459565b61043e565b005b61020560048036038101906102009190611486565b610836565b604051610212919061159c565b60405180910390f35b61022361090c565b005b61023f600480360381019061023a9190611486565b610a8d565b60405161024c919061143e565b60405180910390f35b61026f600480360381019061026a9190611486565b610aa5565b60405161027c919061143e565b60405180910390f35b61028d610abd565b60405161029a919061143e565b60405180910390f35b6102bd60048036038101906102b89190611486565b610ac5565b6040516102ca919061143e565b60405180910390f35b6102ed60048036038101906102e89190611459565b610cbb565b005b61030960048036038101906103049190611459565b610ddb565b005b610313611106565b6040516103209190611617565b60405180910390f35b610343600480360381019061033e9190611486565b61112a565b604051610350919061143e565b60405180910390f35b610373600480360381019061036e9190611486565b611173565b604051610380919061143e565b60405180910390f35b610391611185565b60405161039e9190611641565b60405180910390f35b6103c160048036038101906103bc9190611486565b6111ab565b6040516103ce919061143e565b60405180910390f35b600260205281600052604060002081601081106103f357600080fd5b60020201600091509150508060000160009054906101000a900460ff16908060010154905082565b61271081565b6000600654905090565b6802b5e3af16b188000081565b60065481565b60008111610481576040517f08c379a0000000000000000000000000000000000000000000000000000000008152600401610478906116b9565b60405180910390fd5b80600360003373ffffffffffffffffffffffffffffffffffffffff1673ffffffffffffffffffffffffffffffffffffffff168152602001908152602001600020541015610503576040517f08c379a00000000000000000000000000000000000000000000000000000000081526004016104fa90611725565b60405180910390fd5b61050c336111c3565b80600360003373ffffffffffffffffffffffffffffffffffffffff1673ffffffffffffffffffffffffffffffffffffffff168152602001908152602001600020600082825461055b9190611774565b925050819055506000600360003373ffffffffffffffffffffffffffffffffffffffff1673ffffffffffffffffffffffffffffffffffffffff1681526020019081526020016000205411156106835760006010600360003373ffffffffffffffffffffffffffffffffffffffff1673ffffffffffffffffffffffffffffffffffffffff168152602001908152602001600020546105f891906117d7565b905060005b60108160ff16101561067c5781600260003373ffffffffffffffffffffffffffffffffffffffff1673ffffffffffffffffffffffffffffffffffffffff1681526020019081526020016000208260ff166010811061065e5761065d611808565b5b6002020160010181905550808061067490611844565b9150506105fd565b5050610708565b60005b60108160ff161015610706576000600260003373ffffffffffffffffffffffffffffffffffffffff1673ffffffffffffffffffffffffffffffffffffffff1681526020019081526020016000208260ff16601081106106e8576106e7611808565b5b600202016001018190555080806106fe90611844565b915050610686565b505b60008054906101000a900473ffffffffffffffffffffffffffffffffffffffff1673ffffffffffffffffffffffffffffffffffffffff1663a9059cbb33836040518363ffffffff1660e01b815260040161076392919061186d565b6020604051808303816000875af1158015610782573d6000803e3d6000fd5b505050506040513d601f19601f820116820180604052508101906107a691906118ce565b6107e5576040517f08c379a00000000000000000000000000000000000000000000000000000000081526004016107dc90611947565b60405180910390fd5b3373ffffffffffffffffffffffffffffffffffffffff167f7084f5476618d8e60b11ef0d7d3f06914655adb8793e28ff7f018d4c76d505d58260405161082b919061143e565b60405180910390a250565b61083e61125c565b600260008373ffffffffffffffffffffffffffffffffffffffff1673ffffffffffffffffffffffffffffffffffffffff168152602001908152602001600020601080602002604051908101604052809291906000905b82821015610901578382600202016040518060400160405290816000820160009054906101000a900460ff1660048111156108d2576108d161138f565b5b60048111156108e4576108e361138f565b5b815260200160018201548152505081526020019060010190610894565b505050509050919050565b610915336111c3565b6000600560003373ffffffffffffffffffffffffffffffffffffffff1673ffffffffffffffffffffffffffffffffffffffff1681526020019081526020016000205490506000811115610a8a576000600560003373ffffffffffffffffffffffffffffffffffffffff1673ffffffffffffffffffffffffffffffffffffffff1681526020019081526020016000208190555060008060009054906101000a900473ffffffffffffffffffffffffffffffffffffffff1690508073ffffffffffffffffffffffffffffffffffffffff166340c10f1933846040518363ffffffff1660e01b8152600401610a0892919061186d565b600060405180830381600087803b158015610a2257600080fd5b505af1158015610a36573d6000803e3d6000fd5b505050503373ffffffffffffffffffffffffffffffffffffffff167f30385c845b448a36257a6a1716e6ad2e1bc2cbe333cde1e69fe849ad6511adfe83604051610a80919061143e565b60405180910390a2505b50565b60046020528060005260406000206000915090505481565b60056020528060005260406000206000915090505481565b6301e1338081565b600080600360008473ffffffffffffffffffffffffffffffffffffffff1673ffffffffffffffffffffffffffffffffffffffff168152602001908152602001600020541480610b5357506000600460008473ffffffffffffffffffffffffffffffffffffffff1673ffffffffffffffffffffffffffffffffffffffff16815260200190815260200160002054145b15610b9f57600560008373ffffffffffffffffffffffffffffffffffffffff1673ffffffffffffffffffffffffffffffffffffffff168152602001908152602001600020549050610cb6565b6000600460008473ffffffffffffffffffffffffffffffffffffffff1673ffffffffffffffffffffffffffffffffffffffff1681526020019081526020016000205442610bec9190611774565b905060006301e1338061271083600654600360008973ffffffffffffffffffffffffffffffffffffffff1673ffffffffffffffffffffffffffffffffffffffff16815260200190815260200160002054610c469190611967565b610c509190611967565b610c5a91906117d7565b610c6491906117d7565b9050600560008573ffffffffffffffffffffffffffffffffffffffff1673ffffffffffffffffffffffffffffffffffffffff1681526020019081526020016000205481610cb191906119a9565b925050505b919050565b600160009054906101000a900473ffffffffffffffffffffffffffffffffffffffff1673ffffffffffffffffffffffffffffffffffffffff163373ffffffffffffffffffffffffffffffffffffffff1614610d4b576040517f08c379a0000000000000000000000000000000000000000000000000000000008152600401610d4290611a29565b60405180910390fd5b611388811115610d90576040517f08c379a0000000000000000000000000000000000000000000000000000000008152600401610d8790611a95565b60405180910390fd5b60006006549050816006819055507fd2d659d197cf77652feb866d2a49b71684b0e7b0d92bde0b26163f77e2e25a2d8183604051610dcf929190611ab5565b60405180910390a15050565b6802b5e3af16b1880000811015610e27576040517f08c379a0000000000000000000000000000000000000000000000000000000008152600401610e1e90611b2a565b60405180910390fd5b60008054906101000a900473ffffffffffffffffffffffffffffffffffffffff1673ffffffffffffffffffffffffffffffffffffffff166323b872dd3330846040518463ffffffff1660e01b8152600401610e8493929190611b4a565b6020604051808303816000875af1158015610ea3573d6000803e3d6000fd5b505050506040513d601f19601f82011682018060405250810190610ec791906118ce565b610f06576040517f08c379a0000000000000000000000000000000000000000000000000000000008152600401610efd90611947565b60405180910390fd5b610f0f336111c3565b60005b60108160ff16101561101a576040518060400160405280600583610f369190611b81565b60ff166004811115610f4b57610f4a61138f565b5b6004811115610f5d57610f5c61138f565b5b8152602001601084610f6f91906117d7565b815250600260003373ffffffffffffffffffffffffffffffffffffffff1673ffffffffffffffffffffffffffffffffffffffff1681526020019081526020016000208260ff1660108110610fc657610fc5611808565b5b6002020160008201518160000160006101000a81548160ff02191690836004811115610ff557610ff461138f565b5b021790555060208201518160010155905050808061101290611844565b915050610f12565b5080600360003373ffffffffffffffffffffffffffffffffffffffff1673ffffffffffffffffffffffffffffffffffffffff168152602001908152602001600020600082825461106a91906119a9565b9250508190555042600460003373ffffffffffffffffffffffffffffffffffffffff1673ffffffffffffffffffffffffffffffffffffffff168152602001908152602001600020819055503373ffffffffffffffffffffffffffffffffffffffff167f2da466a7b24304f47e87fa2e1e5a81b9831ce54fec19055ce277ca2f39ba42c4826040516110fb919061143e565b60405180910390a250565b60008054906101000a900473ffffffffffffffffffffffffffffffffffffffff1681565b6000600360008373ffffffffffffffffffffffffffffffffffffffff1673ffffffffffffffffffffffffffffffffffffffff168152602001908152602001600020549050919050565b600061117e82610ac5565b9050919050565b600160009054906101000a900473ffffffffffffffffffffffffffffffffffffffff1681565b60036020528060005260406000206000915090505481565b60006111ce82610ac5565b905080600560008473ffffffffffffffffffffffffffffffffffffffff1673ffffffffffffffffffffffffffffffffffffffff1681526020019081526020016000208190555042600460008473ffffffffffffffffffffffffffffffffffffffff1673ffffffffffffffffffffffffffffffffffffffff168152602001908152602001600020819055505050565b6040518061020001604052806010905b61127461128a565b81526020019060019003908161126c5790505090565b6040518060400160405280600060048111156112a9576112a861138f565b5b8152602001600081525090565b600080fd5b600073ffffffffffffffffffffffffffffffffffffffff82169050919050565b60006112e6826112bb565b9050919050565b6112f6816112db565b811461130157600080fd5b50565b600081359050611313816112ed565b92915050565b6000819050919050565b61132c81611319565b811461133757600080fd5b50565b60008135905061134981611323565b92915050565b60008060408385031215611366576113656112b6565b5b600061137485828601611304565b92505060206113858582860161133a565b9150509250929050565b7f4e487b7100000000000000000000000000000000000000000000000000000000600052602160045260246000fd5b600581106113cf576113ce61138f565b5b50565b60008190506113e0826113be565b919050565b60006113f0826113d2565b9050919050565b611400816113e5565b82525050565b61140f81611319565b82525050565b600060408201905061142a60008301856113f7565b6114376020830184611406565b9392505050565b60006020820190506114536000830184611406565b92915050565b60006020828403121561146f5761146e6112b6565b5b600061147d8482850161133a565b91505092915050565b60006020828403121561149c5761149b6112b6565b5b60006114aa84828501611304565b91505092915050565b600060109050919050565b600081905092915050565b6000819050919050565b6114dc816113e5565b82525050565b6114eb81611319565b82525050565b60408201600082015161150760008501826114d3565b50602082015161151a60208501826114e2565b50505050565b600061152c83836114f1565b60408301905092915050565b6000602082019050919050565b61154e816114b3565b61155881846114be565b9250611563826114c9565b8060005b8381101561159457815161157b8782611520565b965061158683611538565b925050600181019050611567565b505050505050565b6000610400820190506115b26000830184611545565b92915050565b6000819050919050565b60006115dd6115d86115d3846112bb565b6115b8565b6112bb565b9050919050565b60006115ef826115c2565b9050919050565b6000611601826115e4565b9050919050565b611611816115f6565b82525050565b600060208201905061162c6000830184611608565b92915050565b61163b816112db565b82525050565b60006020820190506116566000830184611632565b92915050565b600082825260208201905092915050565b7f416d6f756e74206d7573742062652067726561746572207468616e2030000000600082015250565b60006116a3601d8361165c565b91506116ae8261166d565b602082019050919050565b600060208201905081810360008301526116d281611696565b9050919050565b7f496e73756666696369656e74207374616b65642062616c616e63650000000000600082015250565b600061170f601b8361165c565b915061171a826116d9565b602082019050919050565b6000602082019050818103600083015261173e81611702565b9050919050565b7f4e487b7100000000000000000000000000000000000000000000000000000000600052601160045260246000fd5b600061177f82611319565b915061178a83611319565b92508282039050818111156117a2576117a1611745565b5b92915050565b7f4e487b7100000000000000000000000000000000000000000000000000000000600052601260045260246000fd5b60006117e282611319565b91506117ed83611319565b9250826117fd576117fc6117a8565b5b828204905092915050565b7f4e487b7100000000000000000000000000000000000000000000000000000000600052603260045260246000fd5b600060ff82169050919050565b600061184f82611837565b915060ff820361186257611861611745565b5b600182019050919050565b60006040820190506118826000830185611632565b61188f6020830184611406565b9392505050565b60008115159050919050565b6118ab81611896565b81146118b657600080fd5b50565b6000815190506118c8816118a2565b92915050565b6000602082840312156118e4576118e36112b6565b5b60006118f2848285016118b9565b91505092915050565b7f5472616e73666572206661696c65640000000000000000000000000000000000600082015250565b6000611931600f8361165c565b915061193c826118fb565b602082019050919050565b6000602082019050818103600083015261196081611924565b9050919050565b600061197282611319565b915061197d83611319565b925082820261198b81611319565b915082820484148315176119a2576119a1611745565b5b5092915050565b60006119b482611319565b91506119bf83611319565b92508282019050808211156119d7576119d6611745565b5b92915050565b7f4f6e6c792061646d696e2063616e2063616c6c00000000000000000000000000600082015250565b6000611a1360138361165c565b9150611a1e826119dd565b602082019050919050565b60006020820190508181036000830152611a4281611a06565b9050919050565b7f41505220746f6f206869676820286d6178203530252900000000000000000000600082015250565b6000611a7f60168361165c565b9150611a8a82611a49565b602082019050919050565b60006020820190508181036000830152611aae81611a72565b9050919050565b6000604082019050611aca6000830185611406565b611ad76020830184611406565b9392505050565b7f4d696e696d756d20353020535746207265717569726564000000000000000000600082015250565b6000611b1460178361165c565b9150611b1f82611ade565b602082019050919050565b60006020820190508181036000830152611b4381611b07565b9050919050565b6000606082019050611b5f6000830186611632565b611b6c6020830185611632565b611b796040830184611406565b949350505050565b6000611b8c82611837565b9150611b9783611837565b925082611ba757611ba66117a8565b5b82820690509291505056fea26469706673582212207e3ee6ed863d08015efce354a7f3f0f5d97b8d0b2717bcb377162fcc5cfa4d5464736f6c63430008140033",
  "linkReferences": {},
  "deployedLinkReferences": {}
}