{
  "_format": "hh-sol-artifact-1",
  "contractName": "DynamicAPRController",
  "sourceName": "contracts/DynamicAPRController.sol",
  "abi": [
    {
      "inputs": [
        {
          "internalType": "address",
          "name": "_basketVault",
          "type": "address"
        },
        {
          "internalType": "address",
          "name": "_stakingContract",
          "type": "address"
        },
        {
          "internalType": "uint256",
          "name": "_initialAPR",
          "type": "uint256"
        },
        {
          "internalType": "address",
          "name": "initialOwner",
          "type": "address"
        }
      ],
      "stateMutability": "nonpayable",
      "type": "constructor"
    },
    {
      "inputs": [
        {
          "internalType": "address",
          "name": "owner",
          "type": "address"
        }
      ],
      "name": "OwnableInvalidOwner",
      "type": "error"
    },
    {
      "inputs": [
        {
          "internalType": "address",
          "name": "account",
          "type": "address"
        }
      ],
      "name": "OwnableUnauthorizedAccount",
      "type": "error"
    },
    {
      "anonymous": false,
      "inputs": [
        {
          "indexed": false,
          "internalType": "uint256",
          "name": "oldAPR",
          "type": "uint256"
        },
        {
          "indexed": false,
          "internalType": "uint256",
          "name": "newAPR",
          "type": "uint256"
        }
      ],
      "name": "APRAdjusted",
      "type": "event"
    },
    {
      "anonymous": false,
      "inputs": [
        {
          "indexed": false,
          "internalType": "uint256",
          "name": "minAPR",
          "type": "uint256"
        },
        {
          "indexed": false,
          "internalType": "uint256",
          "name": "maxAPR",
          "type": "uint256"
        }
      ],
      "name": "APRRangeUpdated",
      "type": "event"
    },
    {
      "anonymous": false,
      "inputs": [
        {
          "indexed": false,
          "internalType": "uint256",
          "name": "interval",
          "type": "uint256"
        }
      ],
      "name": "AdjustmentIntervalUpdated",
      "type": "event"
    },
    {
      "anonymous": false,
      "inputs": [
        {
          "indexed": false,
          "internalType": "address",
          "name": "oldVault",
          "type": "address"
        },
        {
          "indexed": false,
          "internalType": "address",
          "name": "newVault",
          "type": "address"
        }
      ],
      "name": "BasketVaultUpdated",
      "type": "event"
    },
    {
      "anonymous": false,
      "inputs": [
        {
          "indexed": true,
          "internalType": "address",
          "name": "previousOwner",
          "type": "address"
        },
        {
          "indexed": true,
          "internalType": "address",
          "name": "newOwner",
          "type": "address"
        }
      ],
      "name": "OwnershipTransferred",
      "type": "event"
    },
    {
      "anonymous": false,
      "inputs": [
        {
          "indexed": false,
          "internalType": "address",
          "name": "oldContract",
          "type": "address"
        },
        {
          "indexed": false,
          "internalType": "address",
          "name": "newContract",
          "type": "address"
        }
      ],
      "name": "StakingContractUpdated",
      "type": "event"
    },
    {
      "anonymous": false,
      "inputs": [
        {
          "indexed": false,
          "internalType": "uint256",
          "name": "lowThreshold",
          "type": "uint256"
        },
        {
          "indexed": false,
          "internalType": "uint256",
          "name": "highThreshold",
          "type": "uint256"
        }
      ],
      "name": "ThresholdsUpdated",
      "type": "event"
    },
    {
      "inputs": [],
      "name": "adjustAPR",
      "outputs": [],
      "stateMutability": "nonpayable",
      "type": "function"
    },
    {
      "inputs": [],
      "name": "adjustmentInterval",
      "outputs": [
        {
          "internalType": "uint256",
          "name": "",
          "type": "uint256"
        }
      ],
      "stateMutability": "view",
      "type": "function"
    },
    {
      "inputs": [],
      "name": "basketVault",
      "outputs": [
        {
          "internalType": "contract SWFBasketVault",
          "name": "",
          "type": "address"
        }
      ],
      "stateMutability": "view",
      "type": "function"
    },
    {
      "inputs": [],
      "name": "currentAPR",
      "outputs": [
        {
          "internalType": "uint256",
          "name": "",
          "type": "uint256"
        }
      ],
      "stateMutability": "view",
      "type": "function"
    },
    {
      "inputs": [],
      "name": "getAPRInfo",
      "outputs": [
        {
          "internalType": "uint256",
          "name": "_currentAPR",
          "type": "uint256"
        },
        {
          "internalType": "uint256",
          "name": "_nextAdjustmentTime",
          "type": "uint256"
        },
        {
          "internalType": "uint256",
          "name": "_totalDeposited",
          "type": "uint256"
        }
      ],
      "stateMutability": "view",
      "type": "function"
    },
    {
      "inputs": [],
      "name": "highDepositThreshold",
      "outputs": [
        {
          "internalType": "uint256",
          "name": "",
          "type": "uint256"
        }
      ],
      "stateMutability": "view",
      "type": "function"
    },
    {
      "inputs": [],
      "name": "lastAdjustmentTime",
      "outputs": [
        {
          "internalType": "uint256",
          "name": "",
          "type": "uint256"
        }
      ],
      "stateMutability": "view",
      "type": "function"
    },
    {
      "inputs": [],
      "name": "lowDepositThreshold",
      "outputs": [
        {
          "internalType": "uint256",
          "name": "",
          "type": "uint256"
        }
      ],
      "stateMutability": "view",
      "type": "function"
    },
    {
      "inputs": [],
      "name": "maxAPR",
      "outputs": [
        {
          "internalType": "uint256",
          "name": "",
          "type": "uint256"
        }
      ],
      "stateMutability": "view",
      "type": "function"
    },
    {
      "inputs": [],
      "name": "minAPR",
      "outputs": [
        {
          "internalType": "uint256",
          "name": "",
          "type": "uint256"
        }
      ],
      "stateMutability": "view",
      "type": "function"
    },
    {
      "inputs": [],
      "name": "owner",
      "outputs": [
        {
          "internalType": "address",
          "name": "",
          "type": "address"
        }
      ],
      "stateMutability": "view",
      "type": "function"
    },
    {
      "inputs": [],
      "name": "renounceOwnership",
      "outputs": [],
      "stateMutability": "nonpayable",
      "type": "function"
    },
    {
      "inputs": [
        {
          "internalType": "uint256",
          "name": "depositAmount",
          "type": "uint256"
        }
      ],
      "name": "simulateAPRForDeposit",
      "outputs": [
        {
          "internalType": "uint256",
          "name": "",
          "type": "uint256"
        }
      ],
      "stateMutability": "view",
      "type": "function"
    },
    {
      "inputs": [],
      "name": "stakingContract",
      "outputs": [
        {
          "internalType": "address",
          "name": "",
          "type": "address"
        }
      ],
      "stateMutability": "view",
      "type": "function"
    },
    {
      "inputs": [
        {
          "internalType": "address",
          "name": "newOwner",
          "type": "address"
        }
      ],
      "name": "transferOwnership",
      "outputs": [],
      "stateMutability": "nonpayable",
      "type": "function"
    },
    {
      "inputs": [
        {
          "internalType": "uint256",
          "name": "_minAPR",
          "type": "uint256"
        },
        {
          "internalType": "uint256",
          "name": "_maxAPR",
          "type": "uint256"
        }
      ],
      "name": "updateAPRRange",
      "outputs": [],
      "stateMutability": "nonpayable",
      "type": "function"
    },
    {
      "inputs": [
        {
          "internalType": "uint256",
          "name": "_interval",
          "type": "uint256"
        }
      ],
      "name": "updateAdjustmentInterval",
      "outputs": [],
      "stateMutability": "nonpayable",
      "type": "function"
    },
    {
      "inputs": [
        {
          "internalType": "address",
          "name": "_basketVault",
          "type": "address"
        }
      ],
      "name": "updateBasketVault",
      "outputs": [],
      "stateMutability": "nonpayable",
      "type": "function"
    },
    {
      "inputs": [
        {
          "internalType": "address",
          "name": "_stakingContract",
          "type": "address"
        }
      ],
      "name": "updateStakingContract",
      "outputs": [],
      "stateMutability": "nonpayable",
      "type": "function"
    },
    {
      "inputs": [
        {
          "internalType": "uint256",
          "name": "_lowThreshold",
          "type": "uint256"
        },
        {
          "internalType": "uint256",
          "name": "_highThreshold",
          "type": "uint256"
        }
      ],
      "name": "updateThresholds",
      "outputs": [],
      "stateMutability": "nonpayable",
      "type": "function"
    }
  ],
  "bytecode": "0x60806040526103e8600355610bb860045569021e19e0c9bab240000060055569152d02c7e14af6800000600655620151806007553480156200004057600080fd5b5060405162001e8638038062001e8683398181016040528101906200006691906200042c565b80600073ffffffffffffffffffffffffffffffffffffffff168173ffffffffffffffffffffffffffffffffffffffff1603620000dc5760006040517f1e4fbdf7000000000000000000000000000000000000000000000000000000008152600401620000d39190620004af565b60405180910390fd5b620000ed81620002c360201b60201c565b50600073ffffffffffffffffffffffffffffffffffffffff168473ffffffffffffffffffffffffffffffffffffffff160362000160576040517f08c379a000000000000000000000000000000000000000000000000000000000815260040162000157906200052d565b60405180910390fd5b600073ffffffffffffffffffffffffffffffffffffffff168373ffffffffffffffffffffffffffffffffffffffff1603620001d2576040517f08c379a0000000000000000000000000000000000000000000000000000000008152600401620001c9906200059f565b60405180910390fd5b6003548210158015620001e757506004548211155b62000229576040517f08c379a0000000000000000000000000000000000000000000000000000000008152600401620002209062000611565b60405180910390fd5b83600160006101000a81548173ffffffffffffffffffffffffffffffffffffffff021916908373ffffffffffffffffffffffffffffffffffffffff16021790555082600260006101000a81548173ffffffffffffffffffffffffffffffffffffffff021916908373ffffffffffffffffffffffffffffffffffffffff16021790555081600981905550426008819055505050505062000633565b60008060009054906101000a900473ffffffffffffffffffffffffffffffffffffffff169050816000806101000a81548173ffffffffffffffffffffffffffffffffffffffff021916908373ffffffffffffffffffffffffffffffffffffffff1602179055508173ffffffffffffffffffffffffffffffffffffffff168173ffffffffffffffffffffffffffffffffffffffff167f8be0079c531659141344cd1fd0a4f28419497f9722a3daafe3b4186f6b6457e060405160405180910390a35050565b600080fd5b600073ffffffffffffffffffffffffffffffffffffffff82169050919050565b6000620003b9826200038c565b9050919050565b620003cb81620003ac565b8114620003d757600080fd5b50565b600081519050620003eb81620003c0565b92915050565b6000819050919050565b6200040681620003f1565b81146200041257600080fd5b50565b6000815190506200042681620003fb565b92915050565b6000806000806080858703121562000449576200044862000387565b5b60006200045987828801620003da565b94505060206200046c87828801620003da565b93505060406200047f8782880162000415565b92505060606200049287828801620003da565b91505092959194509250565b620004a981620003ac565b82525050565b6000602082019050620004c660008301846200049e565b92915050565b600082825260208201905092915050565b7f496e76616c6964207661756c7420616464726573730000000000000000000000600082015250565b600062000515601583620004cc565b91506200052282620004dd565b602082019050919050565b60006020820190508181036000830152620005488162000506565b9050919050565b7f496e76616c6964207374616b696e6720636f6e74726163742061646472657373600082015250565b600062000587602083620004cc565b915062000594826200054f565b602082019050919050565b60006020820190508181036000830152620005ba8162000578565b9050919050565b7f496e76616c696420696e697469616c2041505200000000000000000000000000600082015250565b6000620005f9601383620004cc565b91506200060682620005c1565b602082019050919050565b600060208201905081810360008301526200062c81620005ea565b9050919050565b61184380620006436000396000f3fe608060405234801561001057600080fd5b506004361061012c5760003560e01c80636c6cdb7a116100ad578063c14b8e9c11610071578063c14b8e9c146102d7578063e0e79dde146102f3578063ee99205c14610311578063f2fde38b1461032f578063fa4d4d8b1461034b5761012c565b80636c6cdb7a14610255578063715018a61461027357806385c024841461027d5780638da5cb5b1461029d57806395bbdc4d146102bb5761012c565b806348c4a43d116100f457806348c4a43d146101c157806353704f9a146101f15780635f9dcd941461020f578063605779811461021957806361b649b6146102375761012c565b8063018f90c01461013157806322105d721461014d5780632b0055ef1461016b57806330d78f72146101895780633347e4d6146101a5575b600080fd5b61014b60048036038101906101469190610f6c565b610369565b005b610155610443565b604051610162919061102b565b60405180910390f35b610173610469565b6040516101809190611055565b60405180910390f35b6101a3600480360381019061019e9190611070565b61046f565b005b6101bf60048036038101906101ba91906110db565b610543565b005b6101db60048036038101906101d69190611070565b61065f565b6040516101e89190611055565b60405180910390f35b6101f961071c565b6040516102069190611055565b60405180910390f35b610217610722565b005b610221610a72565b60405161022e9190611055565b60405180910390f35b61023f610a78565b60405161024c9190611055565b60405180910390f35b61025d610a7e565b60405161026a9190611055565b60405180910390f35b61027b610a84565b005b610285610a98565b60405161029493929190611108565b60405180910390f35b6102a5610b4c565b6040516102b2919061114e565b60405180910390f35b6102d560048036038101906102d091906110db565b610b75565b005b6102f160048036038101906102ec9190610f6c565b610c91565b005b6102fb610d26565b6040516103089190611055565b60405180910390f35b610319610d2c565b604051610326919061114e565b60405180910390f35b610349600480360381019061034491906110db565b610d52565b005b610353610dd8565b6040516103609190611055565b60405180910390f35b610371610dde565b8082106103b3576040517f08c379a00000000000000000000000000000000000000000000000000000000081526004016103aa906111ec565b60405180910390fd5b6113888111156103f8576040517f08c379a00000000000000000000000000000000000000000000000000000000081526004016103ef90611258565b60405180910390fd5b81600381905550806004819055507f7d475ec4fc1b523d6b5f7206752c2c64879e3c94e152fc6fad40bc5402d1d6048282604051610437929190611278565b60405180910390a15050565b600160009054906101000a900473ffffffffffffffffffffffffffffffffffffffff1681565b60085481565b610477610dde565b610e108110156104bc576040517f08c379a00000000000000000000000000000000000000000000000000000000081526004016104b3906112ed565b60405180910390fd5b62278d00811115610502576040517f08c379a00000000000000000000000000000000000000000000000000000000081526004016104f990611359565b60405180910390fd5b806007819055507fe25b95a5f20ef5d0a4becc5a9f3081f7760987a1d05e1c9ca6b0695446f5eff9816040516105389190611055565b60405180910390a150565b61054b610dde565b600073ffffffffffffffffffffffffffffffffffffffff168173ffffffffffffffffffffffffffffffffffffffff16036105ba576040517f08c379a00000000000000000000000000000000000000000000000000000000081526004016105b1906113c5565b60405180910390fd5b6000600260009054906101000a900473ffffffffffffffffffffffffffffffffffffffff16905081600260006101000a81548173ffffffffffffffffffffffffffffffffffffffff021916908373ffffffffffffffffffffffffffffffffffffffff1602179055507f7042586b23181180eb30b4798702d7a0233b7fc2551e89806770e8e5d9392e6a81836040516106539291906113e5565b60405180910390a15050565b60006005548211610674576004549050610717565b6006548210610687576003549050610717565b6000600354600454610699919061143d565b905060006005546006546106ad919061143d565b90506000600554856106bf919061143d565b9050600082670de0b6b3a7640000836106d89190611471565b6106e291906114e2565b9050670de0b6b3a764000084826106f99190611471565b61070391906114e2565b600454610710919061143d565b9450505050505b919050565b60045481565b6007546008546107329190611513565b421015610774576040517f08c379a000000000000000000000000000000000000000000000000000000000815260040161076b90611593565b60405180910390fd5b6000600160009054906101000a900473ffffffffffffffffffffffffffffffffffffffff1673ffffffffffffffffffffffffffffffffffffffff1663ff50abdc6040518163ffffffff1660e01b8152600401602060405180830381865afa1580156107e3573d6000803e3d6000fd5b505050506040513d601f19601f8201168201806040525081019061080791906115c8565b90506000600554821161081e5760045490506108c2565b60065482106108315760035490506108c1565b6000600354600454610843919061143d565b90506000600554600654610857919061143d565b9050600060055485610869919061143d565b9050600082670de0b6b3a7640000836108829190611471565b61088c91906114e2565b9050670de0b6b3a764000084826108a39190611471565b6108ad91906114e2565b6004546108ba919061143d565b9450505050505b5b6000600954905081600981905550426008819055506000600260009054906101000a900473ffffffffffffffffffffffffffffffffffffffff1673ffffffffffffffffffffffffffffffffffffffff16836040516024016109239190611055565b6040516020818303038152906040527f854303cf000000000000000000000000000000000000000000000000000000007bffffffffffffffffffffffffffffffffffffffffffffffffffffffff19166020820180517bffffffffffffffffffffffffffffffffffffffffffffffffffffffff83818316178352505050506040516109ad9190611666565b6000604051808303816000865af19150503d80600081146109ea576040519150601f19603f3d011682016040523d82523d6000602084013e6109ef565b606091505b5050905080610a33576040517f08c379a0000000000000000000000000000000000000000000000000000000008152600401610a2a906116ef565b60405180910390fd5b7fe08059356b1ce4d467fb74eed6a5421abc8b94e797e8537ab77938e43401d67a8284604051610a64929190611278565b60405180910390a150505050565b60095481565b60055481565b60065481565b610a8c610dde565b610a966000610e65565b565b6000806000600954600754600854610ab09190611513565b600160009054906101000a900473ffffffffffffffffffffffffffffffffffffffff1673ffffffffffffffffffffffffffffffffffffffff1663ff50abdc6040518163ffffffff1660e01b8152600401602060405180830381865afa158015610b1d573d6000803e3d6000fd5b505050506040513d601f19601f82011682018060405250810190610b4191906115c8565b925092509250909192565b60008060009054906101000a900473ffffffffffffffffffffffffffffffffffffffff16905090565b610b7d610dde565b600073ffffffffffffffffffffffffffffffffffffffff168173ffffffffffffffffffffffffffffffffffffffff1603610bec576040517f08c379a0000000000000000000000000000000000000000000000000000000008152600401610be39061175b565b60405180910390fd5b6000600160009054906101000a900473ffffffffffffffffffffffffffffffffffffffff16905081600160006101000a81548173ffffffffffffffffffffffffffffffffffffffff021916908373ffffffffffffffffffffffffffffffffffffffff1602179055507f69cd05f303537de93c5539dc58d44a5159ece47d0d13cec193f20a41324930958183604051610c859291906113e5565b60405180910390a15050565b610c99610dde565b808210610cdb576040517f08c379a0000000000000000000000000000000000000000000000000000000008152600401610cd2906117ed565b60405180910390fd5b81600581905550806006819055507fd081f5afbf5e2859f2be3d6c573e1cdd6c8fb93b18ec6145427882fe51507b6a8282604051610d1a929190611278565b60405180910390a15050565b60035481565b600260009054906101000a900473ffffffffffffffffffffffffffffffffffffffff1681565b610d5a610dde565b600073ffffffffffffffffffffffffffffffffffffffff168173ffffffffffffffffffffffffffffffffffffffff1603610dcc5760006040517f1e4fbdf7000000000000000000000000000000000000000000000000000000008152600401610dc3919061114e565b60405180910390fd5b610dd581610e65565b50565b60075481565b610de6610f29565b73ffffffffffffffffffffffffffffffffffffffff16610e04610b4c565b73ffffffffffffffffffffffffffffffffffffffff1614610e6357610e27610f29565b6040517f118cdaa7000000000000000000000000000000000000000000000000000000008152600401610e5a919061114e565b60405180910390fd5b565b60008060009054906101000a900473ffffffffffffffffffffffffffffffffffffffff169050816000806101000a81548173ffffffffffffffffffffffffffffffffffffffff021916908373ffffffffffffffffffffffffffffffffffffffff1602179055508173ffffffffffffffffffffffffffffffffffffffff168173ffffffffffffffffffffffffffffffffffffffff167f8be0079c531659141344cd1fd0a4f28419497f9722a3daafe3b4186f6b6457e060405160405180910390a35050565b600033905090565b600080fd5b6000819050919050565b610f4981610f36565b8114610f5457600080fd5b50565b600081359050610f6681610f40565b92915050565b60008060408385031215610f8357610f82610f31565b5b6000610f9185828601610f57565b9250506020610fa285828601610f57565b9150509250929050565b600073ffffffffffffffffffffffffffffffffffffffff82169050919050565b6000819050919050565b6000610ff1610fec610fe784610fac565b610fcc565b610fac565b9050919050565b600061100382610fd6565b9050919050565b600061101582610ff8565b9050919050565b6110258161100a565b82525050565b6000602082019050611040600083018461101c565b92915050565b61104f81610f36565b82525050565b600060208201905061106a6000830184611046565b92915050565b60006020828403121561108657611085610f31565b5b600061109484828501610f57565b91505092915050565b60006110a882610fac565b9050919050565b6110b88161109d565b81146110c357600080fd5b50565b6000813590506110d5816110af565b92915050565b6000602082840312156110f1576110f0610f31565b5b60006110ff848285016110c6565b91505092915050565b600060608201905061111d6000830186611046565b61112a6020830185611046565b6111376040830184611046565b949350505050565b6111488161109d565b82525050565b6000602082019050611163600083018461113f565b92915050565b600082825260208201905092915050565b7f4d696e20415052206d757374206265206c657373207468616e206d617820415060008201527f5200000000000000000000000000000000000000000000000000000000000000602082015250565b60006111d6602183611169565b91506111e18261117a565b604082019050919050565b60006020820190508181036000830152611205816111c9565b9050919050565b7f4d6178204150522063616e6e6f74206578636565642035302500000000000000600082015250565b6000611242601983611169565b915061124d8261120c565b602082019050919050565b6000602082019050818103600083015261127181611235565b9050919050565b600060408201905061128d6000830185611046565b61129a6020830184611046565b9392505050565b7f496e74657276616c20746f6f2073686f72740000000000000000000000000000600082015250565b60006112d7601283611169565b91506112e2826112a1565b602082019050919050565b60006020820190508181036000830152611306816112ca565b9050919050565b7f496e74657276616c20746f6f206c6f6e67000000000000000000000000000000600082015250565b6000611343601183611169565b915061134e8261130d565b602082019050919050565b6000602082019050818103600083015261137281611336565b9050919050565b7f496e76616c6964207374616b696e6720636f6e74726163742061646472657373600082015250565b60006113af602083611169565b91506113ba82611379565b602082019050919050565b600060208201905081810360008301526113de816113a2565b9050919050565b60006040820190506113fa600083018561113f565b611407602083018461113f565b9392505050565b7f4e487b7100000000000000000000000000000000000000000000000000000000600052601160045260246000fd5b600061144882610f36565b915061145383610f36565b925082820390508181111561146b5761146a61140e565b5b92915050565b600061147c82610f36565b915061148783610f36565b925082820261149581610f36565b915082820484148315176114ac576114ab61140e565b5b5092915050565b7f4e487b7100000000000000000000000000000000000000000000000000000000600052601260045260246000fd5b60006114ed82610f36565b91506114f883610f36565b925082611508576115076114b3565b5b828204905092915050565b600061151e82610f36565b915061152983610f36565b92508282019050808211156115415761154061140e565b5b92915050565b7f41646a7573746d656e7420696e74657276616c206e6f74207265616368656400600082015250565b600061157d601f83611169565b915061158882611547565b602082019050919050565b600060208201905081810360008301526115ac81611570565b9050919050565b6000815190506115c281610f40565b92915050565b6000602082840312156115de576115dd610f31565b5b60006115ec848285016115b3565b91505092915050565b600081519050919050565b600081905092915050565b60005b8381101561162957808201518184015260208101905061160e565b60008484015250505050565b6000611640826115f5565b61164a8185611600565b935061165a81856020860161160b565b80840191505092915050565b60006116728284611635565b915081905092915050565b7f4661696c656420746f2061646a75737420415052206f6e207374616b696e672060008201527f636f6e7472616374000000000000000000000000000000000000000000000000602082015250565b60006116d9602883611169565b91506116e48261167d565b604082019050919050565b60006020820190508181036000830152611708816116cc565b9050919050565b7f496e76616c6964207661756c7420616464726573730000000000000000000000600082015250565b6000611745601583611169565b91506117508261170f565b602082019050919050565b6000602082019050818103600083015261177481611738565b9050919050565b7f4c6f77207468726573686f6c64206d757374206265206c657373207468616e2060008201527f68696768207468726573686f6c64000000000000000000000000000000000000602082015250565b60006117d7602e83611169565b91506117e28261177b565b604082019050919050565b60006020820190508181036000830152611806816117ca565b905091905056fea2646970667358221220399af2b97579dfa9f2ff09fe6bce7ae36f402a622ef4fb981d3373d430cdd3af64736f6c63430008140033",
  "linkReferences": {},
  "deployedLinkReferences": {}
}