{
  "_format": "hh-sol-artifact-1",
  "contractName": "SoloMethodEngine",
  "sourceName": "contracts/SoloMethodEngine.sol",
  "abi": [
    {
      "inputs": [
        {
          "internalType": "address",
          "name": "_token",
          "type": "address"
        },
        {
          "internalType": "address",
          "name": "initialOwner",
          "type": "address"
        }
      ],
      "stateMutability": "nonpayable",
      "type": "constructor"
    },
    {
      "inputs": [
        {
          "internalType": "address",
          "name": "owner",
          "type": "address"
        }
      ],
      "name": "OwnableInvalidOwner",
      "type": "error"
    },
    {
      "inputs": [
        {
          "internalType": "address",
          "name": "account",
          "type": "address"
        }
      ],
      "name": "OwnableUnauthorizedAccount",
      "type": "error"
    },
    {
      "anonymous": false,
      "inputs": [
        {
          "indexed": false,
          "internalType": "uint256",
          "name": "oldApr",
          "type": "uint256"
        },
        {
          "indexed": false,
          "internalType": "uint256",
          "name": "newApr",
          "type": "uint256"
        }
      ],
      "name": "APRUpdated",
      "type": "event"
    },
    {
      "anonymous": false,
      "inputs": [
        {
          "indexed": true,
          "internalType": "address",
          "name": "previousOwner",
          "type": "address"
        },
        {
          "indexed": true,
          "internalType": "address",
          "name": "newOwner",
          "type": "address"
        }
      ],
      "name": "OwnershipTransferred",
      "type": "event"
    },
    {
      "anonymous": false,
      "inputs": [
        {
          "indexed": true,
          "internalType": "address",
          "name": "user",
          "type": "address"
        },
        {
          "indexed": false,
          "internalType": "uint256",
          "name": "reward",
          "type": "uint256"
        }
      ],
      "name": "RewardPaid",
      "type": "event"
    },
    {
      "anonymous": false,
      "inputs": [
        {
          "indexed": true,
          "internalType": "address",
          "name": "user",
          "type": "address"
        },
        {
          "indexed": false,
          "internalType": "uint256",
          "name": "amount",
          "type": "uint256"
        }
      ],
      "name": "Staked",
      "type": "event"
    },
    {
      "anonymous": false,
      "inputs": [
        {
          "indexed": true,
          "internalType": "address",
          "name": "user",
          "type": "address"
        },
        {
          "indexed": false,
          "internalType": "uint256",
          "name": "amount",
          "type": "uint256"
        }
      ],
      "name": "Withdrawn",
      "type": "event"
    },
    {
      "inputs": [],
      "name": "BPS_DIVISOR",
      "outputs": [
        {
          "internalType": "uint256",
          "name": "",
          "type": "uint256"
        }
      ],
      "stateMutability": "view",
      "type": "function"
    },
    {
      "inputs": [],
      "name": "SECONDS_IN_YEAR",
      "outputs": [
        {
          "internalType": "uint256",
          "name": "",
          "type": "uint256"
        }
      ],
      "stateMutability": "view",
      "type": "function"
    },
    {
      "inputs": [],
      "name": "aprBasisPoints",
      "outputs": [
        {
          "internalType": "uint256",
          "name": "",
          "type": "uint256"
        }
      ],
      "stateMutability": "view",
      "type": "function"
    },
    {
      "inputs": [],
      "name": "claimRewards",
      "outputs": [],
      "stateMutability": "nonpayable",
      "type": "function"
    },
    {
      "inputs": [
        {
          "internalType": "address",
          "name": "user",
          "type": "address"
        }
      ],
      "name": "earned",
      "outputs": [
        {
          "internalType": "uint256",
          "name": "",
          "type": "uint256"
        }
      ],
      "stateMutability": "view",
      "type": "function"
    },
    {
      "inputs": [],
      "name": "getAPR",
      "outputs": [
        {
          "internalType": "uint256",
          "name": "",
          "type": "uint256"
        }
      ],
      "stateMutability": "view",
      "type": "function"
    },
    {
      "inputs": [
        {
          "internalType": "address",
          "name": "user",
          "type": "address"
        }
      ],
      "name": "getStaked",
      "outputs": [
        {
          "internalType": "uint256",
          "name": "",
          "type": "uint256"
        }
      ],
      "stateMutability": "view",
      "type": "function"
    },
    {
      "inputs": [
        {
          "internalType": "address",
          "name": "",
          "type": "address"
        }
      ],
      "name": "lastStaked",
      "outputs": [
        {
          "internalType": "uint256",
          "name": "",
          "type": "uint256"
        }
      ],
      "stateMutability": "view",
      "type": "function"
    },
    {
      "inputs": [],
      "name": "lastUpdate",
      "outputs": [
        {
          "internalType": "uint256",
          "name": "",
          "type": "uint256"
        }
      ],
      "stateMutability": "view",
      "type": "function"
    },
    {
      "inputs": [],
      "name": "owner",
      "outputs": [
        {
          "internalType": "address",
          "name": "",
          "type": "address"
        }
      ],
      "stateMutability": "view",
      "type": "function"
    },
    {
      "inputs": [],
      "name": "renounceOwnership",
      "outputs": [],
      "stateMutability": "nonpayable",
      "type": "function"
    },
    {
      "inputs": [
        {
          "internalType": "address",
          "name": "",
          "type": "address"
        }
      ],
      "name": "rewardDebt",
      "outputs": [
        {
          "internalType": "uint256",
          "name": "",
          "type": "uint256"
        }
      ],
      "stateMutability": "view",
      "type": "function"
    },
    {
      "inputs": [
        {
          "internalType": "uint256",
          "name": "_bps",
          "type": "uint256"
        }
      ],
      "name": "setAPR",
      "outputs": [],
      "stateMutability": "nonpayable",
      "type": "function"
    },
    {
      "inputs": [
        {
          "internalType": "uint256",
          "name": "amount",
          "type": "uint256"
        }
      ],
      "name": "stake",
      "outputs": [],
      "stateMutability": "nonpayable",
      "type": "function"
    },
    {
      "inputs": [
        {
          "internalType": "address",
          "name": "",
          "type": "address"
        }
      ],
      "name": "staked",
      "outputs": [
        {
          "internalType": "uint256",
          "name": "",
          "type": "uint256"
        }
      ],
      "stateMutability": "view",
      "type": "function"
    },
    {
      "inputs": [],
      "name": "stakingToken",
      "outputs": [
        {
          "internalType": "contract IERC20",
          "name": "",
          "type": "address"
        }
      ],
      "stateMutability": "view",
      "type": "function"
    },
    {
      "inputs": [],
      "name": "totalStaked",
      "outputs": [
        {
          "internalType": "uint256",
          "name": "",
          "type": "uint256"
        }
      ],
      "stateMutability": "view",
      "type": "function"
    },
    {
      "inputs": [
        {
          "internalType": "address",
          "name": "newOwner",
          "type": "address"
        }
      ],
      "name": "transferOwnership",
      "outputs": [],
      "stateMutability": "nonpayable",
      "type": "function"
    },
    {
      "inputs": [
        {
          "internalType": "uint256",
          "name": "amount",
          "type": "uint256"
        }
      ],
      "name": "withdraw",
      "outputs": [],
      "stateMutability": "nonpayable",
      "type": "function"
    }
  ],
  "bytecode": "0x60806040526109c46003553480156200001757600080fd5b50604051620019563803806200195683398181016040528101906200003d9190620002ae565b80600073ffffffffffffffffffffffffffffffffffffffff168173ffffffffffffffffffffffffffffffffffffffff1603620000b35760006040517f1e4fbdf7000000000000000000000000000000000000000000000000000000008152600401620000aa919062000306565b60405180910390fd5b620000c4816200018060201b60201c565b50600073ffffffffffffffffffffffffffffffffffffffff168273ffffffffffffffffffffffffffffffffffffffff160362000137576040517f08c379a00000000000000000000000000000000000000000000000000000000081526004016200012e9062000384565b60405180910390fd5b81600160006101000a81548173ffffffffffffffffffffffffffffffffffffffff021916908373ffffffffffffffffffffffffffffffffffffffff1602179055505050620003a6565b60008060009054906101000a900473ffffffffffffffffffffffffffffffffffffffff169050816000806101000a81548173ffffffffffffffffffffffffffffffffffffffff021916908373ffffffffffffffffffffffffffffffffffffffff1602179055508173ffffffffffffffffffffffffffffffffffffffff168173ffffffffffffffffffffffffffffffffffffffff167f8be0079c531659141344cd1fd0a4f28419497f9722a3daafe3b4186f6b6457e060405160405180910390a35050565b600080fd5b600073ffffffffffffffffffffffffffffffffffffffff82169050919050565b6000620002768262000249565b9050919050565b620002888162000269565b81146200029457600080fd5b50565b600081519050620002a8816200027d565b92915050565b60008060408385031215620002c857620002c762000244565b5b6000620002d88582860162000297565b9250506020620002eb8582860162000297565b9150509250929050565b620003008162000269565b82525050565b60006020820190506200031d6000830184620002f5565b92915050565b600082825260208201905092915050565b7f496e76616c696420746f6b656e20616464726573730000000000000000000000600082015250565b60006200036c60158362000323565b9150620003798262000334565b602082019050919050565b600060208201905081810360008301526200039f816200035d565b9050919050565b6115a080620003b66000396000f3fe608060405234801561001057600080fd5b50600436106101205760003560e01c806372f702f3116100ad578063a694fc3a11610071578063a694fc3a146102e5578063ae96812b14610301578063c046371114610331578063c89d5b8b1461034f578063f2fde38b1461036d57610120565b806372f702f31461023f578063817b1cd21461025d578063854303cf1461027b5780638da5cb5b1461029757806398807d84146102b557610120565b8063372500ab116100f4578063372500ab146101ad578063399080ec146101b75780635873eb9b146101e75780635dcc939114610217578063715018a61461023557610120565b80628cc26214610125578063191fe1ed146101555780632bdd2ad9146101735780632e1a7d4d14610191575b600080fd5b61013f600480360381019061013a9190610fb8565b610389565b60405161014c9190610ffe565b60405180910390f35b61015d610534565b60405161016a9190610ffe565b60405180910390f35b61017b61053a565b6040516101889190610ffe565b60405180910390f35b6101ab60048036038101906101a69190611045565b610540565b005b6101b561076f565b005b6101d160048036038101906101cc9190610fb8565b61093a565b6040516101de9190610ffe565b60405180910390f35b61020160048036038101906101fc9190610fb8565b610983565b60405161020e9190610ffe565b60405180910390f35b61021f61099b565b60405161022c9190610ffe565b60405180910390f35b61023d6109a3565b005b6102476109b7565b60405161025491906110d1565b60405180910390f35b6102656109dd565b6040516102729190610ffe565b60405180910390f35b61029560048036038101906102909190611045565b6109e3565b005b61029f610a7b565b6040516102ac91906110fb565b60405180910390f35b6102cf60048036038101906102ca9190610fb8565b610aa4565b6040516102dc9190610ffe565b60405180910390f35b6102ff60048036038101906102fa9190611045565b610abc565b005b61031b60048036038101906103169190610fb8565b610caf565b6040516103289190610ffe565b60405180910390f35b610339610cc7565b6040516103469190610ffe565b60405180910390f35b610357610ccd565b6040516103649190610ffe565b60405180910390f35b61038760048036038101906103829190610fb8565b610ce3565b005b600080600560008473ffffffffffffffffffffffffffffffffffffffff1673ffffffffffffffffffffffffffffffffffffffff168152602001908152602001600020540361041857600660008373ffffffffffffffffffffffffffffffffffffffff1673ffffffffffffffffffffffffffffffffffffffff16815260200190815260200160002054905061052f565b6000600760008473ffffffffffffffffffffffffffffffffffffffff1673ffffffffffffffffffffffffffffffffffffffff16815260200190815260200160002054426104659190611145565b905060006301e1338061271083600354600560008973ffffffffffffffffffffffffffffffffffffffff1673ffffffffffffffffffffffffffffffffffffffff168152602001908152602001600020546104bf9190611179565b6104c99190611179565b6104d391906111ea565b6104dd91906111ea565b9050600660008573ffffffffffffffffffffffffffffffffffffffff1673ffffffffffffffffffffffffffffffffffffffff168152602001908152602001600020548161052a919061121b565b925050505b919050565b61271081565b60035481565b60008111610583576040517f08c379a000000000000000000000000000000000000000000000000000000000815260040161057a906112ac565b60405180910390fd5b80600560003373ffffffffffffffffffffffffffffffffffffffff1673ffffffffffffffffffffffffffffffffffffffff168152602001908152602001600020541015610605576040517f08c379a00000000000000000000000000000000000000000000000000000000081526004016105fc90611318565b60405180910390fd5b61060e33610d69565b80600560003373ffffffffffffffffffffffffffffffffffffffff1673ffffffffffffffffffffffffffffffffffffffff168152602001908152602001600020600082825461065d9190611145565b9250508190555080600260008282546106769190611145565b92505081905550600160009054906101000a900473ffffffffffffffffffffffffffffffffffffffff1673ffffffffffffffffffffffffffffffffffffffff1663a9059cbb33836040518363ffffffff1660e01b81526004016106da929190611338565b6020604051808303816000875af11580156106f9573d6000803e3d6000fd5b505050506040513d601f19601f8201168201806040525081019061071d9190611399565b503373ffffffffffffffffffffffffffffffffffffffff167f7084f5476618d8e60b11ef0d7d3f06914655adb8793e28ff7f018d4c76d505d5826040516107649190610ffe565b60405180910390a250565b600061077a33610389565b9050600081116107bf576040517f08c379a00000000000000000000000000000000000000000000000000000000081526004016107b690611412565b60405180910390fd5b6000600660003373ffffffffffffffffffffffffffffffffffffffff1673ffffffffffffffffffffffffffffffffffffffff1681526020019081526020016000208190555042600760003373ffffffffffffffffffffffffffffffffffffffff1673ffffffffffffffffffffffffffffffffffffffff16815260200190815260200160002081905550600160009054906101000a900473ffffffffffffffffffffffffffffffffffffffff1673ffffffffffffffffffffffffffffffffffffffff1663a9059cbb33836040518363ffffffff1660e01b81526004016108a5929190611338565b6020604051808303816000875af11580156108c4573d6000803e3d6000fd5b505050506040513d601f19601f820116820180604052508101906108e89190611399565b503373ffffffffffffffffffffffffffffffffffffffff167fe2403640ba68fed3a2f88b7557551d1993f84b99bb10ff833f0cf8db0c5e04868260405161092f9190610ffe565b60405180910390a250565b6000600560008373ffffffffffffffffffffffffffffffffffffffff1673ffffffffffffffffffffffffffffffffffffffff168152602001908152602001600020549050919050565b60066020528060005260406000206000915090505481565b6301e1338081565b6109ab610e02565b6109b56000610e89565b565b600160009054906101000a900473ffffffffffffffffffffffffffffffffffffffff1681565b60025481565b6109eb610e02565b611388811115610a30576040517f08c379a0000000000000000000000000000000000000000000000000000000008152600401610a279061147e565b60405180910390fd5b60006003549050816003819055507fd2d659d197cf77652feb866d2a49b71684b0e7b0d92bde0b26163f77e2e25a2d8183604051610a6f92919061149e565b60405180910390a15050565b60008060009054906101000a900473ffffffffffffffffffffffffffffffffffffffff16905090565b60056020528060005260406000206000915090505481565b60008111610aff576040517f08c379a0000000000000000000000000000000000000000000000000000000008152600401610af690611513565b60405180910390fd5b610b0833610d69565b600160009054906101000a900473ffffffffffffffffffffffffffffffffffffffff1673ffffffffffffffffffffffffffffffffffffffff166323b872dd3330846040518463ffffffff1660e01b8152600401610b6793929190611533565b6020604051808303816000875af1158015610b86573d6000803e3d6000fd5b505050506040513d601f19601f82011682018060405250810190610baa9190611399565b5080600560003373ffffffffffffffffffffffffffffffffffffffff1673ffffffffffffffffffffffffffffffffffffffff1681526020019081526020016000206000828254610bfa919061121b565b925050819055508060026000828254610c13919061121b565b9250508190555042600760003373ffffffffffffffffffffffffffffffffffffffff1673ffffffffffffffffffffffffffffffffffffffff168152602001908152602001600020819055503373ffffffffffffffffffffffffffffffffffffffff167f9e71bc8eea02a63969f509818f2dafb9254532904319f9dbda79b67bd34a5f3d82604051610ca49190610ffe565b60405180910390a250565b60076020528060005260406000206000915090505481565b60045481565b60006064600354610cde91906111ea565b905090565b610ceb610e02565b600073ffffffffffffffffffffffffffffffffffffffff168173ffffffffffffffffffffffffffffffffffffffff1603610d5d5760006040517f1e4fbdf7000000000000000000000000000000000000000000000000000000008152600401610d5491906110fb565b60405180910390fd5b610d6681610e89565b50565b6000610d7482610389565b905080600660008473ffffffffffffffffffffffffffffffffffffffff1673ffffffffffffffffffffffffffffffffffffffff1681526020019081526020016000208190555042600760008473ffffffffffffffffffffffffffffffffffffffff1673ffffffffffffffffffffffffffffffffffffffff168152602001908152602001600020819055505050565b610e0a610f4d565b73ffffffffffffffffffffffffffffffffffffffff16610e28610a7b565b73ffffffffffffffffffffffffffffffffffffffff1614610e8757610e4b610f4d565b6040517f118cdaa7000000000000000000000000000000000000000000000000000000008152600401610e7e91906110fb565b60405180910390fd5b565b60008060009054906101000a900473ffffffffffffffffffffffffffffffffffffffff169050816000806101000a81548173ffffffffffffffffffffffffffffffffffffffff021916908373ffffffffffffffffffffffffffffffffffffffff1602179055508173ffffffffffffffffffffffffffffffffffffffff168173ffffffffffffffffffffffffffffffffffffffff167f8be0079c531659141344cd1fd0a4f28419497f9722a3daafe3b4186f6b6457e060405160405180910390a35050565b600033905090565b600080fd5b600073ffffffffffffffffffffffffffffffffffffffff82169050919050565b6000610f8582610f5a565b9050919050565b610f9581610f7a565b8114610fa057600080fd5b50565b600081359050610fb281610f8c565b92915050565b600060208284031215610fce57610fcd610f55565b5b6000610fdc84828501610fa3565b91505092915050565b6000819050919050565b610ff881610fe5565b82525050565b60006020820190506110136000830184610fef565b92915050565b61102281610fe5565b811461102d57600080fd5b50565b60008135905061103f81611019565b92915050565b60006020828403121561105b5761105a610f55565b5b600061106984828501611030565b91505092915050565b6000819050919050565b600061109761109261108d84610f5a565b611072565b610f5a565b9050919050565b60006110a98261107c565b9050919050565b60006110bb8261109e565b9050919050565b6110cb816110b0565b82525050565b60006020820190506110e660008301846110c2565b92915050565b6110f581610f7a565b82525050565b600060208201905061111060008301846110ec565b92915050565b7f4e487b7100000000000000000000000000000000000000000000000000000000600052601160045260246000fd5b600061115082610fe5565b915061115b83610fe5565b925082820390508181111561117357611172611116565b5b92915050565b600061118482610fe5565b915061118f83610fe5565b925082820261119d81610fe5565b915082820484148315176111b4576111b3611116565b5b5092915050565b7f4e487b7100000000000000000000000000000000000000000000000000000000600052601260045260246000fd5b60006111f582610fe5565b915061120083610fe5565b9250826112105761120f6111bb565b5b828204905092915050565b600061122682610fe5565b915061123183610fe5565b925082820190508082111561124957611248611116565b5b92915050565b600082825260208201905092915050565b7f5769746864726177206d6f7265207468616e2030000000000000000000000000600082015250565b600061129660148361124f565b91506112a182611260565b602082019050919050565b600060208201905081810360008301526112c581611289565b9050919050565b7f4e6f7420656e6f756768207374616b6564000000000000000000000000000000600082015250565b600061130260118361124f565b915061130d826112cc565b602082019050919050565b60006020820190508181036000830152611331816112f5565b9050919050565b600060408201905061134d60008301856110ec565b61135a6020830184610fef565b9392505050565b60008115159050919050565b61137681611361565b811461138157600080fd5b50565b6000815190506113938161136d565b92915050565b6000602082840312156113af576113ae610f55565b5b60006113bd84828501611384565b91505092915050565b7f4e6f207265776172647320746f20636c61696d00000000000000000000000000600082015250565b60006113fc60138361124f565b9150611407826113c6565b602082019050919050565b6000602082019050818103600083015261142b816113ef565b9050919050565b7f41505220746f6f20686967680000000000000000000000000000000000000000600082015250565b6000611468600c8361124f565b915061147382611432565b602082019050919050565b600060208201905081810360008301526114978161145b565b9050919050565b60006040820190506114b36000830185610fef565b6114c06020830184610fef565b9392505050565b7f5374616b65206d6f7265207468616e2030000000000000000000000000000000600082015250565b60006114fd60118361124f565b9150611508826114c7565b602082019050919050565b6000602082019050818103600083015261152c816114f0565b9050919050565b600060608201905061154860008301866110ec565b61155560208301856110ec565b6115626040830184610fef565b94935050505056fea26469706673582212200fe7ea2447d9ac95f6f3688c848a8139bb0e7e3a5650f5aa5dc070b608ef1f1064736f6c63430008140033",
  "linkReferences": {},
  "deployedLinkReferences": {}
}