{
  "_format": "hh-sol-artifact-1",
  "contractName": "BasketIndex",
  "sourceName": "contracts/BasketIndex.sol",
  "abi": [
    {
      "inputs": [
        {
          "internalType": "string",
          "name": "name",
          "type": "string"
        },
        {
          "internalType": "string",
          "name": "symbol",
          "type": "string"
        }
      ],
      "stateMutability": "nonpayable",
      "type": "constructor"
    },
    {
      "inputs": [
        {
          "internalType": "address",
          "name": "spender",
          "type": "address"
        },
        {
          "internalType": "uint256",
          "name": "allowance",
          "type": "uint256"
        },
        {
          "internalType": "uint256",
          "name": "needed",
          "type": "uint256"
        }
      ],
      "name": "ERC20InsufficientAllowance",
      "type": "error"
    },
    {
      "inputs": [
        {
          "internalType": "address",
          "name": "sender",
          "type": "address"
        },
        {
          "internalType": "uint256",
          "name": "balance",
          "type": "uint256"
        },
        {
          "internalType": "uint256",
          "name": "needed",
          "type": "uint256"
        }
      ],
      "name": "ERC20InsufficientBalance",
      "type": "error"
    },
    {
      "inputs": [
        {
          "internalType": "address",
          "name": "approver",
          "type": "address"
        }
      ],
      "name": "ERC20InvalidApprover",
      "type": "error"
    },
    {
      "inputs": [
        {
          "internalType": "address",
          "name": "receiver",
          "type": "address"
        }
      ],
      "name": "ERC20InvalidReceiver",
      "type": "error"
    },
    {
      "inputs": [
        {
          "internalType": "address",
          "name": "sender",
          "type": "address"
        }
      ],
      "name": "ERC20InvalidSender",
      "type": "error"
    },
    {
      "inputs": [
        {
          "internalType": "address",
          "name": "spender",
          "type": "address"
        }
      ],
      "name": "ERC20InvalidSpender",
      "type": "error"
    },
    {
      "inputs": [
        {
          "internalType": "address",
          "name": "owner",
          "type": "address"
        }
      ],
      "name": "OwnableInvalidOwner",
      "type": "error"
    },
    {
      "inputs": [
        {
          "internalType": "address",
          "name": "account",
          "type": "address"
        }
      ],
      "name": "OwnableUnauthorizedAccount",
      "type": "error"
    },
    {
      "anonymous": false,
      "inputs": [
        {
          "indexed": true,
          "internalType": "address",
          "name": "owner",
          "type": "address"
        },
        {
          "indexed": true,
          "internalType": "address",
          "name": "spender",
          "type": "address"
        },
        {
          "indexed": false,
          "internalType": "uint256",
          "name": "value",
          "type": "uint256"
        }
      ],
      "name": "Approval",
      "type": "event"
    },
    {
      "anonymous": false,
      "inputs": [
        {
          "indexed": false,
          "internalType": "address[]",
          "name": "assets",
          "type": "address[]"
        },
        {
          "indexed": false,
          "internalType": "uint256[]",
          "name": "weights",
          "type": "uint256[]"
        }
      ],
      "name": "AssetsUpdated",
      "type": "event"
    },
    {
      "anonymous": false,
      "inputs": [
        {
          "indexed": true,
          "internalType": "address",
          "name": "previousOwner",
          "type": "address"
        },
        {
          "indexed": true,
          "internalType": "address",
          "name": "newOwner",
          "type": "address"
        }
      ],
      "name": "OwnershipTransferred",
      "type": "event"
    },
    {
      "anonymous": false,
      "inputs": [
        {
          "indexed": false,
          "internalType": "uint256",
          "name": "timestamp",
          "type": "uint256"
        }
      ],
      "name": "Rebalanced",
      "type": "event"
    },
    {
      "anonymous": false,
      "inputs": [
        {
          "indexed": true,
          "internalType": "address",
          "name": "from",
          "type": "address"
        },
        {
          "indexed": true,
          "internalType": "address",
          "name": "to",
          "type": "address"
        },
        {
          "indexed": false,
          "internalType": "uint256",
          "name": "value",
          "type": "uint256"
        }
      ],
      "name": "Transfer",
      "type": "event"
    },
    {
      "inputs": [],
      "name": "BASIS_POINTS",
      "outputs": [
        {
          "internalType": "uint256",
          "name": "",
          "type": "uint256"
        }
      ],
      "stateMutability": "view",
      "type": "function"
    },
    {
      "inputs": [
        {
          "internalType": "address",
          "name": "owner",
          "type": "address"
        },
        {
          "internalType": "address",
          "name": "spender",
          "type": "address"
        }
      ],
      "name": "allowance",
      "outputs": [
        {
          "internalType": "uint256",
          "name": "",
          "type": "uint256"
        }
      ],
      "stateMutability": "view",
      "type": "function"
    },
    {
      "inputs": [
        {
          "internalType": "address",
          "name": "spender",
          "type": "address"
        },
        {
          "internalType": "uint256",
          "name": "value",
          "type": "uint256"
        }
      ],
      "name": "approve",
      "outputs": [
        {
          "internalType": "bool",
          "name": "",
          "type": "bool"
        }
      ],
      "stateMutability": "nonpayable",
      "type": "function"
    },
    {
      "inputs": [
        {
          "internalType": "address",
          "name": "",
          "type": "address"
        }
      ],
      "name": "assetWeights",
      "outputs": [
        {
          "internalType": "uint256",
          "name": "",
          "type": "uint256"
        }
      ],
      "stateMutability": "view",
      "type": "function"
    },
    {
      "inputs": [
        {
          "internalType": "address",
          "name": "account",
          "type": "address"
        }
      ],
      "name": "balanceOf",
      "outputs": [
        {
          "internalType": "uint256",
          "name": "",
          "type": "uint256"
        }
      ],
      "stateMutability": "view",
      "type": "function"
    },
    {
      "inputs": [
        {
          "internalType": "uint256",
          "name": "amount",
          "type": "uint256"
        }
      ],
      "name": "burn",
      "outputs": [],
      "stateMutability": "nonpayable",
      "type": "function"
    },
    {
      "inputs": [
        {
          "internalType": "address",
          "name": "referenceToken",
          "type": "address"
        }
      ],
      "name": "calculateBasketValue",
      "outputs": [
        {
          "internalType": "uint256",
          "name": "",
          "type": "uint256"
        }
      ],
      "stateMutability": "view",
      "type": "function"
    },
    {
      "inputs": [],
      "name": "decimals",
      "outputs": [
        {
          "internalType": "uint8",
          "name": "",
          "type": "uint8"
        }
      ],
      "stateMutability": "view",
      "type": "function"
    },
    {
      "inputs": [],
      "name": "getAssetWeights",
      "outputs": [
        {
          "internalType": "uint256[]",
          "name": "",
          "type": "uint256[]"
        }
      ],
      "stateMutability": "view",
      "type": "function"
    },
    {
      "inputs": [],
      "name": "getUnderlyingAssets",
      "outputs": [
        {
          "internalType": "address[]",
          "name": "",
          "type": "address[]"
        }
      ],
      "stateMutability": "view",
      "type": "function"
    },
    {
      "inputs": [
        {
          "internalType": "uint256",
          "name": "amount",
          "type": "uint256"
        }
      ],
      "name": "mint",
      "outputs": [],
      "stateMutability": "nonpayable",
      "type": "function"
    },
    {
      "inputs": [],
      "name": "name",
      "outputs": [
        {
          "internalType": "string",
          "name": "",
          "type": "string"
        }
      ],
      "stateMutability": "view",
      "type": "function"
    },
    {
      "inputs": [],
      "name": "owner",
      "outputs": [
        {
          "internalType": "address",
          "name": "",
          "type": "address"
        }
      ],
      "stateMutability": "view",
      "type": "function"
    },
    {
      "inputs": [],
      "name": "rebalance",
      "outputs": [],
      "stateMutability": "nonpayable",
      "type": "function"
    },
    {
      "inputs": [],
      "name": "renounceOwnership",
      "outputs": [],
      "stateMutability": "nonpayable",
      "type": "function"
    },
    {
      "inputs": [
        {
          "internalType": "address[]",
          "name": "assets",
          "type": "address[]"
        },
        {
          "internalType": "uint256[]",
          "name": "weights",
          "type": "uint256[]"
        }
      ],
      "name": "setAssets",
      "outputs": [],
      "stateMutability": "nonpayable",
      "type": "function"
    },
    {
      "inputs": [],
      "name": "symbol",
      "outputs": [
        {
          "internalType": "string",
          "name": "",
          "type": "string"
        }
      ],
      "stateMutability": "view",
      "type": "function"
    },
    {
      "inputs": [],
      "name": "totalSupply",
      "outputs": [
        {
          "internalType": "uint256",
          "name": "",
          "type": "uint256"
        }
      ],
      "stateMutability": "view",
      "type": "function"
    },
    {
      "inputs": [],
      "name": "totalWeightBasis",
      "outputs": [
        {
          "internalType": "uint256",
          "name": "",
          "type": "uint256"
        }
      ],
      "stateMutability": "view",
      "type": "function"
    },
    {
      "inputs": [
        {
          "internalType": "address",
          "name": "to",
          "type": "address"
        },
        {
          "internalType": "uint256",
          "name": "value",
          "type": "uint256"
        }
      ],
      "name": "transfer",
      "outputs": [
        {
          "internalType": "bool",
          "name": "",
          "type": "bool"
        }
      ],
      "stateMutability": "nonpayable",
      "type": "function"
    },
    {
      "inputs": [
        {
          "internalType": "address",
          "name": "from",
          "type": "address"
        },
        {
          "internalType": "address",
          "name": "to",
          "type": "address"
        },
        {
          "internalType": "uint256",
          "name": "value",
          "type": "uint256"
        }
      ],
      "name": "transferFrom",
      "outputs": [
        {
          "internalType": "bool",
          "name": "",
          "type": "bool"
        }
      ],
      "stateMutability": "nonpayable",
      "type": "function"
    },
    {
      "inputs": [
        {
          "internalType": "address",
          "name": "newOwner",
          "type": "address"
        }
      ],
      "name": "transferOwnership",
      "outputs": [],
      "stateMutability": "nonpayable",
      "type": "function"
    },
    {
      "inputs": [
        {
          "internalType": "uint256",
          "name": "",
          "type": "uint256"
        }
      ],
      "name": "underlyingAssets",
      "outputs": [
        {
          "internalType": "address",
          "name": "",
          "type": "address"
        }
      ],
      "stateMutability": "view",
      "type": "function"
    }
  ],
  "bytecode": "0x608060405260006008553480156200001657600080fd5b50604051620030803803806200308083398181016040528101906200003c91906200034d565b33828281600390816200005091906200061d565b5080600490816200006291906200061d565b505050600073ffffffffffffffffffffffffffffffffffffffff168173ffffffffffffffffffffffffffffffffffffffff1603620000da5760006040517f1e4fbdf7000000000000000000000000000000000000000000000000000000008152600401620000d1919062000749565b60405180910390fd5b620000eb81620000f460201b60201c565b50505062000766565b6000600560009054906101000a900473ffffffffffffffffffffffffffffffffffffffff16905081600560006101000a81548173ffffffffffffffffffffffffffffffffffffffff021916908373ffffffffffffffffffffffffffffffffffffffff1602179055508173ffffffffffffffffffffffffffffffffffffffff168173ffffffffffffffffffffffffffffffffffffffff167f8be0079c531659141344cd1fd0a4f28419497f9722a3daafe3b4186f6b6457e060405160405180910390a35050565b6000604051905090565b600080fd5b600080fd5b600080fd5b600080fd5b6000601f19601f8301169050919050565b7f4e487b7100000000000000000000000000000000000000000000000000000000600052604160045260246000fd5b6200022382620001d8565b810181811067ffffffffffffffff82111715620002455762000244620001e9565b5b80604052505050565b60006200025a620001ba565b905062000268828262000218565b919050565b600067ffffffffffffffff8211156200028b576200028a620001e9565b5b6200029682620001d8565b9050602081019050919050565b60005b83811015620002c3578082015181840152602081019050620002a6565b60008484015250505050565b6000620002e6620002e0846200026d565b6200024e565b905082815260208101848484011115620003055762000304620001d3565b5b62000312848285620002a3565b509392505050565b600082601f830112620003325762000331620001ce565b5b815162000344848260208601620002cf565b91505092915050565b60008060408385031215620003675762000366620001c4565b5b600083015167ffffffffffffffff811115620003885762000387620001c9565b5b62000396858286016200031a565b925050602083015167ffffffffffffffff811115620003ba57620003b9620001c9565b5b620003c8858286016200031a565b9150509250929050565b600081519050919050565b7f4e487b7100000000000000000000000000000000000000000000000000000000600052602260045260246000fd5b600060028204905060018216806200042557607f821691505b6020821081036200043b576200043a620003dd565b5b50919050565b60008190508160005260206000209050919050565b60006020601f8301049050919050565b600082821b905092915050565b600060088302620004a57fffffffffffffffffffffffffffffffffffffffffffffffffffffffffffffffff8262000466565b620004b1868362000466565b95508019841693508086168417925050509392505050565b6000819050919050565b6000819050919050565b6000620004fe620004f8620004f284620004c9565b620004d3565b620004c9565b9050919050565b6000819050919050565b6200051a83620004dd565b62000532620005298262000505565b84845462000473565b825550505050565b600090565b620005496200053a565b620005568184846200050f565b505050565b5b818110156200057e57620005726000826200053f565b6001810190506200055c565b5050565b601f821115620005cd57620005978162000441565b620005a28462000456565b81016020851015620005b2578190505b620005ca620005c18562000456565b8301826200055b565b50505b505050565b600082821c905092915050565b6000620005f260001984600802620005d2565b1980831691505092915050565b60006200060d8383620005df565b9150826002028217905092915050565b6200062882620003d2565b67ffffffffffffffff811115620006445762000643620001e9565b5b6200065082546200040c565b6200065d82828562000582565b600060209050601f83116001811462000695576000841562000680578287015190505b6200068c8582620005ff565b865550620006fc565b601f198416620006a58662000441565b60005b82811015620006cf57848901518255600182019150602085019450602081019050620006a8565b86831015620006ef5784890151620006eb601f891682620005df565b8355505b6001600288020188555050505b505050505050565b600073ffffffffffffffffffffffffffffffffffffffff82169050919050565b6000620007318262000704565b9050919050565b620007438162000724565b82525050565b600060208201905062000760600083018462000738565b92915050565b61290a80620007766000396000f3fe608060405234801561001057600080fd5b506004361061014d5760003560e01c806370a08231116100c3578063a0712d681161007c578063a0712d6814610392578063a9059cbb146103ae578063dd62ed3e146103de578063e1f1c4a71461040e578063f2fde38b1461042c578063f6d23641146104485761014d565b806370a08231146102e2578063715018a6146103125780637d7c2a1c1461031c5780638da5cb5b1461032657806395d89b4114610344578063964bf0d8146103625761014d565b8063313ce56711610115578063313ce5671461020c5780633582d7891461022a5780633b50c4d11461024857806342966c68146102785780635a6dd3b71461029457806364d59fc6146102b25761014d565b806306fdde0314610152578063095ea7b3146101705780630f7449cc146101a057806318160ddd146101be57806323b872dd146101dc575b600080fd5b61015a610464565b6040516101679190611b2d565b60405180910390f35b61018a60048036038101906101859190611bed565b6104f6565b6040516101979190611c48565b60405180910390f35b6101a8610519565b6040516101b59190611d21565b60405180910390f35b6101c6610635565b6040516101d39190611d52565b60405180910390f35b6101f660048036038101906101f19190611d6d565b61063f565b6040516102039190611c48565b60405180910390f35b61021461066e565b6040516102219190611ddc565b60405180910390f35b610232610677565b60405161023f9190611eb5565b60405180910390f35b610262600480360381019061025d9190611ed7565b610705565b60405161026f9190611f13565b60405180910390f35b610292600480360381019061028d9190611ed7565b610744565b005b61029c610967565b6040516102a99190611d52565b60405180910390f35b6102cc60048036038101906102c79190611f2e565b61096d565b6040516102d99190611d52565b60405180910390f35b6102fc60048036038101906102f79190611f2e565b610985565b6040516103099190611d52565b60405180910390f35b61031a6109cd565b005b6103246109e1565b005b61032e610a6a565b60405161033b9190611f13565b60405180910390f35b61034c610a94565b6040516103599190611b2d565b60405180910390f35b61037c60048036038101906103779190611f2e565b610b26565b6040516103899190611d52565b60405180910390f35b6103ac60048036038101906103a79190611ed7565b610b2d565b005b6103c860048036038101906103c39190611bed565b610d4f565b6040516103d59190611c48565b60405180910390f35b6103f860048036038101906103f39190611f5b565b610d72565b6040516104059190611d52565b60405180910390f35b610416610df9565b6040516104239190611d52565b60405180910390f35b61044660048036038101906104419190611f2e565b610dff565b005b610462600480360381019061045d9190612056565b610e85565b005b60606003805461047390612106565b80601f016020809104026020016040519081016040528092919081815260200182805461049f90612106565b80156104ec5780601f106104c1576101008083540402835291602001916104ec565b820191906000526020600020905b8154815290600101906020018083116104cf57829003601f168201915b5050505050905090565b60008061050161126f565b905061050e818585611277565b600191505092915050565b6060600060068054905067ffffffffffffffff81111561053c5761053b612137565b5b60405190808252806020026020018201604052801561056a5781602001602082028036833780820191505090505b50905060005b60068054905081101561062d57600760006006838154811061059557610594612166565b5b9060005260206000200160009054906101000a900473ffffffffffffffffffffffffffffffffffffffff1673ffffffffffffffffffffffffffffffffffffffff1673ffffffffffffffffffffffffffffffffffffffff1681526020019081526020016000205482828151811061060e5761060d612166565b5b6020026020010181815250508080610625906121c4565b915050610570565b508091505090565b6000600254905090565b60008061064a61126f565b9050610657858285611289565b61066285858561131e565b60019150509392505050565b60006012905090565b606060068054806020026020016040519081016040528092919081815260200182805480156106fb57602002820191906000526020600020905b8160009054906101000a900473ffffffffffffffffffffffffffffffffffffffff1673ffffffffffffffffffffffffffffffffffffffff16815260200190600101908083116106b1575b5050505050905090565b6006818154811061071557600080fd5b906000526020600020016000915054906101000a900473ffffffffffffffffffffffffffffffffffffffff1681565b60008111610787576040517f08c379a000000000000000000000000000000000000000000000000000000000815260040161077e90612258565b60405180910390fd5b8061079133610985565b10156107d2576040517f08c379a00000000000000000000000000000000000000000000000000000000081526004016107c9906122c4565b60405180910390fd5b6107dc3382611412565b60005b6006805490508110156109635760006006828154811061080257610801612166565b5b9060005260206000200160009054906101000a900473ffffffffffffffffffffffffffffffffffffffff1690506000600760008373ffffffffffffffffffffffffffffffffffffffff1673ffffffffffffffffffffffffffffffffffffffff1681526020019081526020016000205490506000612710828661088491906122e4565b61088e9190612355565b90508273ffffffffffffffffffffffffffffffffffffffff1663a9059cbb33836040518363ffffffff1660e01b81526004016108cb929190612386565b6020604051808303816000875af11580156108ea573d6000803e3d6000fd5b505050506040513d601f19601f8201168201806040525081019061090e91906123db565b61094d576040517f08c379a00000000000000000000000000000000000000000000000000000000081526004016109449061247a565b60405180910390fd5b505050808061095b906121c4565b9150506107df565b5050565b60085481565b60076020528060005260406000206000915090505481565b60008060008373ffffffffffffffffffffffffffffffffffffffff1673ffffffffffffffffffffffffffffffffffffffff168152602001908152602001600020549050919050565b6109d5611494565b6109df600061151b565b565b6109e9611494565b600060068054905011610a31576040517f08c379a0000000000000000000000000000000000000000000000000000000008152600401610a28906124e6565b60405180910390fd5b7fc306af072396b02bf3a9782c10065cc7ff4aa842934a43f0b76f997b291237c842604051610a609190611d52565b60405180910390a1565b6000600560009054906101000a900473ffffffffffffffffffffffffffffffffffffffff16905090565b606060048054610aa390612106565b80601f0160208091040260200160405190810160405280929190818152602001828054610acf90612106565b8015610b1c5780601f10610af157610100808354040283529160200191610b1c565b820191906000526020600020905b815481529060010190602001808311610aff57829003601f168201915b5050505050905090565b6000919050565b60008111610b70576040517f08c379a0000000000000000000000000000000000000000000000000000000008152600401610b6790612258565b60405180910390fd5b600060068054905011610bb8576040517f08c379a0000000000000000000000000000000000000000000000000000000008152600401610baf906124e6565b60405180910390fd5b60005b600680549050811015610d4157600060068281548110610bde57610bdd612166565b5b9060005260206000200160009054906101000a900473ffffffffffffffffffffffffffffffffffffffff1690506000600760008373ffffffffffffffffffffffffffffffffffffffff1673ffffffffffffffffffffffffffffffffffffffff16815260200190815260200160002054905060006127108286610c6091906122e4565b610c6a9190612355565b90508273ffffffffffffffffffffffffffffffffffffffff166323b872dd3330846040518463ffffffff1660e01b8152600401610ca993929190612506565b6020604051808303816000875af1158015610cc8573d6000803e3d6000fd5b505050506040513d601f19601f82011682018060405250810190610cec91906123db565b610d2b576040517f08c379a0000000000000000000000000000000000000000000000000000000008152600401610d229061247a565b60405180910390fd5b5050508080610d39906121c4565b915050610bbb565b50610d4c33826115e1565b50565b600080610d5a61126f565b9050610d6781858561131e565b600191505092915050565b6000600160008473ffffffffffffffffffffffffffffffffffffffff1673ffffffffffffffffffffffffffffffffffffffff16815260200190815260200160002060008373ffffffffffffffffffffffffffffffffffffffff1673ffffffffffffffffffffffffffffffffffffffff16815260200190815260200160002054905092915050565b61271081565b610e07611494565b600073ffffffffffffffffffffffffffffffffffffffff168173ffffffffffffffffffffffffffffffffffffffff1603610e795760006040517f1e4fbdf7000000000000000000000000000000000000000000000000000000008152600401610e709190611f13565b60405180910390fd5b610e828161151b565b50565b610e8d611494565b818190508484905014610ed5576040517f08c379a0000000000000000000000000000000000000000000000000000000008152600401610ecc906125af565b60405180910390fd5b60005b600680549050811015610f7b5760006007600060068481548110610eff57610efe612166565b5b9060005260206000200160009054906101000a900473ffffffffffffffffffffffffffffffffffffffff1673ffffffffffffffffffffffffffffffffffffffff1673ffffffffffffffffffffffffffffffffffffffff168152602001908152602001600020819055508080610f73906121c4565b915050610ed8565b5060066000610f8a9190611a5f565b600060088190555060005b848490508110156111e557600073ffffffffffffffffffffffffffffffffffffffff16858583818110610fcb57610fca612166565b5b9050602002016020810190610fe09190611f2e565b73ffffffffffffffffffffffffffffffffffffffff1603611036576040517f08c379a000000000000000000000000000000000000000000000000000000000815260040161102d9061261b565b60405180910390fd5b600083838381811061104b5761104a612166565b5b9050602002013511611092576040517f08c379a000000000000000000000000000000000000000000000000000000000815260040161108990612687565b60405180910390fd5b60068585838181106110a7576110a6612166565b5b90506020020160208101906110bc9190611f2e565b9080600181540180825580915050600190039060005260206000200160009091909190916101000a81548173ffffffffffffffffffffffffffffffffffffffff021916908373ffffffffffffffffffffffffffffffffffffffff16021790555082828281811061112f5761112e612166565b5b905060200201356007600087878581811061114d5761114c612166565b5b90506020020160208101906111629190611f2e565b73ffffffffffffffffffffffffffffffffffffffff1673ffffffffffffffffffffffffffffffffffffffff168152602001908152602001600020819055508282828181106111b3576111b2612166565b5b90506020020135600860008282546111cb91906126a7565b9250508190555080806111dd906121c4565b915050610f95565b506127106008541461122c576040517f08c379a00000000000000000000000000000000000000000000000000000000081526004016112239061274d565b60405180910390fd5b7fecb0158f543104fbc496e66adbb0520aa3e9f6c59373af65049e70a0469cfe78848484846040516112619493929190612862565b60405180910390a150505050565b600033905090565b6112848383836001611663565b505050565b60006112958484610d72565b90507fffffffffffffffffffffffffffffffffffffffffffffffffffffffffffffffff8110156113185781811015611308578281836040517ffb8f41b20000000000000000000000000000000000000000000000000000000081526004016112ff9392919061289d565b60405180910390fd5b61131784848484036000611663565b5b50505050565b600073ffffffffffffffffffffffffffffffffffffffff168373ffffffffffffffffffffffffffffffffffffffff16036113905760006040517f96c6fd1e0000000000000000000000000000000000000000000000000000000081526004016113879190611f13565b60405180910390fd5b600073ffffffffffffffffffffffffffffffffffffffff168273ffffffffffffffffffffffffffffffffffffffff16036114025760006040517fec442f050000000000000000000000000000000000000000000000000000000081526004016113f99190611f13565b60405180910390fd5b61140d83838361183a565b505050565b600073ffffffffffffffffffffffffffffffffffffffff168273ffffffffffffffffffffffffffffffffffffffff16036114845760006040517f96c6fd1e00000000000000000000000000000000000000000000000000000000815260040161147b9190611f13565b60405180910390fd5b6114908260008361183a565b5050565b61149c61126f565b73ffffffffffffffffffffffffffffffffffffffff166114ba610a6a565b73ffffffffffffffffffffffffffffffffffffffff1614611519576114dd61126f565b6040517f118cdaa70000000000000000000000000000000000000000000000000000000081526004016115109190611f13565b60405180910390fd5b565b6000600560009054906101000a900473ffffffffffffffffffffffffffffffffffffffff16905081600560006101000a81548173ffffffffffffffffffffffffffffffffffffffff021916908373ffffffffffffffffffffffffffffffffffffffff1602179055508173ffffffffffffffffffffffffffffffffffffffff168173ffffffffffffffffffffffffffffffffffffffff167f8be0079c531659141344cd1fd0a4f28419497f9722a3daafe3b4186f6b6457e060405160405180910390a35050565b600073ffffffffffffffffffffffffffffffffffffffff168273ffffffffffffffffffffffffffffffffffffffff16036116535760006040517fec442f0500000000000000000000000000000000000000000000000000000000815260040161164a9190611f13565b60405180910390fd5b61165f6000838361183a565b5050565b600073ffffffffffffffffffffffffffffffffffffffff168473ffffffffffffffffffffffffffffffffffffffff16036116d55760006040517fe602df050000000000000000000000000000000000000000000000000000000081526004016116cc9190611f13565b60405180910390fd5b600073ffffffffffffffffffffffffffffffffffffffff168373ffffffffffffffffffffffffffffffffffffffff16036117475760006040517f94280d6200000000000000000000000000000000000000000000000000000000815260040161173e9190611f13565b60405180910390fd5b81600160008673ffffffffffffffffffffffffffffffffffffffff1673ffffffffffffffffffffffffffffffffffffffff16815260200190815260200160002060008573ffffffffffffffffffffffffffffffffffffffff1673ffffffffffffffffffffffffffffffffffffffff168152602001908152602001600020819055508015611834578273ffffffffffffffffffffffffffffffffffffffff168473ffffffffffffffffffffffffffffffffffffffff167f8c5be1e5ebec7d5bd14f71427d1e84f3dd0314c0f7b2291e5b200ac8c7c3b9258460405161182b9190611d52565b60405180910390a35b50505050565b600073ffffffffffffffffffffffffffffffffffffffff168373ffffffffffffffffffffffffffffffffffffffff160361188c57806002600082825461188091906126a7565b9250508190555061195f565b60008060008573ffffffffffffffffffffffffffffffffffffffff1673ffffffffffffffffffffffffffffffffffffffff16815260200190815260200160002054905081811015611918578381836040517fe450d38c00000000000000000000000000000000000000000000000000000000815260040161190f9392919061289d565b60405180910390fd5b8181036000808673ffffffffffffffffffffffffffffffffffffffff1673ffffffffffffffffffffffffffffffffffffffff16815260200190815260200160002081905550505b600073ffffffffffffffffffffffffffffffffffffffff168273ffffffffffffffffffffffffffffffffffffffff16036119a857806002600082825403925050819055506119f5565b806000808473ffffffffffffffffffffffffffffffffffffffff1673ffffffffffffffffffffffffffffffffffffffff168152602001908152602001600020600082825401925050819055505b8173ffffffffffffffffffffffffffffffffffffffff168373ffffffffffffffffffffffffffffffffffffffff167fddf252ad1be2c89b69c2b068fc378daa952ba7f163c4a11628f55a4df523b3ef83604051611a529190611d52565b60405180910390a3505050565b5080546000825590600052602060002090810190611a7d9190611a80565b50565b5b80821115611a99576000816000905550600101611a81565b5090565b600081519050919050565b600082825260208201905092915050565b60005b83811015611ad7578082015181840152602081019050611abc565b60008484015250505050565b6000601f19601f8301169050919050565b6000611aff82611a9d565b611b098185611aa8565b9350611b19818560208601611ab9565b611b2281611ae3565b840191505092915050565b60006020820190508181036000830152611b478184611af4565b905092915050565b600080fd5b600080fd5b600073ffffffffffffffffffffffffffffffffffffffff82169050919050565b6000611b8482611b59565b9050919050565b611b9481611b79565b8114611b9f57600080fd5b50565b600081359050611bb181611b8b565b92915050565b6000819050919050565b611bca81611bb7565b8114611bd557600080fd5b50565b600081359050611be781611bc1565b92915050565b60008060408385031215611c0457611c03611b4f565b5b6000611c1285828601611ba2565b9250506020611c2385828601611bd8565b9150509250929050565b60008115159050919050565b611c4281611c2d565b82525050565b6000602082019050611c5d6000830184611c39565b92915050565b600081519050919050565b600082825260208201905092915050565b6000819050602082019050919050565b611c9881611bb7565b82525050565b6000611caa8383611c8f565b60208301905092915050565b6000602082019050919050565b6000611cce82611c63565b611cd88185611c6e565b9350611ce383611c7f565b8060005b83811015611d14578151611cfb8882611c9e565b9750611d0683611cb6565b925050600181019050611ce7565b5085935050505092915050565b60006020820190508181036000830152611d3b8184611cc3565b905092915050565b611d4c81611bb7565b82525050565b6000602082019050611d676000830184611d43565b92915050565b600080600060608486031215611d8657611d85611b4f565b5b6000611d9486828701611ba2565b9350506020611da586828701611ba2565b9250506040611db686828701611bd8565b9150509250925092565b600060ff82169050919050565b611dd681611dc0565b82525050565b6000602082019050611df16000830184611dcd565b92915050565b600081519050919050565b600082825260208201905092915050565b6000819050602082019050919050565b611e2c81611b79565b82525050565b6000611e3e8383611e23565b60208301905092915050565b6000602082019050919050565b6000611e6282611df7565b611e6c8185611e02565b9350611e7783611e13565b8060005b83811015611ea8578151611e8f8882611e32565b9750611e9a83611e4a565b925050600181019050611e7b565b5085935050505092915050565b60006020820190508181036000830152611ecf8184611e57565b905092915050565b600060208284031215611eed57611eec611b4f565b5b6000611efb84828501611bd8565b91505092915050565b611f0d81611b79565b82525050565b6000602082019050611f286000830184611f04565b92915050565b600060208284031215611f4457611f43611b4f565b5b6000611f5284828501611ba2565b91505092915050565b60008060408385031215611f7257611f71611b4f565b5b6000611f8085828601611ba2565b9250506020611f9185828601611ba2565b9150509250929050565b600080fd5b600080fd5b600080fd5b60008083601f840112611fc057611fbf611f9b565b5b8235905067ffffffffffffffff811115611fdd57611fdc611fa0565b5b602083019150836020820283011115611ff957611ff8611fa5565b5b9250929050565b60008083601f84011261201657612015611f9b565b5b8235905067ffffffffffffffff81111561203357612032611fa0565b5b60208301915083602082028301111561204f5761204e611fa5565b5b9250929050565b600080600080604085870312156120705761206f611b4f565b5b600085013567ffffffffffffffff81111561208e5761208d611b54565b5b61209a87828801611faa565b9450945050602085013567ffffffffffffffff8111156120bd576120bc611b54565b5b6120c987828801612000565b925092505092959194509250565b7f4e487b7100000000000000000000000000000000000000000000000000000000600052602260045260246000fd5b6000600282049050600182168061211e57607f821691505b602082108103612131576121306120d7565b5b50919050565b7f4e487b7100000000000000000000000000000000000000000000000000000000600052604160045260246000fd5b7f4e487b7100000000000000000000000000000000000000000000000000000000600052603260045260246000fd5b7f4e487b7100000000000000000000000000000000000000000000000000000000600052601160045260246000fd5b60006121cf82611bb7565b91507fffffffffffffffffffffffffffffffffffffffffffffffffffffffffffffffff820361220157612200612195565b5b600182019050919050565b7f416d6f756e74206d7573742062652067726561746572207468616e2030000000600082015250565b6000612242601d83611aa8565b915061224d8261220c565b602082019050919050565b6000602082019050818103600083015261227181612235565b9050919050565b7f496e73756666696369656e742062616c616e6365000000000000000000000000600082015250565b60006122ae601483611aa8565b91506122b982612278565b602082019050919050565b600060208201905081810360008301526122dd816122a1565b9050919050565b60006122ef82611bb7565b91506122fa83611bb7565b925082820261230881611bb7565b9150828204841483151761231f5761231e612195565b5b5092915050565b7f4e487b7100000000000000000000000000000000000000000000000000000000600052601260045260246000fd5b600061236082611bb7565b915061236b83611bb7565b92508261237b5761237a612326565b5b828204905092915050565b600060408201905061239b6000830185611f04565b6123a86020830184611d43565b9392505050565b6123b881611c2d565b81146123c357600080fd5b50565b6000815190506123d5816123af565b92915050565b6000602082840312156123f1576123f0611b4f565b5b60006123ff848285016123c6565b91505092915050565b7f5472616e73666572206f6620756e6465726c79696e672061737365742066616960008201527f6c65640000000000000000000000000000000000000000000000000000000000602082015250565b6000612464602383611aa8565b915061246f82612408565b604082019050919050565b6000602082019050818103600083015261249381612457565b9050919050565b7f4e6f2061737365747320696e206261736b657400000000000000000000000000600082015250565b60006124d0601383611aa8565b91506124db8261249a565b602082019050919050565b600060208201905081810360008301526124ff816124c3565b9050919050565b600060608201905061251b6000830186611f04565b6125286020830185611f04565b6125356040830184611d43565b949350505050565b7f41737365747320616e642077656967687473206c656e677468206d69736d617460008201527f6368000000000000000000000000000000000000000000000000000000000000602082015250565b6000612599602283611aa8565b91506125a48261253d565b604082019050919050565b600060208201905081810360008301526125c88161258c565b9050919050565b7f496e76616c696420617373657420616464726573730000000000000000000000600082015250565b6000612605601583611aa8565b9150612610826125cf565b602082019050919050565b60006020820190508181036000830152612634816125f8565b9050919050565b7f576569676874206d7573742062652067726561746572207468616e2030000000600082015250565b6000612671601d83611aa8565b915061267c8261263b565b602082019050919050565b600060208201905081810360008301526126a081612664565b9050919050565b60006126b282611bb7565b91506126bd83611bb7565b92508282019050808211156126d5576126d4612195565b5b92915050565b7f57656967687473206d7573742073756d20746f2031303030302062617369732060008201527f706f696e74732028313030252900000000000000000000000000000000000000602082015250565b6000612737602d83611aa8565b9150612742826126db565b604082019050919050565b600060208201905081810360008301526127668161272a565b9050919050565b6000819050919050565b60006127866020840184611ba2565b905092915050565b6000602082019050919050565b60006127a78385611e02565b93506127b28261276d565b8060005b858110156127eb576127c88284612777565b6127d28882611e32565b97506127dd8361278e565b9250506001810190506127b6565b5085925050509392505050565b600080fd5b82818337505050565b60006128128385611c6e565b93507f07ffffffffffffffffffffffffffffffffffffffffffffffffffffffffffffff831115612845576128446127f8565b5b6020830292506128568385846127fd565b82840190509392505050565b6000604082019050818103600083015261287d81868861279b565b90508181036020830152612892818486612806565b905095945050505050565b60006060820190506128b26000830186611f04565b6128bf6020830185611d43565b6128cc6040830184611d43565b94935050505056fea26469706673582212203cd6a973aa3816655d1daa46eb1eef14b3c2c388503714994ba1c8c0e0a4365c64736f6c63430008140033",
  "linkReferences": {},
  "deployedLinkReferences": {}
}