{
  "_format": "hh-sol-artifact-1",
  "contractName": "RoleRouter",
  "sourceName": "contracts/RoleRouter.sol",
  "abi": [
    {
      "inputs": [
        {
          "internalType": "address",
          "name": "_rewardToken",
          "type": "address"
        },
        {
          "internalType": "address",
          "name": "_mainDistributor",
          "type": "address"
        },
        {
          "internalType": "address",
          "name": "_treasury",
          "type": "address"
        }
      ],
      "stateMutability": "nonpayable",
      "type": "constructor"
    },
    {
      "inputs": [
        {
          "internalType": "address",
          "name": "owner",
          "type": "address"
        }
      ],
      "name": "OwnableInvalidOwner",
      "type": "error"
    },
    {
      "inputs": [
        {
          "internalType": "address",
          "name": "account",
          "type": "address"
        }
      ],
      "name": "OwnableUnauthorizedAccount",
      "type": "error"
    },
    {
      "anonymous": false,
      "inputs": [
        {
          "indexed": false,
          "internalType": "address",
          "name": "oldDistributor",
          "type": "address"
        },
        {
          "indexed": false,
          "internalType": "address",
          "name": "newDistributor",
          "type": "address"
        }
      ],
      "name": "MainDistributorUpdated",
      "type": "event"
    },
    {
      "anonymous": false,
      "inputs": [
        {
          "indexed": true,
          "internalType": "address",
          "name": "previousOwner",
          "type": "address"
        },
        {
          "indexed": true,
          "internalType": "address",
          "name": "newOwner",
          "type": "address"
        }
      ],
      "name": "OwnershipTransferred",
      "type": "event"
    },
    {
      "anonymous": false,
      "inputs": [
        {
          "indexed": false,
          "internalType": "uint256",
          "name": "totalAmount",
          "type": "uint256"
        }
      ],
      "name": "RewardsDistributed",
      "type": "event"
    },
    {
      "anonymous": false,
      "inputs": [
        {
          "indexed": false,
          "internalType": "address[]",
          "name": "wallets",
          "type": "address[]"
        },
        {
          "indexed": false,
          "internalType": "string[]",
          "name": "roles",
          "type": "string[]"
        },
        {
          "indexed": false,
          "internalType": "uint256[]",
          "name": "shares",
          "type": "uint256[]"
        }
      ],
      "name": "RolesUpdated",
      "type": "event"
    },
    {
      "anonymous": false,
      "inputs": [
        {
          "indexed": false,
          "internalType": "address",
          "name": "oldTreasury",
          "type": "address"
        },
        {
          "indexed": false,
          "internalType": "address",
          "name": "newTreasury",
          "type": "address"
        }
      ],
      "name": "TreasuryUpdated",
      "type": "event"
    },
    {
      "inputs": [],
      "name": "BASIS_POINTS",
      "outputs": [
        {
          "internalType": "uint256",
          "name": "",
          "type": "uint256"
        }
      ],
      "stateMutability": "view",
      "type": "function"
    },
    {
      "inputs": [],
      "name": "distributeRewards",
      "outputs": [],
      "stateMutability": "nonpayable",
      "type": "function"
    },
    {
      "inputs": [
        {
          "internalType": "address",
          "name": "wallet",
          "type": "address"
        }
      ],
      "name": "getWalletRole",
      "outputs": [
        {
          "internalType": "string",
          "name": "",
          "type": "string"
        }
      ],
      "stateMutability": "view",
      "type": "function"
    },
    {
      "inputs": [],
      "name": "getWalletRoles",
      "outputs": [
        {
          "internalType": "address[]",
          "name": "",
          "type": "address[]"
        }
      ],
      "stateMutability": "view",
      "type": "function"
    },
    {
      "inputs": [
        {
          "internalType": "address",
          "name": "wallet",
          "type": "address"
        }
      ],
      "name": "getWalletShare",
      "outputs": [
        {
          "internalType": "uint256",
          "name": "",
          "type": "uint256"
        }
      ],
      "stateMutability": "view",
      "type": "function"
    },
    {
      "inputs": [],
      "name": "mainDistributor",
      "outputs": [
        {
          "internalType": "address",
          "name": "",
          "type": "address"
        }
      ],
      "stateMutability": "view",
      "type": "function"
    },
    {
      "inputs": [],
      "name": "owner",
      "outputs": [
        {
          "internalType": "address",
          "name": "",
          "type": "address"
        }
      ],
      "stateMutability": "view",
      "type": "function"
    },
    {
      "inputs": [
        {
          "internalType": "address",
          "name": "token",
          "type": "address"
        },
        {
          "internalType": "uint256",
          "name": "amount",
          "type": "uint256"
        }
      ],
      "name": "recoverTokens",
      "outputs": [],
      "stateMutability": "nonpayable",
      "type": "function"
    },
    {
      "inputs": [],
      "name": "renounceOwnership",
      "outputs": [],
      "stateMutability": "nonpayable",
      "type": "function"
    },
    {
      "inputs": [],
      "name": "rewardToken",
      "outputs": [
        {
          "internalType": "contract IERC20",
          "name": "",
          "type": "address"
        }
      ],
      "stateMutability": "view",
      "type": "function"
    },
    {
      "inputs": [
        {
          "internalType": "string",
          "name": "",
          "type": "string"
        }
      ],
      "name": "roleDistribution",
      "outputs": [
        {
          "internalType": "uint256",
          "name": "",
          "type": "uint256"
        }
      ],
      "stateMutability": "view",
      "type": "function"
    },
    {
      "inputs": [
        {
          "internalType": "address",
          "name": "",
          "type": "address"
        }
      ],
      "name": "roleNames",
      "outputs": [
        {
          "internalType": "string",
          "name": "",
          "type": "string"
        }
      ],
      "stateMutability": "view",
      "type": "function"
    },
    {
      "inputs": [
        {
          "internalType": "address",
          "name": "_newDistributor",
          "type": "address"
        }
      ],
      "name": "setMainDistributor",
      "outputs": [],
      "stateMutability": "nonpayable",
      "type": "function"
    },
    {
      "inputs": [
        {
          "internalType": "address[]",
          "name": "wallets",
          "type": "address[]"
        },
        {
          "internalType": "string[]",
          "name": "roles",
          "type": "string[]"
        },
        {
          "internalType": "uint256[]",
          "name": "shares",
          "type": "uint256[]"
        }
      ],
      "name": "setRoles",
      "outputs": [],
      "stateMutability": "nonpayable",
      "type": "function"
    },
    {
      "inputs": [
        {
          "internalType": "address",
          "name": "_newTreasury",
          "type": "address"
        }
      ],
      "name": "setTreasury",
      "outputs": [],
      "stateMutability": "nonpayable",
      "type": "function"
    },
    {
      "inputs": [
        {
          "internalType": "address",
          "name": "newOwner",
          "type": "address"
        }
      ],
      "name": "transferOwnership",
      "outputs": [],
      "stateMutability": "nonpayable",
      "type": "function"
    },
    {
      "inputs": [],
      "name": "treasury",
      "outputs": [
        {
          "internalType": "address",
          "name": "",
          "type": "address"
        }
      ],
      "stateMutability": "view",
      "type": "function"
    },
    {
      "inputs": [
        {
          "internalType": "uint256",
          "name": "",
          "type": "uint256"
        }
      ],
      "name": "walletRoles",
      "outputs": [
        {
          "internalType": "address",
          "name": "",
          "type": "address"
        }
      ],
      "stateMutability": "view",
      "type": "function"
    }
  ],
  "bytecode": "0x60806040523480156200001157600080fd5b50604051620033af380380620033af83398181016040528101906200003791906200040f565b33600073ffffffffffffffffffffffffffffffffffffffff168173ffffffffffffffffffffffffffffffffffffffff1603620000ad5760006040517f1e4fbdf7000000000000000000000000000000000000000000000000000000008152600401620000a491906200047c565b60405180910390fd5b620000be81620002e160201b60201c565b50600073ffffffffffffffffffffffffffffffffffffffff168373ffffffffffffffffffffffffffffffffffffffff160362000131576040517f08c379a00000000000000000000000000000000000000000000000000000000081526004016200012890620004fa565b60405180910390fd5b600073ffffffffffffffffffffffffffffffffffffffff168273ffffffffffffffffffffffffffffffffffffffff1603620001a3576040517f08c379a00000000000000000000000000000000000000000000000000000000081526004016200019a906200056c565b60405180910390fd5b600073ffffffffffffffffffffffffffffffffffffffff168173ffffffffffffffffffffffffffffffffffffffff160362000215576040517f08c379a00000000000000000000000000000000000000000000000000000000081526004016200020c90620005de565b60405180910390fd5b82600160006101000a81548173ffffffffffffffffffffffffffffffffffffffff021916908373ffffffffffffffffffffffffffffffffffffffff16021790555081600260006101000a81548173ffffffffffffffffffffffffffffffffffffffff021916908373ffffffffffffffffffffffffffffffffffffffff16021790555080600360006101000a81548173ffffffffffffffffffffffffffffffffffffffff021916908373ffffffffffffffffffffffffffffffffffffffff16021790555050505062000600565b60008060009054906101000a900473ffffffffffffffffffffffffffffffffffffffff169050816000806101000a81548173ffffffffffffffffffffffffffffffffffffffff021916908373ffffffffffffffffffffffffffffffffffffffff1602179055508173ffffffffffffffffffffffffffffffffffffffff168173ffffffffffffffffffffffffffffffffffffffff167f8be0079c531659141344cd1fd0a4f28419497f9722a3daafe3b4186f6b6457e060405160405180910390a35050565b600080fd5b600073ffffffffffffffffffffffffffffffffffffffff82169050919050565b6000620003d782620003aa565b9050919050565b620003e981620003ca565b8114620003f557600080fd5b50565b6000815190506200040981620003de565b92915050565b6000806000606084860312156200042b576200042a620003a5565b5b60006200043b86828701620003f8565b93505060206200044e86828701620003f8565b92505060406200046186828701620003f8565b9150509250925092565b6200047681620003ca565b82525050565b60006020820190506200049360008301846200046b565b92915050565b600082825260208201905092915050565b7f496e76616c696420746f6b656e20616464726573730000000000000000000000600082015250565b6000620004e260158362000499565b9150620004ef82620004aa565b602082019050919050565b600060208201905081810360008301526200051581620004d3565b9050919050565b7f496e76616c6964206d61696e206469737472696275746f722061646472657373600082015250565b60006200055460208362000499565b915062000561826200051c565b602082019050919050565b60006020820190508181036000830152620005878162000545565b9050919050565b7f496e76616c696420747265617375727920616464726573730000000000000000600082015250565b6000620005c660188362000499565b9150620005d3826200058e565b602082019050919050565b60006020820190508181036000830152620005f981620005b7565b9050919050565b612d9f80620006106000396000f3fe608060405234801561001057600080fd5b50600436106101165760003560e01c80638da5cb5b116100a2578063e1f1c4a711610071578063e1f1c4a7146102bb578063e67b4ebe146102d9578063f0f4426014610309578063f2fde38b14610325578063f7c618c11461034157610116565b80638da5cb5b146102335780638f888b1714610251578063a28cc2b414610281578063d50ce69f1461029f57610116565b806360efacc8116100e957806360efacc8146101a157806361d027b3146101d15780636f4a2cd0146101ef578063715018a6146101f957806372934ff31461020357610116565b8063069c9fae1461011b5780631a28f9d814610137578063289175b2146101555780632da609cc14610171575b600080fd5b61013560048036038101906101309190611790565b61035f565b005b61013f61049e565b60405161014c919061188e565b60405180910390f35b61016f600480360381019061016a91906119c1565b61052c565b005b61018b60048036038101906101869190611a75565b610a22565b6040516101989190611b32565b60405180910390f35b6101bb60048036038101906101b69190611a75565b610af3565b6040516101c89190611b63565b60405180910390f35b6101d9610be7565b6040516101e69190611b8d565b60405180910390f35b6101f7610c0d565b005b6102016110fd565b005b61021d60048036038101906102189190611a75565b611111565b60405161022a9190611b32565b60405180910390f35b61023b6111b1565b6040516102489190611b8d565b60405180910390f35b61026b60048036038101906102669190611cd8565b6111da565b6040516102789190611b63565b60405180910390f35b610289611208565b6040516102969190611b8d565b60405180910390f35b6102b960048036038101906102b49190611a75565b61122e565b005b6102c361134a565b6040516102d09190611b63565b60405180910390f35b6102f360048036038101906102ee9190611d21565b611350565b6040516103009190611b8d565b60405180910390f35b610323600480360381019061031e9190611a75565b61138f565b005b61033f600480360381019061033a9190611a75565b6114ab565b005b610349611531565b6040516103569190611dad565b60405180910390f35b610367611557565b600073ffffffffffffffffffffffffffffffffffffffff168273ffffffffffffffffffffffffffffffffffffffff16036103d6576040517f08c379a00000000000000000000000000000000000000000000000000000000081526004016103cd90611e14565b60405180910390fd5b8173ffffffffffffffffffffffffffffffffffffffff1663a9059cbb6103fa6111b1565b836040518363ffffffff1660e01b8152600401610418929190611e34565b6020604051808303816000875af1158015610437573d6000803e3d6000fd5b505050506040513d601f19601f8201168201806040525081019061045b9190611e95565b61049a576040517f08c379a000000000000000000000000000000000000000000000000000000000815260040161049190611f0e565b60405180910390fd5b5050565b6060600480548060200260200160405190810160405280929190818152602001828054801561052257602002820191906000526020600020905b8160009054906101000a900473ffffffffffffffffffffffffffffffffffffffff1673ffffffffffffffffffffffffffffffffffffffff16815260200190600101908083116104d8575b5050505050905090565b610534611557565b83839050868690501461057c576040517f08c379a000000000000000000000000000000000000000000000000000000000815260040161057390611fa0565b60405180910390fd5b8181905084849050146105c4576040517f08c379a00000000000000000000000000000000000000000000000000000000081526004016105bb9061200c565b60405180910390fd5b60005b600480549050811015610721576040518060200160405280600081525060056000600484815481106105fc576105fb61202c565b5b9060005260206000200160009054906101000a900473ffffffffffffffffffffffffffffffffffffffff1673ffffffffffffffffffffffffffffffffffffffff1673ffffffffffffffffffffffffffffffffffffffff168152602001908152602001600020908161066d919061225d565b5060006006600560006004858154811061068a5761068961202c565b5b9060005260206000200160009054906101000a900473ffffffffffffffffffffffffffffffffffffffff1673ffffffffffffffffffffffffffffffffffffffff1673ffffffffffffffffffffffffffffffffffffffff1681526020019081526020016000206040516106fc91906123bd565b908152602001604051809103902081905550808061071990612403565b9150506105c7565b506004600061073091906116aa565b6000805b8787905081101561099357600073ffffffffffffffffffffffffffffffffffffffff1688888381811061076a5761076961202c565b5b905060200201602081019061077f9190611a75565b73ffffffffffffffffffffffffffffffffffffffff16036107d5576040517f08c379a00000000000000000000000000000000000000000000000000000000081526004016107cc90612497565b60405180910390fd5b60048888838181106107ea576107e961202c565b5b90506020020160208101906107ff9190611a75565b9080600181540180825580915050600190039060005260206000200160009091909190916101000a81548173ffffffffffffffffffffffffffffffffffffffff021916908373ffffffffffffffffffffffffffffffffffffffff1602179055508585828181106108725761087161202c565b5b905060200281019061088491906124c6565b600560008b8b8681811061089b5761089a61202c565b5b90506020020160208101906108b09190611a75565b73ffffffffffffffffffffffffffffffffffffffff1673ffffffffffffffffffffffffffffffffffffffff16815260200190815260200160002091826108f7929190612534565b5083838281811061090b5761090a61202c565b5b9050602002013560068787848181106109275761092661202c565b5b905060200281019061093991906124c6565b604051610947929190612629565b90815260200160405180910390208190555083838281811061096c5761096b61202c565b5b905060200201358261097e9190612642565b9150808061098b90612403565b915050610734565b5061271081146109d8576040517f08c379a00000000000000000000000000000000000000000000000000000000081526004016109cf906126e8565b60405180910390fd5b7f274c3addc56d019591ff13cda1e32573e4cea059d77a07df240ba5a5a6e9e1bc878787878787604051610a1196959493929190612972565b60405180910390a150505050505050565b6060600560008373ffffffffffffffffffffffffffffffffffffffff1673ffffffffffffffffffffffffffffffffffffffff1681526020019081526020016000208054610a6e9061208a565b80601f0160208091040260200160405190810160405280929190818152602001828054610a9a9061208a565b8015610ae75780601f10610abc57610100808354040283529160200191610ae7565b820191906000526020600020905b815481529060010190602001808311610aca57829003601f168201915b50505050509050919050565b600080600560008473ffffffffffffffffffffffffffffffffffffffff1673ffffffffffffffffffffffffffffffffffffffff1681526020019081526020016000208054610b409061208a565b80601f0160208091040260200160405190810160405280929190818152602001828054610b6c9061208a565b8015610bb95780601f10610b8e57610100808354040283529160200191610bb9565b820191906000526020600020905b815481529060010190602001808311610b9c57829003601f168201915b50505050509050600681604051610bd091906129f5565b908152602001604051809103902054915050919050565b600360009054906101000a900473ffffffffffffffffffffffffffffffffffffffff1681565b600060048054905011610c55576040517f08c379a0000000000000000000000000000000000000000000000000000000008152600401610c4c90612a58565b60405180910390fd5b6000600160009054906101000a900473ffffffffffffffffffffffffffffffffffffffff1673ffffffffffffffffffffffffffffffffffffffff166370a08231306040518263ffffffff1660e01b8152600401610cb29190611b8d565b602060405180830381865afa158015610ccf573d6000803e3d6000fd5b505050506040513d601f19601f82011682018060405250810190610cf39190612a8d565b905060008111610d38576040517f08c379a0000000000000000000000000000000000000000000000000000000008152600401610d2f90612b06565b60405180910390fd5b6000805b600480549050811015610fa657600060048281548110610d5f57610d5e61202c565b5b9060005260206000200160009054906101000a900473ffffffffffffffffffffffffffffffffffffffff1690506000600560008373ffffffffffffffffffffffffffffffffffffffff1673ffffffffffffffffffffffffffffffffffffffff1681526020019081526020016000208054610dd89061208a565b80601f0160208091040260200160405190810160405280929190818152602001828054610e049061208a565b8015610e515780601f10610e2657610100808354040283529160200191610e51565b820191906000526020600020905b815481529060010190602001808311610e3457829003601f168201915b505050505090506000600682604051610e6a91906129f5565b90815260200160405180910390205490506000811115610f905760006127108288610e959190612b26565b610e9f9190612b97565b90508086610ead9190612642565b9550600160009054906101000a900473ffffffffffffffffffffffffffffffffffffffff1673ffffffffffffffffffffffffffffffffffffffff1663a9059cbb85836040518363ffffffff1660e01b8152600401610f0c929190611e34565b6020604051808303816000875af1158015610f2b573d6000803e3d6000fd5b505050506040513d601f19601f82011682018060405250810190610f4f9190611e95565b610f8e576040517f08c379a0000000000000000000000000000000000000000000000000000000008152600401610f8590612c14565b60405180910390fd5b505b5050508080610f9e90612403565b915050610d3c565b50818110156110c25760008183610fbd9190612c34565b9050600160009054906101000a900473ffffffffffffffffffffffffffffffffffffffff1673ffffffffffffffffffffffffffffffffffffffff1663a9059cbb600360009054906101000a900473ffffffffffffffffffffffffffffffffffffffff16836040518363ffffffff1660e01b815260040161103e929190611e34565b6020604051808303816000875af115801561105d573d6000803e3d6000fd5b505050506040513d601f19601f820116820180604052508101906110819190611e95565b6110c0576040517f08c379a00000000000000000000000000000000000000000000000000000000081526004016110b790612cb4565b60405180910390fd5b505b7f6d1c76d614228b523baa4dcd9539e2c713b54ff4ab3ff2d1627e7f6cd32be442826040516110f19190611b63565b60405180910390a15050565b611105611557565b61110f60006115de565b565b600560205280600052604060002060009150905080546111309061208a565b80601f016020809104026020016040519081016040528092919081815260200182805461115c9061208a565b80156111a95780601f1061117e576101008083540402835291602001916111a9565b820191906000526020600020905b81548152906001019060200180831161118c57829003601f168201915b505050505081565b60008060009054906101000a900473ffffffffffffffffffffffffffffffffffffffff16905090565b6006818051602081018201805184825260208301602085012081835280955050505050506000915090505481565b600260009054906101000a900473ffffffffffffffffffffffffffffffffffffffff1681565b611236611557565b600073ffffffffffffffffffffffffffffffffffffffff168173ffffffffffffffffffffffffffffffffffffffff16036112a5576040517f08c379a000000000000000000000000000000000000000000000000000000000815260040161129c90612d20565b60405180910390fd5b6000600260009054906101000a900473ffffffffffffffffffffffffffffffffffffffff16905081600260006101000a81548173ffffffffffffffffffffffffffffffffffffffff021916908373ffffffffffffffffffffffffffffffffffffffff1602179055507fe261008b064f9c19bc69ee327bd3c7ae6acc621cf852b9a0e2eda2e52b6b9059818360405161133e929190612d40565b60405180910390a15050565b61271081565b6004818154811061136057600080fd5b906000526020600020016000915054906101000a900473ffffffffffffffffffffffffffffffffffffffff1681565b611397611557565b600073ffffffffffffffffffffffffffffffffffffffff168173ffffffffffffffffffffffffffffffffffffffff1603611406576040517f08c379a00000000000000000000000000000000000000000000000000000000081526004016113fd90612d20565b60405180910390fd5b6000600360009054906101000a900473ffffffffffffffffffffffffffffffffffffffff16905081600360006101000a81548173ffffffffffffffffffffffffffffffffffffffff021916908373ffffffffffffffffffffffffffffffffffffffff1602179055507f4ab5be82436d353e61ca18726e984e561f5c1cc7c6d38b29d2553c790434705a818360405161149f929190612d40565b60405180910390a15050565b6114b3611557565b600073ffffffffffffffffffffffffffffffffffffffff168173ffffffffffffffffffffffffffffffffffffffff16036115255760006040517f1e4fbdf700000000000000000000000000000000000000000000000000000000815260040161151c9190611b8d565b60405180910390fd5b61152e816115de565b50565b600160009054906101000a900473ffffffffffffffffffffffffffffffffffffffff1681565b61155f6116a2565b73ffffffffffffffffffffffffffffffffffffffff1661157d6111b1565b73ffffffffffffffffffffffffffffffffffffffff16146115dc576115a06116a2565b6040517f118cdaa70000000000000000000000000000000000000000000000000000000081526004016115d39190611b8d565b60405180910390fd5b565b60008060009054906101000a900473ffffffffffffffffffffffffffffffffffffffff169050816000806101000a81548173ffffffffffffffffffffffffffffffffffffffff021916908373ffffffffffffffffffffffffffffffffffffffff1602179055508173ffffffffffffffffffffffffffffffffffffffff168173ffffffffffffffffffffffffffffffffffffffff167f8be0079c531659141344cd1fd0a4f28419497f9722a3daafe3b4186f6b6457e060405160405180910390a35050565b600033905090565b50805460008255906000526020600020908101906116c891906116cb565b50565b5b808211156116e45760008160009055506001016116cc565b5090565b6000604051905090565b600080fd5b600080fd5b600073ffffffffffffffffffffffffffffffffffffffff82169050919050565b6000611727826116fc565b9050919050565b6117378161171c565b811461174257600080fd5b50565b6000813590506117548161172e565b92915050565b6000819050919050565b61176d8161175a565b811461177857600080fd5b50565b60008135905061178a81611764565b92915050565b600080604083850312156117a7576117a66116f2565b5b60006117b585828601611745565b92505060206117c68582860161177b565b9150509250929050565b600081519050919050565b600082825260208201905092915050565b6000819050602082019050919050565b6118058161171c565b82525050565b600061181783836117fc565b60208301905092915050565b6000602082019050919050565b600061183b826117d0565b61184581856117db565b9350611850836117ec565b8060005b83811015611881578151611868888261180b565b975061187383611823565b925050600181019050611854565b5085935050505092915050565b600060208201905081810360008301526118a88184611830565b905092915050565b600080fd5b600080fd5b600080fd5b60008083601f8401126118d5576118d46118b0565b5b8235905067ffffffffffffffff8111156118f2576118f16118b5565b5b60208301915083602082028301111561190e5761190d6118ba565b5b9250929050565b60008083601f84011261192b5761192a6118b0565b5b8235905067ffffffffffffffff811115611948576119476118b5565b5b602083019150836020820283011115611964576119636118ba565b5b9250929050565b60008083601f840112611981576119806118b0565b5b8235905067ffffffffffffffff81111561199e5761199d6118b5565b5b6020830191508360208202830111156119ba576119b96118ba565b5b9250929050565b600080600080600080606087890312156119de576119dd6116f2565b5b600087013567ffffffffffffffff8111156119fc576119fb6116f7565b5b611a0889828a016118bf565b9650965050602087013567ffffffffffffffff811115611a2b57611a2a6116f7565b5b611a3789828a01611915565b9450945050604087013567ffffffffffffffff811115611a5a57611a596116f7565b5b611a6689828a0161196b565b92509250509295509295509295565b600060208284031215611a8b57611a8a6116f2565b5b6000611a9984828501611745565b91505092915050565b600081519050919050565b600082825260208201905092915050565b60005b83811015611adc578082015181840152602081019050611ac1565b60008484015250505050565b6000601f19601f8301169050919050565b6000611b0482611aa2565b611b0e8185611aad565b9350611b1e818560208601611abe565b611b2781611ae8565b840191505092915050565b60006020820190508181036000830152611b4c8184611af9565b905092915050565b611b5d8161175a565b82525050565b6000602082019050611b786000830184611b54565b92915050565b611b878161171c565b82525050565b6000602082019050611ba26000830184611b7e565b92915050565b600080fd5b7f4e487b7100000000000000000000000000000000000000000000000000000000600052604160045260246000fd5b611be582611ae8565b810181811067ffffffffffffffff82111715611c0457611c03611bad565b5b80604052505050565b6000611c176116e8565b9050611c238282611bdc565b919050565b600067ffffffffffffffff821115611c4357611c42611bad565b5b611c4c82611ae8565b9050602081019050919050565b82818337600083830152505050565b6000611c7b611c7684611c28565b611c0d565b905082815260208101848484011115611c9757611c96611ba8565b5b611ca2848285611c59565b509392505050565b600082601f830112611cbf57611cbe6118b0565b5b8135611ccf848260208601611c68565b91505092915050565b600060208284031215611cee57611ced6116f2565b5b600082013567ffffffffffffffff811115611d0c57611d0b6116f7565b5b611d1884828501611caa565b91505092915050565b600060208284031215611d3757611d366116f2565b5b6000611d458482850161177b565b91505092915050565b6000819050919050565b6000611d73611d6e611d69846116fc565b611d4e565b6116fc565b9050919050565b6000611d8582611d58565b9050919050565b6000611d9782611d7a565b9050919050565b611da781611d8c565b82525050565b6000602082019050611dc26000830184611d9e565b92915050565b7f496e76616c696420746f6b656e20616464726573730000000000000000000000600082015250565b6000611dfe601583611aad565b9150611e0982611dc8565b602082019050919050565b60006020820190508181036000830152611e2d81611df1565b9050919050565b6000604082019050611e496000830185611b7e565b611e566020830184611b54565b9392505050565b60008115159050919050565b611e7281611e5d565b8114611e7d57600080fd5b50565b600081519050611e8f81611e69565b92915050565b600060208284031215611eab57611eaa6116f2565b5b6000611eb984828501611e80565b91505092915050565b7f546f6b656e207265636f76657279206661696c65640000000000000000000000600082015250565b6000611ef8601583611aad565b9150611f0382611ec2565b602082019050919050565b60006020820190508181036000830152611f2781611eeb565b9050919050565b7f57616c6c65747320616e6420726f6c6573206c656e677468206d69736d61746360008201527f6800000000000000000000000000000000000000000000000000000000000000602082015250565b6000611f8a602183611aad565b9150611f9582611f2e565b604082019050919050565b60006020820190508181036000830152611fb981611f7d565b9050919050565b7f526f6c657320616e6420736861726573206c656e677468206d69736d61746368600082015250565b6000611ff6602083611aad565b915061200182611fc0565b602082019050919050565b6000602082019050818103600083015261202581611fe9565b9050919050565b7f4e487b7100000000000000000000000000000000000000000000000000000000600052603260045260246000fd5b7f4e487b7100000000000000000000000000000000000000000000000000000000600052602260045260246000fd5b600060028204905060018216806120a257607f821691505b6020821081036120b5576120b461205b565b5b50919050565b60008190508160005260206000209050919050565b60006020601f8301049050919050565b600082821b905092915050565b60006008830261211d7fffffffffffffffffffffffffffffffffffffffffffffffffffffffffffffffff826120e0565b61212786836120e0565b95508019841693508086168417925050509392505050565b600061215a6121556121508461175a565b611d4e565b61175a565b9050919050565b6000819050919050565b6121748361213f565b61218861218082612161565b8484546120ed565b825550505050565b600090565b61219d612190565b6121a881848461216b565b505050565b5b818110156121cc576121c1600082612195565b6001810190506121ae565b5050565b601f821115612211576121e2816120bb565b6121eb846120d0565b810160208510156121fa578190505b61220e612206856120d0565b8301826121ad565b50505b505050565b600082821c905092915050565b600061223460001984600802612216565b1980831691505092915050565b600061224d8383612223565b9150826002028217905092915050565b61226682611aa2565b67ffffffffffffffff81111561227f5761227e611bad565b5b612289825461208a565b6122948282856121d0565b600060209050601f8311600181146122c757600084156122b5578287015190505b6122bf8582612241565b865550612327565b601f1984166122d5866120bb565b60005b828110156122fd578489015182556001820191506020850194506020810190506122d8565b8683101561231a5784890151612316601f891682612223565b8355505b6001600288020188555050505b505050505050565b600081905092915050565b600081546123478161208a565b612351818661232f565b9450600182166000811461236c5760018114612381576123b4565b60ff19831686528115158202860193506123b4565b61238a856120bb565b60005b838110156123ac5781548189015260018201915060208101905061238d565b838801955050505b50505092915050565b60006123c9828461233a565b915081905092915050565b7f4e487b7100000000000000000000000000000000000000000000000000000000600052601160045260246000fd5b600061240e8261175a565b91507fffffffffffffffffffffffffffffffffffffffffffffffffffffffffffffffff82036124405761243f6123d4565b5b600182019050919050565b7f496e76616c69642077616c6c6574206164647265737300000000000000000000600082015250565b6000612481601683611aad565b915061248c8261244b565b602082019050919050565b600060208201905081810360008301526124b081612474565b9050919050565b600080fd5b600080fd5b600080fd5b600080833560016020038436030381126124e3576124e26124b7565b5b80840192508235915067ffffffffffffffff821115612505576125046124bc565b5b602083019250600182023603831315612521576125206124c1565b5b509250929050565b600082905092915050565b61253e8383612529565b67ffffffffffffffff81111561255757612556611bad565b5b612561825461208a565b61256c8282856121d0565b6000601f83116001811461259b5760008415612589578287013590505b6125938582612241565b8655506125fb565b601f1984166125a9866120bb565b60005b828110156125d1578489013582556001820191506020850194506020810190506125ac565b868310156125ee57848901356125ea601f891682612223565b8355505b6001600288020188555050505b50505050505050565b6000612610838561232f565b935061261d838584611c59565b82840190509392505050565b6000612636828486612604565b91508190509392505050565b600061264d8261175a565b91506126588361175a565b92508282019050808211156126705761266f6123d4565b5b92915050565b7f536861726573206d7573742073756d20746f203130303030206261736973207060008201527f6f696e7473202831303025290000000000000000000000000000000000000000602082015250565b60006126d2602c83611aad565b91506126dd82612676565b604082019050919050565b60006020820190508181036000830152612701816126c5565b9050919050565b6000819050919050565b60006127216020840184611745565b905092915050565b6000602082019050919050565b600061274283856117db565b935061274d82612708565b8060005b85811015612786576127638284612712565b61276d888261180b565b975061277883612729565b925050600181019050612751565b5085925050509392505050565b600082825260208201905092915050565b6000819050919050565b600082825260208201905092915050565b60006127cb83856127ae565b93506127d8838584611c59565b6127e183611ae8565b840190509392505050565b60006127f98484846127bf565b90509392505050565b600080fd5b600080fd5b600080fd5b6000808335600160200384360303811261282e5761282d61280c565b5b83810192508235915060208301925067ffffffffffffffff82111561285657612855612802565b5b60018202360383131561286c5761286b612807565b5b509250929050565b6000602082019050919050565b600061288d8385612793565b93508360208402850161289f846127a4565b8060005b878110156128e55784840389526128ba8284612811565b6128c58682846127ec565b95506128d084612874565b935060208b019a5050506001810190506128a3565b50829750879450505050509392505050565b600082825260208201905092915050565b600080fd5b82818337505050565b600061292283856128f7565b93507f07ffffffffffffffffffffffffffffffffffffffffffffffffffffffffffffff83111561295557612954612908565b5b60208302925061296683858461290d565b82840190509392505050565b6000606082019050818103600083015261298d81888a612736565b905081810360208301526129a2818688612881565b905081810360408301526129b7818486612916565b9050979650505050505050565b60006129cf82611aa2565b6129d9818561232f565b93506129e9818560208601611abe565b80840191505092915050565b6000612a0182846129c4565b915081905092915050565b7f4e6f2077616c6c657420726f6c657320646566696e6564000000000000000000600082015250565b6000612a42601783611aad565b9150612a4d82612a0c565b602082019050919050565b60006020820190508181036000830152612a7181612a35565b9050919050565b600081519050612a8781611764565b92915050565b600060208284031215612aa357612aa26116f2565b5b6000612ab184828501612a78565b91505092915050565b7f4e6f207265776172647320746f20646973747269627574650000000000000000600082015250565b6000612af0601883611aad565b9150612afb82612aba565b602082019050919050565b60006020820190508181036000830152612b1f81612ae3565b9050919050565b6000612b318261175a565b9150612b3c8361175a565b9250828202612b4a8161175a565b91508282048414831517612b6157612b606123d4565b5b5092915050565b7f4e487b7100000000000000000000000000000000000000000000000000000000600052601260045260246000fd5b6000612ba28261175a565b9150612bad8361175a565b925082612bbd57612bbc612b68565b5b828204905092915050565b7f546f6b656e207472616e73666572206661696c65640000000000000000000000600082015250565b6000612bfe601583611aad565b9150612c0982612bc8565b602082019050919050565b60006020820190508181036000830152612c2d81612bf1565b9050919050565b6000612c3f8261175a565b9150612c4a8361175a565b9250828203905081811115612c6257612c616123d4565b5b92915050565b7f52656d61696e646572207472616e73666572206661696c656400000000000000600082015250565b6000612c9e601983611aad565b9150612ca982612c68565b602082019050919050565b60006020820190508181036000830152612ccd81612c91565b9050919050565b7f496e76616c696420616464726573730000000000000000000000000000000000600082015250565b6000612d0a600f83611aad565b9150612d1582612cd4565b602082019050919050565b60006020820190508181036000830152612d3981612cfd565b9050919050565b6000604082019050612d556000830185611b7e565b612d626020830184611b7e565b939250505056fea264697066735822122058410e2d742bd028c6c28450a88e012e4bc955632c91221e0513f69bcee31af264736f6c63430008140033",
  "linkReferences": {},
  "deployedLinkReferences": {}
}