{
  "_format": "hh-sol-artifact-1",
  "contractName": "SoloMethodEngineV2",
  "sourceName": "contracts/SoloMethodEngineV2.sol",
  "abi": [
    {
      "inputs": [
        {
          "internalType": "address",
          "name": "_stakingTokenAddress",
          "type": "address"
        }
      ],
      "stateMutability": "nonpayable",
      "type": "constructor"
    },
    {
      "inputs": [
        {
          "internalType": "address",
          "name": "owner",
          "type": "address"
        }
      ],
      "name": "OwnableInvalidOwner",
      "type": "error"
    },
    {
      "inputs": [
        {
          "internalType": "address",
          "name": "account",
          "type": "address"
        }
      ],
      "name": "OwnableUnauthorizedAccount",
      "type": "error"
    },
    {
      "anonymous": false,
      "inputs": [
        {
          "indexed": false,
          "internalType": "uint256",
          "name": "oldAPR",
          "type": "uint256"
        },
        {
          "indexed": false,
          "internalType": "uint256",
          "name": "newAPR",
          "type": "uint256"
        }
      ],
      "name": "APRUpdated",
      "type": "event"
    },
    {
      "anonymous": false,
      "inputs": [
        {
          "indexed": true,
          "internalType": "address",
          "name": "user",
          "type": "address"
        },
        {
          "indexed": false,
          "internalType": "uint256",
          "name": "amount",
          "type": "uint256"
        }
      ],
      "name": "Deposited",
      "type": "event"
    },
    {
      "anonymous": false,
      "inputs": [
        {
          "indexed": true,
          "internalType": "address",
          "name": "user",
          "type": "address"
        },
        {
          "indexed": false,
          "internalType": "uint256",
          "name": "reward",
          "type": "uint256"
        }
      ],
      "name": "Minted",
      "type": "event"
    },
    {
      "anonymous": false,
      "inputs": [
        {
          "indexed": true,
          "internalType": "address",
          "name": "previousOwner",
          "type": "address"
        },
        {
          "indexed": true,
          "internalType": "address",
          "name": "newOwner",
          "type": "address"
        }
      ],
      "name": "OwnershipTransferred",
      "type": "event"
    },
    {
      "anonymous": false,
      "inputs": [
        {
          "indexed": true,
          "internalType": "address",
          "name": "user",
          "type": "address"
        },
        {
          "indexed": false,
          "internalType": "uint256",
          "name": "amount",
          "type": "uint256"
        }
      ],
      "name": "Withdrawn",
      "type": "event"
    },
    {
      "inputs": [],
      "name": "BPS_DIVISOR",
      "outputs": [
        {
          "internalType": "uint256",
          "name": "",
          "type": "uint256"
        }
      ],
      "stateMutability": "view",
      "type": "function"
    },
    {
      "inputs": [],
      "name": "MIN_STAKE_AMOUNT",
      "outputs": [
        {
          "internalType": "uint256",
          "name": "",
          "type": "uint256"
        }
      ],
      "stateMutability": "view",
      "type": "function"
    },
    {
      "inputs": [],
      "name": "SECONDS_IN_YEAR",
      "outputs": [
        {
          "internalType": "uint256",
          "name": "",
          "type": "uint256"
        }
      ],
      "stateMutability": "view",
      "type": "function"
    },
    {
      "inputs": [],
      "name": "aprBasisPoints",
      "outputs": [
        {
          "internalType": "uint256",
          "name": "",
          "type": "uint256"
        }
      ],
      "stateMutability": "view",
      "type": "function"
    },
    {
      "inputs": [
        {
          "internalType": "address",
          "name": "user",
          "type": "address"
        }
      ],
      "name": "calculateRewards",
      "outputs": [
        {
          "internalType": "uint256",
          "name": "",
          "type": "uint256"
        }
      ],
      "stateMutability": "view",
      "type": "function"
    },
    {
      "inputs": [],
      "name": "claimRewards",
      "outputs": [],
      "stateMutability": "nonpayable",
      "type": "function"
    },
    {
      "inputs": [
        {
          "internalType": "uint256",
          "name": "amount",
          "type": "uint256"
        }
      ],
      "name": "deposit",
      "outputs": [],
      "stateMutability": "nonpayable",
      "type": "function"
    },
    {
      "inputs": [],
      "name": "getCurrentAPR",
      "outputs": [
        {
          "internalType": "uint256",
          "name": "",
          "type": "uint256"
        }
      ],
      "stateMutability": "view",
      "type": "function"
    },
    {
      "inputs": [
        {
          "internalType": "address",
          "name": "user",
          "type": "address"
        }
      ],
      "name": "getPendingRewards",
      "outputs": [
        {
          "internalType": "uint256",
          "name": "",
          "type": "uint256"
        }
      ],
      "stateMutability": "view",
      "type": "function"
    },
    {
      "inputs": [
        {
          "internalType": "address",
          "name": "user",
          "type": "address"
        }
      ],
      "name": "getTotalStaked",
      "outputs": [
        {
          "internalType": "uint256",
          "name": "",
          "type": "uint256"
        }
      ],
      "stateMutability": "view",
      "type": "function"
    },
    {
      "inputs": [
        {
          "internalType": "address",
          "name": "user",
          "type": "address"
        }
      ],
      "name": "getWalletBreakdown",
      "outputs": [
        {
          "components": [
            {
              "internalType": "enum SoloMethodEngineV2.WalletRole",
              "name": "role",
              "type": "uint8"
            },
            {
              "internalType": "uint256",
              "name": "balance",
              "type": "uint256"
            }
          ],
          "internalType": "struct SoloMethodEngineV2.WalletInfo[16]",
          "name": "",
          "type": "tuple[16]"
        }
      ],
      "stateMutability": "view",
      "type": "function"
    },
    {
      "inputs": [
        {
          "internalType": "address",
          "name": "user",
          "type": "address"
        }
      ],
      "name": "isStaker",
      "outputs": [
        {
          "internalType": "bool",
          "name": "",
          "type": "bool"
        }
      ],
      "stateMutability": "view",
      "type": "function"
    },
    {
      "inputs": [
        {
          "internalType": "address",
          "name": "",
          "type": "address"
        }
      ],
      "name": "lastRewardTime",
      "outputs": [
        {
          "internalType": "uint256",
          "name": "",
          "type": "uint256"
        }
      ],
      "stateMutability": "view",
      "type": "function"
    },
    {
      "inputs": [],
      "name": "owner",
      "outputs": [
        {
          "internalType": "address",
          "name": "",
          "type": "address"
        }
      ],
      "stateMutability": "view",
      "type": "function"
    },
    {
      "inputs": [
        {
          "internalType": "address",
          "name": "token",
          "type": "address"
        },
        {
          "internalType": "uint256",
          "name": "amount",
          "type": "uint256"
        }
      ],
      "name": "recoverTokens",
      "outputs": [],
      "stateMutability": "nonpayable",
      "type": "function"
    },
    {
      "inputs": [],
      "name": "renounceOwnership",
      "outputs": [],
      "stateMutability": "nonpayable",
      "type": "function"
    },
    {
      "inputs": [
        {
          "internalType": "address",
          "name": "",
          "type": "address"
        }
      ],
      "name": "rewardDebt",
      "outputs": [
        {
          "internalType": "uint256",
          "name": "",
          "type": "uint256"
        }
      ],
      "stateMutability": "view",
      "type": "function"
    },
    {
      "inputs": [
        {
          "internalType": "uint256",
          "name": "_newAprBps",
          "type": "uint256"
        }
      ],
      "name": "setAPR",
      "outputs": [],
      "stateMutability": "nonpayable",
      "type": "function"
    },
    {
      "inputs": [
        {
          "internalType": "address",
          "name": "",
          "type": "address"
        }
      ],
      "name": "stakedAmount",
      "outputs": [
        {
          "internalType": "uint256",
          "name": "",
          "type": "uint256"
        }
      ],
      "stateMutability": "view",
      "type": "function"
    },
    {
      "inputs": [],
      "name": "stakingToken",
      "outputs": [
        {
          "internalType": "contract IERC20",
          "name": "",
          "type": "address"
        }
      ],
      "stateMutability": "view",
      "type": "function"
    },
    {
      "inputs": [
        {
          "internalType": "address",
          "name": "newOwner",
          "type": "address"
        }
      ],
      "name": "transferOwnership",
      "outputs": [],
      "stateMutability": "nonpayable",
      "type": "function"
    },
    {
      "inputs": [
        {
          "internalType": "address",
          "name": "",
          "type": "address"
        },
        {
          "internalType": "uint256",
          "name": "",
          "type": "uint256"
        }
      ],
      "name": "userWallets",
      "outputs": [
        {
          "internalType": "enum SoloMethodEngineV2.WalletRole",
          "name": "role",
          "type": "uint8"
        },
        {
          "internalType": "uint256",
          "name": "balance",
          "type": "uint256"
        }
      ],
      "stateMutability": "view",
      "type": "function"
    },
    {
      "inputs": [
        {
          "internalType": "uint256",
          "name": "amount",
          "type": "uint256"
        }
      ],
      "name": "withdraw",
      "outputs": [],
      "stateMutability": "nonpayable",
      "type": "function"
    }
  ],
  "bytecode": "0x60806040526109c46006553480156200001757600080fd5b50604051620023d6380380620023d683398181016040528101906200003d9190620002ad565b33600073ffffffffffffffffffffffffffffffffffffffff168173ffffffffffffffffffffffffffffffffffffffff1603620000b35760006040517f1e4fbdf7000000000000000000000000000000000000000000000000000000008152600401620000aa9190620002f0565b60405180910390fd5b620000c4816200017f60201b60201c565b50600073ffffffffffffffffffffffffffffffffffffffff168173ffffffffffffffffffffffffffffffffffffffff160362000137576040517f08c379a00000000000000000000000000000000000000000000000000000000081526004016200012e906200036e565b60405180910390fd5b80600160006101000a81548173ffffffffffffffffffffffffffffffffffffffff021916908373ffffffffffffffffffffffffffffffffffffffff1602179055505062000390565b60008060009054906101000a900473ffffffffffffffffffffffffffffffffffffffff169050816000806101000a81548173ffffffffffffffffffffffffffffffffffffffff021916908373ffffffffffffffffffffffffffffffffffffffff1602179055508173ffffffffffffffffffffffffffffffffffffffff168173ffffffffffffffffffffffffffffffffffffffff167f8be0079c531659141344cd1fd0a4f28419497f9722a3daafe3b4186f6b6457e060405160405180910390a35050565b600080fd5b600073ffffffffffffffffffffffffffffffffffffffff82169050919050565b6000620002758262000248565b9050919050565b620002878162000268565b81146200029357600080fd5b50565b600081519050620002a7816200027c565b92915050565b600060208284031215620002c657620002c562000243565b5b6000620002d68482850162000296565b91505092915050565b620002ea8162000268565b82525050565b6000602082019050620003076000830184620002df565b92915050565b600082825260208201905092915050565b7f496e76616c696420746f6b656e20616464726573730000000000000000000000600082015250565b6000620003566015836200030d565b915062000363826200031e565b602082019050919050565b60006020820190508181036000830152620003898162000347565b9050919050565b61203680620003a06000396000f3fe608060405234801561001057600080fd5b506004361061014d5760003560e01c80635dcc9391116100c35780638da5cb5b1161007c5780638da5cb5b1461038f578063b6b55f25146103ad578063dd2a8b11146103c9578063f2fde38b146103f9578063f6ed201714610415578063f9931855146104455761014d565b80635dcc9391146102cd57806364ab8675146102eb5780636f1e85331461031b578063715018a61461034b57806372f702f314610355578063854303cf146103735761014d565b80632bdd2ad9116101155780632bdd2ad9146101f95780632e1a7d4d14610217578063333fc6da14610233578063372500ab146102635780633b5d441e1461026d5780635873eb9b1461029d5761014d565b80630155e09814610152578063069c9fae14610183578063191fe1ed1461019f57806321ae05c8146101bd57806327ed7188146101db575b600080fd5b61016c60048036038101906101679190611707565b610475565b60405161017a9291906117cd565b60405180910390f35b61019d60048036038101906101989190611707565b6104b9565b005b6101a7610619565b6040516101b491906117f6565b60405180910390f35b6101c561061f565b6040516101d291906117f6565b60405180910390f35b6101e3610629565b6040516101f091906117f6565b60405180910390f35b610201610636565b60405161020e91906117f6565b60405180910390f35b610231600480360381019061022c9190611811565b61063c565b005b61024d6004803603810190610248919061183e565b610a36565b60405161025a9190611954565b60405180910390f35b61026b610b0c565b005b6102876004803603810190610282919061183e565b610c8e565b60405161029491906117f6565b60405180910390f35b6102b760048036038101906102b2919061183e565b610ca6565b6040516102c491906117f6565b60405180910390f35b6102d5610cbe565b6040516102e291906117f6565b60405180910390f35b6103056004803603810190610300919061183e565b610cc6565b60405161031291906117f6565b60405180910390f35b6103356004803603810190610330919061183e565b610ebc565b604051610342919061198b565b60405180910390f35b610353610f07565b005b61035d610f1b565b60405161036a9190611a05565b60405180910390f35b61038d60048036038101906103889190611811565b610f41565b005b610397610fd9565b6040516103a49190611a2f565b60405180910390f35b6103c760048036038101906103c29190611811565b611002565b005b6103e360048036038101906103de919061183e565b61132f565b6040516103f091906117f6565b60405180910390f35b610413600480360381019061040e919061183e565b611378565b005b61042f600480360381019061042a919061183e565b6113fe565b60405161043c91906117f6565b60405180910390f35b61045f600480360381019061045a919061183e565b611410565b60405161046c91906117f6565b60405180910390f35b6002602052816000526040600020816010811061049157600080fd5b60020201600091509150508060000160009054906101000a900460ff16908060010154905082565b6104c1611428565b600160009054906101000a900473ffffffffffffffffffffffffffffffffffffffff1673ffffffffffffffffffffffffffffffffffffffff168273ffffffffffffffffffffffffffffffffffffffff1603610551576040517f08c379a000000000000000000000000000000000000000000000000000000000815260040161054890611aa7565b60405180910390fd5b8173ffffffffffffffffffffffffffffffffffffffff1663a9059cbb610575610fd9565b836040518363ffffffff1660e01b8152600401610593929190611ac7565b6020604051808303816000875af11580156105b2573d6000803e3d6000fd5b505050506040513d601f19601f820116820180604052508101906105d69190611b1c565b610615576040517f08c379a000000000000000000000000000000000000000000000000000000000815260040161060c90611b95565b60405180910390fd5b5050565b61271081565b6000600654905090565b6802b5e3af16b188000081565b60065481565b6000811161067f576040517f08c379a000000000000000000000000000000000000000000000000000000000815260040161067690611c01565b60405180910390fd5b80600360003373ffffffffffffffffffffffffffffffffffffffff1673ffffffffffffffffffffffffffffffffffffffff168152602001908152602001600020541015610701576040517f08c379a00000000000000000000000000000000000000000000000000000000081526004016106f890611c6d565b60405180910390fd5b61070a336114af565b80600360003373ffffffffffffffffffffffffffffffffffffffff1673ffffffffffffffffffffffffffffffffffffffff16815260200190815260200160002060008282546107599190611cbc565b925050819055506000600360003373ffffffffffffffffffffffffffffffffffffffff1673ffffffffffffffffffffffffffffffffffffffff1681526020019081526020016000205411156108815760006010600360003373ffffffffffffffffffffffffffffffffffffffff1673ffffffffffffffffffffffffffffffffffffffff168152602001908152602001600020546107f69190611d1f565b905060005b60108160ff16101561087a5781600260003373ffffffffffffffffffffffffffffffffffffffff1673ffffffffffffffffffffffffffffffffffffffff1681526020019081526020016000208260ff166010811061085c5761085b611d50565b5b6002020160010181905550808061087290611d8c565b9150506107fb565b5050610906565b60005b60108160ff161015610904576000600260003373ffffffffffffffffffffffffffffffffffffffff1673ffffffffffffffffffffffffffffffffffffffff1681526020019081526020016000208260ff16601081106108e6576108e5611d50565b5b600202016001018190555080806108fc90611d8c565b915050610884565b505b600160009054906101000a900473ffffffffffffffffffffffffffffffffffffffff1673ffffffffffffffffffffffffffffffffffffffff1663a9059cbb33836040518363ffffffff1660e01b8152600401610963929190611ac7565b6020604051808303816000875af1158015610982573d6000803e3d6000fd5b505050506040513d601f19601f820116820180604052508101906109a69190611b1c565b6109e5576040517f08c379a00000000000000000000000000000000000000000000000000000000081526004016109dc90611e01565b60405180910390fd5b3373ffffffffffffffffffffffffffffffffffffffff167f7084f5476618d8e60b11ef0d7d3f06914655adb8793e28ff7f018d4c76d505d582604051610a2b91906117f6565b60405180910390a250565b610a3e611614565b600260008373ffffffffffffffffffffffffffffffffffffffff1673ffffffffffffffffffffffffffffffffffffffff168152602001908152602001600020601080602002604051908101604052809291906000905b82821015610b01578382600202016040518060400160405290816000820160009054906101000a900460ff166004811115610ad257610ad1611747565b5b6004811115610ae457610ae3611747565b5b815260200160018201548152505081526020019060010190610a94565b505050509050919050565b610b15336114af565b6000600560003373ffffffffffffffffffffffffffffffffffffffff1673ffffffffffffffffffffffffffffffffffffffff1681526020019081526020016000205490506000811115610c8b576000600560003373ffffffffffffffffffffffffffffffffffffffff1673ffffffffffffffffffffffffffffffffffffffff168152602001908152602001600020819055506000600160009054906101000a900473ffffffffffffffffffffffffffffffffffffffff1690508073ffffffffffffffffffffffffffffffffffffffff166340c10f1933846040518363ffffffff1660e01b8152600401610c09929190611ac7565b600060405180830381600087803b158015610c2357600080fd5b505af1158015610c37573d6000803e3d6000fd5b505050503373ffffffffffffffffffffffffffffffffffffffff167f30385c845b448a36257a6a1716e6ad2e1bc2cbe333cde1e69fe849ad6511adfe83604051610c8191906117f6565b60405180910390a2505b50565b60046020528060005260406000206000915090505481565b60056020528060005260406000206000915090505481565b6301e1338081565b600080600360008473ffffffffffffffffffffffffffffffffffffffff1673ffffffffffffffffffffffffffffffffffffffff168152602001908152602001600020541480610d5457506000600460008473ffffffffffffffffffffffffffffffffffffffff1673ffffffffffffffffffffffffffffffffffffffff16815260200190815260200160002054145b15610da057600560008373ffffffffffffffffffffffffffffffffffffffff1673ffffffffffffffffffffffffffffffffffffffff168152602001908152602001600020549050610eb7565b6000600460008473ffffffffffffffffffffffffffffffffffffffff1673ffffffffffffffffffffffffffffffffffffffff1681526020019081526020016000205442610ded9190611cbc565b905060006301e1338061271083600654600360008973ffffffffffffffffffffffffffffffffffffffff1673ffffffffffffffffffffffffffffffffffffffff16815260200190815260200160002054610e479190611e21565b610e519190611e21565b610e5b9190611d1f565b610e659190611d1f565b9050600560008573ffffffffffffffffffffffffffffffffffffffff1673ffffffffffffffffffffffffffffffffffffffff1681526020019081526020016000205481610eb29190611e63565b925050505b919050565b600080600360008473ffffffffffffffffffffffffffffffffffffffff1673ffffffffffffffffffffffffffffffffffffffff16815260200190815260200160002054119050919050565b610f0f611428565b610f196000611548565b565b600160009054906101000a900473ffffffffffffffffffffffffffffffffffffffff1681565b610f49611428565b611388811115610f8e576040517f08c379a0000000000000000000000000000000000000000000000000000000008152600401610f8590611ee3565b60405180910390fd5b60006006549050816006819055507fd2d659d197cf77652feb866d2a49b71684b0e7b0d92bde0b26163f77e2e25a2d8183604051610fcd929190611f03565b60405180910390a15050565b60008060009054906101000a900473ffffffffffffffffffffffffffffffffffffffff16905090565b6802b5e3af16b188000081101561104e576040517f08c379a000000000000000000000000000000000000000000000000000000000815260040161104590611f78565b60405180910390fd5b600160009054906101000a900473ffffffffffffffffffffffffffffffffffffffff1673ffffffffffffffffffffffffffffffffffffffff166323b872dd3330846040518463ffffffff1660e01b81526004016110ad93929190611f98565b6020604051808303816000875af11580156110cc573d6000803e3d6000fd5b505050506040513d601f19601f820116820180604052508101906110f09190611b1c565b61112f576040517f08c379a000000000000000000000000000000000000000000000000000000000815260040161112690611e01565b60405180910390fd5b611138336114af565b60005b60108160ff16101561124357604051806040016040528060058361115f9190611fcf565b60ff16600481111561117457611173611747565b5b600481111561118657611185611747565b5b81526020016010846111989190611d1f565b815250600260003373ffffffffffffffffffffffffffffffffffffffff1673ffffffffffffffffffffffffffffffffffffffff1681526020019081526020016000208260ff16601081106111ef576111ee611d50565b5b6002020160008201518160000160006101000a81548160ff0219169083600481111561121e5761121d611747565b5b021790555060208201518160010155905050808061123b90611d8c565b91505061113b565b5080600360003373ffffffffffffffffffffffffffffffffffffffff1673ffffffffffffffffffffffffffffffffffffffff16815260200190815260200160002060008282546112939190611e63565b9250508190555042600460003373ffffffffffffffffffffffffffffffffffffffff1673ffffffffffffffffffffffffffffffffffffffff168152602001908152602001600020819055503373ffffffffffffffffffffffffffffffffffffffff167f2da466a7b24304f47e87fa2e1e5a81b9831ce54fec19055ce277ca2f39ba42c48260405161132491906117f6565b60405180910390a250565b6000600360008373ffffffffffffffffffffffffffffffffffffffff1673ffffffffffffffffffffffffffffffffffffffff168152602001908152602001600020549050919050565b611380611428565b600073ffffffffffffffffffffffffffffffffffffffff168173ffffffffffffffffffffffffffffffffffffffff16036113f25760006040517f1e4fbdf70000000000000000000000000000000000000000000000000000000081526004016113e99190611a2f565b60405180910390fd5b6113fb81611548565b50565b600061140982610cc6565b9050919050565b60036020528060005260406000206000915090505481565b61143061160c565b73ffffffffffffffffffffffffffffffffffffffff1661144e610fd9565b73ffffffffffffffffffffffffffffffffffffffff16146114ad5761147161160c565b6040517f118cdaa70000000000000000000000000000000000000000000000000000000081526004016114a49190611a2f565b60405180910390fd5b565b60006114ba82610cc6565b905080600560008473ffffffffffffffffffffffffffffffffffffffff1673ffffffffffffffffffffffffffffffffffffffff1681526020019081526020016000208190555042600460008473ffffffffffffffffffffffffffffffffffffffff1673ffffffffffffffffffffffffffffffffffffffff168152602001908152602001600020819055505050565b60008060009054906101000a900473ffffffffffffffffffffffffffffffffffffffff169050816000806101000a81548173ffffffffffffffffffffffffffffffffffffffff021916908373ffffffffffffffffffffffffffffffffffffffff1602179055508173ffffffffffffffffffffffffffffffffffffffff168173ffffffffffffffffffffffffffffffffffffffff167f8be0079c531659141344cd1fd0a4f28419497f9722a3daafe3b4186f6b6457e060405160405180910390a35050565b600033905090565b6040518061020001604052806010905b61162c611642565b8152602001906001900390816116245790505090565b60405180604001604052806000600481111561166157611660611747565b5b8152602001600081525090565b600080fd5b600073ffffffffffffffffffffffffffffffffffffffff82169050919050565b600061169e82611673565b9050919050565b6116ae81611693565b81146116b957600080fd5b50565b6000813590506116cb816116a5565b92915050565b6000819050919050565b6116e4816116d1565b81146116ef57600080fd5b50565b600081359050611701816116db565b92915050565b6000806040838503121561171e5761171d61166e565b5b600061172c858286016116bc565b925050602061173d858286016116f2565b9150509250929050565b7f4e487b7100000000000000000000000000000000000000000000000000000000600052602160045260246000fd5b6005811061178757611786611747565b5b50565b600081905061179882611776565b919050565b60006117a88261178a565b9050919050565b6117b88161179d565b82525050565b6117c7816116d1565b82525050565b60006040820190506117e260008301856117af565b6117ef60208301846117be565b9392505050565b600060208201905061180b60008301846117be565b92915050565b6000602082840312156118275761182661166e565b5b6000611835848285016116f2565b91505092915050565b6000602082840312156118545761185361166e565b5b6000611862848285016116bc565b91505092915050565b600060109050919050565b600081905092915050565b6000819050919050565b6118948161179d565b82525050565b6118a3816116d1565b82525050565b6040820160008201516118bf600085018261188b565b5060208201516118d2602085018261189a565b50505050565b60006118e483836118a9565b60408301905092915050565b6000602082019050919050565b6119068161186b565b6119108184611876565b925061191b82611881565b8060005b8381101561194c57815161193387826118d8565b965061193e836118f0565b92505060018101905061191f565b505050505050565b60006104008201905061196a60008301846118fd565b92915050565b60008115159050919050565b61198581611970565b82525050565b60006020820190506119a0600083018461197c565b92915050565b6000819050919050565b60006119cb6119c66119c184611673565b6119a6565b611673565b9050919050565b60006119dd826119b0565b9050919050565b60006119ef826119d2565b9050919050565b6119ff816119e4565b82525050565b6000602082019050611a1a60008301846119f6565b92915050565b611a2981611693565b82525050565b6000602082019050611a446000830184611a20565b92915050565b600082825260208201905092915050565b7f43616e6e6f74207265636f766572207374616b696e6720746f6b656e00000000600082015250565b6000611a91601c83611a4a565b9150611a9c82611a5b565b602082019050919050565b60006020820190508181036000830152611ac081611a84565b9050919050565b6000604082019050611adc6000830185611a20565b611ae960208301846117be565b9392505050565b611af981611970565b8114611b0457600080fd5b50565b600081519050611b1681611af0565b92915050565b600060208284031215611b3257611b3161166e565b5b6000611b4084828501611b07565b91505092915050565b7f546f6b656e207265636f76657279206661696c65640000000000000000000000600082015250565b6000611b7f601583611a4a565b9150611b8a82611b49565b602082019050919050565b60006020820190508181036000830152611bae81611b72565b9050919050565b7f416d6f756e74206d7573742062652067726561746572207468616e2030000000600082015250565b6000611beb601d83611a4a565b9150611bf682611bb5565b602082019050919050565b60006020820190508181036000830152611c1a81611bde565b9050919050565b7f496e73756666696369656e74207374616b65642062616c616e63650000000000600082015250565b6000611c57601b83611a4a565b9150611c6282611c21565b602082019050919050565b60006020820190508181036000830152611c8681611c4a565b9050919050565b7f4e487b7100000000000000000000000000000000000000000000000000000000600052601160045260246000fd5b6000611cc7826116d1565b9150611cd2836116d1565b9250828203905081811115611cea57611ce9611c8d565b5b92915050565b7f4e487b7100000000000000000000000000000000000000000000000000000000600052601260045260246000fd5b6000611d2a826116d1565b9150611d35836116d1565b925082611d4557611d44611cf0565b5b828204905092915050565b7f4e487b7100000000000000000000000000000000000000000000000000000000600052603260045260246000fd5b600060ff82169050919050565b6000611d9782611d7f565b915060ff8203611daa57611da9611c8d565b5b600182019050919050565b7f5472616e73666572206661696c65640000000000000000000000000000000000600082015250565b6000611deb600f83611a4a565b9150611df682611db5565b602082019050919050565b60006020820190508181036000830152611e1a81611dde565b9050919050565b6000611e2c826116d1565b9150611e37836116d1565b9250828202611e45816116d1565b91508282048414831517611e5c57611e5b611c8d565b5b5092915050565b6000611e6e826116d1565b9150611e79836116d1565b9250828201905080821115611e9157611e90611c8d565b5b92915050565b7f41505220746f6f206869676820286d6178203530252900000000000000000000600082015250565b6000611ecd601683611a4a565b9150611ed882611e97565b602082019050919050565b60006020820190508181036000830152611efc81611ec0565b9050919050565b6000604082019050611f1860008301856117be565b611f2560208301846117be565b9392505050565b7f4d696e696d756d20353020535746207265717569726564000000000000000000600082015250565b6000611f62601783611a4a565b9150611f6d82611f2c565b602082019050919050565b60006020820190508181036000830152611f9181611f55565b9050919050565b6000606082019050611fad6000830186611a20565b611fba6020830185611a20565b611fc760408301846117be565b949350505050565b6000611fda82611d7f565b9150611fe583611d7f565b925082611ff557611ff4611cf0565b5b82820690509291505056fea2646970667358221220b7e8c203f7c10ac08e1140c96209877ca43da6491b1058748f9b1f140c79b6f164736f6c63430008140033",
  "linkReferences": {},
  "deployedLinkReferences": {}
}