{
  "_format": "hh-sol-artifact-1",
  "contractName": "SovranWealthFund",
  "sourceName": "contracts/SovranWealthFund.sol",
  "abi": [
    {
      "inputs": [],
      "stateMutability": "nonpayable",
      "type": "constructor"
    },
    {
      "inputs": [],
      "name": "ContractMetadataUnauthorized",
      "type": "error"
    },
    {
      "inputs": [],
      "name": "OwnableUnauthorized",
      "type": "error"
    },
    {
      "inputs": [
        {
          "internalType": "address",
          "name": "account",
          "type": "address"
        },
        {
          "internalType": "bytes32",
          "name": "role",
          "type": "bytes32"
        }
      ],
      "name": "PermissionsAlreadyGranted",
      "type": "error"
    },
    {
      "inputs": [
        {
          "internalType": "address",
          "name": "expected",
          "type": "address"
        },
        {
          "internalType": "address",
          "name": "actual",
          "type": "address"
        }
      ],
      "name": "PermissionsInvalidPermission",
      "type": "error"
    },
    {
      "inputs": [
        {
          "internalType": "address",
          "name": "account",
          "type": "address"
        },
        {
          "internalType": "bytes32",
          "name": "neededRole",
          "type": "bytes32"
        }
      ],
      "name": "PermissionsUnauthorizedAccount",
      "type": "error"
    },
    {
      "anonymous": false,
      "inputs": [
        {
          "indexed": true,
          "internalType": "address",
          "name": "owner",
          "type": "address"
        },
        {
          "indexed": true,
          "internalType": "address",
          "name": "spender",
          "type": "address"
        },
        {
          "indexed": false,
          "internalType": "uint256",
          "name": "value",
          "type": "uint256"
        }
      ],
      "name": "Approval",
      "type": "event"
    },
    {
      "anonymous": false,
      "inputs": [
        {
          "indexed": false,
          "internalType": "string",
          "name": "prevURI",
          "type": "string"
        },
        {
          "indexed": false,
          "internalType": "string",
          "name": "newURI",
          "type": "string"
        }
      ],
      "name": "ContractURIUpdated",
      "type": "event"
    },
    {
      "anonymous": false,
      "inputs": [
        {
          "indexed": true,
          "internalType": "address",
          "name": "prevOwner",
          "type": "address"
        },
        {
          "indexed": true,
          "internalType": "address",
          "name": "newOwner",
          "type": "address"
        }
      ],
      "name": "OwnerUpdated",
      "type": "event"
    },
    {
      "anonymous": false,
      "inputs": [
        {
          "indexed": false,
          "internalType": "address",
          "name": "account",
          "type": "address"
        }
      ],
      "name": "Paused",
      "type": "event"
    },
    {
      "anonymous": false,
      "inputs": [
        {
          "indexed": true,
          "internalType": "bytes32",
          "name": "role",
          "type": "bytes32"
        },
        {
          "indexed": true,
          "internalType": "bytes32",
          "name": "previousAdminRole",
          "type": "bytes32"
        },
        {
          "indexed": true,
          "internalType": "bytes32",
          "name": "newAdminRole",
          "type": "bytes32"
        }
      ],
      "name": "RoleAdminChanged",
      "type": "event"
    },
    {
      "anonymous": false,
      "inputs": [
        {
          "indexed": true,
          "internalType": "bytes32",
          "name": "role",
          "type": "bytes32"
        },
        {
          "indexed": true,
          "internalType": "address",
          "name": "account",
          "type": "address"
        },
        {
          "indexed": true,
          "internalType": "address",
          "name": "sender",
          "type": "address"
        }
      ],
      "name": "RoleGranted",
      "type": "event"
    },
    {
      "anonymous": false,
      "inputs": [
        {
          "indexed": true,
          "internalType": "bytes32",
          "name": "role",
          "type": "bytes32"
        },
        {
          "indexed": true,
          "internalType": "address",
          "name": "account",
          "type": "address"
        },
        {
          "indexed": true,
          "internalType": "address",
          "name": "sender",
          "type": "address"
        }
      ],
      "name": "RoleRevoked",
      "type": "event"
    },
    {
      "anonymous": false,
      "inputs": [
        {
          "indexed": true,
          "internalType": "address",
          "name": "mintedTo",
          "type": "address"
        },
        {
          "indexed": false,
          "internalType": "uint256",
          "name": "quantityMinted",
          "type": "uint256"
        }
      ],
      "name": "TokensMinted",
      "type": "event"
    },
    {
      "anonymous": false,
      "inputs": [
        {
          "indexed": true,
          "internalType": "address",
          "name": "from",
          "type": "address"
        },
        {
          "indexed": true,
          "internalType": "address",
          "name": "to",
          "type": "address"
        },
        {
          "indexed": false,
          "internalType": "uint256",
          "name": "value",
          "type": "uint256"
        }
      ],
      "name": "Transfer",
      "type": "event"
    },
    {
      "anonymous": false,
      "inputs": [
        {
          "indexed": false,
          "internalType": "address",
          "name": "account",
          "type": "address"
        }
      ],
      "name": "Unpaused",
      "type": "event"
    },
    {
      "inputs": [],
      "name": "DEFAULT_ADMIN_ROLE",
      "outputs": [
        {
          "internalType": "bytes32",
          "name": "",
          "type": "bytes32"
        }
      ],
      "stateMutability": "view",
      "type": "function"
    },
    {
      "inputs": [],
      "name": "DOMAIN_SEPARATOR",
      "outputs": [
        {
          "internalType": "bytes32",
          "name": "",
          "type": "bytes32"
        }
      ],
      "stateMutability": "view",
      "type": "function"
    },
    {
      "inputs": [],
      "name": "MINTER_ROLE",
      "outputs": [
        {
          "internalType": "bytes32",
          "name": "",
          "type": "bytes32"
        }
      ],
      "stateMutability": "view",
      "type": "function"
    },
    {
      "inputs": [
        {
          "internalType": "address",
          "name": "owner",
          "type": "address"
        },
        {
          "internalType": "address",
          "name": "spender",
          "type": "address"
        }
      ],
      "name": "allowance",
      "outputs": [
        {
          "internalType": "uint256",
          "name": "",
          "type": "uint256"
        }
      ],
      "stateMutability": "view",
      "type": "function"
    },
    {
      "inputs": [
        {
          "internalType": "address",
          "name": "spender",
          "type": "address"
        },
        {
          "internalType": "uint256",
          "name": "amount",
          "type": "uint256"
        }
      ],
      "name": "approve",
      "outputs": [
        {
          "internalType": "bool",
          "name": "",
          "type": "bool"
        }
      ],
      "stateMutability": "nonpayable",
      "type": "function"
    },
    {
      "inputs": [
        {
          "internalType": "address",
          "name": "account",
          "type": "address"
        }
      ],
      "name": "balanceOf",
      "outputs": [
        {
          "internalType": "uint256",
          "name": "",
          "type": "uint256"
        }
      ],
      "stateMutability": "view",
      "type": "function"
    },
    {
      "inputs": [
        {
          "internalType": "uint256",
          "name": "amount",
          "type": "uint256"
        }
      ],
      "name": "burn",
      "outputs": [],
      "stateMutability": "nonpayable",
      "type": "function"
    },
    {
      "inputs": [
        {
          "internalType": "address",
          "name": "_account",
          "type": "address"
        },
        {
          "internalType": "uint256",
          "name": "_amount",
          "type": "uint256"
        }
      ],
      "name": "burnFrom",
      "outputs": [],
      "stateMutability": "nonpayable",
      "type": "function"
    },
    {
      "inputs": [],
      "name": "contractURI",
      "outputs": [
        {
          "internalType": "string",
          "name": "",
          "type": "string"
        }
      ],
      "stateMutability": "view",
      "type": "function"
    },
    {
      "inputs": [],
      "name": "decimals",
      "outputs": [
        {
          "internalType": "uint8",
          "name": "",
          "type": "uint8"
        }
      ],
      "stateMutability": "view",
      "type": "function"
    },
    {
      "inputs": [
        {
          "internalType": "address",
          "name": "spender",
          "type": "address"
        },
        {
          "internalType": "uint256",
          "name": "subtractedValue",
          "type": "uint256"
        }
      ],
      "name": "decreaseAllowance",
      "outputs": [
        {
          "internalType": "bool",
          "name": "",
          "type": "bool"
        }
      ],
      "stateMutability": "nonpayable",
      "type": "function"
    },
    {
      "inputs": [
        {
          "internalType": "bytes32",
          "name": "role",
          "type": "bytes32"
        }
      ],
      "name": "getRoleAdmin",
      "outputs": [
        {
          "internalType": "bytes32",
          "name": "",
          "type": "bytes32"
        }
      ],
      "stateMutability": "view",
      "type": "function"
    },
    {
      "inputs": [
        {
          "internalType": "bytes32",
          "name": "role",
          "type": "bytes32"
        },
        {
          "internalType": "uint256",
          "name": "index",
          "type": "uint256"
        }
      ],
      "name": "getRoleMember",
      "outputs": [
        {
          "internalType": "address",
          "name": "member",
          "type": "address"
        }
      ],
      "stateMutability": "view",
      "type": "function"
    },
    {
      "inputs": [
        {
          "internalType": "bytes32",
          "name": "role",
          "type": "bytes32"
        }
      ],
      "name": "getRoleMemberCount",
      "outputs": [
        {
          "internalType": "uint256",
          "name": "count",
          "type": "uint256"
        }
      ],
      "stateMutability": "view",
      "type": "function"
    },
    {
      "inputs": [
        {
          "internalType": "bytes32",
          "name": "role",
          "type": "bytes32"
        },
        {
          "internalType": "address",
          "name": "account",
          "type": "address"
        }
      ],
      "name": "grantRole",
      "outputs": [],
      "stateMutability": "nonpayable",
      "type": "function"
    },
    {
      "inputs": [
        {
          "internalType": "bytes32",
          "name": "role",
          "type": "bytes32"
        },
        {
          "internalType": "address",
          "name": "account",
          "type": "address"
        }
      ],
      "name": "hasRole",
      "outputs": [
        {
          "internalType": "bool",
          "name": "",
          "type": "bool"
        }
      ],
      "stateMutability": "view",
      "type": "function"
    },
    {
      "inputs": [
        {
          "internalType": "bytes32",
          "name": "role",
          "type": "bytes32"
        },
        {
          "internalType": "address",
          "name": "account",
          "type": "address"
        }
      ],
      "name": "hasRoleWithSwitch",
      "outputs": [
        {
          "internalType": "bool",
          "name": "",
          "type": "bool"
        }
      ],
      "stateMutability": "view",
      "type": "function"
    },
    {
      "inputs": [
        {
          "internalType": "address",
          "name": "spender",
          "type": "address"
        },
        {
          "internalType": "uint256",
          "name": "addedValue",
          "type": "uint256"
        }
      ],
      "name": "increaseAllowance",
      "outputs": [
        {
          "internalType": "bool",
          "name": "",
          "type": "bool"
        }
      ],
      "stateMutability": "nonpayable",
      "type": "function"
    },
    {
      "inputs": [
        {
          "internalType": "address",
          "name": "to",
          "type": "address"
        },
        {
          "internalType": "uint256",
          "name": "amount",
          "type": "uint256"
        }
      ],
      "name": "mint",
      "outputs": [],
      "stateMutability": "nonpayable",
      "type": "function"
    },
    {
      "inputs": [
        {
          "internalType": "address",
          "name": "_to",
          "type": "address"
        },
        {
          "internalType": "uint256",
          "name": "_amount",
          "type": "uint256"
        }
      ],
      "name": "mintTo",
      "outputs": [],
      "stateMutability": "nonpayable",
      "type": "function"
    },
    {
      "inputs": [
        {
          "internalType": "bytes[]",
          "name": "data",
          "type": "bytes[]"
        }
      ],
      "name": "multicall",
      "outputs": [
        {
          "internalType": "bytes[]",
          "name": "results",
          "type": "bytes[]"
        }
      ],
      "stateMutability": "nonpayable",
      "type": "function"
    },
    {
      "inputs": [],
      "name": "name",
      "outputs": [
        {
          "internalType": "string",
          "name": "",
          "type": "string"
        }
      ],
      "stateMutability": "view",
      "type": "function"
    },
    {
      "inputs": [
        {
          "internalType": "address",
          "name": "owner",
          "type": "address"
        }
      ],
      "name": "nonces",
      "outputs": [
        {
          "internalType": "uint256",
          "name": "",
          "type": "uint256"
        }
      ],
      "stateMutability": "view",
      "type": "function"
    },
    {
      "inputs": [],
      "name": "owner",
      "outputs": [
        {
          "internalType": "address",
          "name": "",
          "type": "address"
        }
      ],
      "stateMutability": "view",
      "type": "function"
    },
    {
      "inputs": [],
      "name": "pause",
      "outputs": [],
      "stateMutability": "nonpayable",
      "type": "function"
    },
    {
      "inputs": [],
      "name": "paused",
      "outputs": [
        {
          "internalType": "bool",
          "name": "",
          "type": "bool"
        }
      ],
      "stateMutability": "view",
      "type": "function"
    },
    {
      "inputs": [
        {
          "internalType": "address",
          "name": "owner",
          "type": "address"
        },
        {
          "internalType": "address",
          "name": "spender",
          "type": "address"
        },
        {
          "internalType": "uint256",
          "name": "value",
          "type": "uint256"
        },
        {
          "internalType": "uint256",
          "name": "deadline",
          "type": "uint256"
        },
        {
          "internalType": "uint8",
          "name": "v",
          "type": "uint8"
        },
        {
          "internalType": "bytes32",
          "name": "r",
          "type": "bytes32"
        },
        {
          "internalType": "bytes32",
          "name": "s",
          "type": "bytes32"
        }
      ],
      "name": "permit",
      "outputs": [],
      "stateMutability": "nonpayable",
      "type": "function"
    },
    {
      "inputs": [
        {
          "internalType": "bytes32",
          "name": "role",
          "type": "bytes32"
        },
        {
          "internalType": "address",
          "name": "account",
          "type": "address"
        }
      ],
      "name": "renounceRole",
      "outputs": [],
      "stateMutability": "nonpayable",
      "type": "function"
    },
    {
      "inputs": [
        {
          "internalType": "bytes32",
          "name": "role",
          "type": "bytes32"
        },
        {
          "internalType": "address",
          "name": "account",
          "type": "address"
        }
      ],
      "name": "revokeRole",
      "outputs": [],
      "stateMutability": "nonpayable",
      "type": "function"
    },
    {
      "inputs": [
        {
          "internalType": "string",
          "name": "_uri",
          "type": "string"
        }
      ],
      "name": "setContractURI",
      "outputs": [],
      "stateMutability": "nonpayable",
      "type": "function"
    },
    {
      "inputs": [
        {
          "internalType": "address",
          "name": "_newOwner",
          "type": "address"
        }
      ],
      "name": "setOwner",
      "outputs": [],
      "stateMutability": "nonpayable",
      "type": "function"
    },
    {
      "inputs": [],
      "name": "symbol",
      "outputs": [
        {
          "internalType": "string",
          "name": "",
          "type": "string"
        }
      ],
      "stateMutability": "view",
      "type": "function"
    },
    {
      "inputs": [],
      "name": "totalSupply",
      "outputs": [
        {
          "internalType": "uint256",
          "name": "",
          "type": "uint256"
        }
      ],
      "stateMutability": "view",
      "type": "function"
    },
    {
      "inputs": [
        {
          "internalType": "address",
          "name": "to",
          "type": "address"
        },
        {
          "internalType": "uint256",
          "name": "amount",
          "type": "uint256"
        }
      ],
      "name": "transfer",
      "outputs": [
        {
          "internalType": "bool",
          "name": "",
          "type": "bool"
        }
      ],
      "stateMutability": "nonpayable",
      "type": "function"
    },
    {
      "inputs": [
        {
          "internalType": "address",
          "name": "from",
          "type": "address"
        },
        {
          "internalType": "address",
          "name": "to",
          "type": "address"
        },
        {
          "internalType": "uint256",
          "name": "amount",
          "type": "uint256"
        }
      ],
      "name": "transferFrom",
      "outputs": [
        {
          "internalType": "bool",
          "name": "",
          "type": "bool"
        }
      ],
      "stateMutability": "nonpayable",
      "type": "function"
    },
    {
      "inputs": [],
      "name": "unpause",
      "outputs": [],
      "stateMutability": "nonpayable",
      "type": "function"
    }
  ],
  "bytecode": "0x6101006040527f6e71edae12b1b97f4d1f60370fef10105fa2faae0126114a169c64845d6126c960e0908152503480156200003957600080fd5b50336040518060400160405280601281526020017f536f7672616e205765616c74682046756e6400000000000000000000000000008152506040518060400160405280600381526020017f5357460000000000000000000000000000000000000000000000000000000000815250818181818160059081620000bc919062000839565b508060069081620000ce919062000839565b5050504660a081815250503073ffffffffffffffffffffffffffffffffffffffff1660c08173ffffffffffffffffffffffffffffffffffffffff16815250506200011d620001d360201b60201c565b60808181525050505062000137836200026160201b60201c565b5050506200016c7f9f2df0fed2c77648de5860a4cc508cd0818c85b8b8a1ab4ceeef8d981c8956a6336200032760201b60201c565b620001b27f9f2df0fed2c77648de5860a4cc508cd0818c85b8b8a1ab4ceeef8d981c8956a67326a8401287ce33cc4aeb5a106cd6d282a92cf51d6200032760201b60201c565b6000600b60006101000a81548160ff02191690831515021790555062000a58565b60007f8b73c3c69bb8fe3d512ecc4cf759cc79239f7b179b0ffacaa9a75d522b39400f620002066200034f60201b60201c565b805190602001207fc89efdaa54c0f20c7adf612882df0950f5a951637e0307cdcb4c672f298b8bc646306040516020016200024695949392919062000991565b60405160208183030381529060405280519060200120905090565b6000600160009054906101000a900473ffffffffffffffffffffffffffffffffffffffff16905081600160006101000a81548173ffffffffffffffffffffffffffffffffffffffff021916908373ffffffffffffffffffffffffffffffffffffffff1602179055508173ffffffffffffffffffffffffffffffffffffffff168173ffffffffffffffffffffffffffffffffffffffff167f8292fce18fa69edf4db7b94ea2e58241df0ae57f97e0a6c9b29067028bf92d7660405160405180910390a35050565b620003398282620003e960201b60201c565b6200034b8282620004b160201b60201c565b5050565b606060058054620003609062000628565b80601f01602080910402602001604051908101604052809291908181526020018280546200038e9062000628565b8015620003df5780601f10620003b357610100808354040283529160200191620003df565b820191906000526020600020905b815481529060010190602001808311620003c157829003601f168201915b5050505050905090565b60016008600084815260200190815260200160002060008373ffffffffffffffffffffffffffffffffffffffff1673ffffffffffffffffffffffffffffffffffffffff16815260200190815260200160002060006101000a81548160ff0219169083151502179055503373ffffffffffffffffffffffffffffffffffffffff168173ffffffffffffffffffffffffffffffffffffffff16837f2f8788117e7eff1d82e926ec794901d17c78024a50270940304540a733656f0d60405160405180910390a45050565b6000600a60008481526020019081526020016000206000015490506001600a60008581526020019081526020016000206000016000828254620004f5919062000a1d565b9250508190555081600a6000858152602001908152602001600020600101600083815260200190815260200160002060006101000a81548173ffffffffffffffffffffffffffffffffffffffff021916908373ffffffffffffffffffffffffffffffffffffffff16021790555080600a600085815260200190815260200160002060020160008473ffffffffffffffffffffffffffffffffffffffff1673ffffffffffffffffffffffffffffffffffffffff16815260200190815260200160002081905550505050565b600081519050919050565b7f4e487b7100000000000000000000000000000000000000000000000000000000600052604160045260246000fd5b7f4e487b7100000000000000000000000000000000000000000000000000000000600052602260045260246000fd5b600060028204905060018216806200064157607f821691505b602082108103620006575762000656620005f9565b5b50919050565b60008190508160005260206000209050919050565b60006020601f8301049050919050565b600082821b905092915050565b600060088302620006c17fffffffffffffffffffffffffffffffffffffffffffffffffffffffffffffffff8262000682565b620006cd868362000682565b95508019841693508086168417925050509392505050565b6000819050919050565b6000819050919050565b60006200071a620007146200070e84620006e5565b620006ef565b620006e5565b9050919050565b6000819050919050565b6200073683620006f9565b6200074e620007458262000721565b8484546200068f565b825550505050565b600090565b6200076562000756565b620007728184846200072b565b505050565b5b818110156200079a576200078e6000826200075b565b60018101905062000778565b5050565b601f821115620007e957620007b3816200065d565b620007be8462000672565b81016020851015620007ce578190505b620007e6620007dd8562000672565b83018262000777565b50505b505050565b600082821c905092915050565b60006200080e60001984600802620007ee565b1980831691505092915050565b6000620008298383620007fb565b9150826002028217905092915050565b6200084482620005bf565b67ffffffffffffffff81111562000860576200085f620005ca565b5b6200086c825462000628565b620008798282856200079e565b600060209050601f831160018114620008b157600084156200089c578287015190505b620008a885826200081b565b86555062000918565b601f198416620008c1866200065d565b60005b82811015620008eb57848901518255600182019150602085019450602081019050620008c4565b868310156200090b578489015162000907601f891682620007fb565b8355505b6001600288020188555050505b505050505050565b6000819050919050565b620009358162000920565b82525050565b6200094681620006e5565b82525050565b600073ffffffffffffffffffffffffffffffffffffffff82169050919050565b600062000979826200094c565b9050919050565b6200098b816200096c565b82525050565b600060a082019050620009a860008301886200092a565b620009b760208301876200092a565b620009c660408301866200092a565b620009d560608301856200093b565b620009e4608083018462000980565b9695505050505050565b7f4e487b7100000000000000000000000000000000000000000000000000000000600052601160045260246000fd5b600062000a2a82620006e5565b915062000a3783620006e5565b925082820190508082111562000a525762000a51620009ee565b5b92915050565b60805160a05160c05160e05161488f62000a92600039600061173e015260006109480152600061099e015260006109c7015261488f6000f3fe608060405234801561001057600080fd5b506004361061021c5760003560e01c80637ecebe0011610125578063a457c2d7116100ad578063d505accf1161007c578063d505accf14610675578063d539139314610691578063d547741f146106af578063dd62ed3e146106cb578063e8a3d485146106fb5761021c565b8063a457c2d7146105b5578063a9059cbb146105e5578063ac9650d814610615578063ca15c873146106455761021c565b806391d14854116100f457806391d14854146104fd578063938e3d7b1461052d57806395d89b4114610549578063a217fddf14610567578063a32fa5b3146105855761021c565b80637ecebe00146104755780638456cb59146104a55780638da5cb5b146104af5780639010d07c146104cd5761021c565b806336568abe116101a857806342966c681161017757806342966c68146103d3578063449a52f8146103ef5780635c975abb1461040b57806370a082311461042957806379cc6790146104595761021c565b806336568abe14610361578063395093511461037d5780633f4ba83a146103ad57806340c10f19146103b75761021c565b806323b872dd116101ef57806323b872dd146102a9578063248a9ca3146102d95780632f2ff15d14610309578063313ce567146103255780633644e515146103435761021c565b806306fdde0314610221578063095ea7b31461023f57806313af40351461026f57806318160ddd1461028b575b600080fd5b610229610719565b6040516102369190612f10565b60405180910390f35b61025960048036038101906102549190612fda565b6107ab565b6040516102669190613035565b60405180910390f35b61028960048036038101906102849190613050565b6107ce565b005b610293610818565b6040516102a0919061308c565b60405180910390f35b6102c360048036038101906102be91906130a7565b610822565b6040516102d09190613035565b60405180910390f35b6102f360048036038101906102ee9190613130565b610851565b604051610300919061316c565b60405180910390f35b610323600480360381019061031e9190613187565b61086e565b005b61032d61093b565b60405161033a91906131e3565b60405180910390f35b61034b610944565b604051610358919061316c565b60405180910390f35b61037b60048036038101906103769190613187565b6109fb565b005b61039760048036038101906103929190612fda565b610a7b565b6040516103a49190613035565b60405180910390f35b6103b5610b25565b005b6103d160048036038101906103cc9190612fda565b610c00565b005b6103ed60048036038101906103e891906131fe565b610c3a565b005b61040960048036038101906104049190612fda565b610c47565b005b610413610cdf565b6040516104209190613035565b60405180910390f35b610443600480360381019061043e9190613050565b610cf6565b604051610450919061308c565b60405180910390f35b610473600480360381019061046e9190612fda565b610d3f565b005b61048f600480360381019061048a9190613050565b610e10565b60405161049c919061308c565b60405180910390f35b6104ad610e60565b005b6104b7610f3b565b6040516104c4919061323a565b60405180910390f35b6104e760048036038101906104e29190613255565b610f65565b6040516104f4919061323a565b60405180910390f35b61051760048036038101906105129190613187565b611116565b6040516105249190613035565b60405180910390f35b610547600480360381019061054291906133ca565b61117e565b005b6105516111c8565b60405161055e9190612f10565b60405180910390f35b61056f61125a565b60405161057c919061316c565b60405180910390f35b61059f600480360381019061059a9190613187565b611261565b6040516105ac9190613035565b60405180910390f35b6105cf60048036038101906105ca9190612fda565b611335565b6040516105dc9190613035565b60405180910390f35b6105ff60048036038101906105fa9190612fda565b61141f565b60405161060c9190613035565b60405180910390f35b61062f600480360381019061062a9190613473565b611442565b60405161063c91906135d7565b60405180910390f35b61065f600480360381019061065a9190613130565b61160a565b60405161066c919061308c565b60405180910390f35b61068f600480360381019061068a9190613625565b6116f7565b005b610699611841565b6040516106a6919061316c565b60405180910390f35b6106c960048036038101906106c49190613187565b611865565b005b6106e560048036038101906106e091906136c7565b611890565b6040516106f2919061308c565b60405180910390f35b610703611917565b6040516107109190612f10565b60405180910390f35b60606005805461072890613736565b80601f016020809104026020016040519081016040528092919081815260200182805461075490613736565b80156107a15780601f10610776576101008083540402835291602001916107a1565b820191906000526020600020905b81548152906001019060200180831161078457829003601f168201915b5050505050905090565b6000806107b66119a5565b90506107c38185856119ad565b600191505092915050565b6107d6611b76565b61080c576040517f2d99739600000000000000000000000000000000000000000000000000000000815260040160405180910390fd5b61081581611bb3565b50565b6000600454905090565b60008061082d6119a5565b905061083a858285611c79565b610845858585611d05565b60019150509392505050565b600060096000838152602001908152602001600020549050919050565b61088b600960008481526020019081526020016000205433611f87565b6008600083815260200190815260200160002060008273ffffffffffffffffffffffffffffffffffffffff1673ffffffffffffffffffffffffffffffffffffffff16815260200190815260200160002060009054906101000a900460ff161561092d5780826040517fd49c166a000000000000000000000000000000000000000000000000000000008152600401610924929190613767565b60405180910390fd5b610937828261202c565b5050565b60006012905090565b60007f000000000000000000000000000000000000000000000000000000000000000073ffffffffffffffffffffffffffffffffffffffff163073ffffffffffffffffffffffffffffffffffffffff161480156109c057507f000000000000000000000000000000000000000000000000000000000000000046145b156109ed577f000000000000000000000000000000000000000000000000000000000000000090506109f8565b6109f5612044565b90505b90565b8073ffffffffffffffffffffffffffffffffffffffff163373ffffffffffffffffffffffffffffffffffffffff1614610a6d5733816040517f4169c622000000000000000000000000000000000000000000000000000000008152600401610a64929190613790565b60405180910390fd5b610a7782826120c8565b5050565b600080610a866119a5565b9050610b1a818585600360008673ffffffffffffffffffffffffffffffffffffffff1673ffffffffffffffffffffffffffffffffffffffff16815260200190815260200160002060008973ffffffffffffffffffffffffffffffffffffffff1673ffffffffffffffffffffffffffffffffffffffff16815260200190815260200160002054610b1591906137e8565b6119ad565b600191505092915050565b600160009054906101000a900473ffffffffffffffffffffffffffffffffffffffff1673ffffffffffffffffffffffffffffffffffffffff163373ffffffffffffffffffffffffffffffffffffffff1614610bac576040517f2d99739600000000000000000000000000000000000000000000000000000000815260040160405180910390fd5b6000600b60006101000a81548160ff0219169083151502179055507f5db9ee0a495bf2e6ff9c91a7834c1ba4fdd244a5e8aa4e537bd38aeae4b073aa33604051610bf6919061323a565b60405180910390a1565b7f9f2df0fed2c77648de5860a4cc508cd0818c85b8b8a1ab4ceeef8d981c8956a6610c2b8133611f87565b610c3583836120e0565b505050565b610c443382612240565b50565b610c4f612418565b610c8e576040517f08c379a0000000000000000000000000000000000000000000000000000000008152600401610c8590613868565b60405180910390fd5b60008103610cd1576040517f08c379a0000000000000000000000000000000000000000000000000000000008152600401610cc8906138d4565b60405180910390fd5b610cdb82826120e0565b5050565b6000600b60009054906101000a900460ff16905090565b6000600260008373ffffffffffffffffffffffffffffffffffffffff1673ffffffffffffffffffffffffffffffffffffffff168152602001908152602001600020549050919050565b610d47612455565b610d86576040517f08c379a0000000000000000000000000000000000000000000000000000000008152600401610d7d90613940565b60405180910390fd5b80610d9083610cf6565b1015610dd1576040517f08c379a0000000000000000000000000000000000000000000000000000000008152600401610dc8906139ac565b60405180910390fd5b600081610dde8433611890565b610de891906139cc565b9050610df6833360006119ad565b610e018333836119ad565b610e0b8383612240565b505050565b6000610e59600760008473ffffffffffffffffffffffffffffffffffffffff1673ffffffffffffffffffffffffffffffffffffffff168152602001908152602001600020612492565b9050919050565b600160009054906101000a900473ffffffffffffffffffffffffffffffffffffffff1673ffffffffffffffffffffffffffffffffffffffff163373ffffffffffffffffffffffffffffffffffffffff1614610ee7576040517f2d99739600000000000000000000000000000000000000000000000000000000815260040160405180910390fd5b6001600b60006101000a81548160ff0219169083151502179055507f62e78cea01bee320cd4e420270b5ea74000d11b0c9f74754ebdbfc544b05a25833604051610f31919061323a565b60405180910390a1565b6000600160009054906101000a900473ffffffffffffffffffffffffffffffffffffffff16905090565b600080600a6000858152602001908152602001600020600001549050600080600090505b8281101561110c57600073ffffffffffffffffffffffffffffffffffffffff16600a6000888152602001908152602001600020600101600083815260200190815260200160002060009054906101000a900473ffffffffffffffffffffffffffffffffffffffff1673ffffffffffffffffffffffffffffffffffffffff16146110795784820361106557600a6000878152602001908152602001600020600101600082815260200190815260200160002060009054906101000a900473ffffffffffffffffffffffffffffffffffffffff169350505050611110565b60018261107291906137e8565b91506110f8565b611084866000611116565b80156110e25750600a600087815260200190815260200160002060020160008073ffffffffffffffffffffffffffffffffffffffff1673ffffffffffffffffffffffffffffffffffffffff1681526020019081526020016000205481145b156110f7576001826110f491906137e8565b91505b5b60018161110591906137e8565b9050610f89565b5050505b92915050565b60006008600084815260200190815260200160002060008373ffffffffffffffffffffffffffffffffffffffff1673ffffffffffffffffffffffffffffffffffffffff16815260200190815260200160002060009054906101000a900460ff16905092915050565b6111866124a0565b6111bc576040517f9f7f092500000000000000000000000000000000000000000000000000000000815260040160405180910390fd5b6111c5816124dd565b50565b6060600680546111d790613736565b80601f016020809104026020016040519081016040528092919081815260200182805461120390613736565b80156112505780601f1061122557610100808354040283529160200191611250565b820191906000526020600020905b81548152906001019060200180831161123357829003601f168201915b5050505050905090565b6000801b81565b60006008600084815260200190815260200160002060008073ffffffffffffffffffffffffffffffffffffffff1673ffffffffffffffffffffffffffffffffffffffff16815260200190815260200160002060009054906101000a900460ff1661132a576008600084815260200190815260200160002060008373ffffffffffffffffffffffffffffffffffffffff1673ffffffffffffffffffffffffffffffffffffffff16815260200190815260200160002060009054906101000a900460ff16905061132f565b600190505b92915050565b6000806113406119a5565b90506000600360008373ffffffffffffffffffffffffffffffffffffffff1673ffffffffffffffffffffffffffffffffffffffff16815260200190815260200160002060008673ffffffffffffffffffffffffffffffffffffffff1673ffffffffffffffffffffffffffffffffffffffff16815260200190815260200160002054905083811015611406576040517f08c379a00000000000000000000000000000000000000000000000000000000081526004016113fd90613a72565b60405180910390fd5b61141382868684036119ad565b60019250505092915050565b60008061142a6119a5565b9050611437818585611d05565b600191505092915050565b60608282905067ffffffffffffffff8111156114615761146061329f565b5b60405190808252806020026020018201604052801561149457816020015b606081526020019060019003908161147f5790505b50905060006114a16119a5565b905060008173ffffffffffffffffffffffffffffffffffffffff163373ffffffffffffffffffffffffffffffffffffffff161415905060005b8585905081101561160157811561155e5761153b3087878481811061150257611501613a92565b5b90506020028101906115149190613ad0565b8660405160200161152793929190613bab565b6040516020818303038152906040526125b8565b84828151811061154e5761154d613a92565b5b60200260200101819052506115ee565b6115cf3087878481811061157557611574613a92565b5b90506020028101906115879190613ad0565b8080601f016020809104026020016040519081016040528093929190818152602001838380828437600081840152601f19601f820116905080830192505050505050506125b8565b8482815181106115e2576115e1613a92565b5b60200260200101819052505b80806115f990613bd5565b9150506114da565b50505092915050565b600080600a600084815260200190815260200160002060000154905060005b818110156116d057600073ffffffffffffffffffffffffffffffffffffffff16600a6000868152602001908152602001600020600101600083815260200190815260200160002060009054906101000a900473ffffffffffffffffffffffffffffffffffffffff1673ffffffffffffffffffffffffffffffffffffffff16146116bc576001836116b991906137e8565b92505b6001816116c991906137e8565b9050611629565b506116dc836000611116565b156116f1576001826116ee91906137e8565b91505b50919050565b8342111561173a576040517f08c379a000000000000000000000000000000000000000000000000000000000815260040161173190613c69565b60405180910390fd5b60007f00000000000000000000000000000000000000000000000000000000000000008888886117698c6125e5565b8960405160200161177f96959493929190613c89565b60405160208183030381529060405280519060200120905060006117aa6117a4610944565b83612643565b905060006117ba82878787612684565b90508973ffffffffffffffffffffffffffffffffffffffff168173ffffffffffffffffffffffffffffffffffffffff161461182a576040517f08c379a000000000000000000000000000000000000000000000000000000000815260040161182190613d36565b60405180910390fd5b6118358a8a8a6119ad565b50505050505050505050565b7f9f2df0fed2c77648de5860a4cc508cd0818c85b8b8a1ab4ceeef8d981c8956a681565b611882600960008481526020019081526020016000205433611f87565b61188c82826120c8565b5050565b6000600360008473ffffffffffffffffffffffffffffffffffffffff1673ffffffffffffffffffffffffffffffffffffffff16815260200190815260200160002060008373ffffffffffffffffffffffffffffffffffffffff1673ffffffffffffffffffffffffffffffffffffffff16815260200190815260200160002054905092915050565b6000805461192490613736565b80601f016020809104026020016040519081016040528092919081815260200182805461195090613736565b801561199d5780601f106119725761010080835404028352916020019161199d565b820191906000526020600020905b81548152906001019060200180831161198057829003601f168201915b505050505081565b600033905090565b600073ffffffffffffffffffffffffffffffffffffffff168373ffffffffffffffffffffffffffffffffffffffff1603611a1c576040517f08c379a0000000000000000000000000000000000000000000000000000000008152600401611a1390613dc8565b60405180910390fd5b600073ffffffffffffffffffffffffffffffffffffffff168273ffffffffffffffffffffffffffffffffffffffff1603611a8b576040517f08c379a0000000000000000000000000000000000000000000000000000000008152600401611a8290613e5a565b60405180910390fd5b80600360008573ffffffffffffffffffffffffffffffffffffffff1673ffffffffffffffffffffffffffffffffffffffff16815260200190815260200160002060008473ffffffffffffffffffffffffffffffffffffffff1673ffffffffffffffffffffffffffffffffffffffff168152602001908152602001600020819055508173ffffffffffffffffffffffffffffffffffffffff168373ffffffffffffffffffffffffffffffffffffffff167f8c5be1e5ebec7d5bd14f71427d1e84f3dd0314c0f7b2291e5b200ac8c7c3b92583604051611b69919061308c565b60405180910390a3505050565b6000611b80610f3b565b73ffffffffffffffffffffffffffffffffffffffff163373ffffffffffffffffffffffffffffffffffffffff1614905090565b6000600160009054906101000a900473ffffffffffffffffffffffffffffffffffffffff16905081600160006101000a81548173ffffffffffffffffffffffffffffffffffffffff021916908373ffffffffffffffffffffffffffffffffffffffff1602179055508173ffffffffffffffffffffffffffffffffffffffff168173ffffffffffffffffffffffffffffffffffffffff167f8292fce18fa69edf4db7b94ea2e58241df0ae57f97e0a6c9b29067028bf92d7660405160405180910390a35050565b6000611c858484611890565b90507fffffffffffffffffffffffffffffffffffffffffffffffffffffffffffffffff8114611cff5781811015611cf1576040517f08c379a0000000000000000000000000000000000000000000000000000000008152600401611ce890613ec6565b60405180910390fd5b611cfe84848484036119ad565b5b50505050565b600073ffffffffffffffffffffffffffffffffffffffff168373ffffffffffffffffffffffffffffffffffffffff1603611d74576040517f08c379a0000000000000000000000000000000000000000000000000000000008152600401611d6b90613f58565b60405180910390fd5b600073ffffffffffffffffffffffffffffffffffffffff168273ffffffffffffffffffffffffffffffffffffffff1603611de3576040517f08c379a0000000000000000000000000000000000000000000000000000000008152600401611dda90613fea565b60405180910390fd5b611dee8383836126af565b6000600260008573ffffffffffffffffffffffffffffffffffffffff1673ffffffffffffffffffffffffffffffffffffffff16815260200190815260200160002054905081811015611e75576040517f08c379a0000000000000000000000000000000000000000000000000000000008152600401611e6c9061407c565b60405180910390fd5b818103600260008673ffffffffffffffffffffffffffffffffffffffff1673ffffffffffffffffffffffffffffffffffffffff1681526020019081526020016000208190555081600260008573ffffffffffffffffffffffffffffffffffffffff1673ffffffffffffffffffffffffffffffffffffffff1681526020019081526020016000206000828254611f0a91906137e8565b925050819055508273ffffffffffffffffffffffffffffffffffffffff168473ffffffffffffffffffffffffffffffffffffffff167fddf252ad1be2c89b69c2b068fc378daa952ba7f163c4a11628f55a4df523b3ef84604051611f6e919061308c565b60405180910390a3611f8184848461270f565b50505050565b6008600083815260200190815260200160002060008273ffffffffffffffffffffffffffffffffffffffff1673ffffffffffffffffffffffffffffffffffffffff16815260200190815260200160002060009054906101000a900460ff166120285780826040517f0878b10600000000000000000000000000000000000000000000000000000000815260040161201f929190613767565b60405180910390fd5b5050565b6120368282612714565b61204082826127dc565b5050565b60007f8b73c3c69bb8fe3d512ecc4cf759cc79239f7b179b0ffacaa9a75d522b39400f61206f610719565b805190602001207fc89efdaa54c0f20c7adf612882df0950f5a951637e0307cdcb4c672f298b8bc646306040516020016120ad95949392919061409c565b60405160208183030381529060405280519060200120905090565b6120d282826128e8565b6120dc82826129b1565b5050565b600073ffffffffffffffffffffffffffffffffffffffff168273ffffffffffffffffffffffffffffffffffffffff160361214f576040517f08c379a00000000000000000000000000000000000000000000000000000000081526004016121469061413b565b60405180910390fd5b61215b600083836126af565b806004600082825461216d91906137e8565b9250508190555080600260008473ffffffffffffffffffffffffffffffffffffffff1673ffffffffffffffffffffffffffffffffffffffff16815260200190815260200160002060008282546121c391906137e8565b925050819055508173ffffffffffffffffffffffffffffffffffffffff16600073ffffffffffffffffffffffffffffffffffffffff167fddf252ad1be2c89b69c2b068fc378daa952ba7f163c4a11628f55a4df523b3ef83604051612228919061308c565b60405180910390a361223c6000838361270f565b5050565b600073ffffffffffffffffffffffffffffffffffffffff168273ffffffffffffffffffffffffffffffffffffffff16036122af576040517f08c379a00000000000000000000000000000000000000000000000000000000081526004016122a6906141cd565b60405180910390fd5b6122bb826000836126af565b6000600260008473ffffffffffffffffffffffffffffffffffffffff1673ffffffffffffffffffffffffffffffffffffffff16815260200190815260200160002054905081811015612342576040517f08c379a00000000000000000000000000000000000000000000000000000000081526004016123399061425f565b60405180910390fd5b818103600260008573ffffffffffffffffffffffffffffffffffffffff1673ffffffffffffffffffffffffffffffffffffffff16815260200190815260200160002081905550816004600082825461239a91906139cc565b92505081905550600073ffffffffffffffffffffffffffffffffffffffff168373ffffffffffffffffffffffffffffffffffffffff167fddf252ad1be2c89b69c2b068fc378daa952ba7f163c4a11628f55a4df523b3ef846040516123ff919061308c565b60405180910390a36124138360008461270f565b505050565b6000612422610f3b565b73ffffffffffffffffffffffffffffffffffffffff163373ffffffffffffffffffffffffffffffffffffffff1614905090565b600061245f610f3b565b73ffffffffffffffffffffffffffffffffffffffff163373ffffffffffffffffffffffffffffffffffffffff1614905090565b600081600001549050919050565b60006124aa610f3b565b73ffffffffffffffffffffffffffffffffffffffff163373ffffffffffffffffffffffffffffffffffffffff1614905090565b60008080546124eb90613736565b80601f016020809104026020016040519081016040528092919081815260200182805461251790613736565b80156125645780601f1061253957610100808354040283529160200191612564565b820191906000526020600020905b81548152906001019060200180831161254757829003601f168201915b50505050509050816000908161257a919061442b565b507fc9c7c3fe08b88b4df9d4d47ef47d2c43d55c025a0ba88ca442580ed9e7348a1681836040516125ac9291906144fd565b60405180910390a15050565b60606125dd838360405180606001604052806027815260200161483360279139612aaf565b905092915050565b600080600760008473ffffffffffffffffffffffffffffffffffffffff1673ffffffffffffffffffffffffffffffffffffffff168152602001908152602001600020905061263281612492565b915061263d81612b35565b50919050565b60006040517f190100000000000000000000000000000000000000000000000000000000000081528360028201528260228201526042812091505092915050565b600080600061269587878787612b4b565b915091506126a281612c2d565b8192505050949350505050565b600b60009054906101000a900460ff16156126ff576040517f08c379a00000000000000000000000000000000000000000000000000000000081526004016126f690614580565b60405180910390fd5b61270a838383612d93565b505050565b505050565b60016008600084815260200190815260200160002060008373ffffffffffffffffffffffffffffffffffffffff1673ffffffffffffffffffffffffffffffffffffffff16815260200190815260200160002060006101000a81548160ff0219169083151502179055503373ffffffffffffffffffffffffffffffffffffffff168173ffffffffffffffffffffffffffffffffffffffff16837f2f8788117e7eff1d82e926ec794901d17c78024a50270940304540a733656f0d60405160405180910390a45050565b6000600a60008481526020019081526020016000206000015490506001600a6000858152602001908152602001600020600001600082825461281e91906137e8565b9250508190555081600a6000858152602001908152602001600020600101600083815260200190815260200160002060006101000a81548173ffffffffffffffffffffffffffffffffffffffff021916908373ffffffffffffffffffffffffffffffffffffffff16021790555080600a600085815260200190815260200160002060020160008473ffffffffffffffffffffffffffffffffffffffff1673ffffffffffffffffffffffffffffffffffffffff16815260200190815260200160002081905550505050565b6128f28282611f87565b6008600083815260200190815260200160002060008273ffffffffffffffffffffffffffffffffffffffff1673ffffffffffffffffffffffffffffffffffffffff16815260200190815260200160002060006101000a81549060ff02191690553373ffffffffffffffffffffffffffffffffffffffff168173ffffffffffffffffffffffffffffffffffffffff16837ff6391f5c32d9c69d2a47ea670b442974b53935d1edc7fd64eb21e047a839171b60405160405180910390a45050565b6000600a600084815260200190815260200160002060020160008373ffffffffffffffffffffffffffffffffffffffff1673ffffffffffffffffffffffffffffffffffffffff168152602001908152602001600020549050600a6000848152602001908152602001600020600101600082815260200190815260200160002060006101000a81549073ffffffffffffffffffffffffffffffffffffffff0219169055600a600084815260200190815260200160002060020160008373ffffffffffffffffffffffffffffffffffffffff1673ffffffffffffffffffffffffffffffffffffffff16815260200190815260200160002060009055505050565b60606000808573ffffffffffffffffffffffffffffffffffffffff1685604051612ad991906145d1565b600060405180830381855af49150503d8060008114612b14576040519150601f19603f3d011682016040523d82523d6000602084013e612b19565b606091505b5091509150612b2a86838387612d98565b925050509392505050565b6001816000016000828254019250508190555050565b6000807f7fffffffffffffffffffffffffffffff5d576e7357a4501ddfe92f46681b20a08360001c1115612b86576000600391509150612c24565b600060018787878760405160008152602001604052604051612bab94939291906145e8565b6020604051602081039080840390855afa158015612bcd573d6000803e3d6000fd5b505050602060405103519050600073ffffffffffffffffffffffffffffffffffffffff168173ffffffffffffffffffffffffffffffffffffffff1603612c1b57600060019250925050612c24565b80600092509250505b94509492505050565b60006004811115612c4157612c4061462d565b5b816004811115612c5457612c5361462d565b5b0315612d905760016004811115612c6e57612c6d61462d565b5b816004811115612c8157612c8061462d565b5b03612cc1576040517f08c379a0000000000000000000000000000000000000000000000000000000008152600401612cb8906146a8565b60405180910390fd5b60026004811115612cd557612cd461462d565b5b816004811115612ce857612ce761462d565b5b03612d28576040517f08c379a0000000000000000000000000000000000000000000000000000000008152600401612d1f90614714565b60405180910390fd5b60036004811115612d3c57612d3b61462d565b5b816004811115612d4f57612d4e61462d565b5b03612d8f576040517f08c379a0000000000000000000000000000000000000000000000000000000008152600401612d86906147a6565b60405180910390fd5b5b50565b505050565b60608315612dfa576000835103612df257612db285612e0d565b612df1576040517f08c379a0000000000000000000000000000000000000000000000000000000008152600401612de890614812565b60405180910390fd5b5b829050612e05565b612e048383612e30565b5b949350505050565b6000808273ffffffffffffffffffffffffffffffffffffffff163b119050919050565b600082511115612e435781518083602001fd5b806040517f08c379a0000000000000000000000000000000000000000000000000000000008152600401612e779190612f10565b60405180910390fd5b600081519050919050565b600082825260208201905092915050565b60005b83811015612eba578082015181840152602081019050612e9f565b60008484015250505050565b6000601f19601f8301169050919050565b6000612ee282612e80565b612eec8185612e8b565b9350612efc818560208601612e9c565b612f0581612ec6565b840191505092915050565b60006020820190508181036000830152612f2a8184612ed7565b905092915050565b6000604051905090565b600080fd5b600080fd5b600073ffffffffffffffffffffffffffffffffffffffff82169050919050565b6000612f7182612f46565b9050919050565b612f8181612f66565b8114612f8c57600080fd5b50565b600081359050612f9e81612f78565b92915050565b6000819050919050565b612fb781612fa4565b8114612fc257600080fd5b50565b600081359050612fd481612fae565b92915050565b60008060408385031215612ff157612ff0612f3c565b5b6000612fff85828601612f8f565b925050602061301085828601612fc5565b9150509250929050565b60008115159050919050565b61302f8161301a565b82525050565b600060208201905061304a6000830184613026565b92915050565b60006020828403121561306657613065612f3c565b5b600061307484828501612f8f565b91505092915050565b61308681612fa4565b82525050565b60006020820190506130a1600083018461307d565b92915050565b6000806000606084860312156130c0576130bf612f3c565b5b60006130ce86828701612f8f565b93505060206130df86828701612f8f565b92505060406130f086828701612fc5565b9150509250925092565b6000819050919050565b61310d816130fa565b811461311857600080fd5b50565b60008135905061312a81613104565b92915050565b60006020828403121561314657613145612f3c565b5b60006131548482850161311b565b91505092915050565b613166816130fa565b82525050565b6000602082019050613181600083018461315d565b92915050565b6000806040838503121561319e5761319d612f3c565b5b60006131ac8582860161311b565b92505060206131bd85828601612f8f565b9150509250929050565b600060ff82169050919050565b6131dd816131c7565b82525050565b60006020820190506131f860008301846131d4565b92915050565b60006020828403121561321457613213612f3c565b5b600061322284828501612fc5565b91505092915050565b61323481612f66565b82525050565b600060208201905061324f600083018461322b565b92915050565b6000806040838503121561326c5761326b612f3c565b5b600061327a8582860161311b565b925050602061328b85828601612fc5565b9150509250929050565b600080fd5b600080fd5b7f4e487b7100000000000000000000000000000000000000000000000000000000600052604160045260246000fd5b6132d782612ec6565b810181811067ffffffffffffffff821117156132f6576132f561329f565b5b80604052505050565b6000613309612f32565b905061331582826132ce565b919050565b600067ffffffffffffffff8211156133355761333461329f565b5b61333e82612ec6565b9050602081019050919050565b82818337600083830152505050565b600061336d6133688461331a565b6132ff565b9050828152602081018484840111156133895761338861329a565b5b61339484828561334b565b509392505050565b600082601f8301126133b1576133b0613295565b5b81356133c184826020860161335a565b91505092915050565b6000602082840312156133e0576133df612f3c565b5b600082013567ffffffffffffffff8111156133fe576133fd612f41565b5b61340a8482850161339c565b91505092915050565b600080fd5b600080fd5b60008083601f84011261343357613432613295565b5b8235905067ffffffffffffffff8111156134505761344f613413565b5b60208301915083602082028301111561346c5761346b613418565b5b9250929050565b6000806020838503121561348a57613489612f3c565b5b600083013567ffffffffffffffff8111156134a8576134a7612f41565b5b6134b48582860161341d565b92509250509250929050565b600081519050919050565b600082825260208201905092915050565b6000819050602082019050919050565b600081519050919050565b600082825260208201905092915050565b6000613513826134ec565b61351d81856134f7565b935061352d818560208601612e9c565b61353681612ec6565b840191505092915050565b600061354d8383613508565b905092915050565b6000602082019050919050565b600061356d826134c0565b61357781856134cb565b935083602082028501613589856134dc565b8060005b858110156135c557848403895281516135a68582613541565b94506135b183613555565b925060208a0199505060018101905061358d565b50829750879550505050505092915050565b600060208201905081810360008301526135f18184613562565b905092915050565b613602816131c7565b811461360d57600080fd5b50565b60008135905061361f816135f9565b92915050565b600080600080600080600060e0888a03121561364457613643612f3c565b5b60006136528a828b01612f8f565b97505060206136638a828b01612f8f565b96505060406136748a828b01612fc5565b95505060606136858a828b01612fc5565b94505060806136968a828b01613610565b93505060a06136a78a828b0161311b565b92505060c06136b88a828b0161311b565b91505092959891949750929550565b600080604083850312156136de576136dd612f3c565b5b60006136ec85828601612f8f565b92505060206136fd85828601612f8f565b9150509250929050565b7f4e487b7100000000000000000000000000000000000000000000000000000000600052602260045260246000fd5b6000600282049050600182168061374e57607f821691505b60208210810361376157613760613707565b5b50919050565b600060408201905061377c600083018561322b565b613789602083018461315d565b9392505050565b60006040820190506137a5600083018561322b565b6137b2602083018461322b565b9392505050565b7f4e487b7100000000000000000000000000000000000000000000000000000000600052601160045260246000fd5b60006137f382612fa4565b91506137fe83612fa4565b9250828201905080821115613816576138156137b9565b5b92915050565b7f4e6f7420617574686f72697a656420746f206d696e742e000000000000000000600082015250565b6000613852601783612e8b565b915061385d8261381c565b602082019050919050565b6000602082019050818103600083015261388181613845565b9050919050565b7f4d696e74696e67207a65726f20746f6b656e732e000000000000000000000000600082015250565b60006138be601483612e8b565b91506138c982613888565b602082019050919050565b600060208201905081810360008301526138ed816138b1565b9050919050565b7f4e6f7420617574686f72697a656420746f206275726e2e000000000000000000600082015250565b600061392a601783612e8b565b9150613935826138f4565b602082019050919050565b600060208201905081810360008301526139598161391d565b9050919050565b7f6e6f7420656e6f7567682062616c616e63650000000000000000000000000000600082015250565b6000613996601283612e8b565b91506139a182613960565b602082019050919050565b600060208201905081810360008301526139c581613989565b9050919050565b60006139d782612fa4565b91506139e283612fa4565b92508282039050818111156139fa576139f96137b9565b5b92915050565b7f45524332303a2064656372656173656420616c6c6f77616e63652062656c6f7760008201527f207a65726f000000000000000000000000000000000000000000000000000000602082015250565b6000613a5c602583612e8b565b9150613a6782613a00565b604082019050919050565b60006020820190508181036000830152613a8b81613a4f565b9050919050565b7f4e487b7100000000000000000000000000000000000000000000000000000000600052603260045260246000fd5b600080fd5b600080fd5b600080fd5b60008083356001602003843603038112613aed57613aec613ac1565b5b80840192508235915067ffffffffffffffff821115613b0f57613b0e613ac6565b5b602083019250600182023603831315613b2b57613b2a613acb565b5b509250929050565b600081905092915050565b6000613b4a8385613b33565b9350613b5783858461334b565b82840190509392505050565b60008160601b9050919050565b6000613b7b82613b63565b9050919050565b6000613b8d82613b70565b9050919050565b613ba5613ba082612f66565b613b82565b82525050565b6000613bb8828587613b3e565b9150613bc48284613b94565b601482019150819050949350505050565b6000613be082612fa4565b91507fffffffffffffffffffffffffffffffffffffffffffffffffffffffffffffffff8203613c1257613c116137b9565b5b600182019050919050565b7f45524332305065726d69743a206578706972656420646561646c696e65000000600082015250565b6000613c53601d83612e8b565b9150613c5e82613c1d565b602082019050919050565b60006020820190508181036000830152613c8281613c46565b9050919050565b600060c082019050613c9e600083018961315d565b613cab602083018861322b565b613cb8604083018761322b565b613cc5606083018661307d565b613cd2608083018561307d565b613cdf60a083018461307d565b979650505050505050565b7f45524332305065726d69743a20696e76616c6964207369676e61747572650000600082015250565b6000613d20601e83612e8b565b9150613d2b82613cea565b602082019050919050565b60006020820190508181036000830152613d4f81613d13565b9050919050565b7f45524332303a20617070726f76652066726f6d20746865207a65726f2061646460008201527f7265737300000000000000000000000000000000000000000000000000000000602082015250565b6000613db2602483612e8b565b9150613dbd82613d56565b604082019050919050565b60006020820190508181036000830152613de181613da5565b9050919050565b7f45524332303a20617070726f766520746f20746865207a65726f20616464726560008201527f7373000000000000000000000000000000000000000000000000000000000000602082015250565b6000613e44602283612e8b565b9150613e4f82613de8565b604082019050919050565b60006020820190508181036000830152613e7381613e37565b9050919050565b7f45524332303a20696e73756666696369656e7420616c6c6f77616e6365000000600082015250565b6000613eb0601d83612e8b565b9150613ebb82613e7a565b602082019050919050565b60006020820190508181036000830152613edf81613ea3565b9050919050565b7f45524332303a207472616e736665722066726f6d20746865207a65726f20616460008201527f6472657373000000000000000000000000000000000000000000000000000000602082015250565b6000613f42602583612e8b565b9150613f4d82613ee6565b604082019050919050565b60006020820190508181036000830152613f7181613f35565b9050919050565b7f45524332303a207472616e7366657220746f20746865207a65726f206164647260008201527f6573730000000000000000000000000000000000000000000000000000000000602082015250565b6000613fd4602383612e8b565b9150613fdf82613f78565b604082019050919050565b6000602082019050818103600083015261400381613fc7565b9050919050565b7f45524332303a207472616e7366657220616d6f756e742065786365656473206260008201527f616c616e63650000000000000000000000000000000000000000000000000000602082015250565b6000614066602683612e8b565b91506140718261400a565b604082019050919050565b6000602082019050818103600083015261409581614059565b9050919050565b600060a0820190506140b1600083018861315d565b6140be602083018761315d565b6140cb604083018661315d565b6140d8606083018561307d565b6140e5608083018461322b565b9695505050505050565b7f45524332303a206d696e7420746f20746865207a65726f206164647265737300600082015250565b6000614125601f83612e8b565b9150614130826140ef565b602082019050919050565b6000602082019050818103600083015261415481614118565b9050919050565b7f45524332303a206275726e2066726f6d20746865207a65726f2061646472657360008201527f7300000000000000000000000000000000000000000000000000000000000000602082015250565b60006141b7602183612e8b565b91506141c28261415b565b604082019050919050565b600060208201905081810360008301526141e6816141aa565b9050919050565b7f45524332303a206275726e20616d6f756e7420657863656564732062616c616e60008201527f6365000000000000000000000000000000000000000000000000000000000000602082015250565b6000614249602283612e8b565b9150614254826141ed565b604082019050919050565b600060208201905081810360008301526142788161423c565b9050919050565b60008190508160005260206000209050919050565b60006020601f8301049050919050565b600082821b905092915050565b6000600883026142e17fffffffffffffffffffffffffffffffffffffffffffffffffffffffffffffffff826142a4565b6142eb86836142a4565b95508019841693508086168417925050509392505050565b6000819050919050565b600061432861432361431e84612fa4565b614303565b612fa4565b9050919050565b6000819050919050565b6143428361430d565b61435661434e8261432f565b8484546142b1565b825550505050565b600090565b61436b61435e565b614376818484614339565b505050565b5b8181101561439a5761438f600082614363565b60018101905061437c565b5050565b601f8211156143df576143b08161427f565b6143b984614294565b810160208510156143c8578190505b6143dc6143d485614294565b83018261437b565b50505b505050565b600082821c905092915050565b6000614402600019846008026143e4565b1980831691505092915050565b600061441b83836143f1565b9150826002028217905092915050565b61443482612e80565b67ffffffffffffffff81111561444d5761444c61329f565b5b6144578254613736565b61446282828561439e565b600060209050601f8311600181146144955760008415614483578287015190505b61448d858261440f565b8655506144f5565b601f1984166144a38661427f565b60005b828110156144cb578489015182556001820191506020850194506020810190506144a6565b868310156144e857848901516144e4601f8916826143f1565b8355505b6001600288020188555050505b505050505050565b600060408201905081810360008301526145178185612ed7565b9050818103602083015261452b8184612ed7565b90509392505050565b7f546f6b656e207472616e73666572732061726520706175736564000000000000600082015250565b600061456a601a83612e8b565b915061457582614534565b602082019050919050565b600060208201905081810360008301526145998161455d565b9050919050565b60006145ab826134ec565b6145b58185613b33565b93506145c5818560208601612e9c565b80840191505092915050565b60006145dd82846145a0565b915081905092915050565b60006080820190506145fd600083018761315d565b61460a60208301866131d4565b614617604083018561315d565b614624606083018461315d565b95945050505050565b7f4e487b7100000000000000000000000000000000000000000000000000000000600052602160045260246000fd5b7f45434453413a20696e76616c6964207369676e61747572650000000000000000600082015250565b6000614692601883612e8b565b915061469d8261465c565b602082019050919050565b600060208201905081810360008301526146c181614685565b9050919050565b7f45434453413a20696e76616c6964207369676e6174757265206c656e67746800600082015250565b60006146fe601f83612e8b565b9150614709826146c8565b602082019050919050565b6000602082019050818103600083015261472d816146f1565b9050919050565b7f45434453413a20696e76616c6964207369676e6174757265202773272076616c60008201527f7565000000000000000000000000000000000000000000000000000000000000602082015250565b6000614790602283612e8b565b915061479b82614734565b604082019050919050565b600060208201905081810360008301526147bf81614783565b9050919050565b7f416464726573733a2063616c6c20746f206e6f6e2d636f6e7472616374000000600082015250565b60006147fc601d83612e8b565b9150614807826147c6565b602082019050919050565b6000602082019050818103600083015261482b816147ef565b905091905056fe416464726573733a206c6f772d6c6576656c2064656c65676174652063616c6c206661696c6564a26469706673582212201886417ec33fe0c4386f2cf64aa1a0a8e802c8cbd189a54a9fcaedefd103846d64736f6c63430008140033",
  "linkReferences": {},
  "deployedLinkReferences": {}
}