{
  "_format": "hh-sol-artifact-1",
  "contractName": "SovranWealthFund",
  "sourceName": "contracts/SovranWealthFund.sol",
  "abi": [
    {
      "inputs": [],
      "stateMutability": "nonpayable",
      "type": "constructor"
    },
    {
      "inputs": [],
      "name": "ContractMetadataUnauthorized",
      "type": "error"
    },
    {
      "inputs": [],
      "name": "OwnableUnauthorized",
      "type": "error"
    },
    {
      "inputs": [
        {
          "internalType": "address",
          "name": "account",
          "type": "address"
        },
        {
          "internalType": "bytes32",
          "name": "role",
          "type": "bytes32"
        }
      ],
      "name": "PermissionsAlreadyGranted",
      "type": "error"
    },
    {
      "inputs": [
        {
          "internalType": "address",
          "name": "expected",
          "type": "address"
        },
        {
          "internalType": "address",
          "name": "actual",
          "type": "address"
        }
      ],
      "name": "PermissionsInvalidPermission",
      "type": "error"
    },
    {
      "inputs": [
        {
          "internalType": "address",
          "name": "account",
          "type": "address"
        },
        {
          "internalType": "bytes32",
          "name": "neededRole",
          "type": "bytes32"
        }
      ],
      "name": "PermissionsUnauthorizedAccount",
      "type": "error"
    },
    {
      "anonymous": false,
      "inputs": [
        {
          "indexed": true,
          "internalType": "address",
          "name": "owner",
          "type": "address"
        },
        {
          "indexed": true,
          "internalType": "address",
          "name": "spender",
          "type": "address"
        },
        {
          "indexed": false,
          "internalType": "uint256",
          "name": "value",
          "type": "uint256"
        }
      ],
      "name": "Approval",
      "type": "event"
    },
    {
      "anonymous": false,
      "inputs": [
        {
          "indexed": false,
          "internalType": "string",
          "name": "prevURI",
          "type": "string"
        },
        {
          "indexed": false,
          "internalType": "string",
          "name": "newURI",
          "type": "string"
        }
      ],
      "name": "ContractURIUpdated",
      "type": "event"
    },
    {
      "anonymous": false,
      "inputs": [
        {
          "indexed": true,
          "internalType": "address",
          "name": "prevOwner",
          "type": "address"
        },
        {
          "indexed": true,
          "internalType": "address",
          "name": "newOwner",
          "type": "address"
        }
      ],
      "name": "OwnerUpdated",
      "type": "event"
    },
    {
      "anonymous": false,
      "inputs": [
        {
          "indexed": true,
          "internalType": "bytes32",
          "name": "role",
          "type": "bytes32"
        },
        {
          "indexed": true,
          "internalType": "bytes32",
          "name": "previousAdminRole",
          "type": "bytes32"
        },
        {
          "indexed": true,
          "internalType": "bytes32",
          "name": "newAdminRole",
          "type": "bytes32"
        }
      ],
      "name": "RoleAdminChanged",
      "type": "event"
    },
    {
      "anonymous": false,
      "inputs": [
        {
          "indexed": true,
          "internalType": "bytes32",
          "name": "role",
          "type": "bytes32"
        },
        {
          "indexed": true,
          "internalType": "address",
          "name": "account",
          "type": "address"
        },
        {
          "indexed": true,
          "internalType": "address",
          "name": "sender",
          "type": "address"
        }
      ],
      "name": "RoleGranted",
      "type": "event"
    },
    {
      "anonymous": false,
      "inputs": [
        {
          "indexed": true,
          "internalType": "bytes32",
          "name": "role",
          "type": "bytes32"
        },
        {
          "indexed": true,
          "internalType": "address",
          "name": "account",
          "type": "address"
        },
        {
          "indexed": true,
          "internalType": "address",
          "name": "sender",
          "type": "address"
        }
      ],
      "name": "RoleRevoked",
      "type": "event"
    },
    {
      "anonymous": false,
      "inputs": [
        {
          "indexed": true,
          "internalType": "address",
          "name": "mintedTo",
          "type": "address"
        },
        {
          "indexed": false,
          "internalType": "uint256",
          "name": "quantityMinted",
          "type": "uint256"
        }
      ],
      "name": "TokensMinted",
      "type": "event"
    },
    {
      "anonymous": false,
      "inputs": [
        {
          "indexed": true,
          "internalType": "address",
          "name": "from",
          "type": "address"
        },
        {
          "indexed": true,
          "internalType": "address",
          "name": "to",
          "type": "address"
        },
        {
          "indexed": false,
          "internalType": "uint256",
          "name": "value",
          "type": "uint256"
        }
      ],
      "name": "Transfer",
      "type": "event"
    },
    {
      "inputs": [],
      "name": "DEFAULT_ADMIN_ROLE",
      "outputs": [
        {
          "internalType": "bytes32",
          "name": "",
          "type": "bytes32"
        }
      ],
      "stateMutability": "view",
      "type": "function"
    },
    {
      "inputs": [],
      "name": "DOMAIN_SEPARATOR",
      "outputs": [
        {
          "internalType": "bytes32",
          "name": "",
          "type": "bytes32"
        }
      ],
      "stateMutability": "view",
      "type": "function"
    },
    {
      "inputs": [],
      "name": "MINTER_ROLE",
      "outputs": [
        {
          "internalType": "bytes32",
          "name": "",
          "type": "bytes32"
        }
      ],
      "stateMutability": "view",
      "type": "function"
    },
    {
      "inputs": [
        {
          "internalType": "address",
          "name": "owner",
          "type": "address"
        },
        {
          "internalType": "address",
          "name": "spender",
          "type": "address"
        }
      ],
      "name": "allowance",
      "outputs": [
        {
          "internalType": "uint256",
          "name": "",
          "type": "uint256"
        }
      ],
      "stateMutability": "view",
      "type": "function"
    },
    {
      "inputs": [
        {
          "internalType": "address",
          "name": "spender",
          "type": "address"
        },
        {
          "internalType": "uint256",
          "name": "amount",
          "type": "uint256"
        }
      ],
      "name": "approve",
      "outputs": [
        {
          "internalType": "bool",
          "name": "",
          "type": "bool"
        }
      ],
      "stateMutability": "nonpayable",
      "type": "function"
    },
    {
      "inputs": [
        {
          "internalType": "address",
          "name": "account",
          "type": "address"
        }
      ],
      "name": "balanceOf",
      "outputs": [
        {
          "internalType": "uint256",
          "name": "",
          "type": "uint256"
        }
      ],
      "stateMutability": "view",
      "type": "function"
    },
    {
      "inputs": [
        {
          "internalType": "uint256",
          "name": "_amount",
          "type": "uint256"
        }
      ],
      "name": "burn",
      "outputs": [],
      "stateMutability": "nonpayable",
      "type": "function"
    },
    {
      "inputs": [
        {
          "internalType": "address",
          "name": "_account",
          "type": "address"
        },
        {
          "internalType": "uint256",
          "name": "_amount",
          "type": "uint256"
        }
      ],
      "name": "burnFrom",
      "outputs": [],
      "stateMutability": "nonpayable",
      "type": "function"
    },
    {
      "inputs": [],
      "name": "contractURI",
      "outputs": [
        {
          "internalType": "string",
          "name": "",
          "type": "string"
        }
      ],
      "stateMutability": "view",
      "type": "function"
    },
    {
      "inputs": [],
      "name": "decimals",
      "outputs": [
        {
          "internalType": "uint8",
          "name": "",
          "type": "uint8"
        }
      ],
      "stateMutability": "view",
      "type": "function"
    },
    {
      "inputs": [
        {
          "internalType": "address",
          "name": "spender",
          "type": "address"
        },
        {
          "internalType": "uint256",
          "name": "subtractedValue",
          "type": "uint256"
        }
      ],
      "name": "decreaseAllowance",
      "outputs": [
        {
          "internalType": "bool",
          "name": "",
          "type": "bool"
        }
      ],
      "stateMutability": "nonpayable",
      "type": "function"
    },
    {
      "inputs": [
        {
          "internalType": "bytes32",
          "name": "role",
          "type": "bytes32"
        }
      ],
      "name": "getRoleAdmin",
      "outputs": [
        {
          "internalType": "bytes32",
          "name": "",
          "type": "bytes32"
        }
      ],
      "stateMutability": "view",
      "type": "function"
    },
    {
      "inputs": [
        {
          "internalType": "bytes32",
          "name": "role",
          "type": "bytes32"
        },
        {
          "internalType": "uint256",
          "name": "index",
          "type": "uint256"
        }
      ],
      "name": "getRoleMember",
      "outputs": [
        {
          "internalType": "address",
          "name": "member",
          "type": "address"
        }
      ],
      "stateMutability": "view",
      "type": "function"
    },
    {
      "inputs": [
        {
          "internalType": "bytes32",
          "name": "role",
          "type": "bytes32"
        }
      ],
      "name": "getRoleMemberCount",
      "outputs": [
        {
          "internalType": "uint256",
          "name": "count",
          "type": "uint256"
        }
      ],
      "stateMutability": "view",
      "type": "function"
    },
    {
      "inputs": [
        {
          "internalType": "bytes32",
          "name": "role",
          "type": "bytes32"
        },
        {
          "internalType": "address",
          "name": "account",
          "type": "address"
        }
      ],
      "name": "grantRole",
      "outputs": [],
      "stateMutability": "nonpayable",
      "type": "function"
    },
    {
      "inputs": [
        {
          "internalType": "bytes32",
          "name": "role",
          "type": "bytes32"
        },
        {
          "internalType": "address",
          "name": "account",
          "type": "address"
        }
      ],
      "name": "hasRole",
      "outputs": [
        {
          "internalType": "bool",
          "name": "",
          "type": "bool"
        }
      ],
      "stateMutability": "view",
      "type": "function"
    },
    {
      "inputs": [
        {
          "internalType": "bytes32",
          "name": "role",
          "type": "bytes32"
        },
        {
          "internalType": "address",
          "name": "account",
          "type": "address"
        }
      ],
      "name": "hasRoleWithSwitch",
      "outputs": [
        {
          "internalType": "bool",
          "name": "",
          "type": "bool"
        }
      ],
      "stateMutability": "view",
      "type": "function"
    },
    {
      "inputs": [
        {
          "internalType": "address",
          "name": "spender",
          "type": "address"
        },
        {
          "internalType": "uint256",
          "name": "addedValue",
          "type": "uint256"
        }
      ],
      "name": "increaseAllowance",
      "outputs": [
        {
          "internalType": "bool",
          "name": "",
          "type": "bool"
        }
      ],
      "stateMutability": "nonpayable",
      "type": "function"
    },
    {
      "inputs": [
        {
          "internalType": "address",
          "name": "to",
          "type": "address"
        },
        {
          "internalType": "uint256",
          "name": "amount",
          "type": "uint256"
        }
      ],
      "name": "mint",
      "outputs": [],
      "stateMutability": "nonpayable",
      "type": "function"
    },
    {
      "inputs": [
        {
          "internalType": "address",
          "name": "_to",
          "type": "address"
        },
        {
          "internalType": "uint256",
          "name": "_amount",
          "type": "uint256"
        }
      ],
      "name": "mintTo",
      "outputs": [],
      "stateMutability": "nonpayable",
      "type": "function"
    },
    {
      "inputs": [
        {
          "internalType": "bytes[]",
          "name": "data",
          "type": "bytes[]"
        }
      ],
      "name": "multicall",
      "outputs": [
        {
          "internalType": "bytes[]",
          "name": "results",
          "type": "bytes[]"
        }
      ],
      "stateMutability": "nonpayable",
      "type": "function"
    },
    {
      "inputs": [],
      "name": "name",
      "outputs": [
        {
          "internalType": "string",
          "name": "",
          "type": "string"
        }
      ],
      "stateMutability": "view",
      "type": "function"
    },
    {
      "inputs": [
        {
          "internalType": "address",
          "name": "owner",
          "type": "address"
        }
      ],
      "name": "nonces",
      "outputs": [
        {
          "internalType": "uint256",
          "name": "",
          "type": "uint256"
        }
      ],
      "stateMutability": "view",
      "type": "function"
    },
    {
      "inputs": [],
      "name": "owner",
      "outputs": [
        {
          "internalType": "address",
          "name": "",
          "type": "address"
        }
      ],
      "stateMutability": "view",
      "type": "function"
    },
    {
      "inputs": [
        {
          "internalType": "address",
          "name": "owner",
          "type": "address"
        },
        {
          "internalType": "address",
          "name": "spender",
          "type": "address"
        },
        {
          "internalType": "uint256",
          "name": "value",
          "type": "uint256"
        },
        {
          "internalType": "uint256",
          "name": "deadline",
          "type": "uint256"
        },
        {
          "internalType": "uint8",
          "name": "v",
          "type": "uint8"
        },
        {
          "internalType": "bytes32",
          "name": "r",
          "type": "bytes32"
        },
        {
          "internalType": "bytes32",
          "name": "s",
          "type": "bytes32"
        }
      ],
      "name": "permit",
      "outputs": [],
      "stateMutability": "nonpayable",
      "type": "function"
    },
    {
      "inputs": [
        {
          "internalType": "bytes32",
          "name": "role",
          "type": "bytes32"
        },
        {
          "internalType": "address",
          "name": "account",
          "type": "address"
        }
      ],
      "name": "renounceRole",
      "outputs": [],
      "stateMutability": "nonpayable",
      "type": "function"
    },
    {
      "inputs": [
        {
          "internalType": "bytes32",
          "name": "role",
          "type": "bytes32"
        },
        {
          "internalType": "address",
          "name": "account",
          "type": "address"
        }
      ],
      "name": "revokeRole",
      "outputs": [],
      "stateMutability": "nonpayable",
      "type": "function"
    },
    {
      "inputs": [
        {
          "internalType": "string",
          "name": "_uri",
          "type": "string"
        }
      ],
      "name": "setContractURI",
      "outputs": [],
      "stateMutability": "nonpayable",
      "type": "function"
    },
    {
      "inputs": [
        {
          "internalType": "address",
          "name": "_newOwner",
          "type": "address"
        }
      ],
      "name": "setOwner",
      "outputs": [],
      "stateMutability": "nonpayable",
      "type": "function"
    },
    {
      "inputs": [],
      "name": "symbol",
      "outputs": [
        {
          "internalType": "string",
          "name": "",
          "type": "string"
        }
      ],
      "stateMutability": "view",
      "type": "function"
    },
    {
      "inputs": [],
      "name": "totalSupply",
      "outputs": [
        {
          "internalType": "uint256",
          "name": "",
          "type": "uint256"
        }
      ],
      "stateMutability": "view",
      "type": "function"
    },
    {
      "inputs": [
        {
          "internalType": "address",
          "name": "to",
          "type": "address"
        },
        {
          "internalType": "uint256",
          "name": "amount",
          "type": "uint256"
        }
      ],
      "name": "transfer",
      "outputs": [
        {
          "internalType": "bool",
          "name": "",
          "type": "bool"
        }
      ],
      "stateMutability": "nonpayable",
      "type": "function"
    },
    {
      "inputs": [
        {
          "internalType": "address",
          "name": "from",
          "type": "address"
        },
        {
          "internalType": "address",
          "name": "to",
          "type": "address"
        },
        {
          "internalType": "uint256",
          "name": "amount",
          "type": "uint256"
        }
      ],
      "name": "transferFrom",
      "outputs": [
        {
          "internalType": "bool",
          "name": "",
          "type": "bool"
        }
      ],
      "stateMutability": "nonpayable",
      "type": "function"
    }
  ],
  "bytecode": "0x6101006040527f6e71edae12b1b97f4d1f60370fef10105fa2faae0126114a169c64845d6126c960e0908152503480156200003957600080fd5b50336040518060400160405280601281526020017f536f7672616e205765616c74682046756e6400000000000000000000000000008152506040518060400160405280600381526020017f5357460000000000000000000000000000000000000000000000000000000000815250818181818160059081620000bc91906200081e565b508060069081620000ce91906200081e565b5050504660a081815250503073ffffffffffffffffffffffffffffffffffffffff1660c08173ffffffffffffffffffffffffffffffffffffffff16815250506200011d620001b860201b60201c565b60808181525050505062000137836200024660201b60201c565b5050506200016c7f9f2df0fed2c77648de5860a4cc508cd0818c85b8b8a1ab4ceeef8d981c8956a6336200030c60201b60201c565b620001b27f9f2df0fed2c77648de5860a4cc508cd0818c85b8b8a1ab4ceeef8d981c8956a6732a5269e92c48829fdf21d8892c23e894b11d15e36200030c60201b60201c565b62000a3d565b60007f8b73c3c69bb8fe3d512ecc4cf759cc79239f7b179b0ffacaa9a75d522b39400f620001eb6200033460201b60201c565b805190602001207fc89efdaa54c0f20c7adf612882df0950f5a951637e0307cdcb4c672f298b8bc646306040516020016200022b95949392919062000976565b60405160208183030381529060405280519060200120905090565b6000600160009054906101000a900473ffffffffffffffffffffffffffffffffffffffff16905081600160006101000a81548173ffffffffffffffffffffffffffffffffffffffff021916908373ffffffffffffffffffffffffffffffffffffffff1602179055508173ffffffffffffffffffffffffffffffffffffffff168173ffffffffffffffffffffffffffffffffffffffff167f8292fce18fa69edf4db7b94ea2e58241df0ae57f97e0a6c9b29067028bf92d7660405160405180910390a35050565b6200031e8282620003ce60201b60201c565b6200033082826200049660201b60201c565b5050565b60606005805462000345906200060d565b80601f016020809104026020016040519081016040528092919081815260200182805462000373906200060d565b8015620003c45780601f106200039857610100808354040283529160200191620003c4565b820191906000526020600020905b815481529060010190602001808311620003a657829003601f168201915b5050505050905090565b60016008600084815260200190815260200160002060008373ffffffffffffffffffffffffffffffffffffffff1673ffffffffffffffffffffffffffffffffffffffff16815260200190815260200160002060006101000a81548160ff0219169083151502179055503373ffffffffffffffffffffffffffffffffffffffff168173ffffffffffffffffffffffffffffffffffffffff16837f2f8788117e7eff1d82e926ec794901d17c78024a50270940304540a733656f0d60405160405180910390a45050565b6000600a60008481526020019081526020016000206000015490506001600a60008581526020019081526020016000206000016000828254620004da919062000a02565b9250508190555081600a6000858152602001908152602001600020600101600083815260200190815260200160002060006101000a81548173ffffffffffffffffffffffffffffffffffffffff021916908373ffffffffffffffffffffffffffffffffffffffff16021790555080600a600085815260200190815260200160002060020160008473ffffffffffffffffffffffffffffffffffffffff1673ffffffffffffffffffffffffffffffffffffffff16815260200190815260200160002081905550505050565b600081519050919050565b7f4e487b7100000000000000000000000000000000000000000000000000000000600052604160045260246000fd5b7f4e487b7100000000000000000000000000000000000000000000000000000000600052602260045260246000fd5b600060028204905060018216806200062657607f821691505b6020821081036200063c576200063b620005de565b5b50919050565b60008190508160005260206000209050919050565b60006020601f8301049050919050565b600082821b905092915050565b600060088302620006a67fffffffffffffffffffffffffffffffffffffffffffffffffffffffffffffffff8262000667565b620006b2868362000667565b95508019841693508086168417925050509392505050565b6000819050919050565b6000819050919050565b6000620006ff620006f9620006f384620006ca565b620006d4565b620006ca565b9050919050565b6000819050919050565b6200071b83620006de565b620007336200072a8262000706565b84845462000674565b825550505050565b600090565b6200074a6200073b565b6200075781848462000710565b505050565b5b818110156200077f576200077360008262000740565b6001810190506200075d565b5050565b601f821115620007ce57620007988162000642565b620007a38462000657565b81016020851015620007b3578190505b620007cb620007c28562000657565b8301826200075c565b50505b505050565b600082821c905092915050565b6000620007f360001984600802620007d3565b1980831691505092915050565b60006200080e8383620007e0565b9150826002028217905092915050565b6200082982620005a4565b67ffffffffffffffff811115620008455762000844620005af565b5b6200085182546200060d565b6200085e82828562000783565b600060209050601f83116001811462000896576000841562000881578287015190505b6200088d858262000800565b865550620008fd565b601f198416620008a68662000642565b60005b82811015620008d057848901518255600182019150602085019450602081019050620008a9565b86831015620008f05784890151620008ec601f891682620007e0565b8355505b6001600288020188555050505b505050505050565b6000819050919050565b6200091a8162000905565b82525050565b6200092b81620006ca565b82525050565b600073ffffffffffffffffffffffffffffffffffffffff82169050919050565b60006200095e8262000931565b9050919050565b620009708162000951565b82525050565b600060a0820190506200098d60008301886200090f565b6200099c60208301876200090f565b620009ab60408301866200090f565b620009ba606083018562000920565b620009c9608083018462000965565b9695505050505050565b7f4e487b7100000000000000000000000000000000000000000000000000000000600052601160045260246000fd5b600062000a0f82620006ca565b915062000a1c83620006ca565b925082820190508082111562000a375762000a36620009d3565b5b92915050565b60805160a05160c05160e0516145ee62000a776000396000611569015260006108f50152600061094b0152600061097401526145ee6000f3fe608060405234801561001057600080fd5b50600436106101fb5760003560e01c80637ecebe001161011a578063a457c2d7116100ad578063d505accf1161007c578063d505accf14610622578063d53913931461063e578063d547741f1461065c578063dd62ed3e14610678578063e8a3d485146106a8576101fb565b8063a457c2d714610562578063a9059cbb14610592578063ac9650d8146105c2578063ca15c873146105f2576101fb565b8063938e3d7b116100e9578063938e3d7b146104da57806395d89b41146104f6578063a217fddf14610514578063a32fa5b314610532576101fb565b80637ecebe001461042c5780638da5cb5b1461045c5780639010d07c1461047a57806391d14854146104aa576101fb565b80633644e5151161019257806342966c681161016157806342966c68146103a8578063449a52f8146103c457806370a08231146103e057806379cc679014610410576101fb565b80633644e5151461032257806336568abe14610340578063395093511461035c57806340c10f191461038c576101fb565b806323b872dd116101ce57806323b872dd14610288578063248a9ca3146102b85780632f2ff15d146102e8578063313ce56714610304576101fb565b806306fdde0314610200578063095ea7b31461021e57806313af40351461024e57806318160ddd1461026a575b600080fd5b6102086106c6565b6040516102159190612cdb565b60405180910390f35b61023860048036038101906102339190612da5565b610758565b6040516102459190612e00565b60405180910390f35b61026860048036038101906102639190612e1b565b61077b565b005b6102726107c5565b60405161027f9190612e57565b60405180910390f35b6102a2600480360381019061029d9190612e72565b6107cf565b6040516102af9190612e00565b60405180910390f35b6102d260048036038101906102cd9190612efb565b6107fe565b6040516102df9190612f37565b60405180910390f35b61030260048036038101906102fd9190612f52565b61081b565b005b61030c6108e8565b6040516103199190612fae565b60405180910390f35b61032a6108f1565b6040516103379190612f37565b60405180910390f35b61035a60048036038101906103559190612f52565b6109a8565b005b61037660048036038101906103719190612da5565b610a28565b6040516103839190612e00565b60405180910390f35b6103a660048036038101906103a19190612da5565b610ad2565b005b6103c260048036038101906103bd9190612fc9565b610b0c565b005b6103de60048036038101906103d99190612da5565b610b64565b005b6103fa60048036038101906103f59190612e1b565b610bfc565b6040516104079190612e57565b60405180910390f35b61042a60048036038101906104259190612da5565b610c45565b005b61044660048036038101906104419190612e1b565b610d16565b6040516104539190612e57565b60405180910390f35b610464610d66565b6040516104719190613005565b60405180910390f35b610494600480360381019061048f9190613020565b610d90565b6040516104a19190613005565b60405180910390f35b6104c460048036038101906104bf9190612f52565b610f41565b6040516104d19190612e00565b60405180910390f35b6104f460048036038101906104ef9190613195565b610fa9565b005b6104fe610ff3565b60405161050b9190612cdb565b60405180910390f35b61051c611085565b6040516105299190612f37565b60405180910390f35b61054c60048036038101906105479190612f52565b61108c565b6040516105599190612e00565b60405180910390f35b61057c60048036038101906105779190612da5565b611160565b6040516105899190612e00565b60405180910390f35b6105ac60048036038101906105a79190612da5565b61124a565b6040516105b99190612e00565b60405180910390f35b6105dc60048036038101906105d7919061323e565b61126d565b6040516105e991906133a2565b60405180910390f35b61060c60048036038101906106079190612efb565b611435565b6040516106199190612e57565b60405180910390f35b61063c600480360381019061063791906133f0565b611522565b005b61064661166c565b6040516106539190612f37565b60405180910390f35b61067660048036038101906106719190612f52565b611690565b005b610692600480360381019061068d9190613492565b6116bb565b60405161069f9190612e57565b60405180910390f35b6106b0611742565b6040516106bd9190612cdb565b60405180910390f35b6060600580546106d590613501565b80601f016020809104026020016040519081016040528092919081815260200182805461070190613501565b801561074e5780601f106107235761010080835404028352916020019161074e565b820191906000526020600020905b81548152906001019060200180831161073157829003601f168201915b5050505050905090565b6000806107636117d0565b90506107708185856117d8565b600191505092915050565b6107836119a1565b6107b9576040517f2d99739600000000000000000000000000000000000000000000000000000000815260040160405180910390fd5b6107c2816119de565b50565b6000600454905090565b6000806107da6117d0565b90506107e7858285611aa4565b6107f2858585611b30565b60019150509392505050565b600060096000838152602001908152602001600020549050919050565b610838600960008481526020019081526020016000205433611db2565b6008600083815260200190815260200160002060008273ffffffffffffffffffffffffffffffffffffffff1673ffffffffffffffffffffffffffffffffffffffff16815260200190815260200160002060009054906101000a900460ff16156108da5780826040517fd49c166a0000000000000000000000000000000000000000000000000000000081526004016108d1929190613532565b60405180910390fd5b6108e48282611e57565b5050565b60006012905090565b60007f000000000000000000000000000000000000000000000000000000000000000073ffffffffffffffffffffffffffffffffffffffff163073ffffffffffffffffffffffffffffffffffffffff1614801561096d57507f000000000000000000000000000000000000000000000000000000000000000046145b1561099a577f000000000000000000000000000000000000000000000000000000000000000090506109a5565b6109a2611e6f565b90505b90565b8073ffffffffffffffffffffffffffffffffffffffff163373ffffffffffffffffffffffffffffffffffffffff1614610a1a5733816040517f4169c622000000000000000000000000000000000000000000000000000000008152600401610a1192919061355b565b60405180910390fd5b610a248282611ef3565b5050565b600080610a336117d0565b9050610ac7818585600360008673ffffffffffffffffffffffffffffffffffffffff1673ffffffffffffffffffffffffffffffffffffffff16815260200190815260200160002060008973ffffffffffffffffffffffffffffffffffffffff1673ffffffffffffffffffffffffffffffffffffffff16815260200190815260200160002054610ac291906135b3565b6117d8565b600191505092915050565b7f9f2df0fed2c77648de5860a4cc508cd0818c85b8b8a1ab4ceeef8d981c8956a6610afd8133611db2565b610b078383611f0b565b505050565b80610b1633610bfc565b1015610b57576040517f08c379a0000000000000000000000000000000000000000000000000000000008152600401610b4e90613633565b60405180910390fd5b610b61338261206b565b50565b610b6c612243565b610bab576040517f08c379a0000000000000000000000000000000000000000000000000000000008152600401610ba29061369f565b60405180910390fd5b60008103610bee576040517f08c379a0000000000000000000000000000000000000000000000000000000008152600401610be59061370b565b60405180910390fd5b610bf88282611f0b565b5050565b6000600260008373ffffffffffffffffffffffffffffffffffffffff1673ffffffffffffffffffffffffffffffffffffffff168152602001908152602001600020549050919050565b610c4d612280565b610c8c576040517f08c379a0000000000000000000000000000000000000000000000000000000008152600401610c8390613777565b60405180910390fd5b80610c9683610bfc565b1015610cd7576040517f08c379a0000000000000000000000000000000000000000000000000000000008152600401610cce90613633565b60405180910390fd5b600081610ce484336116bb565b610cee9190613797565b9050610cfc833360006117d8565b610d078333836117d8565b610d11838361206b565b505050565b6000610d5f600760008473ffffffffffffffffffffffffffffffffffffffff1673ffffffffffffffffffffffffffffffffffffffff1681526020019081526020016000206122bd565b9050919050565b6000600160009054906101000a900473ffffffffffffffffffffffffffffffffffffffff16905090565b600080600a6000858152602001908152602001600020600001549050600080600090505b82811015610f3757600073ffffffffffffffffffffffffffffffffffffffff16600a6000888152602001908152602001600020600101600083815260200190815260200160002060009054906101000a900473ffffffffffffffffffffffffffffffffffffffff1673ffffffffffffffffffffffffffffffffffffffff1614610ea457848203610e9057600a6000878152602001908152602001600020600101600082815260200190815260200160002060009054906101000a900473ffffffffffffffffffffffffffffffffffffffff169350505050610f3b565b600182610e9d91906135b3565b9150610f23565b610eaf866000610f41565b8015610f0d5750600a600087815260200190815260200160002060020160008073ffffffffffffffffffffffffffffffffffffffff1673ffffffffffffffffffffffffffffffffffffffff1681526020019081526020016000205481145b15610f2257600182610f1f91906135b3565b91505b5b600181610f3091906135b3565b9050610db4565b5050505b92915050565b60006008600084815260200190815260200160002060008373ffffffffffffffffffffffffffffffffffffffff1673ffffffffffffffffffffffffffffffffffffffff16815260200190815260200160002060009054906101000a900460ff16905092915050565b610fb16122cb565b610fe7576040517f9f7f092500000000000000000000000000000000000000000000000000000000815260040160405180910390fd5b610ff081612308565b50565b60606006805461100290613501565b80601f016020809104026020016040519081016040528092919081815260200182805461102e90613501565b801561107b5780601f106110505761010080835404028352916020019161107b565b820191906000526020600020905b81548152906001019060200180831161105e57829003601f168201915b5050505050905090565b6000801b81565b60006008600084815260200190815260200160002060008073ffffffffffffffffffffffffffffffffffffffff1673ffffffffffffffffffffffffffffffffffffffff16815260200190815260200160002060009054906101000a900460ff16611155576008600084815260200190815260200160002060008373ffffffffffffffffffffffffffffffffffffffff1673ffffffffffffffffffffffffffffffffffffffff16815260200190815260200160002060009054906101000a900460ff16905061115a565b600190505b92915050565b60008061116b6117d0565b90506000600360008373ffffffffffffffffffffffffffffffffffffffff1673ffffffffffffffffffffffffffffffffffffffff16815260200190815260200160002060008673ffffffffffffffffffffffffffffffffffffffff1673ffffffffffffffffffffffffffffffffffffffff16815260200190815260200160002054905083811015611231576040517f08c379a00000000000000000000000000000000000000000000000000000000081526004016112289061383d565b60405180910390fd5b61123e82868684036117d8565b60019250505092915050565b6000806112556117d0565b9050611262818585611b30565b600191505092915050565b60608282905067ffffffffffffffff81111561128c5761128b61306a565b5b6040519080825280602002602001820160405280156112bf57816020015b60608152602001906001900390816112aa5790505b50905060006112cc6117d0565b905060008173ffffffffffffffffffffffffffffffffffffffff163373ffffffffffffffffffffffffffffffffffffffff161415905060005b8585905081101561142c578115611389576113663087878481811061132d5761132c61385d565b5b905060200281019061133f919061389b565b8660405160200161135293929190613976565b6040516020818303038152906040526123e3565b8482815181106113795761137861385d565b5b6020026020010181905250611419565b6113fa308787848181106113a05761139f61385d565b5b90506020028101906113b2919061389b565b8080601f016020809104026020016040519081016040528093929190818152602001838380828437600081840152601f19601f820116905080830192505050505050506123e3565b84828151811061140d5761140c61385d565b5b60200260200101819052505b8080611424906139a0565b915050611305565b50505092915050565b600080600a600084815260200190815260200160002060000154905060005b818110156114fb57600073ffffffffffffffffffffffffffffffffffffffff16600a6000868152602001908152602001600020600101600083815260200190815260200160002060009054906101000a900473ffffffffffffffffffffffffffffffffffffffff1673ffffffffffffffffffffffffffffffffffffffff16146114e7576001836114e491906135b3565b92505b6001816114f491906135b3565b9050611454565b50611507836000610f41565b1561151c5760018261151991906135b3565b91505b50919050565b83421115611565576040517f08c379a000000000000000000000000000000000000000000000000000000000815260040161155c90613a34565b60405180910390fd5b60007f00000000000000000000000000000000000000000000000000000000000000008888886115948c612410565b896040516020016115aa96959493929190613a54565b60405160208183030381529060405280519060200120905060006115d56115cf6108f1565b8361246e565b905060006115e5828787876124af565b90508973ffffffffffffffffffffffffffffffffffffffff168173ffffffffffffffffffffffffffffffffffffffff1614611655576040517f08c379a000000000000000000000000000000000000000000000000000000000815260040161164c90613b01565b60405180910390fd5b6116608a8a8a6117d8565b50505050505050505050565b7f9f2df0fed2c77648de5860a4cc508cd0818c85b8b8a1ab4ceeef8d981c8956a681565b6116ad600960008481526020019081526020016000205433611db2565b6116b78282611ef3565b5050565b6000600360008473ffffffffffffffffffffffffffffffffffffffff1673ffffffffffffffffffffffffffffffffffffffff16815260200190815260200160002060008373ffffffffffffffffffffffffffffffffffffffff1673ffffffffffffffffffffffffffffffffffffffff16815260200190815260200160002054905092915050565b6000805461174f90613501565b80601f016020809104026020016040519081016040528092919081815260200182805461177b90613501565b80156117c85780601f1061179d576101008083540402835291602001916117c8565b820191906000526020600020905b8154815290600101906020018083116117ab57829003601f168201915b505050505081565b600033905090565b600073ffffffffffffffffffffffffffffffffffffffff168373ffffffffffffffffffffffffffffffffffffffff1603611847576040517f08c379a000000000000000000000000000000000000000000000000000000000815260040161183e90613b93565b60405180910390fd5b600073ffffffffffffffffffffffffffffffffffffffff168273ffffffffffffffffffffffffffffffffffffffff16036118b6576040517f08c379a00000000000000000000000000000000000000000000000000000000081526004016118ad90613c25565b60405180910390fd5b80600360008573ffffffffffffffffffffffffffffffffffffffff1673ffffffffffffffffffffffffffffffffffffffff16815260200190815260200160002060008473ffffffffffffffffffffffffffffffffffffffff1673ffffffffffffffffffffffffffffffffffffffff168152602001908152602001600020819055508173ffffffffffffffffffffffffffffffffffffffff168373ffffffffffffffffffffffffffffffffffffffff167f8c5be1e5ebec7d5bd14f71427d1e84f3dd0314c0f7b2291e5b200ac8c7c3b925836040516119949190612e57565b60405180910390a3505050565b60006119ab610d66565b73ffffffffffffffffffffffffffffffffffffffff163373ffffffffffffffffffffffffffffffffffffffff1614905090565b6000600160009054906101000a900473ffffffffffffffffffffffffffffffffffffffff16905081600160006101000a81548173ffffffffffffffffffffffffffffffffffffffff021916908373ffffffffffffffffffffffffffffffffffffffff1602179055508173ffffffffffffffffffffffffffffffffffffffff168173ffffffffffffffffffffffffffffffffffffffff167f8292fce18fa69edf4db7b94ea2e58241df0ae57f97e0a6c9b29067028bf92d7660405160405180910390a35050565b6000611ab084846116bb565b90507fffffffffffffffffffffffffffffffffffffffffffffffffffffffffffffffff8114611b2a5781811015611b1c576040517f08c379a0000000000000000000000000000000000000000000000000000000008152600401611b1390613c91565b60405180910390fd5b611b2984848484036117d8565b5b50505050565b600073ffffffffffffffffffffffffffffffffffffffff168373ffffffffffffffffffffffffffffffffffffffff1603611b9f576040517f08c379a0000000000000000000000000000000000000000000000000000000008152600401611b9690613d23565b60405180910390fd5b600073ffffffffffffffffffffffffffffffffffffffff168273ffffffffffffffffffffffffffffffffffffffff1603611c0e576040517f08c379a0000000000000000000000000000000000000000000000000000000008152600401611c0590613db5565b60405180910390fd5b611c198383836124da565b6000600260008573ffffffffffffffffffffffffffffffffffffffff1673ffffffffffffffffffffffffffffffffffffffff16815260200190815260200160002054905081811015611ca0576040517f08c379a0000000000000000000000000000000000000000000000000000000008152600401611c9790613e47565b60405180910390fd5b818103600260008673ffffffffffffffffffffffffffffffffffffffff1673ffffffffffffffffffffffffffffffffffffffff1681526020019081526020016000208190555081600260008573ffffffffffffffffffffffffffffffffffffffff1673ffffffffffffffffffffffffffffffffffffffff1681526020019081526020016000206000828254611d3591906135b3565b925050819055508273ffffffffffffffffffffffffffffffffffffffff168473ffffffffffffffffffffffffffffffffffffffff167fddf252ad1be2c89b69c2b068fc378daa952ba7f163c4a11628f55a4df523b3ef84604051611d999190612e57565b60405180910390a3611dac8484846124df565b50505050565b6008600083815260200190815260200160002060008273ffffffffffffffffffffffffffffffffffffffff1673ffffffffffffffffffffffffffffffffffffffff16815260200190815260200160002060009054906101000a900460ff16611e535780826040517f0878b106000000000000000000000000000000000000000000000000000000008152600401611e4a929190613532565b60405180910390fd5b5050565b611e6182826124e4565b611e6b82826125ac565b5050565b60007f8b73c3c69bb8fe3d512ecc4cf759cc79239f7b179b0ffacaa9a75d522b39400f611e9a6106c6565b805190602001207fc89efdaa54c0f20c7adf612882df0950f5a951637e0307cdcb4c672f298b8bc64630604051602001611ed8959493929190613e67565b60405160208183030381529060405280519060200120905090565b611efd82826126b8565b611f078282612781565b5050565b600073ffffffffffffffffffffffffffffffffffffffff168273ffffffffffffffffffffffffffffffffffffffff1603611f7a576040517f08c379a0000000000000000000000000000000000000000000000000000000008152600401611f7190613f06565b60405180910390fd5b611f86600083836124da565b8060046000828254611f9891906135b3565b9250508190555080600260008473ffffffffffffffffffffffffffffffffffffffff1673ffffffffffffffffffffffffffffffffffffffff1681526020019081526020016000206000828254611fee91906135b3565b925050819055508173ffffffffffffffffffffffffffffffffffffffff16600073ffffffffffffffffffffffffffffffffffffffff167fddf252ad1be2c89b69c2b068fc378daa952ba7f163c4a11628f55a4df523b3ef836040516120539190612e57565b60405180910390a3612067600083836124df565b5050565b600073ffffffffffffffffffffffffffffffffffffffff168273ffffffffffffffffffffffffffffffffffffffff16036120da576040517f08c379a00000000000000000000000000000000000000000000000000000000081526004016120d190613f98565b60405180910390fd5b6120e6826000836124da565b6000600260008473ffffffffffffffffffffffffffffffffffffffff1673ffffffffffffffffffffffffffffffffffffffff1681526020019081526020016000205490508181101561216d576040517f08c379a00000000000000000000000000000000000000000000000000000000081526004016121649061402a565b60405180910390fd5b818103600260008573ffffffffffffffffffffffffffffffffffffffff1673ffffffffffffffffffffffffffffffffffffffff1681526020019081526020016000208190555081600460008282546121c59190613797565b92505081905550600073ffffffffffffffffffffffffffffffffffffffff168373ffffffffffffffffffffffffffffffffffffffff167fddf252ad1be2c89b69c2b068fc378daa952ba7f163c4a11628f55a4df523b3ef8460405161222a9190612e57565b60405180910390a361223e836000846124df565b505050565b600061224d610d66565b73ffffffffffffffffffffffffffffffffffffffff163373ffffffffffffffffffffffffffffffffffffffff1614905090565b600061228a610d66565b73ffffffffffffffffffffffffffffffffffffffff163373ffffffffffffffffffffffffffffffffffffffff1614905090565b600081600001549050919050565b60006122d5610d66565b73ffffffffffffffffffffffffffffffffffffffff163373ffffffffffffffffffffffffffffffffffffffff1614905090565b600080805461231690613501565b80601f016020809104026020016040519081016040528092919081815260200182805461234290613501565b801561238f5780601f106123645761010080835404028352916020019161238f565b820191906000526020600020905b81548152906001019060200180831161237257829003601f168201915b5050505050905081600090816123a591906141f6565b507fc9c7c3fe08b88b4df9d4d47ef47d2c43d55c025a0ba88ca442580ed9e7348a1681836040516123d79291906142c8565b60405180910390a15050565b606061240883836040518060600160405280602781526020016145926027913961287f565b905092915050565b600080600760008473ffffffffffffffffffffffffffffffffffffffff1673ffffffffffffffffffffffffffffffffffffffff168152602001908152602001600020905061245d816122bd565b915061246881612905565b50919050565b60006040517f190100000000000000000000000000000000000000000000000000000000000081528360028201528260228201526042812091505092915050565b60008060006124c08787878761291b565b915091506124cd816129fd565b8192505050949350505050565b505050565b505050565b60016008600084815260200190815260200160002060008373ffffffffffffffffffffffffffffffffffffffff1673ffffffffffffffffffffffffffffffffffffffff16815260200190815260200160002060006101000a81548160ff0219169083151502179055503373ffffffffffffffffffffffffffffffffffffffff168173ffffffffffffffffffffffffffffffffffffffff16837f2f8788117e7eff1d82e926ec794901d17c78024a50270940304540a733656f0d60405160405180910390a45050565b6000600a60008481526020019081526020016000206000015490506001600a600085815260200190815260200160002060000160008282546125ee91906135b3565b9250508190555081600a6000858152602001908152602001600020600101600083815260200190815260200160002060006101000a81548173ffffffffffffffffffffffffffffffffffffffff021916908373ffffffffffffffffffffffffffffffffffffffff16021790555080600a600085815260200190815260200160002060020160008473ffffffffffffffffffffffffffffffffffffffff1673ffffffffffffffffffffffffffffffffffffffff16815260200190815260200160002081905550505050565b6126c28282611db2565b6008600083815260200190815260200160002060008273ffffffffffffffffffffffffffffffffffffffff1673ffffffffffffffffffffffffffffffffffffffff16815260200190815260200160002060006101000a81549060ff02191690553373ffffffffffffffffffffffffffffffffffffffff168173ffffffffffffffffffffffffffffffffffffffff16837ff6391f5c32d9c69d2a47ea670b442974b53935d1edc7fd64eb21e047a839171b60405160405180910390a45050565b6000600a600084815260200190815260200160002060020160008373ffffffffffffffffffffffffffffffffffffffff1673ffffffffffffffffffffffffffffffffffffffff168152602001908152602001600020549050600a6000848152602001908152602001600020600101600082815260200190815260200160002060006101000a81549073ffffffffffffffffffffffffffffffffffffffff0219169055600a600084815260200190815260200160002060020160008373ffffffffffffffffffffffffffffffffffffffff1673ffffffffffffffffffffffffffffffffffffffff16815260200190815260200160002060009055505050565b60606000808573ffffffffffffffffffffffffffffffffffffffff16856040516128a99190614330565b600060405180830381855af49150503d80600081146128e4576040519150601f19603f3d011682016040523d82523d6000602084013e6128e9565b606091505b50915091506128fa86838387612b63565b925050509392505050565b6001816000016000828254019250508190555050565b6000807f7fffffffffffffffffffffffffffffff5d576e7357a4501ddfe92f46681b20a08360001c11156129565760006003915091506129f4565b60006001878787876040516000815260200160405260405161297b9493929190614347565b6020604051602081039080840390855afa15801561299d573d6000803e3d6000fd5b505050602060405103519050600073ffffffffffffffffffffffffffffffffffffffff168173ffffffffffffffffffffffffffffffffffffffff16036129eb576000600192509250506129f4565b80600092509250505b94509492505050565b60006004811115612a1157612a1061438c565b5b816004811115612a2457612a2361438c565b5b0315612b605760016004811115612a3e57612a3d61438c565b5b816004811115612a5157612a5061438c565b5b03612a91576040517f08c379a0000000000000000000000000000000000000000000000000000000008152600401612a8890614407565b60405180910390fd5b60026004811115612aa557612aa461438c565b5b816004811115612ab857612ab761438c565b5b03612af8576040517f08c379a0000000000000000000000000000000000000000000000000000000008152600401612aef90614473565b60405180910390fd5b60036004811115612b0c57612b0b61438c565b5b816004811115612b1f57612b1e61438c565b5b03612b5f576040517f08c379a0000000000000000000000000000000000000000000000000000000008152600401612b5690614505565b60405180910390fd5b5b50565b60608315612bc5576000835103612bbd57612b7d85612bd8565b612bbc576040517f08c379a0000000000000000000000000000000000000000000000000000000008152600401612bb390614571565b60405180910390fd5b5b829050612bd0565b612bcf8383612bfb565b5b949350505050565b6000808273ffffffffffffffffffffffffffffffffffffffff163b119050919050565b600082511115612c0e5781518083602001fd5b806040517f08c379a0000000000000000000000000000000000000000000000000000000008152600401612c429190612cdb565b60405180910390fd5b600081519050919050565b600082825260208201905092915050565b60005b83811015612c85578082015181840152602081019050612c6a565b60008484015250505050565b6000601f19601f8301169050919050565b6000612cad82612c4b565b612cb78185612c56565b9350612cc7818560208601612c67565b612cd081612c91565b840191505092915050565b60006020820190508181036000830152612cf58184612ca2565b905092915050565b6000604051905090565b600080fd5b600080fd5b600073ffffffffffffffffffffffffffffffffffffffff82169050919050565b6000612d3c82612d11565b9050919050565b612d4c81612d31565b8114612d5757600080fd5b50565b600081359050612d6981612d43565b92915050565b6000819050919050565b612d8281612d6f565b8114612d8d57600080fd5b50565b600081359050612d9f81612d79565b92915050565b60008060408385031215612dbc57612dbb612d07565b5b6000612dca85828601612d5a565b9250506020612ddb85828601612d90565b9150509250929050565b60008115159050919050565b612dfa81612de5565b82525050565b6000602082019050612e156000830184612df1565b92915050565b600060208284031215612e3157612e30612d07565b5b6000612e3f84828501612d5a565b91505092915050565b612e5181612d6f565b82525050565b6000602082019050612e6c6000830184612e48565b92915050565b600080600060608486031215612e8b57612e8a612d07565b5b6000612e9986828701612d5a565b9350506020612eaa86828701612d5a565b9250506040612ebb86828701612d90565b9150509250925092565b6000819050919050565b612ed881612ec5565b8114612ee357600080fd5b50565b600081359050612ef581612ecf565b92915050565b600060208284031215612f1157612f10612d07565b5b6000612f1f84828501612ee6565b91505092915050565b612f3181612ec5565b82525050565b6000602082019050612f4c6000830184612f28565b92915050565b60008060408385031215612f6957612f68612d07565b5b6000612f7785828601612ee6565b9250506020612f8885828601612d5a565b9150509250929050565b600060ff82169050919050565b612fa881612f92565b82525050565b6000602082019050612fc36000830184612f9f565b92915050565b600060208284031215612fdf57612fde612d07565b5b6000612fed84828501612d90565b91505092915050565b612fff81612d31565b82525050565b600060208201905061301a6000830184612ff6565b92915050565b6000806040838503121561303757613036612d07565b5b600061304585828601612ee6565b925050602061305685828601612d90565b9150509250929050565b600080fd5b600080fd5b7f4e487b7100000000000000000000000000000000000000000000000000000000600052604160045260246000fd5b6130a282612c91565b810181811067ffffffffffffffff821117156130c1576130c061306a565b5b80604052505050565b60006130d4612cfd565b90506130e08282613099565b919050565b600067ffffffffffffffff821115613100576130ff61306a565b5b61310982612c91565b9050602081019050919050565b82818337600083830152505050565b6000613138613133846130e5565b6130ca565b90508281526020810184848401111561315457613153613065565b5b61315f848285613116565b509392505050565b600082601f83011261317c5761317b613060565b5b813561318c848260208601613125565b91505092915050565b6000602082840312156131ab576131aa612d07565b5b600082013567ffffffffffffffff8111156131c9576131c8612d0c565b5b6131d584828501613167565b91505092915050565b600080fd5b600080fd5b60008083601f8401126131fe576131fd613060565b5b8235905067ffffffffffffffff81111561321b5761321a6131de565b5b602083019150836020820283011115613237576132366131e3565b5b9250929050565b6000806020838503121561325557613254612d07565b5b600083013567ffffffffffffffff81111561327357613272612d0c565b5b61327f858286016131e8565b92509250509250929050565b600081519050919050565b600082825260208201905092915050565b6000819050602082019050919050565b600081519050919050565b600082825260208201905092915050565b60006132de826132b7565b6132e881856132c2565b93506132f8818560208601612c67565b61330181612c91565b840191505092915050565b600061331883836132d3565b905092915050565b6000602082019050919050565b60006133388261328b565b6133428185613296565b935083602082028501613354856132a7565b8060005b858110156133905784840389528151613371858261330c565b945061337c83613320565b925060208a01995050600181019050613358565b50829750879550505050505092915050565b600060208201905081810360008301526133bc818461332d565b905092915050565b6133cd81612f92565b81146133d857600080fd5b50565b6000813590506133ea816133c4565b92915050565b600080600080600080600060e0888a03121561340f5761340e612d07565b5b600061341d8a828b01612d5a565b975050602061342e8a828b01612d5a565b965050604061343f8a828b01612d90565b95505060606134508a828b01612d90565b94505060806134618a828b016133db565b93505060a06134728a828b01612ee6565b92505060c06134838a828b01612ee6565b91505092959891949750929550565b600080604083850312156134a9576134a8612d07565b5b60006134b785828601612d5a565b92505060206134c885828601612d5a565b9150509250929050565b7f4e487b7100000000000000000000000000000000000000000000000000000000600052602260045260246000fd5b6000600282049050600182168061351957607f821691505b60208210810361352c5761352b6134d2565b5b50919050565b60006040820190506135476000830185612ff6565b6135546020830184612f28565b9392505050565b60006040820190506135706000830185612ff6565b61357d6020830184612ff6565b9392505050565b7f4e487b7100000000000000000000000000000000000000000000000000000000600052601160045260246000fd5b60006135be82612d6f565b91506135c983612d6f565b92508282019050808211156135e1576135e0613584565b5b92915050565b7f6e6f7420656e6f7567682062616c616e63650000000000000000000000000000600082015250565b600061361d601283612c56565b9150613628826135e7565b602082019050919050565b6000602082019050818103600083015261364c81613610565b9050919050565b7f4e6f7420617574686f72697a656420746f206d696e742e000000000000000000600082015250565b6000613689601783612c56565b915061369482613653565b602082019050919050565b600060208201905081810360008301526136b88161367c565b9050919050565b7f4d696e74696e67207a65726f20746f6b656e732e000000000000000000000000600082015250565b60006136f5601483612c56565b9150613700826136bf565b602082019050919050565b60006020820190508181036000830152613724816136e8565b9050919050565b7f4e6f7420617574686f72697a656420746f206275726e2e000000000000000000600082015250565b6000613761601783612c56565b915061376c8261372b565b602082019050919050565b6000602082019050818103600083015261379081613754565b9050919050565b60006137a282612d6f565b91506137ad83612d6f565b92508282039050818111156137c5576137c4613584565b5b92915050565b7f45524332303a2064656372656173656420616c6c6f77616e63652062656c6f7760008201527f207a65726f000000000000000000000000000000000000000000000000000000602082015250565b6000613827602583612c56565b9150613832826137cb565b604082019050919050565b600060208201905081810360008301526138568161381a565b9050919050565b7f4e487b7100000000000000000000000000000000000000000000000000000000600052603260045260246000fd5b600080fd5b600080fd5b600080fd5b600080833560016020038436030381126138b8576138b761388c565b5b80840192508235915067ffffffffffffffff8211156138da576138d9613891565b5b6020830192506001820236038313156138f6576138f5613896565b5b509250929050565b600081905092915050565b600061391583856138fe565b9350613922838584613116565b82840190509392505050565b60008160601b9050919050565b60006139468261392e565b9050919050565b60006139588261393b565b9050919050565b61397061396b82612d31565b61394d565b82525050565b6000613983828587613909565b915061398f828461395f565b601482019150819050949350505050565b60006139ab82612d6f565b91507fffffffffffffffffffffffffffffffffffffffffffffffffffffffffffffffff82036139dd576139dc613584565b5b600182019050919050565b7f45524332305065726d69743a206578706972656420646561646c696e65000000600082015250565b6000613a1e601d83612c56565b9150613a29826139e8565b602082019050919050565b60006020820190508181036000830152613a4d81613a11565b9050919050565b600060c082019050613a696000830189612f28565b613a766020830188612ff6565b613a836040830187612ff6565b613a906060830186612e48565b613a9d6080830185612e48565b613aaa60a0830184612e48565b979650505050505050565b7f45524332305065726d69743a20696e76616c6964207369676e61747572650000600082015250565b6000613aeb601e83612c56565b9150613af682613ab5565b602082019050919050565b60006020820190508181036000830152613b1a81613ade565b9050919050565b7f45524332303a20617070726f76652066726f6d20746865207a65726f2061646460008201527f7265737300000000000000000000000000000000000000000000000000000000602082015250565b6000613b7d602483612c56565b9150613b8882613b21565b604082019050919050565b60006020820190508181036000830152613bac81613b70565b9050919050565b7f45524332303a20617070726f766520746f20746865207a65726f20616464726560008201527f7373000000000000000000000000000000000000000000000000000000000000602082015250565b6000613c0f602283612c56565b9150613c1a82613bb3565b604082019050919050565b60006020820190508181036000830152613c3e81613c02565b9050919050565b7f45524332303a20696e73756666696369656e7420616c6c6f77616e6365000000600082015250565b6000613c7b601d83612c56565b9150613c8682613c45565b602082019050919050565b60006020820190508181036000830152613caa81613c6e565b9050919050565b7f45524332303a207472616e736665722066726f6d20746865207a65726f20616460008201527f6472657373000000000000000000000000000000000000000000000000000000602082015250565b6000613d0d602583612c56565b9150613d1882613cb1565b604082019050919050565b60006020820190508181036000830152613d3c81613d00565b9050919050565b7f45524332303a207472616e7366657220746f20746865207a65726f206164647260008201527f6573730000000000000000000000000000000000000000000000000000000000602082015250565b6000613d9f602383612c56565b9150613daa82613d43565b604082019050919050565b60006020820190508181036000830152613dce81613d92565b9050919050565b7f45524332303a207472616e7366657220616d6f756e742065786365656473206260008201527f616c616e63650000000000000000000000000000000000000000000000000000602082015250565b6000613e31602683612c56565b9150613e3c82613dd5565b604082019050919050565b60006020820190508181036000830152613e6081613e24565b9050919050565b600060a082019050613e7c6000830188612f28565b613e896020830187612f28565b613e966040830186612f28565b613ea36060830185612e48565b613eb06080830184612ff6565b9695505050505050565b7f45524332303a206d696e7420746f20746865207a65726f206164647265737300600082015250565b6000613ef0601f83612c56565b9150613efb82613eba565b602082019050919050565b60006020820190508181036000830152613f1f81613ee3565b9050919050565b7f45524332303a206275726e2066726f6d20746865207a65726f2061646472657360008201527f7300000000000000000000000000000000000000000000000000000000000000602082015250565b6000613f82602183612c56565b9150613f8d82613f26565b604082019050919050565b60006020820190508181036000830152613fb181613f75565b9050919050565b7f45524332303a206275726e20616d6f756e7420657863656564732062616c616e60008201527f6365000000000000000000000000000000000000000000000000000000000000602082015250565b6000614014602283612c56565b915061401f82613fb8565b604082019050919050565b6000602082019050818103600083015261404381614007565b9050919050565b60008190508160005260206000209050919050565b60006020601f8301049050919050565b600082821b905092915050565b6000600883026140ac7fffffffffffffffffffffffffffffffffffffffffffffffffffffffffffffffff8261406f565b6140b6868361406f565b95508019841693508086168417925050509392505050565b6000819050919050565b60006140f36140ee6140e984612d6f565b6140ce565b612d6f565b9050919050565b6000819050919050565b61410d836140d8565b614121614119826140fa565b84845461407c565b825550505050565b600090565b614136614129565b614141818484614104565b505050565b5b818110156141655761415a60008261412e565b600181019050614147565b5050565b601f8211156141aa5761417b8161404a565b6141848461405f565b81016020851015614193578190505b6141a761419f8561405f565b830182614146565b50505b505050565b600082821c905092915050565b60006141cd600019846008026141af565b1980831691505092915050565b60006141e683836141bc565b9150826002028217905092915050565b6141ff82612c4b565b67ffffffffffffffff8111156142185761421761306a565b5b6142228254613501565b61422d828285614169565b600060209050601f831160018114614260576000841561424e578287015190505b61425885826141da565b8655506142c0565b601f19841661426e8661404a565b60005b8281101561429657848901518255600182019150602085019450602081019050614271565b868310156142b357848901516142af601f8916826141bc565b8355505b6001600288020188555050505b505050505050565b600060408201905081810360008301526142e28185612ca2565b905081810360208301526142f68184612ca2565b90509392505050565b600061430a826132b7565b61431481856138fe565b9350614324818560208601612c67565b80840191505092915050565b600061433c82846142ff565b915081905092915050565b600060808201905061435c6000830187612f28565b6143696020830186612f9f565b6143766040830185612f28565b6143836060830184612f28565b95945050505050565b7f4e487b7100000000000000000000000000000000000000000000000000000000600052602160045260246000fd5b7f45434453413a20696e76616c6964207369676e61747572650000000000000000600082015250565b60006143f1601883612c56565b91506143fc826143bb565b602082019050919050565b60006020820190508181036000830152614420816143e4565b9050919050565b7f45434453413a20696e76616c6964207369676e6174757265206c656e67746800600082015250565b600061445d601f83612c56565b915061446882614427565b602082019050919050565b6000602082019050818103600083015261448c81614450565b9050919050565b7f45434453413a20696e76616c6964207369676e6174757265202773272076616c60008201527f7565000000000000000000000000000000000000000000000000000000000000602082015250565b60006144ef602283612c56565b91506144fa82614493565b604082019050919050565b6000602082019050818103600083015261451e816144e2565b9050919050565b7f416464726573733a2063616c6c20746f206e6f6e2d636f6e7472616374000000600082015250565b600061455b601d83612c56565b915061456682614525565b602082019050919050565b6000602082019050818103600083015261458a8161454e565b905091905056fe416464726573733a206c6f772d6c6576656c2064656c65676174652063616c6c206661696c6564a264697066735822122078ce88f9a4923180e8a256d3285ffbb2b1c9102f467fe0cadc219c00098b53d264736f6c63430008140033",
  "linkReferences": {},
  "deployedLinkReferences": {}
}